{
  "_format": "hh-sol-artifact-1",
  "contractName": "ATokensAndRatesHelper",
  "sourceName": "contracts/deployments/ATokensAndRatesHelper.sol",
  "abi": [
    {
      "inputs": [
        {
          "internalType": "address payable",
          "name": "_pool",
          "type": "address"
        },
        {
          "internalType": "address",
          "name": "_addressesProvider",
          "type": "address"
        },
        {
          "internalType": "address",
          "name": "_poolConfigurator",
          "type": "address"
        }
      ],
      "stateMutability": "nonpayable",
      "type": "constructor"
    },
    {
      "anonymous": false,
      "inputs": [
        {
          "indexed": true,
          "internalType": "address",
          "name": "previousOwner",
          "type": "address"
        },
        {
          "indexed": true,
          "internalType": "address",
          "name": "newOwner",
          "type": "address"
        }
      ],
      "name": "OwnershipTransferred",
      "type": "event"
    },
    {
      "anonymous": false,
      "inputs": [
        {
          "indexed": false,
          "internalType": "address",
          "name": "aToken",
          "type": "address"
        },
        {
          "indexed": false,
          "internalType": "address",
          "name": "strategy",
          "type": "address"
        }
      ],
      "name": "deployedContracts",
      "type": "event"
    },
    {
      "inputs": [
        {
          "components": [
            {
              "internalType": "address",
              "name": "asset",
              "type": "address"
            },
            {
              "internalType": "uint256",
              "name": "baseLTV",
              "type": "uint256"
            },
            {
              "internalType": "uint256",
              "name": "liquidationThreshold",
              "type": "uint256"
            },
            {
              "internalType": "uint256",
              "name": "liquidationBonus",
              "type": "uint256"
            },
            {
              "internalType": "uint256",
              "name": "reserveFactor",
              "type": "uint256"
            },
            {
              "internalType": "bool",
              "name": "stableBorrowingEnabled",
              "type": "bool"
            },
            {
              "internalType": "bool",
              "name": "borrowingEnabled",
              "type": "bool"
            }
          ],
          "internalType": "struct ATokensAndRatesHelper.ConfigureReserveInput[]",
          "name": "inputParams",
          "type": "tuple[]"
        }
      ],
      "name": "configureReserves",
      "outputs": [],
      "stateMutability": "nonpayable",
      "type": "function"
    },
    {
      "inputs": [
        {
          "components": [
            {
              "internalType": "address",
              "name": "asset",
              "type": "address"
            },
            {
              "internalType": "uint256[6]",
              "name": "rates",
              "type": "uint256[6]"
            }
          ],
          "internalType": "struct ATokensAndRatesHelper.InitDeploymentInput[]",
          "name": "inputParams",
          "type": "tuple[]"
        }
      ],
      "name": "initDeployment",
      "outputs": [],
      "stateMutability": "nonpayable",
      "type": "function"
    },
    {
      "inputs": [],
      "name": "owner",
      "outputs": [
        {
          "internalType": "address",
          "name": "",
          "type": "address"
        }
      ],
      "stateMutability": "view",
      "type": "function"
    },
    {
      "inputs": [],
      "name": "renounceOwnership",
      "outputs": [],
      "stateMutability": "nonpayable",
      "type": "function"
    },
    {
      "inputs": [
        {
          "internalType": "address",
          "name": "newOwner",
          "type": "address"
        }
      ],
      "name": "transferOwnership",
      "outputs": [],
      "stateMutability": "nonpayable",
      "type": "function"
    }
  ],
  "bytecode": "0x608060405234801561001057600080fd5b5060405161467838038061467883398101604081905261002f916100c9565b60006100396100c5565b600080546001600160a01b0319166001600160a01b0383169081178255604051929350917f8be0079c531659141344cd1fd0a4f28419497f9722a3daafe3b4186f6b6457e0908290a350600180546001600160a01b039485166001600160a01b03199182161790915560028054938516938216939093179092556003805491909316911617905561012d565b3390565b6000806000606084860312156100dd578283fd5b83516100e881610115565b60208501519093506100f981610115565b604085015190925061010a81610115565b809150509250925092565b6001600160a01b038116811461012a57600080fd5b50565b61453c8061013c6000396000f3fe608060405234801561001057600080fd5b50600436106100575760003560e01c8063715018a61461005c5780638da5cb5b146100665780639dd8aad514610084578063f2fde38b14610097578063fc123602146100aa575b600080fd5b6100646100bd565b005b61006e610160565b60405161007b919061082d565b60405180910390f35b6100646100923660046107a5565b61016f565b6100646100a5366004610777565b610419565b6100646100b83660046107e5565b610513565b6100c561070d565b6000546001600160a01b03908116911614610116576040805162461bcd60e51b81526020600482018190526024820152600080516020620044e7833981519152604482015290519081900360640190fd5b600080546040516001600160a01b03909116907f8be0079c531659141344cd1fd0a4f28419497f9722a3daafe3b4186f6b6457e0908390a3600080546001600160a01b0319169055565b6000546001600160a01b031690565b61017761070d565b6000546001600160a01b039081169116146101c8576040805162461bcd60e51b81526020600482018190526024820152600080516020620044e7833981519152604482015290519081900360640190fd5b6003546001600160a01b031660005b8281101561041357816001600160a01b0316637c4e560b8585848181106101fa57fe5b61021092602060e0909202019081019150610777565b86868581811061021c57fe5b905060e002016020013587878681811061023257fe5b905060e002016040013588888781811061024857fe5b905060e00201606001356040518563ffffffff1660e01b8152600401610271949392919061088f565b600060405180830381600087803b15801561028b57600080fd5b505af115801561029f573d6000803e3d6000fd5b505050508383828181106102af57fe5b905060e0020160c00160208101906102c7919061080d565b1561037157816001600160a01b031663eede87c18585848181106102e757fe5b6102fd92602060e0909202019081019150610777565b86868581811061030957fe5b905060e0020160a0016020810190610321919061080d565b6040518363ffffffff1660e01b815260040161033e92919061085b565b600060405180830381600087803b15801561035857600080fd5b505af115801561036c573d6000803e3d6000fd5b505050505b816001600160a01b0316634b4e675385858481811061038c57fe5b6103a292602060e0909202019081019150610777565b8686858181106103ae57fe5b905060e00201608001356040518363ffffffff1660e01b81526004016103d5929190610876565b600060405180830381600087803b1580156103ef57600080fd5b505af1158015610403573d6000803e3d6000fd5b5050600190920191506101d79050565b50505050565b61042161070d565b6000546001600160a01b03908116911614610472576040805162461bcd60e51b81526020600482018190526024820152600080516020620044e7833981519152604482015290519081900360640190fd5b6001600160a01b0381166104b85760405162461bcd60e51b8152600401808060200182810382526026815260200180620044c16026913960400191505060405180910390fd5b600080546040516001600160a01b03808516939216917f8be0079c531659141344cd1fd0a4f28419497f9722a3daafe3b4186f6b6457e091a3600080546001600160a01b0319166001600160a01b0392909216919091179055565b61051b61070d565b6000546001600160a01b0390811691161461056c576040805162461bcd60e51b81526020600482018190526024820152600080516020620044e7833981519152604482015290519081900360640190fd5b60005b81811015610708577f1c1768aab1796270c7034dc781c2951065e6afb7a946269746521002443b8ea46040516105a490610711565b604051809103906000f0801580156105c0573d6000803e3d6000fd5b506002546001600160a01b03168585858181106105d957fe5b905060e002016020016000600681106105ee57fe5b60200201358686868181106105ff57fe5b905060e0020160200160016006811061061457fe5b602002013587878781811061062557fe5b905060e0020160200160026006811061063a57fe5b602002013588888881811061064b57fe5b905060e0020160200160036006811061066057fe5b602002013589898981811061067157fe5b905060e0020160200160046006811061068657fe5b60200201358a8a8a81811061069757fe5b905060e002016020016005600681106106ac57fe5b60200201356040516106bd9061071f565b6106cd97969594939291906108b5565b604051809103906000f0801580156106e9573d6000803e3d6000fd5b506040516106f8929190610841565b60405180910390a160010161056f565b505050565b3390565b612c1580620008f183390190565b610fbb806200350683390190565b60008083601f84011261073e578182fd5b50813567ffffffffffffffff811115610755578182fd5b60208301915083602060e08302850101111561077057600080fd5b9250929050565b600060208284031215610788578081fd5b81356001600160a01b038116811461079e578182fd5b9392505050565b600080602083850312156107b7578081fd5b823567ffffffffffffffff8111156107cd578182fd5b6107d98582860161072d565b90969095509350505050565b600080602083850312156107f7578182fd5b823567ffffffffffffffff8111156107cd578283fd5b60006020828403121561081e578081fd5b8135801515811461079e578182fd5b6001600160a01b0391909116815260200190565b6001600160a01b0392831681529116602082015260400190565b6001600160a01b039290921682521515602082015260400190565b6001600160a01b03929092168252602082015260400190565b6001600160a01b0394909416845260208401929092526040830152606082015260800190565b6001600160a01b03979097168752602087019590955260408601939093526060850191909152608084015260a083015260c082015260e0019056fe6080604052600080553480156200001557600080fd5b50604080518082018252600b8082526a105513d2d15397d253541360aa1b60208084018281528551808701909652928552840152815191929160009162000060916037919062000094565b5081516200007690603890602085019062000094565b506039805460ff191660ff9290921691909117905550620001409050565b828054600181600116156101000203166002900490600052602060002090601f016020900481019282620000cc576000855562000117565b82601f10620000e757805160ff191683800117855562000117565b8280016001018555821562000117579182015b8281111562000117578251825591602001919060010190620000fa565b506200012592915062000129565b5090565b5b808211156200012557600081556001016200012a565b612ac580620001506000396000f3fe608060405234801561001057600080fd5b50600436106101fb5760003560e01c8063781603761161011a578063b16a19de116100ad578063d505accf1161007c578063d505accf146106d3578063d7020d0a14610724578063dd62ed3e14610760578063e54f08801461078e578063f866c31914610796576101fb565b8063b16a19de14610695578063b1bf962d1461069d578063b9844d8d146106a5578063d30c0e13146106cb576101fb565b806395d89b41116100e957806395d89b411461062d578063a457c2d714610635578063a9059cbb14610661578063ae1673351461068d576101fb565b806378160376146104845780637bdd6c961461048c5780637df5bd3b146105de57806388dd91a114610601576101fb565b806330adf81f116101925780634efecaa5116101615780634efecaa51461040657806370a08231146104325780637535d2461461045857806375d264131461047c576101fb565b806330adf81f146103ac578063313ce567146103b45780633644e515146103d257806339509351146103da576101fb565b8063156e29f6116101ce578063156e29f61461031657806318160ddd146103485780631da24f3e1461035057806323b872dd14610376576101fb565b806306fdde0314610200578063095ea7b31461027d5780630afbcdc9146102bd5780630bd7ad3b146102fc575b600080fd5b6102086107cc565b6040805160208082528351818301528351919283929083019185019080838360005b8381101561024257818101518382015260200161022a565b50505050905090810190601f16801561026f5780820380516001836020036101000a031916815260200191505b509250505060405180910390f35b6102a96004803603604081101561029357600080fd5b506001600160a01b038135169060200135610863565b604080519115158252519081900360200190f35b6102e3600480360360208110156102d357600080fd5b50356001600160a01b0316610881565b6040805192835260208301919091528051918290030190f35b61030461089e565b60408051918252519081900360200190f35b6102a96004803603606081101561032c57600080fd5b506001600160a01b0381351690602081013590604001356108a3565b610304610a76565b6103046004803603602081101561036657600080fd5b50356001600160a01b0316610b24565b6102a96004803603606081101561038c57600080fd5b506001600160a01b03813581169160208101359091169060400135610b2f565b610304610bef565b6103bc610c13565b6040805160ff9092168252519081900360200190f35b610304610c1c565b6102a9600480360360408110156103f057600080fd5b506001600160a01b038135169060200135610c22565b6103046004803603604081101561041c57600080fd5b506001600160a01b038135169060200135610c70565b6103046004803603602081101561044857600080fd5b50356001600160a01b0316610d1b565b610460610db0565b604080516001600160a01b039092168252519081900360200190f35b610460610dc4565b610208610dd3565b6105dc60048036036101208110156104a357600080fd5b6001600160a01b03823581169260208101358216926040820135831692606083013581169260808101359091169160ff60a083013516919081019060e0810160c08201356401000000008111156104f957600080fd5b82018360208201111561050b57600080fd5b8035906020019184600183028401116401000000008311171561052d57600080fd5b91939092909160208101903564010000000081111561054b57600080fd5b82018360208201111561055d57600080fd5b8035906020019184600183028401116401000000008311171561057f57600080fd5b91939092909160208101903564010000000081111561059d57600080fd5b8201836020820111156105af57600080fd5b803590602001918460018302840111640100000000831117156105d157600080fd5b509092509050610df0565b005b6105dc600480360360408110156105f457600080fd5b5080359060200135610fb4565b6105dc6004803603604081101561061757600080fd5b506001600160a01b038135169060200135611198565b610208611227565b6102a96004803603604081101561064b57600080fd5b506001600160a01b038135169060200135611288565b6102a96004803603604081101561067757600080fd5b506001600160a01b0381351690602001356112f0565b61046061134d565b61046061135c565b61030461136b565b610304600480360360208110156106bb57600080fd5b50356001600160a01b0316611375565b610460611387565b6105dc600480360360e08110156106e957600080fd5b506001600160a01b03813581169160208101359091169060408101359060608101359060ff6080820135169060a08101359060c00135611396565b6105dc6004803603608081101561073a57600080fd5b506001600160a01b038135811691602081013590911690604081013590606001356115dd565b6103046004803603604081101561077657600080fd5b506001600160a01b0381358116916020013516611787565b6103046117b2565b6105dc600480360360608110156107ac57600080fd5b506001600160a01b03813581169160208101359091169060400135611924565b60378054604080516020601f60026000196101006001881615020190951694909404938401819004810282018101909252828152606093909290918301828280156108585780601f1061082d57610100808354040283529160200191610858565b820191906000526020600020905b81548152906001019060200180831161083b57829003601f168201915b505050505090505b90565b60006108776108706119fa565b84846119fe565b5060015b92915050565b60008061088d83611aea565b610895611b05565b91509150915091565b600181565b60395460009061010090046001600160a01b03166108bf6119fa565b6001600160a01b03161460405180604001604052806002815260200161323960f01b8152509061096d5760405162461bcd60e51b81526004018080602001828103825283818151815260200191508051906020019080838360005b8381101561093257818101518382015260200161091a565b50505050905090810190601f16801561095f5780820380516001836020036101000a031916815260200191505b509250505060405180910390fd5b50600061097985611aea565b905060006109878585611b0b565b6040805180820190915260028152611a9b60f11b6020820152909150816109ef5760405162461bcd60e51b815260206004820181815283516024840152835190928392604490910191908501908083836000831561093257818101518382015260200161091a565b506109fa8682611c12565b6040805186815290516001600160a01b038816916000916000805160206129b78339815191529181900360200190a3604080518681526020810186905281516001600160a01b038916927f4c209b5fc8ad50758f13e2e1088ba56a560dff690a1c6fef26394f4c03821c4f928290030190a25015949350505050565b600080610a81611b05565b905080610a92576000915050610860565b603954603a546040805163d15e005360e01b81526001600160a01b0392831660048201529051610b1e9361010090049092169163d15e005391602480820192602092909190829003018186803b158015610aeb57600080fd5b505afa158015610aff573d6000803e3d6000fd5b505050506040513d6020811015610b1557600080fd5b50518290611d6e565b91505090565b600061087b82611aea565b6000610b3c848484611e2c565b610bac84610b486119fa565b610ba785604051806060016040528060288152602001612961602891396001600160a01b038a16600090815260356020526040812090610b866119fa565b6001600160a01b031681526020810191909152604001600020549190611e39565b6119fe565b826001600160a01b0316846001600160a01b03166000805160206129b7833981519152846040518082815260200191505060405180910390a35060019392505050565b7f6e71edae12b1b97f4d1f60370fef10105fa2faae0126114a169c64845d6126c981565b60395460ff1690565b603c5481565b6000610877610c2f6119fa565b84610ba78560356000610c406119fa565b6001600160a01b03908116825260208083019390935260409182016000908120918c168152925290205490611e93565b60395460009061010090046001600160a01b0316610c8c6119fa565b6001600160a01b03161460405180604001604052806002815260200161323960f01b81525090610cfd5760405162461bcd60e51b815260206004820181815283516024840152835190928392604490910191908501908083836000831561093257818101518382015260200161091a565b50603a54610d15906001600160a01b03168484611ef4565b50919050565b603954603a546040805163d15e005360e01b81526001600160a01b039283166004820152905160009361087b93610100909104169163d15e0053916024808301926020929190829003018186803b158015610d7557600080fd5b505afa158015610d89573d6000803e3d6000fd5b505050506040513d6020811015610d9f57600080fd5b5051610daa84611aea565b90611d6e565b60395461010090046001600160a01b031690565b6000610dce611f46565b905090565b604051806040016040528060018152602001603160f81b81525081565b6000610dfa611f55565b60015490915060ff1680610e115750610e11611f5a565b80610e1d575060005481115b610e585760405162461bcd60e51b815260040180806020018281038252602e815260200180612989602e913960400191505060405180910390fd5b60015460ff16158015610e77576001805460ff19168117905560008290555b610e898e8e8e8e8e8e8e8e8e8e611f60565b8d6001600160a01b03168b6001600160a01b03167f05d29d0d1a7ed59fda37ebed4880a987b4f5597a50cb9418667cbda8895ec5d48f8f8e8e8e8e8e8e8e8e604051808b6001600160a01b031681526020018a6001600160a01b03168152602001896001600160a01b031681526020018860ff16815260200180602001806020018060200184810384528a8a82818152602001925080828437600083820152601f01601f191690910185810384528881526020019050888880828437600083820152601f01601f191690910185810383528681526020019050868680828437600083820152604051601f909101601f19169092018290039f50909d5050505050505050505050505050a38015610fa4576001805460ff191690555b5050505050505050505050505050565b60395461010090046001600160a01b0316610fcd6119fa565b6001600160a01b03161460405180604001604052806002815260200161323960f01b8152509061103e5760405162461bcd60e51b815260206004820181815283516024840152835190928392604490910191908501908083836000831561093257818101518382015260200161091a565b508161104957611194565b603d54603e546001600160a01b03918216911660006110688585611b0b565b90506001600160a01b0382166110b6576110828382611c12565b6040805182815290516001600160a01b038516916000916000805160206129b78339815191529181900360200190a361114d565b60006110c86008610daa84600a611b0b565b905060006110d6838361210b565b90506110e28583611c12565b6040805183815290516001600160a01b038716916000916000805160206129b78339815191529181900360200190a361111b8482611c12565b6040805182815290516001600160a01b038616916000916000805160206129b78339815191529181900360200190a350505b604080518681526020810186905281516001600160a01b038616927f4c209b5fc8ad50758f13e2e1088ba56a560dff690a1c6fef26394f4c03821c4f928290030190a25050505b5050565b60395461010090046001600160a01b03166111b16119fa565b6001600160a01b03161460405180604001604052806002815260200161323960f01b815250906112225760405162461bcd60e51b815260206004820181815283516024840152835190928392604490910191908501908083836000831561093257818101518382015260200161091a565b505050565b60388054604080516020601f60026000196101006001881615020190951694909404938401819004810282018101909252828152606093909290918301828280156108585780601f1061082d57610100808354040283529160200191610858565b60006108776112956119fa565b84610ba785604051806060016040528060258152602001612a6b60259139603560006112bf6119fa565b6001600160a01b03908116825260208083019390935260409182016000908120918d16815292529020549190611e39565b60006113046112fd6119fa565b8484611e2c565b826001600160a01b03166113166119fa565b6001600160a01b03166000805160206129b7833981519152846040518082815260200191505060405180910390a350600192915050565b603d546001600160a01b031690565b603a546001600160a01b031690565b6000610dce611b05565b603b6020526000908152604090205481565b603e546001600160a01b031690565b6001600160a01b0387166113e1576040805162461bcd60e51b815260206004820152600d60248201526c24a72b20a624a22fa7aba722a960991b604482015290519081900360640190fd5b8342111561142b576040805162461bcd60e51b815260206004820152601260248201527124a72b20a624a22fa2ac2824a920aa24a7a760711b604482015290519081900360640190fd5b6001600160a01b038088166000818152603b6020908152604080832054603c5482517f6e71edae12b1b97f4d1f60370fef10105fa2faae0126114a169c64845d6126c98186015280840196909652958c166060860152608085018b905260a0850181905260c08086018b90528251808703909101815260e08601835280519084012061190160f01b6101008701526101028601969096526101228086019690965281518086039096018652610142850180835286519684019690962093909552610162840180825283905260ff88166101828501526101a284018790526101c284018690525191926001926101e28083019392601f198301929081900390910190855afa158015611540573d6000803e3d6000fd5b505050602060405103516001600160a01b0316896001600160a01b0316146115a3576040805162461bcd60e51b8152602060048201526011602482015270494e56414c49445f5349474e415455524560781b604482015290519081900360640190fd5b6115ae826001611e93565b6001600160a01b038a166000908152603b60205260409020556115d28989896119fe565b505050505050505050565b60395461010090046001600160a01b03166115f66119fa565b6001600160a01b03161460405180604001604052806002815260200161323960f01b815250906116675760405162461bcd60e51b815260206004820181815283516024840152835190928392604490910191908501908083836000831561093257818101518382015260200161091a565b5060006116748383611b0b565b60408051808201909152600281526106a760f31b6020820152909150816116dc5760405162461bcd60e51b815260206004820181815283516024840152835190928392604490910191908501908083836000831561093257818101518382015260200161091a565b506116e7858261214d565b603a546116fe906001600160a01b03168585611ef4565b6040805184815290516000916001600160a01b038816916000805160206129b78339815191529181900360200190a3836001600160a01b0316856001600160a01b03167f5d624aa9c148153ab3446c1b154f660ee7701e549fe9b62dab7171b1c80e6fa28585604051808381526020018281526020019250505060405180910390a35050505050565b6001600160a01b03918216600090815260356020908152604080832093909416825291909152205490565b600080603960019054906101000a90046001600160a01b03166001600160a01b031663fe65acfe6040518163ffffffff1660e01b815260040160206040518083038186803b15801561180357600080fd5b505afa158015611817573d6000803e3d6000fd5b505050506040513d602081101561182d57600080fd5b505160408051631f94a27560e31b815290519192506000916001600160a01b0384169163fca513a8916004808301926020929190829003018186803b15801561187557600080fd5b505afa158015611889573d6000803e3d6000fd5b505050506040513d602081101561189f57600080fd5b5051603a546040805163b3596f0760e01b81526001600160a01b03928316600482015290519293509083169163b3596f0791602480820192602092909190829003018186803b1580156118f157600080fd5b505afa158015611905573d6000803e3d6000fd5b505050506040513d602081101561191b57600080fd5b50519250505090565b60395461010090046001600160a01b031661193d6119fa565b6001600160a01b03161460405180604001604052806002815260200161323960f01b815250906119ae5760405162461bcd60e51b815260206004820181815283516024840152835190928392604490910191908501908083836000831561093257818101518382015260200161091a565b506119bc83838360006121f6565b816001600160a01b0316836001600160a01b03166000805160206129b7833981519152836040518082815260200191505060405180910390a3505050565b3390565b6001600160a01b038316611a435760405162461bcd60e51b8152600401808060200182810382526024815260200180612a1d6024913960400191505060405180910390fd5b6001600160a01b038216611a885760405162461bcd60e51b81526004018080602001828103825260228152602001806129196022913960400191505060405180910390fd5b6001600160a01b03808416600081815260356020908152604080832094871680845294825291829020859055815185815291517f8c5be1e5ebec7d5bd14f71427d1e84f3dd0314c0f7b2291e5b200ac8c7c3b9259281900390910190a3505050565b6001600160a01b031660009081526034602052604090205490565b60365490565b604080518082019091526002815261035360f41b602082015260009082611b735760405162461bcd60e51b815260206004820181815283516024840152835190928392604490910191908501908083836000831561093257818101518382015260200161091a565b5060408051808201909152600280825261068760f31b60208301528304906b033b2e3c9fd0803ce8000000821904851115611bef5760405162461bcd60e51b815260206004820181815283516024840152835190928392604490910191908501908083836000831561093257818101518382015260200161091a565b5082816b033b2e3c9fd0803ce800000086020181611c0957fe5b04949350505050565b6001600160a01b038216611c6d576040805162461bcd60e51b815260206004820152601f60248201527f45524332303a206d696e7420746f20746865207a65726f206164647265737300604482015290519081900360640190fd5b611c7960008383611222565b603654600090611c899083611e93565b60368190556001600160a01b03841660009081526034602052604081205491925090611cb59084611e93565b6001600160a01b0385166000908152603460205260408120829055909150611cdb611f46565b6001600160a01b031614611d6857611cf1611f46565b6001600160a01b03166331873e2e8583856040518463ffffffff1660e01b815260040180846001600160a01b031681526020018381526020018281526020019350505050600060405180830381600087803b158015611d4f57600080fd5b505af1158015611d63573d6000803e3d6000fd5b505050505b50505050565b6000821580611d7b575081155b15611d885750600061087b565b816b019d971e4fe8401e740000001981611d9e57fe5b0483111560405180604001604052806002815260200161068760f31b81525090611e095760405162461bcd60e51b815260206004820181815283516024840152835190928392604490910191908501908083836000831561093257818101518382015260200161091a565b50506b033b2e3c9fd0803ce800000091026b019d971e4fe8401e74000000010490565b61122283838360016121f6565b60008184841115611e8b5760405162461bcd60e51b815260206004820181815283516024840152835190928392604490910191908501908083836000831561093257818101518382015260200161091a565b505050900390565b600082820183811015611eed576040805162461bcd60e51b815260206004820152601b60248201527f536166654d6174683a206164646974696f6e206f766572666c6f770000000000604482015290519081900360640190fd5b9392505050565b604080516001600160a01b038416602482015260448082018490528251808303909101815260649091019091526020810180516001600160e01b031663a9059cbb60e01b1790526112229084906123a5565b603f546001600160a01b031690565b600190565b303b1590565b60004690507f8b73c3c69bb8fe3d512ecc4cf759cc79239f7b179b0ffacaa9a75d522b39400f85856040518083838082843760408051939091018390038320838201825260018452603160f81b602094850152815180850198909852878201527fc89efdaa54c0f20c7adf612882df0950f5a951637e0307cdcb4c672f298b8bc66060880152608087018890523060a0808901919091528151808903909101815260c08801808352815191850191909120603c5560e0601f8d01859004909402880184019091528a8152612054969095508b94508a9350839201905083828082843760009201919091525061255c92505050565b61209383838080601f01602080910402602001604051908101604052809392919081815260200183838082843760009201919091525061256f92505050565b61209c86612582565b5050603980546001600160a01b039a8b1661010002610100600160a81b03199091161790555050603d80549688166001600160a01b03199788161790555050603e805493861693851693909317909255603a8054918516918416919091179055603f8054919093169116179055565b6000611eed83836040518060400160405280601e81526020017f536166654d6174683a207375627472616374696f6e206f766572666c6f770000815250611e39565b6001600160a01b0382166121925760405162461bcd60e51b81526004018080602001828103825260218152602001806129d76021913960400191505060405180910390fd5b61219e82600083611222565b6036546000906121ae908361210b565b9050806036819055506000611cb5836040518060600160405280602281526020016128f7602291396001600160a01b0387166000908152603460205260409020549190611e39565b603a546039546040805163d15e005360e01b81526001600160a01b03938416600482018190529151919361010090930490921691600091839163d15e0053916024808301926020929190829003018186803b15801561225457600080fd5b505afa158015612268573d6000803e3d6000fd5b505050506040513d602081101561227e57600080fd5b50519050600061229182610daa8a611aea565b905060006122a283610daa8a611aea565b90506122b889896122b38a87611b0b565b612598565b8515612347576040805163d5ed393360e01b81526001600160a01b0387811660048301528b811660248301528a81166044830152606482018a90526084820185905260a4820184905291519186169163d5ed39339160c48082019260009290919082900301818387803b15801561232e57600080fd5b505af1158015612342573d6000803e3d6000fd5b505050505b876001600160a01b0316896001600160a01b03167f4beccb90f994c31aced7a23b5611020728a23d8ec5cddd1a3e9d97b96fda86668986604051808381526020018281526020019250505060405180910390a3505050505050505050565b6123b7826001600160a01b03166127f6565b612408576040805162461bcd60e51b815260206004820152601f60248201527f5361666545524332303a2063616c6c20746f206e6f6e2d636f6e747261637400604482015290519081900360640190fd5b600080836001600160a01b0316836040518082805190602001908083835b602083106124455780518252601f199092019160209182019101612426565b6001836020036101000a0380198251168184511680821785525050505050509050019150506000604051808303816000865af19150503d80600081146124a7576040519150601f19603f3d011682016040523d82523d6000602084013e6124ac565b606091505b509150915081612503576040805162461bcd60e51b815260206004820181905260248201527f5361666545524332303a206c6f772d6c6576656c2063616c6c206661696c6564604482015290519081900360640190fd5b805115611d685780806020019051602081101561251f57600080fd5b5051611d685760405162461bcd60e51b815260040180806020018281038252602a815260200180612a41602a913960400191505060405180910390fd5b8051611194906037906020840190612832565b8051611194906038906020840190612832565b6039805460ff191660ff92909216919091179055565b6001600160a01b0383166125dd5760405162461bcd60e51b81526004018080602001828103825260258152602001806129f86025913960400191505060405180910390fd5b6001600160a01b0382166126225760405162461bcd60e51b81526004018080602001828103825260238152602001806128d46023913960400191505060405180910390fd5b61262d838383611222565b600061266c8260405180606001604052806026815260200161293b602691396001600160a01b0387166000908152603460205260409020549190611e39565b6001600160a01b03808616600090815260346020526040808220849055918616815290812054919250906126a09084611e93565b6001600160a01b03851660009081526034602052604081208290559091506126c6611f46565b6001600160a01b0316146127ef576036546126df611f46565b6001600160a01b03166331873e2e8785846040518463ffffffff1660e01b815260040180846001600160a01b031681526020018381526020018281526020019350505050600060405180830381600087803b15801561273d57600080fd5b505af1158015612751573d6000803e3d6000fd5b50505050846001600160a01b0316866001600160a01b0316146127ed57612776611f46565b6001600160a01b03166331873e2e8684846040518463ffffffff1660e01b815260040180846001600160a01b031681526020018381526020018281526020019350505050600060405180830381600087803b1580156127d457600080fd5b505af11580156127e8573d6000803e3d6000fd5b505050505b505b5050505050565b6000813f7fc5d2460186f7233c927e7db2dcc703c0e500b653ca82273b7bfad8045d85a47081811480159061282a57508115155b949350505050565b828054600181600116156101000203166002900490600052602060002090601f01602090048101928261286857600085556128ae565b82601f1061288157805160ff19168380011785556128ae565b828001600101855582156128ae579182015b828111156128ae578251825591602001919060010190612893565b506128ba9291506128be565b5090565b5b808211156128ba57600081556001016128bf56fe45524332303a207472616e7366657220746f20746865207a65726f206164647265737345524332303a206275726e20616d6f756e7420657863656564732062616c616e636545524332303a20617070726f766520746f20746865207a65726f206164647265737345524332303a207472616e7366657220616d6f756e7420657863656564732062616c616e636545524332303a207472616e7366657220616d6f756e74206578636565647320616c6c6f77616e6365436f6e747261637420696e7374616e63652068617320616c7265616479206265656e20696e697469616c697a6564ddf252ad1be2c89b69c2b068fc378daa952ba7f163c4a11628f55a4df523b3ef45524332303a206275726e2066726f6d20746865207a65726f206164647265737345524332303a207472616e736665722066726f6d20746865207a65726f206164647265737345524332303a20617070726f76652066726f6d20746865207a65726f20616464726573735361666545524332303a204552433230206f7065726174696f6e20646964206e6f74207375636365656445524332303a2064656372656173656420616c6c6f77616e63652062656c6f77207a65726fa264697066735822122034e6f876c0bb756bc5629c44046234c28ad194cbf9a9b7f94ae2ac60030ed97a64736f6c6343000706003361018060405234801561001157600080fd5b50604051610fbb380380610fbb833981810160405260e081101561003457600080fd5b5080516020808301516040840151606085015160808087015160a088015160c0909801519185905295969395929491939161008e90879061007c906108526100c3821b17901c565b6100d360201b6108621790919060201c565b60a05260609690961b6001600160601b03191660c05260e09390935261010091909152610120526101405250610160526101b9565b6b033b2e3c9fd0803ce800000090565b600061011b83836040518060400160405280601e81526020017f536166654d6174683a207375627472616374696f6e206f766572666c6f77000081525061012260201b60201c565b9392505050565b600081848411156101b15760405162461bcd60e51b81526004018080602001828103825283818151815260200191508051906020019080838360005b8381101561017657818101518382015260200161015e565b50505050905090810190601f1680156101a35780820380516001836020036101000a031916815260200191505b509250505060405180910390fd5b505050900390565b60805160a05160c05160601c60e05161010051610120516101405161016051610d4d61026e6000398061059752806108305250806101dd52806105c752806106b15250806102df528061032c52806105f852508061030352806103715280610643528061071b5250806103505280610622528061074152806107e8525080610400528061080c52508061020152806105315250806105055280610555528061067d52806106f552806107c45250610d4d6000f3fe608060405234801561001057600080fd5b50600436106100a95760003560e01c806380031e371161007157806380031e37146101535780639584df281461015b578063a15f30ac1461019f578063b2589544146101a7578063c72c4d10146101af578063ccab01a3146101d3576100a9565b80630bdf953f146100ae57806317319873146100c857806329db497d146100d057806365614f81146101435780637b832f581461014b575b600080fd5b6100b66101db565b60408051918252519081900360200190f35b6100b66101ff565b61012560048036036101008110156100e757600080fd5b506001600160a01b03813581169160208101359091169060408101359060608101359060808101359060a08101359060c08101359060e00135610223565b60408051938452602084019290925282820152519081900360600190f35b6100b66102dd565b6100b6610301565b6100b6610325565b610125600480360360c081101561017157600080fd5b506001600160a01b038135169060208101359060408101359060608101359060808101359060a001356103a0565b6100b66107c2565b6100b66107e6565b6101b761080a565b604080516001600160a01b039092168252519081900360200190f35b6100b661082e565b7f000000000000000000000000000000000000000000000000000000000000000090565b7f000000000000000000000000000000000000000000000000000000000000000081565b6000806000808b6001600160a01b03166370a082318c6040518263ffffffff1660e01b815260040180826001600160a01b0316815260200191505060206040518083038186803b15801561027657600080fd5b505afa15801561028a573d6000803e3d6000fd5b505050506040513d60208110156102a057600080fd5b505190506102b8896102b2838d6108ad565b90610862565b90506102c88c828a8a8a8a6103a0565b93509350935050985098509895505050505050565b7f000000000000000000000000000000000000000000000000000000000000000090565b7f000000000000000000000000000000000000000000000000000000000000000090565b600061039b7f00000000000000000000000000000000000000000000000000000000000000006103957f00000000000000000000000000000000000000000000000000000000000000007f00000000000000000000000000000000000000000000000000000000000000006108ad565b906108ad565b905090565b60008060006103ad610ce8565b6103b788886108ad565b808252600060208301819052604083018190526060830152156103f25780516103ed906103e5908b906108ad565b825190610907565b6103f5565b60005b8160800181815250507f00000000000000000000000000000000000000000000000000000000000000006001600160a01b0316633618abba6040518163ffffffff1660e01b815260040160206040518083038186803b15801561045757600080fd5b505afa15801561046b573d6000803e3d6000fd5b505050506040513d602081101561048157600080fd5b50516040805163bb85c0bb60e01b81526001600160a01b038d811660048301529151919092169163bb85c0bb916024808301926020929190829003018186803b1580156104cd57600080fd5b505afa1580156104e1573d6000803e3d6000fd5b505050506040513d60208110156104f757600080fd5b5051604082015260808101517f0000000000000000000000000000000000000000000000000000000000000000101561067257600061058d7f00000000000000000000000000000000000000000000000000000000000000006105877f0000000000000000000000000000000000000000000000000000000000000000856080015161086290919063ffffffff16565b90610907565b90506105eb6105bc7f000000000000000000000000000000000000000000000000000000000000000083610a4b565b6040840151610395907f00000000000000000000000000000000000000000000000000000000000000006108ad565b604083015261066761061d7f000000000000000000000000000000000000000000000000000000000000000083610a4b565b6103957f00000000000000000000000000000000000000000000000000000000000000007f00000000000000000000000000000000000000000000000000000000000000006108ad565b60208301525061076c565b6106e16106d66106af7f0000000000000000000000000000000000000000000000000000000000000000846080015161090790919063ffffffff16565b7f000000000000000000000000000000000000000000000000000000000000000090610a4b565b6040830151906108ad565b604082015260808101516107669061073f907f000000000000000000000000000000000000000000000000000000000000000090610587907f0000000000000000000000000000000000000000000000000000000000000000610a4b565b7f0000000000000000000000000000000000000000000000000000000000000000906108ad565b60208201525b61079f61077b61271087610862565b61079983608001516107938c8c87602001518d610b0c565b90610a4b565b90610b73565b606082018190526040820151602090920151909b919a5098509650505050505050565b7f000000000000000000000000000000000000000000000000000000000000000081565b7f000000000000000000000000000000000000000000000000000000000000000090565b7f000000000000000000000000000000000000000000000000000000000000000081565b7f000000000000000000000000000000000000000000000000000000000000000090565b6b033b2e3c9fd0803ce800000090565b60006108a483836040518060400160405280601e81526020017f536166654d6174683a207375627472616374696f6e206f766572666c6f770000815250610c10565b90505b92915050565b6000828201838110156108a4576040805162461bcd60e51b815260206004820152601b60248201527f536166654d6174683a206164646974696f6e206f766572666c6f770000000000604482015290519081900360640190fd5b604080518082019091526002815261035360f41b6020820152600090826109ac5760405162461bcd60e51b81526004018080602001828103825283818151815260200191508051906020019080838360005b83811015610971578181015183820152602001610959565b50505050905090810190601f16801561099e5780820380516001836020036101000a031916815260200191505b509250505060405180910390fd5b5060408051808201909152600280825261068760f31b60208301528304906b033b2e3c9fd0803ce8000000821904851115610a285760405162461bcd60e51b8152602060048201818152835160248401528351909283926044909101919085019080838360008315610971578181015183820152602001610959565b5082816b033b2e3c9fd0803ce800000086020181610a4257fe5b04949350505050565b6000821580610a58575081155b15610a65575060006108a7565b816b019d971e4fe8401e740000001981610a7b57fe5b0483111560405180604001604052806002815260200161068760f31b81525090610ae65760405162461bcd60e51b8152602060048201818152835160248401528351909283926044909101919085019080838360008315610971578181015183820152602001610959565b506b033b2e3c9fd0803ce80000006002815b048385020181610b0457fe5b049392505050565b600080610b1986866108ad565b905080610b2a576000915050610b6b565b6000610b398561079388610c6a565b90506000610b4a856107938a610c6a565b90506000610b64610b5a85610c6a565b61058785856108ad565b9450505050505b949350505050565b6000821580610b80575081155b15610b8d575060006108a7565b816113881981610b9957fe5b0483111560405180604001604052806002815260200161068760f31b81525090610c045760405162461bcd60e51b8152602060048201818152835160248401528351909283926044909101919085019080838360008315610971578181015183820152602001610959565b50612710600281610af8565b60008184841115610c625760405162461bcd60e51b8152602060048201818152835160248401528351909283926044909101919085019080838360008315610971578181015183820152602001610959565b505050900390565b6000633b9aca0082810290839082041460405180604001604052806002815260200161068760f31b81525090610ce15760405162461bcd60e51b8152602060048201818152835160248401528351909283926044909101919085019080838360008315610971578181015183820152602001610959565b5092915050565b6040518060a001604052806000815260200160008152602001600081526020016000815260200160008152509056fea2646970667358221220028e3b446b8f829e4d31a8640a0f389cf9455157dfa022c1989e7be191f8d07664736f6c634300070600334f776e61626c653a206e6577206f776e657220697320746865207a65726f20616464726573734f776e61626c653a2063616c6c6572206973206e6f7420746865206f776e6572a2646970667358221220d0a27fe8821fa54788d3c398dbdba15e7190d6007b65acd915d86819463856e564736f6c63430007060033",
  "linkReferences": {},
  "deployedLinkReferences": {}
}