{
  "_format": "hh-sol-artifact-1",
  "contractName": "ChefIncentivesController",
  "sourceName": "contracts/staking/ChefIncentivesController.sol",
  "abi": [
    {
      "anonymous": false,
      "inputs": [
        {
          "indexed": true,
          "internalType": "address",
          "name": "token",
          "type": "address"
        },
        {
          "indexed": true,
          "internalType": "address",
          "name": "user",
          "type": "address"
        },
        {
          "indexed": false,
          "internalType": "uint256",
          "name": "balance",
          "type": "uint256"
        },
        {
          "indexed": false,
          "internalType": "uint256",
          "name": "totalSupply",
          "type": "uint256"
        }
      ],
      "name": "BalanceUpdated",
      "type": "event"
    },
    {
      "anonymous": false,
      "inputs": [
        {
          "indexed": true,
          "internalType": "address",
          "name": "previousOwner",
          "type": "address"
        },
        {
          "indexed": true,
          "internalType": "address",
          "name": "newOwner",
          "type": "address"
        }
      ],
      "name": "OwnershipTransferred",
      "type": "event"
    },
    {
      "inputs": [],
      "name": "VERSION",
      "outputs": [
        {
          "internalType": "uint256",
          "name": "",
          "type": "uint256"
        }
      ],
      "stateMutability": "view",
      "type": "function"
    },
    {
      "inputs": [
        {
          "internalType": "address",
          "name": "_token",
          "type": "address"
        },
        {
          "internalType": "uint256",
          "name": "_allocPoint",
          "type": "uint256"
        }
      ],
      "name": "addPool",
      "outputs": [],
      "stateMutability": "nonpayable",
      "type": "function"
    },
    {
      "inputs": [
        {
          "internalType": "address[]",
          "name": "_tokens",
          "type": "address[]"
        },
        {
          "internalType": "uint256[]",
          "name": "_allocPoints",
          "type": "uint256[]"
        }
      ],
      "name": "batchUpdateAllocPoint",
      "outputs": [],
      "stateMutability": "nonpayable",
      "type": "function"
    },
    {
      "inputs": [
        {
          "internalType": "address",
          "name": "_user",
          "type": "address"
        },
        {
          "internalType": "address[]",
          "name": "_tokens",
          "type": "address[]"
        }
      ],
      "name": "claim",
      "outputs": [],
      "stateMutability": "nonpayable",
      "type": "function"
    },
    {
      "inputs": [
        {
          "internalType": "address",
          "name": "",
          "type": "address"
        }
      ],
      "name": "claimReceiver",
      "outputs": [
        {
          "internalType": "address",
          "name": "",
          "type": "address"
        }
      ],
      "stateMutability": "view",
      "type": "function"
    },
    {
      "inputs": [
        {
          "internalType": "address",
          "name": "_user",
          "type": "address"
        },
        {
          "internalType": "address[]",
          "name": "_tokens",
          "type": "address[]"
        }
      ],
      "name": "claimableReward",
      "outputs": [
        {
          "internalType": "uint256[]",
          "name": "",
          "type": "uint256[]"
        }
      ],
      "stateMutability": "view",
      "type": "function"
    },
    {
      "inputs": [
        {
          "internalType": "uint256",
          "name": "",
          "type": "uint256"
        }
      ],
      "name": "emissionSchedule",
      "outputs": [
        {
          "internalType": "uint128",
          "name": "startTimeOffset",
          "type": "uint128"
        },
        {
          "internalType": "uint128",
          "name": "rewardsPerSecond",
          "type": "uint128"
        }
      ],
      "stateMutability": "view",
      "type": "function"
    },
    {
      "inputs": [
        {
          "internalType": "address",
          "name": "_user",
          "type": "address"
        },
        {
          "internalType": "uint256",
          "name": "_balance",
          "type": "uint256"
        },
        {
          "internalType": "uint256",
          "name": "_totalSupply",
          "type": "uint256"
        }
      ],
      "name": "handleAction",
      "outputs": [],
      "stateMutability": "nonpayable",
      "type": "function"
    },
    {
      "inputs": [
        {
          "internalType": "address",
          "name": "owner",
          "type": "address"
        },
        {
          "internalType": "uint128[]",
          "name": "_startTimeOffset",
          "type": "uint128[]"
        },
        {
          "internalType": "uint128[]",
          "name": "_rewardsPerSecond",
          "type": "uint128[]"
        },
        {
          "internalType": "address",
          "name": "_poolConfigurator",
          "type": "address"
        },
        {
          "internalType": "contract IMultiFeeDistribution",
          "name": "_rewardMinter",
          "type": "address"
        },
        {
          "internalType": "uint256",
          "name": "_maxMintable",
          "type": "uint256"
        },
        {
          "internalType": "uint256",
          "name": "_startTime",
          "type": "uint256"
        }
      ],
      "name": "initialize",
      "outputs": [],
      "stateMutability": "nonpayable",
      "type": "function"
    },
    {
      "inputs": [],
      "name": "maxMintableTokens",
      "outputs": [
        {
          "internalType": "uint256",
          "name": "",
          "type": "uint256"
        }
      ],
      "stateMutability": "view",
      "type": "function"
    },
    {
      "inputs": [],
      "name": "mintedTokens",
      "outputs": [
        {
          "internalType": "uint256",
          "name": "",
          "type": "uint256"
        }
      ],
      "stateMutability": "view",
      "type": "function"
    },
    {
      "inputs": [],
      "name": "owner",
      "outputs": [
        {
          "internalType": "address",
          "name": "",
          "type": "address"
        }
      ],
      "stateMutability": "view",
      "type": "function"
    },
    {
      "inputs": [],
      "name": "poolConfigurator",
      "outputs": [
        {
          "internalType": "address",
          "name": "",
          "type": "address"
        }
      ],
      "stateMutability": "view",
      "type": "function"
    },
    {
      "inputs": [
        {
          "internalType": "address",
          "name": "",
          "type": "address"
        }
      ],
      "name": "poolInfo",
      "outputs": [
        {
          "internalType": "uint256",
          "name": "totalSupply",
          "type": "uint256"
        },
        {
          "internalType": "uint256",
          "name": "allocPoint",
          "type": "uint256"
        },
        {
          "internalType": "uint256",
          "name": "lastRewardTime",
          "type": "uint256"
        },
        {
          "internalType": "uint256",
          "name": "accRewardPerShare",
          "type": "uint256"
        },
        {
          "internalType": "contract IOnwardIncentivesController",
          "name": "onwardIncentives",
          "type": "address"
        }
      ],
      "stateMutability": "view",
      "type": "function"
    },
    {
      "inputs": [],
      "name": "poolLength",
      "outputs": [
        {
          "internalType": "uint256",
          "name": "",
          "type": "uint256"
        }
      ],
      "stateMutability": "view",
      "type": "function"
    },
    {
      "inputs": [
        {
          "internalType": "uint256",
          "name": "",
          "type": "uint256"
        }
      ],
      "name": "registeredTokens",
      "outputs": [
        {
          "internalType": "address",
          "name": "",
          "type": "address"
        }
      ],
      "stateMutability": "view",
      "type": "function"
    },
    {
      "inputs": [],
      "name": "renounceOwnership",
      "outputs": [],
      "stateMutability": "nonpayable",
      "type": "function"
    },
    {
      "inputs": [],
      "name": "rewardMinter",
      "outputs": [
        {
          "internalType": "contract IMultiFeeDistribution",
          "name": "",
          "type": "address"
        }
      ],
      "stateMutability": "view",
      "type": "function"
    },
    {
      "inputs": [],
      "name": "rewardsPerSecond",
      "outputs": [
        {
          "internalType": "uint256",
          "name": "",
          "type": "uint256"
        }
      ],
      "stateMutability": "view",
      "type": "function"
    },
    {
      "inputs": [
        {
          "internalType": "address",
          "name": "_user",
          "type": "address"
        },
        {
          "internalType": "address",
          "name": "_receiver",
          "type": "address"
        }
      ],
      "name": "setClaimReceiver",
      "outputs": [],
      "stateMutability": "nonpayable",
      "type": "function"
    },
    {
      "inputs": [
        {
          "internalType": "address",
          "name": "_token",
          "type": "address"
        },
        {
          "internalType": "contract IOnwardIncentivesController",
          "name": "_incentives",
          "type": "address"
        }
      ],
      "name": "setOnwardIncentives",
      "outputs": [],
      "stateMutability": "nonpayable",
      "type": "function"
    },
    {
      "inputs": [],
      "name": "startTime",
      "outputs": [
        {
          "internalType": "uint256",
          "name": "",
          "type": "uint256"
        }
      ],
      "stateMutability": "view",
      "type": "function"
    },
    {
      "inputs": [],
      "name": "totalAllocPoint",
      "outputs": [
        {
          "internalType": "uint256",
          "name": "",
          "type": "uint256"
        }
      ],
      "stateMutability": "view",
      "type": "function"
    },
    {
      "inputs": [
        {
          "internalType": "address",
          "name": "newOwner",
          "type": "address"
        }
      ],
      "name": "transferOwnership",
      "outputs": [],
      "stateMutability": "nonpayable",
      "type": "function"
    },
    {
      "inputs": [
        {
          "internalType": "address",
          "name": "",
          "type": "address"
        }
      ],
      "name": "userBaseClaimable",
      "outputs": [
        {
          "internalType": "uint256",
          "name": "",
          "type": "uint256"
        }
      ],
      "stateMutability": "view",
      "type": "function"
    },
    {
      "inputs": [
        {
          "internalType": "address",
          "name": "",
          "type": "address"
        },
        {
          "internalType": "address",
          "name": "",
          "type": "address"
        }
      ],
      "name": "userInfo",
      "outputs": [
        {
          "internalType": "uint256",
          "name": "amount",
          "type": "uint256"
        },
        {
          "internalType": "uint256",
          "name": "rewardDebt",
          "type": "uint256"
        }
      ],
      "stateMutability": "view",
      "type": "function"
    }
  ],
  "bytecode": "0x60806040526000603e5534801561001557600080fd5b5061194f806100256000396000f3fe608060405234801561001057600080fd5b506004361061018e5760003560e01c80638e2eba09116100de578063d711038311610097578063e5b5349811610071578063e5b53498146106a7578063eacdaabc14610775578063f2fde38b1461077d578063ffa1ad74146107a35761018e565b8063d711038314610529578063de7e410c14610679578063e20c5a8a146106815761018e565b80638e2eba09146103d85780639a0ba2ea146104565780639a7b5f11146104735780639b8e5563146104cd578063bfccff45146104d5578063cd1a4d86146104fb5761018e565b8063332875641161014b578063715018a611610125578063715018a61461039c57806378e97925146103a45780638d75fe05146103ac5780638da5cb5b146103b45761018e565b80633328756414610264578063334d0bbd1461029257806334c54230146102de5761018e565b8063081e3eda146101935780630f208beb146101ad57806317caf6f1146101f45780631a848e01146101fc57806331873e2e1461020457806332a9caba14610238575b600080fd5b61019b6107ab565b60408051918252519081900360200190f35b6101db600480360360408110156101c357600080fd5b506001600160a01b03813581169160200135166107b1565b6040805192835260208301919091528051918290030190f35b61019b6107d5565b61019b6107db565b6102366004803603606081101561021a57600080fd5b506001600160a01b0381351690602081013590604001356107e1565b005b6102366004803603604081101561024e57600080fd5b506001600160a01b0381351690602001356109b4565b6102366004803603604081101561027a57600080fd5b506001600160a01b0381358116916020013516610aba565b6102af600480360360208110156102a857600080fd5b5035610b20565b60405180836001600160801b03168152602001826001600160801b031681526020019250505060405180910390f35b610236600480360360408110156102f457600080fd5b810190602081018135600160201b81111561030e57600080fd5b82018360208201111561032057600080fd5b803590602001918460208302840111600160201b8311171561034157600080fd5b919390929091602081019035600160201b81111561035e57600080fd5b82018360208201111561037057600080fd5b803590602001918460208302840111600160201b8311171561039157600080fd5b509092509050610b55565b610236610c84565b61019b610ce8565b61019b610cee565b6103bc610cf4565b604080516001600160a01b039092168252519081900360200190f35b610236600480360360408110156103ee57600080fd5b6001600160a01b038235169190810190604081016020820135600160201b81111561041857600080fd5b82018360208201111561042a57600080fd5b803590602001918460208302840111600160201b8311171561044b57600080fd5b509092509050610d03565b6103bc6004803603602081101561046c57600080fd5b5035610e43565b6104996004803603602081101561048957600080fd5b50356001600160a01b0316610e6d565b6040805195865260208601949094528484019290925260608401526001600160a01b03166080830152519081900360a00190f35b6103bc610ea5565b61019b600480360360208110156104eb57600080fd5b50356001600160a01b0316610eb4565b6102366004803603604081101561051157600080fd5b506001600160a01b0381358116916020013516610ec6565b610236600480360360e081101561053f57600080fd5b6001600160a01b038235169190810190604081016020820135600160201b81111561056957600080fd5b82018360208201111561057b57600080fd5b803590602001918460208302840111600160201b8311171561059c57600080fd5b9190808060200260200160405190810160405280939291908181526020018383602002808284376000920191909152509295949360208101935035915050600160201b8111156105eb57600080fd5b8201836020820111156105fd57600080fd5b803590602001918460208302840111600160201b8311171561061e57600080fd5b919080806020026020016040519081016040528093929190818152602001838360200280828437600092019190915250929550506001600160a01b038335811694506020840135169260408101359250606001359050610f74565b6103bc611118565b6103bc6004803603602081101561069757600080fd5b50356001600160a01b0316611127565b610725600480360360408110156106bd57600080fd5b6001600160a01b038235169190810190604081016020820135600160201b8111156106e757600080fd5b8201836020820111156106f957600080fd5b803590602001918460208302840111600160201b8311171561071a57600080fd5b509092509050611142565b60408051602080825283518183015283519192839290830191858101910280838360005b83811015610761578181015183820152602001610749565b505050509050019250505060405180910390f35b61019b6112c1565b6102366004803603602081101561079357600080fd5b50356001600160a01b03166112c7565b61019b611370565b60395490565b603c6020908152600092835260408084209091529082529020805460019091015482565b603e5481565b60375481565b336000908152603a6020526040902060028101546107fe57600080fd5b610806611375565b61081281603e5461142e565b336000908152603c602090815260408083206001600160a01b038816845290915290208054600383015481156108b457600183015460009061086d9061086764e8d4a5100061086187876114c4565b90611526565b90611568565b905080156108b2576001600160a01b0388166000908152603d602052604090205461089890826115aa565b6001600160a01b0389166000908152603d60205260409020555b505b8583556108ca64e8d4a5100061086188846114c4565b600184015584845560048401546001600160a01b031615610963576004808501546040805163ae0b537160e01b815233938101939093526001600160a01b038a81166024850152604484018a905260648401899052905191169163ae0b537191608480830192600092919082900301818387803b15801561094a57600080fd5b505af115801561095e573d6000803e3d6000fd5b505050505b604080518781526020810187905281516001600160a01b038a169233927f526824944047da5b81071fb6349412005c5da81380b336103fbe5dd34556c776929081900390910190a350505050505050565b6034546001600160a01b031633146109cb57600080fd5b6001600160a01b0382166000908152603a6020526040902060020154156109f157600080fd5b6109f9611375565b603e54610a0690826115aa565b603e556039805460018181019092557fdc16fef70f8d5ddbc01ee3d903d1e69c18a3c7be080eb86a81e0578814ee58d30180546001600160a01b039485166001600160a01b031991821681179092556040805160a08101825260008082526020828101978852428385019081526060840183815260808501848152978452603a9092529390912091518255955194810194909455516002840155925160038301555160049091018054919093169116179055565b336001600160a01b0383161480610ae95750610ad4610cf4565b6001600160a01b0316336001600160a01b0316145b610af257600080fd5b6001600160a01b03918216600090815260406020819052902080546001600160a01b03191691909216179055565b603b8181548110610b3057600080fd5b6000918252602090912001546001600160801b038082169250600160801b9091041682565b610b5d611604565b6033546001600160a01b03908116911614610bad576040805162461bcd60e51b815260206004820181905260248201526000805160206118cc833981519152604482015290519081900360640190fd5b828114610bb957600080fd5b610bc1611608565b603e5460005b84811015610c7a576000603a6000888885818110610be157fe5b905060200201356001600160a01b03166001600160a01b03166001600160a01b0316815260200190815260200160002090506000816002015411610c2457600080fd5b610c57858584818110610c3357fe5b90506020020135610c5183600101548661156890919063ffffffff16565b906115aa565b9250848483818110610c6557fe5b60200291909101356001928301555001610bc7565b50603e5550505050565b610c8c611604565b6033546001600160a01b03908116911614610cdc576040805162461bcd60e51b815260206004820181905260248201526000805160206118cc833981519152604482015290519081900360640190fd5b610ce66000611664565b565b603f5481565b60385481565b6033546001600160a01b031690565b610d0b611375565b6001600160a01b0383166000908152603d60205260408120805490829055603e5490915b83811015610e31576000603a6000878785818110610d4957fe5b905060200201356001600160a01b03166001600160a01b03166001600160a01b0316815260200190815260200160002090506000816002015411610d8c57600080fd5b610d96818461142e565b6000603c6000888886818110610da857fe5b6001600160a01b036020918202939093013583168452838101949094525060409182016000908120918c1681529252812060038401548154919350610df89164e8d4a510009161086191906114c4565b9050610e1b610e1483600101548361156890919063ffffffff16565b87906115aa565b6001928301919091559450919091019050610d2f565b50610e3c85836116b6565b5050505050565b60398181548110610e5357600080fd5b6000918252602090912001546001600160a01b0316905081565b603a6020526000908152604090208054600182015460028301546003840154600490940154929391929091906001600160a01b031685565b6035546001600160a01b031681565b603d6020526000908152604090205481565b610ece611604565b6033546001600160a01b03908116911614610f1e576040805162461bcd60e51b815260206004820181905260248201526000805160206118cc833981519152604482015290519081900360640190fd5b6001600160a01b0382166000908152603a6020526040902060020154610f4357600080fd5b6001600160a01b039182166000908152603a6020526040902060040180546001600160a01b03191691909216179055565b600054610100900460ff1680610f8d5750610f8d611782565b80610f9b575060005460ff16155b610fd65760405162461bcd60e51b815260040180806020018281038252602e8152602001806118ec602e913960400191505060405180910390fd5b600054610100900460ff16158015611001576000805460ff1961ff0019909116610100171660011790555b61100a88611664565b603480546001600160a01b038088166001600160a01b0319928316179092556035805492871692909116919091179055865160001981015b60018101156110f057603b60405180604001604052808b848151811061106457fe5b60200260200101516001600160801b031681526020018a848151811061108657fe5b6020908102919091018101516001600160801b03908116909252835460018101855560009485529381902083519401805493909101518216600160801b029382166fffffffffffffffffffffffffffffffff19909316929092171691909117905560001901611042565b50506037839055603f829055801561110e576000805461ff00191690555b5050505050505050565b6034546001600160a01b031681565b6040602081905260009182529020546001600160a01b031681565b606060008267ffffffffffffffff8111801561115d57600080fd5b50604051908082528060200260200182016040528015611187578160200160208202803683370190505b50905060005b838110156112b85760008585838181106111a357fe5b6001600160a01b036020918202939093013583166000818152603a83526040808220603c8552818320968e168352959093529190912060038401548454600286015493965091935091421180156111f957508015155b1561126857600061121785600201544261156890919063ffffffff16565b90506000611244603e54610861886001015461123e603654876114c490919063ffffffff16565b906114c4565b905061126361125c846108618464e8d4a510006114c4565b85906115aa565b935050505b611290836001015461086764e8d4a510006108618688600001546114c490919063ffffffff16565b87878151811061129c57fe5b602090810291909101015250506001909301925061118d915050565b50949350505050565b60365481565b6112cf611604565b6033546001600160a01b0390811691161461131f576040805162461bcd60e51b815260206004820181905260248201526000805160206118cc833981519152604482015290519081900360640190fd5b6001600160a01b0381166113645760405162461bcd60e51b81526004018080602001828103825260268152602001806118856026913960400191505060405180910390fd5b61136d81611664565b50565b600181565b603b54603f54421180156113895750600081115b1561136d576000603b60018303815481106113a057fe5b6000918252602091829020604080518082019091529101546001600160801b03808216808452600160801b9092041692820192909252603f549092506113e7904290611568565b111561142a576113f5611608565b60208101516001600160801b0316603655603b80548061141157fe5b6000828152602081208201600019908101919091550190555b5050565b8160020154421161143e5761142a565b815480611451575042600283015561142a565b600061146a84600201544261156890919063ffffffff16565b9050600061148f84610861876001015461123e603654876114c490919063ffffffff16565b90506114b26114a7846108618464e8d4a510006114c4565b6003870154906115aa565b60038601555050426002840155505050565b6000826114d357506000611520565b828202828482816114e057fe5b041461151d5760405162461bcd60e51b81526004018080602001828103825260218152602001806118ab6021913960400191505060405180910390fd5b90505b92915050565b600061151d83836040518060400160405280601a81526020017f536166654d6174683a206469766973696f6e206279207a65726f000000000000815250611788565b600061151d83836040518060400160405280601e81526020017f536166654d6174683a207375627472616374696f6e206f766572666c6f77000081525061182a565b60008282018381101561151d576040805162461bcd60e51b815260206004820152601b60248201527f536166654d6174683a206164646974696f6e206f766572666c6f770000000000604482015290519081900360640190fd5b3390565b603e5460395460005b8181101561165f57611657603a60006039848154811061162d57fe5b60009182526020808320909101546001600160a01b0316835282019290925260400190208461142e565b600101611611565b505050565b603380546001600160a01b038381166001600160a01b0319831681179093556040519116919082907f8be0079c531659141344cd1fd0a4f28419497f9722a3daafe3b4186f6b6457e090600090a35050565b6038546037546116c682846115aa565b11156116dc576037546116d99082611568565b91505b811561165f576116ec81836115aa565b6038556001600160a01b0380841660009081526040602081905290205416806117125750825b603554604080516334686fad60e21b81526001600160a01b03848116600483015260248201879052600160448301529151919092169163d1a1beb491606480830192600092919082900301818387803b15801561176e57600080fd5b505af115801561110e573d6000803e3d6000fd5b303b1590565b600081836118145760405162461bcd60e51b81526004018080602001828103825283818151815260200191508051906020019080838360005b838110156117d95781810151838201526020016117c1565b50505050905090810190601f1680156118065780820380516001836020036101000a031916815260200191505b509250505060405180910390fd5b50600083858161182057fe5b0495945050505050565b6000818484111561187c5760405162461bcd60e51b81526020600482018181528351602484015283519092839260449091019190850190808383600083156117d95781810151838201526020016117c1565b50505090039056fe4f776e61626c653a206e6577206f776e657220697320746865207a65726f2061646472657373536166654d6174683a206d756c7469706c69636174696f6e206f766572666c6f774f776e61626c653a2063616c6c6572206973206e6f7420746865206f776e6572436f6e747261637420696e7374616e63652068617320616c7265616479206265656e20696e697469616c697a6564a26469706673582212201560680d0726e82e4d0b4c6874be8a733da849c58ac023bb760c8cc78e61762364736f6c63430007060033",
  "linkReferences": {},
  "deployedLinkReferences": {}
}