{
  "_format": "hh-sol-artifact-1",
  "contractName": "GenericLogic",
  "sourceName": "contracts/protocol/libraries/logic/GenericLogic.sol",
  "abi": [
    {
      "inputs": [],
      "name": "HEALTH_FACTOR_LIQUIDATION_THRESHOLD",
      "outputs": [
        {
          "internalType": "uint256",
          "name": "",
          "type": "uint256"
        }
      ],
      "stateMutability": "view",
      "type": "function"
    }
  ],
  "bytecode": "0x610fc2610026600b82828239805160001a60731461001957fe5b30600052607381538281f3fe73000000000000000000000000000000000000000030146080604052600436106100405760003560e01c8063c3525c2814610045578063e617042414610063575b600080fd5b61004d610083565b60405161005a9190610f62565b60405180910390f35b610076610071366004610e6b565b61008f565b60405161005a9190610f57565b670de0b6b3a764000081565b60006100a86100a336879003870187610ef0565b6102be565b15806100f057506001600160a01b0389166000908152602087905260409020600701546100ee90600160a01b900460ff166100e836889003880188610ef0565b906102ea565b155b156100fd575060016102b2565b610105610d65565b6001600160a01b038a166000908152602088905260409020610126906103ae565b5084525060208301819052151590506101435760019150506102b2565b61015f8988610157368a90038a018a610ef0565b8888886103d9565b506080850152506060830181905260408301919091526101835760019150506102b2565b61021a8160000151600a0a6102148a866001600160a01b031663b3596f078f6040518263ffffffff1660e01b81526004016101be9190610f43565b60206040518083038186803b1580156101d657600080fd5b505afa1580156101ea573d6000803e3d6000fd5b505050506040513d601f19601f8201168201806040525081019061020e9190610f2b565b9061089a565b906108fa565b60a08201819052604082015161022f9161093c565b60c082018190526102445760009150506102b2565b6102838160c0015161021461026a84602001518560a0015161089a90919063ffffffff16565b6080850151604086015161027d9161089a565b9061093c565b60e0820181905260c082015160608301516000926102a292919061097e565b670de0b6b3a76400001115925050505b98975050505050505050565b80517f55555555555555555555555555555555555555555555555555555555555555551615155b919050565b60006080821060405180604001604052806002815260200161373760f01b815250906103945760405162461bcd60e51b81526004018080602001828103825283818151815260200191508051906020019080838360005b83811015610359578181015183820152602001610341565b50505050905090810190601f1680156103865780820380516001836020036101000a031916815260200191505b509250505060405180910390fd5b5050815160016002830281019190911c1615155b92915050565b5461ffff80821692601083901c821692602081901c831692603082901c60ff169260409290921c1690565b60008060008060006103e9610dba565b6103f28a6109aa565b1561041057600080600080600019955095509550955095505061088c565b600060e08201525b878160e0015110156107eb5760e0810151610434908b906109af565b61043d576107db565b60e0810151600090815260208a81526040808320546001600160a01b03166101e085018190528352908d90529020610474816103ae565b506080860181905260c08601929092525060a0840191909152600a0a60208301526101e082015160405163b3596f0760e01b81526001600160a01b038a169163b3596f07916104c69190600401610f43565b60206040518083038186803b1580156104de57600080fd5b505afa1580156104f2573d6000803e3d6000fd5b505050506040513d601f19601f820116820180604052508101906105169190610f2b565b825260c082015115801590610536575060e0820151610536908c906102ea565b15610654578060040160009054906101000a90046001600160a01b03166001600160a01b03166370a082318e6040518263ffffffff1660e01b815260040161057e9190610f43565b60206040518083038186803b15801561059657600080fd5b505afa1580156105aa573d6000803e3d6000fd5b505050506040513d601f19601f820116820180604052508101906105ce9190610f2b565b60408301819052602083015183516000926105ed92916102149161089a565b6101208401519091506106009082610a2e565b61012084015260a08301516106269061061a90839061089a565b61016085015190610a2e565b61016084015260c083015161064c9061064090839061089a565b61018085015190610a2e565b610180840152505b60e0820151610664908c90610a88565b156107d9578060050160009054906101000a90046001600160a01b03166001600160a01b03166370a082318e6040518263ffffffff1660e01b81526004016106ac9190610f43565b60206040518083038186803b1580156106c457600080fd5b505afa1580156106d8573d6000803e3d6000fd5b505050506040513d601f19601f820116820180604052508101906106fc9190610f2b565b8260600181815250506107a68160060160009054906101000a90046001600160a01b03166001600160a01b03166370a082318f6040518263ffffffff1660e01b815260040161074b9190610f43565b60206040518083038186803b15801561076357600080fd5b505afa158015610777573d6000803e3d6000fd5b505050506040513d601f19601f8201168201806040525081019061079b9190610f2b565b606084015190610a2e565b60608301819052602083015183516107d2926107c692916102149161089a565b61014084015190610a2e565b6101408301525b505b60e0810180516001019052610418565b6000816101200151116107ff576000610814565b610120810151610160820151610814916108fa565b61016082015261012081015161082b576000610840565b610120810151610180820151610840916108fa565b610180820181905261012082015161014083015161085d9261097e565b610100820181905261012082015161014083015161016084015161018090940151919850965091945090925090505b965096509650965096915050565b6000826108a9575060006103a8565b828202828482816108b657fe5b04146108f35760405162461bcd60e51b8152600401808060200182810382526021815260200180610f6c6021913960400191505060405180910390fd5b9392505050565b60006108f383836040518060400160405280601a81526020017f536166654d6174683a206469766973696f6e206279207a65726f000000000000815250610b07565b60006108f383836040518060400160405280601e81526020017f536166654d6174683a207375627472616374696f6e206f766572666c6f770000815250610b6c565b60008261098e57506000196108f3565b6109a28361099c8685610bc6565b90610c66565b949350505050565b511590565b60006080821060405180604001604052806002815260200161373760f01b81525090610a1c5760405162461bcd60e51b8152602060048201818152835160248401528351909283926044909101919085019080838360008315610359578181015183820152602001610341565b50509051600360029092021c16151590565b6000828201838110156108f3576040805162461bcd60e51b815260206004820152601b60248201527f536166654d6174683a206164646974696f6e206f766572666c6f770000000000604482015290519081900360640190fd5b60006080821060405180604001604052806002815260200161373760f01b81525090610af55760405162461bcd60e51b8152602060048201818152835160248401528351909283926044909101919085019080838360008315610359578181015183820152602001610341565b50509051600160029092021c16151590565b60008183610b565760405162461bcd60e51b8152602060048201818152835160248401528351909283926044909101919085019080838360008315610359578181015183820152602001610341565b506000838581610b6257fe5b0495945050505050565b60008184841115610bbe5760405162461bcd60e51b8152602060048201818152835160248401528351909283926044909101919085019080838360008315610359578181015183820152602001610341565b505050900390565b6000821580610bd3575081155b15610be0575060006103a8565b816113881981610bec57fe5b0483111560405180604001604052806002815260200161068760f31b81525090610c575760405162461bcd60e51b8152602060048201818152835160248401528351909283926044909101919085019080838360008315610359578181015183820152602001610341565b50506127109102611388010490565b604080518082019091526002815261035360f41b602082015260009082610cce5760405162461bcd60e51b8152602060048201818152835160248401528351909283926044909101919085019080838360008315610359578181015183820152602001610341565b5060408051808201909152600280825261068760f31b6020830152830490670de0b6b3a7640000821904851115610d465760405162461bcd60e51b8152602060048201818152835160248401528351909283926044909101919085019080838360008315610359578181015183820152602001610341565b508281670de0b6b3a764000086020181610d5c57fe5b04949350505050565b6040518061014001604052806000815260200160008152602001600081526020016000815260200160008152602001600081526020016000815260200160008152602001600081526020016000151581525090565b604051806102400160405280600081526020016000815260200160008152602001600081526020016000815260200160008152602001600081526020016000815260200160008152602001600081526020016000815260200160008152602001600081526020016000815260200160001515815260200160006001600160a01b031681526020016000151581526020016000151581525090565b80356001600160a01b03811681146102e557600080fd5b600080600080600080600080888a03610100811215610e88578485fd5b610e918a610e54565b9850610e9f60208b01610e54565b975060408a0135965060608a013595506020607f1982011215610ec0578485fd5b5060808901935060a0890135925060c08901359150610ee160e08a01610e54565b90509295985092959890939650565b600060208284031215610f01578081fd5b6040516020810181811067ffffffffffffffff82111715610f1e57fe5b6040529135825250919050565b600060208284031215610f3c578081fd5b5051919050565b6001600160a01b0391909116815260200190565b901515815260200190565b9081526020019056fe536166654d6174683a206d756c7469706c69636174696f6e206f766572666c6f77a26469706673582212200b20868b3ab3aba34435375794c47b1574a837827ebaa9d94e29f02e2104219964736f6c63430007060033",
  "linkReferences": {},
  "deployedLinkReferences": {}
}