{
  "_format": "hh-sol-artifact-1",
  "contractName": "LendleToken",
  "sourceName": "contracts/staking/LendleToken.sol",
  "abi": [
    {
      "inputs": [
        {
          "internalType": "uint256",
          "name": "_maxTotalSupply",
          "type": "uint256"
        }
      ],
      "stateMutability": "nonpayable",
      "type": "constructor"
    },
    {
      "anonymous": false,
      "inputs": [
        {
          "indexed": true,
          "internalType": "address",
          "name": "owner",
          "type": "address"
        },
        {
          "indexed": true,
          "internalType": "address",
          "name": "spender",
          "type": "address"
        },
        {
          "indexed": false,
          "internalType": "uint256",
          "name": "value",
          "type": "uint256"
        }
      ],
      "name": "Approval",
      "type": "event"
    },
    {
      "anonymous": false,
      "inputs": [
        {
          "indexed": true,
          "internalType": "address",
          "name": "from",
          "type": "address"
        },
        {
          "indexed": true,
          "internalType": "address",
          "name": "to",
          "type": "address"
        },
        {
          "indexed": false,
          "internalType": "uint256",
          "name": "value",
          "type": "uint256"
        }
      ],
      "name": "Transfer",
      "type": "event"
    },
    {
      "inputs": [
        {
          "internalType": "address",
          "name": "",
          "type": "address"
        },
        {
          "internalType": "address",
          "name": "",
          "type": "address"
        }
      ],
      "name": "allowance",
      "outputs": [
        {
          "internalType": "uint256",
          "name": "",
          "type": "uint256"
        }
      ],
      "stateMutability": "view",
      "type": "function"
    },
    {
      "inputs": [
        {
          "internalType": "address",
          "name": "_spender",
          "type": "address"
        },
        {
          "internalType": "uint256",
          "name": "_value",
          "type": "uint256"
        }
      ],
      "name": "approve",
      "outputs": [
        {
          "internalType": "bool",
          "name": "",
          "type": "bool"
        }
      ],
      "stateMutability": "nonpayable",
      "type": "function"
    },
    {
      "inputs": [
        {
          "internalType": "address",
          "name": "",
          "type": "address"
        }
      ],
      "name": "balanceOf",
      "outputs": [
        {
          "internalType": "uint256",
          "name": "",
          "type": "uint256"
        }
      ],
      "stateMutability": "view",
      "type": "function"
    },
    {
      "inputs": [],
      "name": "decimals",
      "outputs": [
        {
          "internalType": "uint8",
          "name": "",
          "type": "uint8"
        }
      ],
      "stateMutability": "view",
      "type": "function"
    },
    {
      "inputs": [],
      "name": "maxTotalSupply",
      "outputs": [
        {
          "internalType": "uint256",
          "name": "",
          "type": "uint256"
        }
      ],
      "stateMutability": "view",
      "type": "function"
    },
    {
      "inputs": [
        {
          "internalType": "address",
          "name": "_to",
          "type": "address"
        },
        {
          "internalType": "uint256",
          "name": "_value",
          "type": "uint256"
        }
      ],
      "name": "mint",
      "outputs": [
        {
          "internalType": "bool",
          "name": "",
          "type": "bool"
        }
      ],
      "stateMutability": "nonpayable",
      "type": "function"
    },
    {
      "inputs": [],
      "name": "minter",
      "outputs": [
        {
          "internalType": "address",
          "name": "",
          "type": "address"
        }
      ],
      "stateMutability": "view",
      "type": "function"
    },
    {
      "inputs": [],
      "name": "name",
      "outputs": [
        {
          "internalType": "string",
          "name": "",
          "type": "string"
        }
      ],
      "stateMutability": "view",
      "type": "function"
    },
    {
      "inputs": [
        {
          "internalType": "address",
          "name": "_minter",
          "type": "address"
        }
      ],
      "name": "setMinter",
      "outputs": [
        {
          "internalType": "bool",
          "name": "",
          "type": "bool"
        }
      ],
      "stateMutability": "nonpayable",
      "type": "function"
    },
    {
      "inputs": [],
      "name": "symbol",
      "outputs": [
        {
          "internalType": "string",
          "name": "",
          "type": "string"
        }
      ],
      "stateMutability": "view",
      "type": "function"
    },
    {
      "inputs": [],
      "name": "totalSupply",
      "outputs": [
        {
          "internalType": "uint256",
          "name": "",
          "type": "uint256"
        }
      ],
      "stateMutability": "view",
      "type": "function"
    },
    {
      "inputs": [
        {
          "internalType": "address",
          "name": "_to",
          "type": "address"
        },
        {
          "internalType": "uint256",
          "name": "_value",
          "type": "uint256"
        }
      ],
      "name": "transfer",
      "outputs": [
        {
          "internalType": "bool",
          "name": "",
          "type": "bool"
        }
      ],
      "stateMutability": "nonpayable",
      "type": "function"
    },
    {
      "inputs": [
        {
          "internalType": "address",
          "name": "_from",
          "type": "address"
        },
        {
          "internalType": "address",
          "name": "_to",
          "type": "address"
        },
        {
          "internalType": "uint256",
          "name": "_value",
          "type": "uint256"
        }
      ],
      "name": "transferFrom",
      "outputs": [
        {
          "internalType": "bool",
          "name": "",
          "type": "bool"
        }
      ],
      "stateMutability": "nonpayable",
      "type": "function"
    }
  ],
  "bytecode": "0x60a060405234801561001057600080fd5b5060405161092f38038061092f8339818101604052602081101561003357600080fd5b5051608081905260408051600080825291513392917fddf252ad1be2c89b69c2b068fc378daa952ba7f163c4a11628f55a4df523b3ef919081900360200190a35060805161089c610093600039806104735280610505525061089c6000f3fe608060405234801561001057600080fd5b50600436106100cf5760003560e01c8063313ce5671161008c57806395d89b411161006657806395d89b411461027d578063a9059cbb14610285578063dd62ed3e146102b1578063fca3b5aa146102df576100cf565b8063313ce5671461020d57806340c10f191461022b57806370a0823114610257576100cf565b806306fdde03146100d45780630754617214610151578063095ea7b31461017557806318160ddd146101b557806323b872dd146101cf5780632ab4d05214610205575b600080fd5b6100dc610305565b6040805160208082528351818301528351919283929083019185019080838360005b838110156101165781810151838201526020016100fe565b50505050905090810190601f1680156101435780820380516001836020036101000a031916815260200191505b509250505060405180910390f35b610159610336565b604080516001600160a01b039092168252519081900360200190f35b6101a16004803603604081101561018b57600080fd5b506001600160a01b038135169060200135610345565b604080519115158252519081900360200190f35b6101bd6103ab565b60408051918252519081900360200190f35b6101a1600480360360608110156101e557600080fd5b506001600160a01b038135811691602081013590911690604001356103b1565b6101bd610471565b610215610495565b6040805160ff9092168252519081900360200190f35b6101a16004803603604081101561024157600080fd5b506001600160a01b03813516906020013561049a565b6101bd6004803603602081101561026d57600080fd5b50356001600160a01b0316610579565b6100dc61058b565b6101a16004803603604081101561029b57600080fd5b506001600160a01b0381351690602001356105ab565b6101bd600480360360408110156102c757600080fd5b506001600160a01b03813581169160200135166105c1565b6101a1600480360360208110156102f557600080fd5b50356001600160a01b03166105de565b604051806040016040528060158152602001742632b732363290283937ba37b1b7b6102a37b5b2b760591b81525081565b6001546001600160a01b031681565b3360008181526003602090815260408083206001600160a01b038716808552908352818420869055815186815291519394909390927f8c5be1e5ebec7d5bd14f71427d1e84f3dd0314c0f7b2291e5b200ac8c7c3b925928290030190a350600192915050565b60005481565b6001600160a01b038316600090815260036020908152604080832033845290915281205482811015610423576040805162461bcd60e51b8152602060048201526016602482015275496e73756666696369656e7420616c6c6f77616e636560501b604482015290519081900360640190fd5b600019811461045b57610436818461061a565b6001600160a01b03861660009081526003602090815260408083203384529091529020555b610466858585610663565b506001949350505050565b7f000000000000000000000000000000000000000000000000000000000000000081565b601281565b6001546000906001600160a01b031633146104b457600080fd5b6001600160a01b0383166000908152600260205260409020546104d79083610775565b6001600160a01b038416600090815260026020526040812091909155546104fe9083610775565b60008190557f0000000000000000000000000000000000000000000000000000000000000000101561052f57600080fd5b6040805183815290516001600160a01b038516916000917fddf252ad1be2c89b69c2b068fc378daa952ba7f163c4a11628f55a4df523b3ef9181900360200190a350600192915050565b60026020526000908152604090205481565b604051806040016040528060048152602001631311539160e21b81525081565b60006105b8338484610663565b50600192915050565b600360209081526000928352604080842090915290825290205481565b6001546000906001600160a01b0316156105f757600080fd5b50600180546001600160a01b0383166001600160a01b0319909116178155919050565b600061065c83836040518060400160405280601e81526020017f536166654d6174683a207375627472616374696f6e206f766572666c6f7700008152506107cf565b9392505050565b6001600160a01b0383166000908152600260205260409020548111156106c7576040805162461bcd60e51b8152602060048201526014602482015273496e73756666696369656e742062616c616e636560601b604482015290519081900360640190fd5b6001600160a01b0383166000908152600260205260409020546106ea908261061a565b6001600160a01b0380851660009081526002602052604080822093909355908416815220546107199082610775565b6001600160a01b0380841660008181526002602090815260409182902094909455805185815290519193928716927fddf252ad1be2c89b69c2b068fc378daa952ba7f163c4a11628f55a4df523b3ef92918290030190a3505050565b60008282018381101561065c576040805162461bcd60e51b815260206004820152601b60248201527f536166654d6174683a206164646974696f6e206f766572666c6f770000000000604482015290519081900360640190fd5b6000818484111561085e5760405162461bcd60e51b81526004018080602001828103825283818151815260200191508051906020019080838360005b8381101561082357818101518382015260200161080b565b50505050905090810190601f1680156108505780820380516001836020036101000a031916815260200191505b509250505060405180910390fd5b50505090039056fea26469706673582212203d065649e72b99be14d3337eb40cf76bdb06201a6f7db3e33a60f575d227518464736f6c63430007060033",
  "linkReferences": {},
  "deployedLinkReferences": {}
}