{
  "_format": "hh-sol-artifact-1",
  "contractName": "LendingPool",
  "sourceName": "contracts/protocol/lendingpool/LendingPool.sol",
  "abi": [
    {
      "anonymous": false,
      "inputs": [
        {
          "indexed": true,
          "internalType": "address",
          "name": "reserve",
          "type": "address"
        },
        {
          "indexed": false,
          "internalType": "address",
          "name": "user",
          "type": "address"
        },
        {
          "indexed": true,
          "internalType": "address",
          "name": "onBehalfOf",
          "type": "address"
        },
        {
          "indexed": false,
          "internalType": "uint256",
          "name": "amount",
          "type": "uint256"
        },
        {
          "indexed": false,
          "internalType": "uint256",
          "name": "borrowRateMode",
          "type": "uint256"
        },
        {
          "indexed": false,
          "internalType": "uint256",
          "name": "borrowRate",
          "type": "uint256"
        },
        {
          "indexed": true,
          "internalType": "uint16",
          "name": "referral",
          "type": "uint16"
        }
      ],
      "name": "Borrow",
      "type": "event"
    },
    {
      "anonymous": false,
      "inputs": [
        {
          "indexed": true,
          "internalType": "address",
          "name": "reserve",
          "type": "address"
        },
        {
          "indexed": false,
          "internalType": "address",
          "name": "user",
          "type": "address"
        },
        {
          "indexed": true,
          "internalType": "address",
          "name": "onBehalfOf",
          "type": "address"
        },
        {
          "indexed": false,
          "internalType": "uint256",
          "name": "amount",
          "type": "uint256"
        },
        {
          "indexed": true,
          "internalType": "uint16",
          "name": "referral",
          "type": "uint16"
        }
      ],
      "name": "Deposit",
      "type": "event"
    },
    {
      "anonymous": false,
      "inputs": [
        {
          "indexed": true,
          "internalType": "address",
          "name": "target",
          "type": "address"
        },
        {
          "indexed": true,
          "internalType": "address",
          "name": "initiator",
          "type": "address"
        },
        {
          "indexed": true,
          "internalType": "address",
          "name": "asset",
          "type": "address"
        },
        {
          "indexed": false,
          "internalType": "uint256",
          "name": "amount",
          "type": "uint256"
        },
        {
          "indexed": false,
          "internalType": "uint256",
          "name": "premium",
          "type": "uint256"
        },
        {
          "indexed": false,
          "internalType": "uint16",
          "name": "referralCode",
          "type": "uint16"
        }
      ],
      "name": "FlashLoan",
      "type": "event"
    },
    {
      "anonymous": false,
      "inputs": [
        {
          "indexed": true,
          "internalType": "address",
          "name": "collateralAsset",
          "type": "address"
        },
        {
          "indexed": true,
          "internalType": "address",
          "name": "debtAsset",
          "type": "address"
        },
        {
          "indexed": true,
          "internalType": "address",
          "name": "user",
          "type": "address"
        },
        {
          "indexed": false,
          "internalType": "uint256",
          "name": "debtToCover",
          "type": "uint256"
        },
        {
          "indexed": false,
          "internalType": "uint256",
          "name": "liquidatedCollateralAmount",
          "type": "uint256"
        },
        {
          "indexed": false,
          "internalType": "address",
          "name": "liquidator",
          "type": "address"
        },
        {
          "indexed": false,
          "internalType": "bool",
          "name": "receiveAToken",
          "type": "bool"
        }
      ],
      "name": "LiquidationCall",
      "type": "event"
    },
    {
      "anonymous": false,
      "inputs": [],
      "name": "Paused",
      "type": "event"
    },
    {
      "anonymous": false,
      "inputs": [
        {
          "indexed": true,
          "internalType": "address",
          "name": "reserve",
          "type": "address"
        },
        {
          "indexed": true,
          "internalType": "address",
          "name": "user",
          "type": "address"
        }
      ],
      "name": "RebalanceStableBorrowRate",
      "type": "event"
    },
    {
      "anonymous": false,
      "inputs": [
        {
          "indexed": true,
          "internalType": "address",
          "name": "reserve",
          "type": "address"
        },
        {
          "indexed": true,
          "internalType": "address",
          "name": "user",
          "type": "address"
        },
        {
          "indexed": true,
          "internalType": "address",
          "name": "repayer",
          "type": "address"
        },
        {
          "indexed": false,
          "internalType": "uint256",
          "name": "amount",
          "type": "uint256"
        }
      ],
      "name": "Repay",
      "type": "event"
    },
    {
      "anonymous": false,
      "inputs": [
        {
          "indexed": true,
          "internalType": "address",
          "name": "reserve",
          "type": "address"
        },
        {
          "indexed": false,
          "internalType": "uint256",
          "name": "liquidityRate",
          "type": "uint256"
        },
        {
          "indexed": false,
          "internalType": "uint256",
          "name": "stableBorrowRate",
          "type": "uint256"
        },
        {
          "indexed": false,
          "internalType": "uint256",
          "name": "variableBorrowRate",
          "type": "uint256"
        },
        {
          "indexed": false,
          "internalType": "uint256",
          "name": "liquidityIndex",
          "type": "uint256"
        },
        {
          "indexed": false,
          "internalType": "uint256",
          "name": "variableBorrowIndex",
          "type": "uint256"
        }
      ],
      "name": "ReserveDataUpdated",
      "type": "event"
    },
    {
      "anonymous": false,
      "inputs": [
        {
          "indexed": true,
          "internalType": "address",
          "name": "reserve",
          "type": "address"
        },
        {
          "indexed": true,
          "internalType": "address",
          "name": "user",
          "type": "address"
        }
      ],
      "name": "ReserveUsedAsCollateralDisabled",
      "type": "event"
    },
    {
      "anonymous": false,
      "inputs": [
        {
          "indexed": true,
          "internalType": "address",
          "name": "reserve",
          "type": "address"
        },
        {
          "indexed": true,
          "internalType": "address",
          "name": "user",
          "type": "address"
        }
      ],
      "name": "ReserveUsedAsCollateralEnabled",
      "type": "event"
    },
    {
      "anonymous": false,
      "inputs": [
        {
          "indexed": true,
          "internalType": "address",
          "name": "reserve",
          "type": "address"
        },
        {
          "indexed": true,
          "internalType": "address",
          "name": "user",
          "type": "address"
        },
        {
          "indexed": false,
          "internalType": "uint256",
          "name": "rateMode",
          "type": "uint256"
        }
      ],
      "name": "Swap",
      "type": "event"
    },
    {
      "anonymous": false,
      "inputs": [],
      "name": "Unpaused",
      "type": "event"
    },
    {
      "anonymous": false,
      "inputs": [
        {
          "indexed": true,
          "internalType": "address",
          "name": "reserve",
          "type": "address"
        },
        {
          "indexed": true,
          "internalType": "address",
          "name": "user",
          "type": "address"
        },
        {
          "indexed": true,
          "internalType": "address",
          "name": "to",
          "type": "address"
        },
        {
          "indexed": false,
          "internalType": "uint256",
          "name": "amount",
          "type": "uint256"
        }
      ],
      "name": "Withdraw",
      "type": "event"
    },
    {
      "inputs": [],
      "name": "FLASHLOAN_PREMIUM_TOTAL",
      "outputs": [
        {
          "internalType": "uint256",
          "name": "",
          "type": "uint256"
        }
      ],
      "stateMutability": "view",
      "type": "function"
    },
    {
      "inputs": [],
      "name": "LENDINGPOOL_REVISION",
      "outputs": [
        {
          "internalType": "uint256",
          "name": "",
          "type": "uint256"
        }
      ],
      "stateMutability": "view",
      "type": "function"
    },
    {
      "inputs": [],
      "name": "MAX_NUMBER_RESERVES",
      "outputs": [
        {
          "internalType": "uint256",
          "name": "",
          "type": "uint256"
        }
      ],
      "stateMutability": "view",
      "type": "function"
    },
    {
      "inputs": [],
      "name": "MAX_STABLE_RATE_BORROW_SIZE_PERCENT",
      "outputs": [
        {
          "internalType": "uint256",
          "name": "",
          "type": "uint256"
        }
      ],
      "stateMutability": "view",
      "type": "function"
    },
    {
      "inputs": [
        {
          "internalType": "address",
          "name": "asset",
          "type": "address"
        },
        {
          "internalType": "uint256",
          "name": "amount",
          "type": "uint256"
        },
        {
          "internalType": "uint256",
          "name": "interestRateMode",
          "type": "uint256"
        },
        {
          "internalType": "uint16",
          "name": "referralCode",
          "type": "uint16"
        },
        {
          "internalType": "address",
          "name": "onBehalfOf",
          "type": "address"
        }
      ],
      "name": "borrow",
      "outputs": [],
      "stateMutability": "nonpayable",
      "type": "function"
    },
    {
      "inputs": [
        {
          "internalType": "address",
          "name": "asset",
          "type": "address"
        },
        {
          "internalType": "uint256",
          "name": "amount",
          "type": "uint256"
        },
        {
          "internalType": "address",
          "name": "onBehalfOf",
          "type": "address"
        },
        {
          "internalType": "uint16",
          "name": "referralCode",
          "type": "uint16"
        }
      ],
      "name": "deposit",
      "outputs": [],
      "stateMutability": "nonpayable",
      "type": "function"
    },
    {
      "inputs": [
        {
          "internalType": "address",
          "name": "asset",
          "type": "address"
        },
        {
          "internalType": "address",
          "name": "from",
          "type": "address"
        },
        {
          "internalType": "address",
          "name": "to",
          "type": "address"
        },
        {
          "internalType": "uint256",
          "name": "amount",
          "type": "uint256"
        },
        {
          "internalType": "uint256",
          "name": "balanceFromBefore",
          "type": "uint256"
        },
        {
          "internalType": "uint256",
          "name": "balanceToBefore",
          "type": "uint256"
        }
      ],
      "name": "finalizeTransfer",
      "outputs": [],
      "stateMutability": "nonpayable",
      "type": "function"
    },
    {
      "inputs": [
        {
          "internalType": "address",
          "name": "receiverAddress",
          "type": "address"
        },
        {
          "internalType": "address[]",
          "name": "assets",
          "type": "address[]"
        },
        {
          "internalType": "uint256[]",
          "name": "amounts",
          "type": "uint256[]"
        },
        {
          "internalType": "uint256[]",
          "name": "modes",
          "type": "uint256[]"
        },
        {
          "internalType": "address",
          "name": "onBehalfOf",
          "type": "address"
        },
        {
          "internalType": "bytes",
          "name": "params",
          "type": "bytes"
        },
        {
          "internalType": "uint16",
          "name": "referralCode",
          "type": "uint16"
        }
      ],
      "name": "flashLoan",
      "outputs": [],
      "stateMutability": "nonpayable",
      "type": "function"
    },
    {
      "inputs": [],
      "name": "getAddressesProvider",
      "outputs": [
        {
          "internalType": "contract ILendingPoolAddressesProvider",
          "name": "",
          "type": "address"
        }
      ],
      "stateMutability": "view",
      "type": "function"
    },
    {
      "inputs": [
        {
          "internalType": "address",
          "name": "asset",
          "type": "address"
        }
      ],
      "name": "getConfiguration",
      "outputs": [
        {
          "components": [
            {
              "internalType": "uint256",
              "name": "data",
              "type": "uint256"
            }
          ],
          "internalType": "struct DataTypes.ReserveConfigurationMap",
          "name": "",
          "type": "tuple"
        }
      ],
      "stateMutability": "view",
      "type": "function"
    },
    {
      "inputs": [
        {
          "internalType": "address",
          "name": "asset",
          "type": "address"
        }
      ],
      "name": "getReserveData",
      "outputs": [
        {
          "components": [
            {
              "components": [
                {
                  "internalType": "uint256",
                  "name": "data",
                  "type": "uint256"
                }
              ],
              "internalType": "struct DataTypes.ReserveConfigurationMap",
              "name": "configuration",
              "type": "tuple"
            },
            {
              "internalType": "uint128",
              "name": "liquidityIndex",
              "type": "uint128"
            },
            {
              "internalType": "uint128",
              "name": "variableBorrowIndex",
              "type": "uint128"
            },
            {
              "internalType": "uint128",
              "name": "currentLiquidityRate",
              "type": "uint128"
            },
            {
              "internalType": "uint128",
              "name": "currentVariableBorrowRate",
              "type": "uint128"
            },
            {
              "internalType": "uint128",
              "name": "currentStableBorrowRate",
              "type": "uint128"
            },
            {
              "internalType": "uint40",
              "name": "lastUpdateTimestamp",
              "type": "uint40"
            },
            {
              "internalType": "address",
              "name": "aTokenAddress",
              "type": "address"
            },
            {
              "internalType": "address",
              "name": "stableDebtTokenAddress",
              "type": "address"
            },
            {
              "internalType": "address",
              "name": "variableDebtTokenAddress",
              "type": "address"
            },
            {
              "internalType": "address",
              "name": "interestRateStrategyAddress",
              "type": "address"
            },
            {
              "internalType": "uint8",
              "name": "id",
              "type": "uint8"
            }
          ],
          "internalType": "struct DataTypes.ReserveData",
          "name": "",
          "type": "tuple"
        }
      ],
      "stateMutability": "view",
      "type": "function"
    },
    {
      "inputs": [
        {
          "internalType": "address",
          "name": "asset",
          "type": "address"
        }
      ],
      "name": "getReserveNormalizedIncome",
      "outputs": [
        {
          "internalType": "uint256",
          "name": "",
          "type": "uint256"
        }
      ],
      "stateMutability": "view",
      "type": "function"
    },
    {
      "inputs": [
        {
          "internalType": "address",
          "name": "asset",
          "type": "address"
        }
      ],
      "name": "getReserveNormalizedVariableDebt",
      "outputs": [
        {
          "internalType": "uint256",
          "name": "",
          "type": "uint256"
        }
      ],
      "stateMutability": "view",
      "type": "function"
    },
    {
      "inputs": [],
      "name": "getReservesList",
      "outputs": [
        {
          "internalType": "address[]",
          "name": "",
          "type": "address[]"
        }
      ],
      "stateMutability": "view",
      "type": "function"
    },
    {
      "inputs": [
        {
          "internalType": "address",
          "name": "user",
          "type": "address"
        }
      ],
      "name": "getUserAccountData",
      "outputs": [
        {
          "internalType": "uint256",
          "name": "totalCollateralETH",
          "type": "uint256"
        },
        {
          "internalType": "uint256",
          "name": "totalDebtETH",
          "type": "uint256"
        },
        {
          "internalType": "uint256",
          "name": "availableBorrowsETH",
          "type": "uint256"
        },
        {
          "internalType": "uint256",
          "name": "currentLiquidationThreshold",
          "type": "uint256"
        },
        {
          "internalType": "uint256",
          "name": "ltv",
          "type": "uint256"
        },
        {
          "internalType": "uint256",
          "name": "healthFactor",
          "type": "uint256"
        }
      ],
      "stateMutability": "view",
      "type": "function"
    },
    {
      "inputs": [
        {
          "internalType": "address",
          "name": "user",
          "type": "address"
        }
      ],
      "name": "getUserConfiguration",
      "outputs": [
        {
          "components": [
            {
              "internalType": "uint256",
              "name": "data",
              "type": "uint256"
            }
          ],
          "internalType": "struct DataTypes.UserConfigurationMap",
          "name": "",
          "type": "tuple"
        }
      ],
      "stateMutability": "view",
      "type": "function"
    },
    {
      "inputs": [
        {
          "internalType": "address",
          "name": "asset",
          "type": "address"
        },
        {
          "internalType": "address",
          "name": "aTokenAddress",
          "type": "address"
        },
        {
          "internalType": "address",
          "name": "stableDebtAddress",
          "type": "address"
        },
        {
          "internalType": "address",
          "name": "variableDebtAddress",
          "type": "address"
        },
        {
          "internalType": "address",
          "name": "interestRateStrategyAddress",
          "type": "address"
        }
      ],
      "name": "initReserve",
      "outputs": [],
      "stateMutability": "nonpayable",
      "type": "function"
    },
    {
      "inputs": [
        {
          "internalType": "contract ILendingPoolAddressesProvider",
          "name": "provider",
          "type": "address"
        }
      ],
      "name": "initialize",
      "outputs": [],
      "stateMutability": "nonpayable",
      "type": "function"
    },
    {
      "inputs": [
        {
          "internalType": "address",
          "name": "collateralAsset",
          "type": "address"
        },
        {
          "internalType": "address",
          "name": "debtAsset",
          "type": "address"
        },
        {
          "internalType": "address",
          "name": "user",
          "type": "address"
        },
        {
          "internalType": "uint256",
          "name": "debtToCover",
          "type": "uint256"
        },
        {
          "internalType": "bool",
          "name": "receiveAToken",
          "type": "bool"
        }
      ],
      "name": "liquidationCall",
      "outputs": [],
      "stateMutability": "nonpayable",
      "type": "function"
    },
    {
      "inputs": [],
      "name": "paused",
      "outputs": [
        {
          "internalType": "bool",
          "name": "",
          "type": "bool"
        }
      ],
      "stateMutability": "view",
      "type": "function"
    },
    {
      "inputs": [
        {
          "internalType": "address",
          "name": "asset",
          "type": "address"
        },
        {
          "internalType": "address",
          "name": "user",
          "type": "address"
        }
      ],
      "name": "rebalanceStableBorrowRate",
      "outputs": [],
      "stateMutability": "nonpayable",
      "type": "function"
    },
    {
      "inputs": [
        {
          "internalType": "address",
          "name": "asset",
          "type": "address"
        },
        {
          "internalType": "uint256",
          "name": "amount",
          "type": "uint256"
        },
        {
          "internalType": "uint256",
          "name": "rateMode",
          "type": "uint256"
        },
        {
          "internalType": "address",
          "name": "onBehalfOf",
          "type": "address"
        }
      ],
      "name": "repay",
      "outputs": [
        {
          "internalType": "uint256",
          "name": "",
          "type": "uint256"
        }
      ],
      "stateMutability": "nonpayable",
      "type": "function"
    },
    {
      "inputs": [
        {
          "internalType": "address",
          "name": "asset",
          "type": "address"
        },
        {
          "internalType": "uint256",
          "name": "configuration",
          "type": "uint256"
        }
      ],
      "name": "setConfiguration",
      "outputs": [],
      "stateMutability": "nonpayable",
      "type": "function"
    },
    {
      "inputs": [
        {
          "internalType": "bool",
          "name": "val",
          "type": "bool"
        }
      ],
      "name": "setPause",
      "outputs": [],
      "stateMutability": "nonpayable",
      "type": "function"
    },
    {
      "inputs": [
        {
          "internalType": "address",
          "name": "asset",
          "type": "address"
        },
        {
          "internalType": "address",
          "name": "rateStrategyAddress",
          "type": "address"
        }
      ],
      "name": "setReserveInterestRateStrategyAddress",
      "outputs": [],
      "stateMutability": "nonpayable",
      "type": "function"
    },
    {
      "inputs": [
        {
          "internalType": "address",
          "name": "asset",
          "type": "address"
        },
        {
          "internalType": "bool",
          "name": "useAsCollateral",
          "type": "bool"
        }
      ],
      "name": "setUserUseReserveAsCollateral",
      "outputs": [],
      "stateMutability": "nonpayable",
      "type": "function"
    },
    {
      "inputs": [
        {
          "internalType": "address",
          "name": "asset",
          "type": "address"
        },
        {
          "internalType": "uint256",
          "name": "rateMode",
          "type": "uint256"
        }
      ],
      "name": "swapBorrowRateMode",
      "outputs": [],
      "stateMutability": "nonpayable",
      "type": "function"
    },
    {
      "inputs": [
        {
          "internalType": "address",
          "name": "asset",
          "type": "address"
        },
        {
          "internalType": "uint256",
          "name": "amount",
          "type": "uint256"
        },
        {
          "internalType": "address",
          "name": "to",
          "type": "address"
        }
      ],
      "name": "withdraw",
      "outputs": [
        {
          "internalType": "uint256",
          "name": "",
          "type": "uint256"
        }
      ],
      "stateMutability": "nonpayable",
      "type": "function"
    }
  ],
  "bytecode": "0x60806040526000805534801561001457600080fd5b506158d580620000256000396000f3fe608060405234801561001057600080fd5b50600436106101c35760003560e01c8063ab9c4b5d116100f9578063d15e005311610097578063e82fec2f11610071578063e82fec2f146103c2578063e8eda9df146103ca578063f8119d51146103dd578063fe65acfe146103e5576101c3565b8063d15e005314610387578063d1946dbc1461039a578063d5ed3933146103af576101c3565b8063bf92857c116100d3578063bf92857c14610329578063c44b11f71461034e578063c4d66de814610361578063cd11238214610374576101c3565b8063ab9c4b5d146102f0578063b8d2927614610303578063bedb86fb14610316576101c3565b80635a3b74b9116101665780637a708e92116101405780637a708e92146102af5780638afaff02146102c257806394ba89a2146102ca578063a415bcad146102dd576101c3565b80635a3b74b9146102745780635c975abb1461028757806369328dec1461029c576101c3565b806335ea6a75116101a257806335ea6a751461020e578063386497fd1461022e5780634417a58314610241578063573ade8114610261576101c3565b8062a718a9146101c8578063074b2e43146101dd5780631d2118f9146101fb575b600080fd5b6101db6101d6366004614dc9565b6103fa565b005b6101e56105ce565b6040516101f2919061578c565b60405180910390f35b6101db610209366004614d21565b6105d4565b61022161021c366004614ce9565b61060d565b6040516101f291906155a6565b6101e561023c366004614ce9565b6106ef565b61025461024f366004614ce9565b610716565b6040516101f2919061559c565b6101e561026f366004615064565b610749565b6101db610282366004614f7b565b610a75565b61028f610c3a565b6040516101f2919061555e565b6101e56102aa366004614fd3565b610c43565b6101db6102bd366004614d59565b610f6d565b6101e561104f565b6101db6102d8366004614fa8565b611054565b6101db6102eb3660046150ad565b6113c1565b6101db6102fe366004614e86565b611441565b6101db610311366004614fa8565b611b15565b6101db6103243660046150eb565b611b39565b61033c610337366004614ce9565b611bb4565b6040516101f2969594939291906157af565b61025461035c366004614ce9565b611cb0565b6101db61036f366004614ce9565b611ce3565b6101db610382366004614d21565b611daa565b6101e5610395366004614ce9565b612020565b6103a2612041565b6040516101f29190615511565b6101db6103bd366004614e22565b6120e7565b6101e5612330565b6101db6103d8366004615014565b612336565b6101e5612563565b6103ed612569565b6040516101f2919061529d565b610402612578565b6034546040805163712d917160e01b815290516000926001600160a01b03169163712d9171916004808301926020929190829003018186803b15801561044757600080fd5b505afa15801561045b573d6000803e3d6000fd5b505050506040513d601f19601f8201168201806040525081019061047f9190614d05565b9050600080826001600160a01b031688888888886040516024016104a7959493929190615325565b60408051601f198184030181529181526020820180516001600160e01b031662a718a960e01b179052516104db9190615281565b600060405180830381855af49150503d8060008114610516576040519150601f19603f3d011682016040523d82523d6000602084013e61051b565b606091505b50915091508160405180604001604052806002815260200161323360f01b815250906105635760405162461bcd60e51b815260040161055a9190615569565b60405180910390fd5b506000808280602001905181019061057b919061513b565b9150915081600014816040516020016105949190615281565b604051602081830303815290604052906105c15760405162461bcd60e51b815260040161055a9190615569565b5050505050505050505050565b603b5490565b6105dc6125b6565b6001600160a01b03918216600090815260356020526040902060070180546001600160a01b03191691909216179055565b610615614a37565b506001600160a01b0381811660009081526035602090815260409182902082516101a08101845281546101808201908152815260018201546001600160801b0380821694830194909452600160801b908190048416948201949094526002820154808416606083015284900483166080820152600382015492831660a08201529290910464ffffffffff1660c08301526004810154831660e0830152600581015483166101008301526006810154831661012083015260070154918216610140820152600160a01b90910460ff166101608201525b919050565b6001600160a01b038116600090815260356020526040812061071090612675565b92915050565b61071e614aa2565b506001600160a01b031660009081526036602090815260409182902082519182019092529054815290565b6000610753612578565b6001600160a01b0385166000908152603560205260408120908061077785846126f2565b91509150600086600281111561078957fe5b60405163fa0c214960e01b815290915073__$de8c0cf1a7d7c36c802af9a64fb9d86036$__9063fa0c2149906107cd9087908c9086908c908a908a9060040161574b565b60006040518083038186803b1580156107e557600080fd5b505af41580156107f9573d6000803e3d6000fd5b5060009250600191506108099050565b82600281111561081557fe5b146108205782610822565b835b90508089101561082f5750875b610838856127f7565b600182600281111561084657fe5b14156108b7576005850154604051632770a7eb60e21b81526001600160a01b0390911690639dc29fac90610880908a9085906004016152e2565b600060405180830381600087803b15801561089a57600080fd5b505af11580156108ae573d6000803e3d6000fd5b50505050610935565b60068501546001860154604051637a94c56560e11b81526001600160a01b039092169163f5298aca91610902918b918691600160801b9091046001600160801b0316906004016152fb565b600060405180830381600087803b15801561091c57600080fd5b505af1158015610930573d6000803e3d6000fd5b505050505b60048501546001600160a01b0316610951868c838560006128b8565b6109658261095f8787612d28565b90612d82565b61099d5760078601546001600160a01b038916600090815260366020526040812061099d929091600160a01b90910460ff1690612dc4565b6109b26001600160a01b038c16338385612e62565b6040516388dd91a160e01b81526001600160a01b038216906388dd91a1906109e090339086906004016152e2565b600060405180830381600087803b1580156109fa57600080fd5b505af1158015610a0e573d6000803e3d6000fd5b50505050336001600160a01b0316886001600160a01b03168c6001600160a01b03167f4cdde6e09bb755c9a5589ebaec640bbfedff1362d4b255ebf8339782b9942faa85604051610a5f919061578c565b60405180910390a4509998505050505050505050565b610a7d612578565b6001600160a01b03808316600090815260356020818152604080842033855260368352938190206038546034548351631f94a27560e31b81529351969773__$de8c0cf1a7d7c36c802af9a64fb9d86036$__97635fa297e5978a978d978d9792969295603795939493169263fca513a892600480840193919291829003018186803b158015610b0b57600080fd5b505afa158015610b1f573d6000803e3d6000fd5b505050506040513d601f19601f82011682018060405250810190610b439190614d05565b6040518963ffffffff1660e01b8152600401610b669897969594939291906156c7565b60006040518083038186803b158015610b7e57600080fd5b505af4158015610b92573d6000803e3d6000fd5b505050506007810154336000908152603660205260409020610bbe91600160a01b900460ff1684612ec2565b8115610bfe5760405133906001600160a01b038516907e058a56ea94653cdf4f152d227ace22d4c00ad99e2a43f58cb7d9e3feb295f290600090a3610c35565b60405133906001600160a01b038516907f44c58d81365b66dd4b1a7f36c25aa97b8c71c361ee4937adc1a00000227db5dd90600090a35b505050565b60395460ff1690565b6000610c4d612578565b6001600160a01b0380851660009081526035602052604080822060048082015492516370a0823160e01b8152919492909216929183916370a0823191610c959133910161529d565b60206040518083038186803b158015610cad57600080fd5b505afa158015610cc1573d6000803e3d6000fd5b505050506040513d601f19601f82011682018060405250810190610ce59190615123565b905085600019811415610cf55750805b73__$de8c0cf1a7d7c36c802af9a64fb9d86036$__63d09db04a898385603560366000336001600160a01b03166001600160a01b031681526020019081526020016000206037603854603460009054906101000a90046001600160a01b03166001600160a01b031663fca513a86040518163ffffffff1660e01b815260040160206040518083038186803b158015610d8c57600080fd5b505afa158015610da0573d6000803e3d6000fd5b505050506040513d601f19601f82011682018060405250810190610dc49190614d05565b6040518963ffffffff1660e01b8152600401610de79897969594939291906153e6565b60006040518083038186803b158015610dff57600080fd5b505af4158015610e13573d6000803e3d6000fd5b50505050610e20846127f7565b610e2e8489856000856128b8565b81811415610e98576007840154336000908152603660205260408120610e61929091600160a01b90910460ff1690612ec2565b60405133906001600160a01b038a16907f44c58d81365b66dd4b1a7f36c25aa97b8c71c361ee4937adc1a00000227db5dd90600090a35b6001840154604051636b81068560e11b81526001600160a01b0385169163d7020d0a91610ed99133918b9187916001600160801b03909116906004016152b1565b600060405180830381600087803b158015610ef357600080fd5b505af1158015610f07573d6000803e3d6000fd5b50505050856001600160a01b0316336001600160a01b0316896001600160a01b03167f3115d1449a7b732c986cba18244e897a450f61e1bb8d589cd2e69e6c8924f9f784604051610f58919061578c565b60405180910390a493505050505b9392505050565b610f756125b6565b610f7e85612f66565b6040518060400160405280600281526020016106e760f31b81525090610fb75760405162461bcd60e51b815260040161055a9190615569565b506001600160a01b038516600090815260356020526040908190209051630acce25f60e21b815273__$22cd43a9dda9ce44e9b92ba393b88fb9ac$__91632b33897c9161100f91908890889088908890600401615699565b60006040518083038186803b15801561102757600080fd5b505af415801561103b573d6000803e3d6000fd5b5050505061104885612f9f565b5050505050565b600281565b61105c612578565b6001600160a01b0382166000908152603560205260408120908061108033846126f2565b91509150600084600281111561109257fe5b3360009081526036602052604090819020905163a8695b1d60e01b815291925073__$de8c0cf1a7d7c36c802af9a64fb9d86036$__9163a8695b1d916110e391889190889088908890600401615709565b60006040518083038186803b1580156110fb57600080fd5b505af415801561110f573d6000803e3d6000fd5b5050505061111c846127f7565b600181600281111561112a57fe5b141561123a576005840154604051632770a7eb60e21b81526001600160a01b0390911690639dc29fac9061116490339087906004016152e2565b600060405180830381600087803b15801561117e57600080fd5b505af1158015611192573d6000803e3d6000fd5b505050506006840154600185015460405163b3f1c93d60e01b81526001600160a01b039092169163b3f1c93d916111e291339182918991600160801b90046001600160801b0316906004016152b1565b602060405180830381600087803b1580156111fc57600080fd5b505af1158015611210573d6000803e3d6000fd5b505050506040513d601f19601f820116820180604052508101906112349190615107565b50611350565b60068401546001850154604051637a94c56560e11b81526001600160a01b039092169163f5298aca916112859133918791600160801b9091046001600160801b0316906004016152fb565b600060405180830381600087803b15801561129f57600080fd5b505af11580156112b3573d6000803e3d6000fd5b505050506005840154600385015460405163b3f1c93d60e01b81526001600160a01b039092169163b3f1c93d916112fc913391829188916001600160801b0316906004016152b1565b602060405180830381600087803b15801561131657600080fd5b505af115801561132a573d6000803e3d6000fd5b505050506040513d601f19601f8201168201806040525081019061134e9190615107565b505b600484015461136e90859088906001600160a01b03166000806128b8565b336001600160a01b0316866001600160a01b03167fea368a40e9570069bb8e6511d668293ad2e1f03b0d982431fd223de9f3b70ca6876040516113b1919061578c565b60405180910390a3505050505050565b6113c9612578565b6001600160a01b038086166000818152603560209081526040918290208251610100810184529384523391840191909152848416918301919091526060820187905260808201869052600481015490921660a082015261ffff841660c0820152600160e0820152611439906130a8565b505050505050565b611449612578565b611451614ab5565b6114be8b8b8080602002602001604051908101604052809392919081815260200183836020028082843760009201919091525050604080516020808f0282810182019093528e82529093508e92508d9182918501908490808284376000920191909152506135a392505050565b60008a67ffffffffffffffff811180156114d757600080fd5b50604051908082528060200260200182016040528015611501578160200160208202803683370190505b50905060008b67ffffffffffffffff8111801561151d57600080fd5b50604051908082528060200260200182016040528015611547578160200160208202803683370190505b506001600160a01b038f1684526000604085015290505b60408301518c111561170b57603560008e8e866040015181811061157e57fe5b90506020020160208101906115939190614ce9565b6001600160a01b03166001600160a01b0316815260200190815260200160002060040160009054906101000a90046001600160a01b0316828460400151815181106115da57fe5b60200260200101906001600160a01b031690816001600160a01b03168152505061163161271061162b603b548e8e886040015181811061161657fe5b905060200201356135e190919063ffffffff16565b9061363a565b8184604001518151811061164157fe5b6020026020010181815250508183604001518151811061165d57fe5b60200260200101516001600160a01b0316634efecaa58f8d8d876040015181811061168457fe5b905060200201356040518363ffffffff1660e01b81526004016116a89291906152e2565b602060405180830381600087803b1580156116c257600080fd5b505af11580156116d6573d6000803e3d6000fd5b505050506040513d601f19601f820116820180604052508101906116fa9190615123565b50604083018051600101905261155e565b82600001516001600160a01b031663920f5c848e8e8e8e86338d8d6040518963ffffffff1660e01b8152600401611749989796959493929190615452565b602060405180830381600087803b15801561176357600080fd5b505af1158015611777573d6000803e3d6000fd5b505050506040513d601f19601f8201168201806040525081019061179b9190615107565b604051806040016040528060028152602001611b1b60f11b815250906117d45760405162461bcd60e51b815260040161055a9190615569565b50600060408401525b60408301518c1115611b05578c8c84604001518181106117f957fe5b905060200201602081019061180e9190614ce9565b6001600160a01b0316606084015260408301518b908b9081811061182e57fe5b905060200201358360a00181815250508083604001518151811061184e57fe5b60200260200101518360c00181815250508183604001518151811061186f57fe5b60209081029190910101516001600160a01b0316608084015260c083015160a084015161189b91612d28565b60e08401526000898985604001518181106118b257fe5b9050602002013560028111156118c457fe5b60028111156118cf57fe5b1415611a015760608301516001600160a01b031660009081526035602052604090206118fa906127f7565b61199a83608001516001600160a01b03166318160ddd6040518163ffffffff1660e01b815260040160206040518083038186803b15801561193a57600080fd5b505afa15801561194e573d6000803e3d6000fd5b505050506040513d601f19601f820116820180604052508101906119729190615123565b60c085015160608601516001600160a01b03166000908152603560205260409020919061367c565b6060830151608084015160e08501516001600160a01b03831660009081526035602052604081206119d0949093909290916128b8565b6119fc8e84608001518560e0015186606001516001600160a01b0316612e62909392919063ffffffff16565b611a90565b611a9060405180610100016040528085606001516001600160a01b03168152602001336001600160a01b03168152602001896001600160a01b031681526020018560a0015181526020018b8b8760400151818110611a5b57fe5b90506020020135815260200185608001516001600160a01b031681526020018661ffff168152602001600015158152506130a8565b82606001516001600160a01b0316336001600160a01b03168f6001600160a01b03167f631042c832b07452973831137f2d73e395028b44b250dedc5abb0ee766e168ac8660a001518760c0015189604051611aed93929190615795565b60405180910390a460408301805160010190526117dd565b5050505050505050505050505050565b611b1d6125b6565b6001600160a01b03909116600090815260356020526040902055565b611b416125b6565b6039805460ff1916821515179081905560ff1615611b87576040517f9e87fac88ff661f02d44f95383c817fece4bce600a3dab7a54406878b965e75290600090a1611bb1565b6040517fa45f47fdea8a1efdd9029a5691c7f759c32b7c698632b563573e155625d1693390600090a15b50565b600080600080600080611c8d876035603660008b6001600160a01b03166001600160a01b031681526020019081526020016000206040518060200160405290816000820154815250506037603854603460009054906101000a90046001600160a01b03166001600160a01b031663fca513a86040518163ffffffff1660e01b815260040160206040518083038186803b158015611c5057600080fd5b505afa158015611c64573d6000803e3d6000fd5b505050506040513d601f19601f82011682018060405250810190611c889190614d05565b613767565b93995091975090945092509050611ca5868684613c28565b935091939550919395565b611cb8614aa2565b506001600160a01b031660009081526035602090815260409182902082519182019092529054815290565b6000611ced613c5c565b60015490915060ff1680611d045750611d04613c61565b80611d10575060005481115b611d4b5760405162461bcd60e51b815260040180806020018281038252602e815260200180615848602e913960400191505060405180910390fd5b60015460ff16158015611d6a576001805460ff19168117905560008290555b603480546001600160a01b0319166001600160a01b0385161790556109c4603a556009603b556080603c558015610c35576001805460ff19169055505050565b611db2612578565b6001600160a01b038083166000908152603560205260408082206005810154600682015460048084015494516370a0823160e01b81529396928316959183169490921692909185916370a0823191611e0c918a910161529d565b60206040518083038186803b158015611e2457600080fd5b505afa158015611e38573d6000803e3d6000fd5b505050506040513d601f19601f82011682018060405250810190611e5c9190615123565b60405163548cad0960e01b815290915073__$de8c0cf1a7d7c36c802af9a64fb9d86036$__9063548cad0990611e9e9088908b90899089908990600401615699565b60006040518083038186803b158015611eb657600080fd5b505af4158015611eca573d6000803e3d6000fd5b50505050611ed7856127f7565b604051632770a7eb60e21b81526001600160a01b03851690639dc29fac90611f0590899085906004016152e2565b600060405180830381600087803b158015611f1f57600080fd5b505af1158015611f33573d6000803e3d6000fd5b505050600386015460405163b3f1c93d60e01b81526001600160a01b038716925063b3f1c93d91611f76918a91829187916001600160801b0316906004016152b1565b602060405180830381600087803b158015611f9057600080fd5b505af1158015611fa4573d6000803e3d6000fd5b505050506040513d601f19601f82011682018060405250810190611fc89190615107565b50611fd78588846000806128b8565b856001600160a01b0316876001600160a01b03167f9f439ae0c81e41a04d3fdfe07aed54e6a179fb0db15be7702eb66fa8ef6f530060405160405180910390a350505050505050565b6001600160a01b038116600090815260356020526040812061071090613c67565b6060600060385467ffffffffffffffff8111801561205e57600080fd5b50604051908082528060200260200182016040528015612088578160200160208202803683370190505b50905060005b6038548110156120e15760008181526037602052604090205482516001600160a01b03909116908390839081106120c157fe5b6001600160a01b039092166020928302919091019091015260010161208e565b50905090565b6120ef612578565b6001600160a01b038681166000908152603560209081526040918290206004015482518084019093526002835261363360f01b91830191909152909116331461214b5760405162461bcd60e51b815260040161055a9190615569565b5061220785603560366000896001600160a01b03166001600160a01b031681526020019081526020016000206037603854603460009054906101000a90046001600160a01b03166001600160a01b031663fca513a86040518163ffffffff1660e01b815260040160206040518083038186803b1580156121ca57600080fd5b505afa1580156121de573d6000803e3d6000fd5b505050506040513d601f19601f820116820180604052508101906122029190614d05565b613cc6565b6001600160a01b03868116600090815260356020526040902060070154600160a01b900460ff169085811690871614612327576122448385612d82565b6122b0576001600160a01b03861660009081526036602052604081209061226e9082908490612ec2565b866001600160a01b0316886001600160a01b03167f44c58d81365b66dd4b1a7f36c25aa97b8c71c361ee4937adc1a00000227db5dd60405160405180910390a3505b811580156122bd57508315155b15612327576001600160a01b03851660009081526036602052604090206122e681836001612ec2565b856001600160a01b0316886001600160a01b03167e058a56ea94653cdf4f152d227ace22d4c00ad99e2a43f58cb7d9e3feb295f260405160405180910390a3505b50505050505050565b603a5490565b61233e612578565b6001600160a01b038416600090815260356020526040908190209051630eca322b60e01b815273__$de8c0cf1a7d7c36c802af9a64fb9d86036$__90630eca322b90612390908490889060040161573d565b60006040518083038186803b1580156123a857600080fd5b505af41580156123bc573d6000803e3d6000fd5b5050505060048101546001600160a01b03166123d7826127f7565b6123e58287838860006128b8565b6123fa6001600160a01b038716338388612e62565b6001820154604051630ab714fb60e11b81526000916001600160a01b0384169163156e29f69161243c9189918b916001600160801b03909116906004016152fb565b602060405180830381600087803b15801561245657600080fd5b505af115801561246a573d6000803e3d6000fd5b505050506040513d601f19601f8201168201806040525081019061248e9190615107565b905080156125085760078301546001600160a01b03861660009081526036602052604090206124c891600160a01b900460ff166001612ec2565b846001600160a01b0316876001600160a01b03167e058a56ea94653cdf4f152d227ace22d4c00ad99e2a43f58cb7d9e3feb295f260405160405180910390a35b8361ffff16856001600160a01b0316886001600160a01b03167fde6857219544bb5b7746f48ed30be6386fefc61b2f864cacf559893bf50fd951338a6040516125529291906152e2565b60405180910390a450505050505050565b603c5490565b6034546001600160a01b031690565b6039546040805180820190915260028152610d8d60f21b60208201529060ff1615611bb15760405162461bcd60e51b815260040161055a9190615569565b603454604080516385c858b160e01b8152905133926001600160a01b0316916385c858b1916004808301926020929190829003018186803b1580156125fa57600080fd5b505afa15801561260e573d6000803e3d6000fd5b505050506040513d601f19601f820116820180604052508101906126329190614d05565b6001600160a01b03161460405180604001604052806002815260200161323760f01b81525090611bb15760405162461bcd60e51b815260040161055a9190615569565b600381015460009064ffffffffff600160801b90910481169042168114156126b35750506001810154600160801b90046001600160801b03166106ea565b600183015460028401546000916126ea916001600160801b03600160801b928390048116926126e492041685613d3c565b90613d49565b949350505050565b6005810154604080516370a0823160e01b81526001600160a01b0385811660048301529151600093849316916370a08231916024808301926020929190829003018186803b15801561274357600080fd5b505afa158015612757573d6000803e3d6000fd5b505050506040513d602081101561276d57600080fd5b50516006840154604080516370a0823160e01b81526001600160a01b038881166004830152915191909216916370a08231916024808301926020929190829003018186803b1580156127be57600080fd5b505afa1580156127d2573d6000803e3d6000fd5b505050506040513d60208110156127e857600080fd5b505190925090505b9250929050565b60068101546040805163b1bf962d60e01b815290516000926001600160a01b03169163b1bf962d916004808301926020929190829003018186803b15801561283e57600080fd5b505afa158015612852573d6000803e3d6000fd5b505050506040513d602081101561286857600080fd5b505160018301546003840154919250600160801b8082046001600160801b03908116939216910464ffffffffff166000806128a68787868887613e0a565b91509150612327878787858588613fc3565b6128c0614b01565b60058601546001600160a01b031680825260408051637b98f4df60e11b8152815163f731e9be92600480840193919291829003018186803b15801561290457600080fd5b505afa158015612918573d6000803e3d6000fd5b505050506040513d604081101561292e57600080fd5b50805160209182015160c084015260408084019190915260018801546006890154825163b1bf962d60e01b815292516129d294600160801b9093046001600160801b0316936001600160a01b039092169263b1bf962d9260048082019391829003018186803b1580156129a057600080fd5b505afa1580156129b4573d6000803e3d6000fd5b505050506040513d60208110156129ca57600080fd5b505190613d49565b60e082018190526007870154604083015160c08401516001600160a01b03909216926329db497d9289928992899289929190612a0d8f614198565b6040518963ffffffff1660e01b815260040180896001600160a01b03168152602001886001600160a01b031681526020018781526020018681526020018581526020018481526020018381526020018281526020019850505050505050505060606040518083038186803b158015612a8457600080fd5b505afa158015612a98573d6000803e3d6000fd5b505050506040513d6060811015612aae57600080fd5b50805160208083015160409384015160a086015260808501526060840182905282518084019093526002835261353360f01b908301526001600160801b031015612b765760405162461bcd60e51b81526004018080602001828103825283818151815260200191508051906020019080838360005b83811015612b3b578181015183820152602001612b23565b50505050905090810190601f168015612b685780820380516001836020036101000a031916815260200191505b509250505060405180910390fd5b506080810151604080518082019091526002815261353560f01b6020820152906001600160801b031015612beb5760405162461bcd60e51b8152602060048201818152835160248401528351909283926044909101919085019080838360008315612b3b578181015183820152602001612b23565b5060a08101516040805180820190915260028152610d4d60f21b6020820152906001600160801b031015612c605760405162461bcd60e51b8152602060048201818152835160248401528351909283926044909101919085019080838360008315612b3b578181015183820152602001612b23565b5060608181015160028801805460808086015160038c0180546001600160801b03199081166001600160801b038085169190911790925560a0808a015191909516828816178216600160801b82841681029190911790965560018e01546040805198895260208901949094528784019190915280821697870197909752939095049092169183019190915291516001600160a01b038816927f804c9b842b2748a22bb64b345453a3de7ca54a6ca45ce00d415894979e22897a928290030190a2505050505050565b600082820183811015610f66576040805162461bcd60e51b815260206004820152601b60248201527f536166654d6174683a206164646974696f6e206f766572666c6f770000000000604482015290519081900360640190fd5b6000610f6683836040518060400160405280601e81526020017f536166654d6174683a207375627472616374696f6e206f766572666c6f7700008152506141a3565b604080518082019091526002815261373760f01b602082015260808310612e2c5760405162461bcd60e51b8152602060048201818152835160248401528351909283926044909101919085019080838360008315612b3b578181015183820152602001612b23565b508160020281612e3d576000612e40565b60015b60ff16901b826002026001901b19846000015416178360000181905550505050565b604080516001600160a01b0380861660248301528416604482015260648082018490528251808303909101815260849091019091526020810180516001600160e01b03166323b872dd60e01b179052612ebc9085906141fd565b50505050565b604080518082019091526002815261373760f01b602082015260808310612f2a5760405162461bcd60e51b8152602060048201818152835160248401528351909283926044909101919085019080838360008315612b3b578181015183820152602001612b23565b508160020260010181612f3e576000612f41565b60015b60ff16901b826002026001016001901b19846000015416178360000181905550505050565b6000813f7fc5d2460186f7233c927e7db2dcc703c0e500b653ca82273b7bfad8045d85a4708181148015906126ea575050151592915050565b603854603c54604080518082019091526002815261363560f01b6020820152908210612fde5760405162461bcd60e51b815260040161055a9190615569565b506001600160a01b038216600090815260356020526040812060070154600160a01b900460ff1615158061304757506000805260376020527fa0a618d80eda9243166be83cb7421d97e9dab6ddddd3c70ac7a6b4440256e8e7546001600160a01b038481169116145b905080610c3557506001600160a01b03919091166000818152603560209081526040808320600701805460ff60a01b1916600160a01b60ff8816021790558483526037909152902080546001600160a01b0319169091179055600101603855565b80516001600160a01b0390811660009081526035602090815260408083208186015185168452603683528184206034548351631f94a27560e31b81529351929691959491169263fca513a89260048083019392829003018186803b15801561310f57600080fd5b505afa158015613123573d6000803e3d6000fd5b505050506040513d601f19601f820116820180604052508101906131479190614d05565b905060006131ea613157856143b4565b600a0a61162b8760600151856001600160a01b031663b62cad698a600001516040518263ffffffff1660e01b8152600401613192919061529d565b602060405180830381600087803b1580156131ac57600080fd5b505af11580156131c0573d6000803e3d6000fd5b505050506040513d601f19601f820116820180604052508101906131e49190615123565b906135e1565b905073__$de8c0cf1a7d7c36c802af9a64fb9d86036$__63721a92f986600001518688604001518960600151868b60800151603a5460358c60376038548e6040518d63ffffffff1660e01b815260040161324f9c9b9a99989796959493929190615382565b60006040518083038186803b15801561326757600080fd5b505af415801561327b573d6000803e3d6000fd5b50505050613288846127f7565b60008060018760800151600281111561329d57fe5b60028111156132a857fe5b141561335d576003860154600587015460208901516040808b015160608c0151915163b3f1c93d60e01b81526001600160801b0390951696506001600160a01b039093169363b3f1c93d93613304939290918890600401615359565b602060405180830381600087803b15801561331e57600080fd5b505af1158015613332573d6000803e3d6000fd5b505050506040513d601f19601f820116820180604052508101906133569190615107565b905061340c565b600686015460208801516040808a015160608b015160018b0154925163b3f1c93d60e01b81526001600160a01b039095169463b3f1c93d946133b79490939291600160801b9091046001600160801b0316906004016152b1565b602060405180830381600087803b1580156133d157600080fd5b505af11580156133e5573d6000803e3d6000fd5b505050506040513d601f19601f820116820180604052508101906134099190615107565b90505b801561342e57600786015461342e908690600160a01b900460ff166001612dc4565b61345d87600001518860a0015160008a60e0015161344d576000613453565b8a606001515b8a939291906128b8565b8660e00151156134f5578660a001516001600160a01b0316634efecaa5886020015189606001516040518363ffffffff1660e01b81526004016134a19291906152e2565b602060405180830381600087803b1580156134bb57600080fd5b505af11580156134cf573d6000803e3d6000fd5b505050506040513d601f19601f820116820180604052508101906134f39190615123565b505b8660c0015161ffff1687604001516001600160a01b031688600001516001600160a01b03167fc6a898309e823ee50bac64e45ca8adba6690e99e7841c45d754e2a38e9019d9b8a602001518b606001518c608001516001600281111561355757fe5b8e60800151600281111561356757fe5b600281111561357257fe5b146135915760028d0154600160801b90046001600160801b0316613593565b885b604051612552949392919061542c565b805182511460405180604001604052806002815260200161373360f01b81525090610c355760405162461bcd60e51b815260040161055a9190615569565b6000826135f057506000610710565b828202828482816135fd57fe5b0414610f665760405162461bcd60e51b81526004018080602001828103825260218152602001806158276021913960400191505060405180910390fd5b6000610f6683836040518060400160405280601a81526020017f536166654d6174683a206469766973696f6e206279207a65726f0000000000008152506143be565b600061369961368a84614423565b61369384614423565b906144a1565b905060006136af6136a86145a8565b8390612d28565b60018601549091506136cb9082906001600160801b0316613d49565b604080518082019091526002815261353160f01b60208201529091506001600160801b0382111561373d5760405162461bcd60e51b8152602060048201818152835160248401528351909283926044909101919085019080838360008315612b3b578181015183820152602001612b23565b5060019490940180546001600160801b0319166001600160801b0390951694909417909355505050565b6000806000806000613777614b4f565b6137808a6145b8565b1561379e576000806000806000199550955095509550955050613c1a565b600060e08201525b878160e001511015613b795760e08101516137c2908b906145bd565b6137cb57613b69565b60e0810151600090815260208a81526040808320546001600160a01b03166101e085018190528352908d905290206138028161463c565b506080860181905260c08601929092525060a0840191909152600a0a60208301526101e082015160405163b3596f0760e01b81526001600160a01b038a169163b3596f0791613854919060040161529d565b60206040518083038186803b15801561386c57600080fd5b505afa158015613880573d6000803e3d6000fd5b505050506040513d601f19601f820116820180604052508101906138a49190615123565b825260c0820151158015906138c4575060e08201516138c4908c90614667565b156139e2578060040160009054906101000a90046001600160a01b03166001600160a01b03166370a082318e6040518263ffffffff1660e01b815260040161390c919061529d565b60206040518083038186803b15801561392457600080fd5b505afa158015613938573d6000803e3d6000fd5b505050506040513d601f19601f8201168201806040525081019061395c9190615123565b604083018190526020830151835160009261397b929161162b916135e1565b61012084015190915061398e9082612d28565b61012084015260a08301516139b4906139a89083906135e1565b61016085015190612d28565b61016084015260c08301516139da906139ce9083906135e1565b61018085015190612d28565b610180840152505b60e08201516139f2908c906146ed565b15613b67578060050160009054906101000a90046001600160a01b03166001600160a01b03166370a082318e6040518263ffffffff1660e01b8152600401613a3a919061529d565b60206040518083038186803b158015613a5257600080fd5b505afa158015613a66573d6000803e3d6000fd5b505050506040513d601f19601f82011682018060405250810190613a8a9190615123565b826060018181525050613b348160060160009054906101000a90046001600160a01b03166001600160a01b03166370a082318f6040518263ffffffff1660e01b8152600401613ad9919061529d565b60206040518083038186803b158015613af157600080fd5b505afa158015613b05573d6000803e3d6000fd5b505050506040513d601f19601f82011682018060405250810190613b299190615123565b606084015190612d28565b6060830181905260208301518351613b6092613b54929161162b916135e1565b61014084015190612d28565b6101408301525b505b60e08101805160010190526137a6565b600081610120015111613b8d576000613ba2565b610120810151610160820151613ba29161363a565b610160820152610120810151613bb9576000613bce565b610120810151610180820151613bce9161363a565b6101808201819052610120820151610140830151613beb9261476c565b610100820181905261012082015161014083015161016084015161018090940151919850965091945090925090505b965096509650965096915050565b600080613c358584614790565b905083811015613c49576000915050610f66565b613c538185612d82565b95945050505050565b600290565b303b1590565b600381015460009064ffffffffff600160801b9091048116904216811415613c9e57505060018101546001600160801b03166106ea565b600183015460028401546000916126ea916001600160801b03918216916126e491168561482d565b604080516020810190915284548152600090613ce89088908890878787613767565b945050505050670de0b6b3a7640000811015604051806040016040528060018152602001601b60f91b81525090613d325760405162461bcd60e51b815260040161055a9190615569565b5050505050505050565b6000610f6683834261486b565b6000821580613d56575081155b15613d6357506000610710565b816b019d971e4fe8401e740000001981613d7957fe5b0483111560405180604001604052806002815260200161068760f31b81525090613de45760405162461bcd60e51b8152602060048201818152835160248401528351909283926044909101919085019080838360008315612b3b578181015183820152602001612b23565b506b033b2e3c9fd0803ce80000006002815b048385020181613e0257fe5b049392505050565b600285015460009081906001600160801b031685858215613f94576000613e31848861482d565b9050613e3d818a613d49565b604080518082019091526002815261353160f01b60208201529093506001600160801b03841115613eaf5760405162461bcd60e51b8152602060048201818152835160248401528351909283926044909101919085019080838360008315612b3b578181015183820152602001612b23565b5060018b0180546001600160801b0319166001600160801b0385161790558915613f925760028b0154600090613ef590600160801b90046001600160801b031689613d3c565b9050613f01818a613d49565b6040805180820190915260028152611a9960f11b60208201529093506001600160801b03841115613f735760405162461bcd60e51b8152602060048201818152835160248401528351909283926044909101919085019080838360008315612b3b578181015183820152602001612b23565b505060018b0180546001600160801b03808516600160801b0291161790555b505b600399909901805464ffffffffff60801b1916600160801b4264ffffffffff1602179055989650505050505050565b613fcb614be9565b613fd487614198565b6101208201819052613fe65750611439565b8660050160009054906101000a90046001600160a01b03166001600160a01b031663797743386040518163ffffffff1660e01b815260040160806040518083038186803b15801561403657600080fd5b505afa15801561404a573d6000803e3d6000fd5b505050506040513d608081101561406057600080fd5b508051602080830151604084015160609094015164ffffffffff1661014086015260a08501939093529183529082015261409a8686613d49565b60808201526140a98684613d49565b606082015260a08101516101408201516140cb919064ffffffffff851661486b565b60c0820181905260208201516140e091613d49565b60408201819052608082015182516060840151614105939261095f9290918391612d28565b60e0820181905261012082015161411c9190614790565b6101008201819052156123275760048088015461010083015160408051637df5bd3b60e01b81529384019190915260248301879052516001600160a01b0390911691637df5bd3b91604480830192600092919082900301818387803b15801561418457600080fd5b505af11580156105c1573d6000803e3d6000fd5b5460401c61ffff1690565b600081848411156141f55760405162461bcd60e51b8152602060048201818152835160248401528351909283926044909101919085019080838360008315612b3b578181015183820152602001612b23565b505050900390565b61420f826001600160a01b0316612f66565b614260576040805162461bcd60e51b815260206004820152601f60248201527f5361666545524332303a2063616c6c20746f206e6f6e2d636f6e747261637400604482015290519081900360640190fd5b600080836001600160a01b0316836040518082805190602001908083835b6020831061429d5780518252601f19909201916020918201910161427e565b6001836020036101000a0380198251168184511680821785525050505050509050019150506000604051808303816000865af19150503d80600081146142ff576040519150601f19603f3d011682016040523d82523d6000602084013e614304565b606091505b50915091508161435b576040805162461bcd60e51b815260206004820181905260248201527f5361666545524332303a206c6f772d6c6576656c2063616c6c206661696c6564604482015290519081900360640190fd5b805115612ebc5780806020019051602081101561437757600080fd5b5051612ebc5760405162461bcd60e51b815260040180806020018281038252602a815260200180615876602a913960400191505060405180910390fd5b5460301c60ff1690565b6000818361440d5760405162461bcd60e51b8152602060048201818152835160248401528351909283926044909101919085019080838360008315612b3b578181015183820152602001612b23565b50600083858161441957fe5b0495945050505050565b6000633b9aca0082810290839082041460405180604001604052806002815260200161068760f31b8152509061449a5760405162461bcd60e51b8152602060048201818152835160248401528351909283926044909101919085019080838360008315612b3b578181015183820152602001612b23565b5092915050565b604080518082019091526002815261035360f41b6020820152600090826145095760405162461bcd60e51b8152602060048201818152835160248401528351909283926044909101919085019080838360008315612b3b578181015183820152602001612b23565b5060408051808201909152600280825261068760f31b60208301528304906b033b2e3c9fd0803ce80000008219048511156145855760405162461bcd60e51b8152602060048201818152835160248401528351909283926044909101919085019080838360008315612b3b578181015183820152602001612b23565b5082816b033b2e3c9fd0803ce80000008602018161459f57fe5b04949350505050565b6b033b2e3c9fd0803ce800000090565b511590565b60006080821060405180604001604052806002815260200161373760f01b8152509061462a5760405162461bcd60e51b8152602060048201818152835160248401528351909283926044909101919085019080838360008315612b3b578181015183820152602001612b23565b50509051600360029092021c16151590565b5461ffff80821692601083901c821692602081901c831692603082901c60ff169260409290921c1690565b60006080821060405180604001604052806002815260200161373760f01b815250906146d45760405162461bcd60e51b8152602060048201818152835160248401528351909283926044909101919085019080838360008315612b3b578181015183820152602001612b23565b5050815160016002830281019190911c16151592915050565b60006080821060405180604001604052806002815260200161373760f01b8152509061475a5760405162461bcd60e51b8152602060048201818152835160248401528351909283926044909101919085019080838360008315612b3b578181015183820152602001612b23565b50509051600160029092021c16151590565b60008261477c5750600019610f66565b6126ea8361478a8685614790565b90614941565b600082158061479d575081155b156147aa57506000610710565b8161138819816147b657fe5b0483111560405180604001604052806002815260200161068760f31b815250906148215760405162461bcd60e51b8152602060048201818152835160248401528351909283926044909101919085019080838360008315612b3b578181015183820152602001612b23565b50612710600281613df6565b6000806148414264ffffffffff8516612d82565b90506126ea61484e6145a8565b6301e1338061485d87856135e1565b8161486457fe5b0490612d28565b60008061487f8364ffffffffff8616612d82565b9050806148965761488e6145a8565b915050610f66565b60001981016000600283116148ac5760006148b1565b600283035b90506301e13380870460006148c68280613d49565b905060006148d48284613d49565b9050600060026148e8846131e48a8a6135e1565b816148ef57fe5b04905060006006614906846131e489818d8d6135e1565b8161490d57fe5b0490506149318161492b84816149238a8e6135e1565b61492b6145a8565b90612d28565b9c9b505050505050505050505050565b604080518082019091526002815261035360f41b6020820152600090826149a95760405162461bcd60e51b8152602060048201818152835160248401528351909283926044909101919085019080838360008315612b3b578181015183820152602001612b23565b5060408051808201909152600280825261068760f31b6020830152830490670de0b6b3a7640000821904851115614a215760405162461bcd60e51b8152602060048201818152835160248401528351909283926044909101919085019080838360008315612b3b578181015183820152602001612b23565b508281670de0b6b3a76400008602018161459f57fe5b604051806101800160405280614a4b614aa2565b815260006020820181905260408201819052606082018190526080820181905260a0820181905260c0820181905260e082018190526101008201819052610120820181905261014082018190526101609091015290565b6040518060200160405280600081525090565b6040805161012081018252600080825260208201819052918101829052606081018290526080810182905260a0810182905260c0810182905260e0810182905261010081019190915290565b60405180610100016040528060006001600160a01b03168152602001600081526020016000815260200160008152602001600081526020016000815260200160008152602001600081525090565b604051806102400160405280600081526020016000815260200160008152602001600081526020016000815260200160008152602001600081526020016000815260200160008152602001600081526020016000815260200160008152602001600081526020016000815260200160001515815260200160006001600160a01b031681526020016000151581526020016000151581525090565b60405180610160016040528060008152602001600081526020016000815260200160008152602001600081526020016000815260200160008152602001600081526020016000815260200160008152602001600064ffffffffff1681525090565b80356106ea81615803565b60008083601f840112614c66578081fd5b50813567ffffffffffffffff811115614c7d578182fd5b60208301915083602080830285010111156127f057600080fd5b60008083601f840112614ca8578182fd5b50813567ffffffffffffffff811115614cbf578182fd5b6020830191508360208285010111156127f057600080fd5b803561ffff811681146106ea57600080fd5b600060208284031215614cfa578081fd5b8135610f6681615803565b600060208284031215614d16578081fd5b8151610f6681615803565b60008060408385031215614d33578081fd5b8235614d3e81615803565b91506020830135614d4e81615803565b809150509250929050565b600080600080600060a08688031215614d70578081fd5b8535614d7b81615803565b94506020860135614d8b81615803565b93506040860135614d9b81615803565b92506060860135614dab81615803565b91506080860135614dbb81615803565b809150509295509295909350565b600080600080600060a08688031215614de0578081fd5b8535614deb81615803565b94506020860135614dfb81615803565b93506040860135614e0b81615803565b9250606086013591506080860135614dbb81615818565b60008060008060008060c08789031215614e3a578081fd5b8635614e4581615803565b95506020870135614e5581615803565b94506040870135614e6581615803565b959894975094956060810135955060808101359460a0909101359350915050565b600080600080600080600080600080600060e08c8e031215614ea6578485fd5b614eaf8c614c4a565b9a5067ffffffffffffffff8060208e01351115614eca578586fd5b614eda8e60208f01358f01614c55565b909b50995060408d0135811015614eef578586fd5b614eff8e60408f01358f01614c55565b909950975060608d0135811015614f14578586fd5b614f248e60608f01358f01614c55565b9097509550614f3560808e01614c4a565b94508060a08e01351115614f47578384fd5b50614f588d60a08e01358e01614c97565b9093509150614f6960c08d01614cd7565b90509295989b509295989b9093969950565b60008060408385031215614f8d578081fd5b8235614f9881615803565b91506020830135614d4e81615818565b60008060408385031215614fba578182fd5b8235614fc581615803565b946020939093013593505050565b600080600060608486031215614fe7578081fd5b8335614ff281615803565b925060208401359150604084013561500981615803565b809150509250925092565b60008060008060808587031215615029578182fd5b843561503481615803565b935060208501359250604085013561504b81615803565b915061505960608601614cd7565b905092959194509250565b60008060008060808587031215615079578182fd5b843561508481615803565b9350602085013592506040850135915060608501356150a281615803565b939692955090935050565b600080600080600060a086880312156150c4578283fd5b85356150cf81615803565b94506020860135935060408601359250614dab60608701614cd7565b6000602082840312156150fc578081fd5b8135610f6681615818565b600060208284031215615118578081fd5b8151610f6681615818565b600060208284031215615134578081fd5b5051919050565b6000806040838503121561514d578182fd5b82519150602083015167ffffffffffffffff8082111561516b578283fd5b818501915085601f83011261517e578283fd5b81518181111561518a57fe5b604051601f8201601f1916810160200183811182821017156151a857fe5b6040528181528382016020018810156151bf578485fd5b6151d08260208301602087016157d7565b809450505050509250929050565b6001600160a01b03169052565b6000815180845260208085019450808401835b8381101561521a578151875295820195908201906001016151fe565b509495945050505050565b60008284528282602086013780602084860101526020601f19601f85011685010190509392505050565b6003811061525957fe5b9052565b519052565b6001600160801b03169052565b64ffffffffff169052565b60ff169052565b600082516152938184602087016157d7565b9190910192915050565b6001600160a01b0391909116815260200190565b6001600160a01b03948516815292909316602083015260408201526001600160801b03909116606082015260800190565b6001600160a01b03929092168252602082015260400190565b6001600160a01b0393909316835260208301919091526001600160801b0316604082015260600190565b6001600160a01b03958616815293851660208501529190931660408301526060820192909252901515608082015260a00190565b6001600160a01b0394851681529290931660208301526040820152606081019190915260800190565b6001600160a01b039c8d168152602081019b909b52988b1660408b015260608a0197909752608089019590955260a088019390935260c087019190915260e08601526101008501526101208401526101408301529091166101608201526101800190565b6001600160a01b039889168152602081019790975260408701959095526060860193909352608085019190915260a084015260c083015290911660e08201526101000190565b6001600160a01b0394909416845260208401929092526040830152606082015260800190565b60a0808252810188905260008960c08301825b8b81101561549557823561547881615803565b6001600160a01b0316825260209283019290910190600101615465565b5083810360208501528881526001600160fb1b038911156154b4578283fd5b602089029150818a602083013701602081810183815284830390910160408501526154df81896151eb565b9150506154ef60608401876151de565b8281036080840152615502818587615225565b9b9a5050505050505050505050565b6020808252825182820181905260009190848201906040850190845b818110156155525783516001600160a01b03168352928401929184019160010161552d565b50909695505050505050565b901515815260200190565b60006020825282518060208401526155888160408501602087016157d7565b601f01601f19169190910160400192915050565b9051815260200190565b6000610180820190506155ba82845161525d565b60208301516155cc6020840182615262565b5060408301516155df6040840182615262565b5060608301516155f26060840182615262565b5060808301516156056080840182615262565b5060a083015161561860a0840182615262565b5060c083015161562b60c084018261526f565b5060e083015161563e60e08401826151de565b5061010080840151615652828501826151de565b505061012080840151615667828501826151de565b50506101408084015161567c828501826151de565b5050610160808401516156918285018261527a565b505092915050565b9485526001600160a01b03938416602086015291831660408501528216606084015216608082015260a00190565b9788526001600160a01b03968716602089015294151560408801526060870193909352608086019190915260a085015260c08401521660e08201526101000190565b600060a082019050868252856020830152846040830152836060830152615733608083018461524f565b9695505050505050565b918252602082015260400190565b8681526020810186905260c08101615766604083018761524f565b6001600160a01b03949094166060820152608081019290925260a0909101529392505050565b90815260200190565b928352602083019190915261ffff16604082015260600190565b958652602086019490945260408501929092526060840152608083015260a082015260c00190565b60005b838110156157f25781810151838201526020016157da565b83811115612ebc5750506000910152565b6001600160a01b0381168114611bb157600080fd5b8015158114611bb157600080fdfe536166654d6174683a206d756c7469706c69636174696f6e206f766572666c6f77436f6e747261637420696e7374616e63652068617320616c7265616479206265656e20696e697469616c697a65645361666545524332303a204552433230206f7065726174696f6e20646964206e6f742073756363656564a264697066735822122024c4ee669bdf7f9fe549eddb5f42615ee0fbdfe2ccbef197c47655f1d7f927eb64736f6c63430007060033",
  "linkReferences": {
    "contracts/protocol/libraries/logic/ReserveLogic.sol": {
      "ReserveLogic": [
        {
          "length": 20,
          "start": 4101
        }
      ]
    },
    "contracts/protocol/libraries/logic/ValidationLogic.sol": {
      "ValidationLogic": [
        {
          "length": 20,
          "start": 1984
        },
        {
          "length": 20,
          "start": 2785
        },
        {
          "length": 20,
          "start": 3356
        },
        {
          "length": 20,
          "start": 4313
        },
        {
          "length": 20,
          "start": 7827
        },
        {
          "length": 20,
          "start": 9099
        },
        {
          "length": 20,
          "start": 12819
        }
      ]
    }
  },
  "deployedLinkReferences": {
    "contracts/protocol/libraries/logic/ReserveLogic.sol": {
      "ReserveLogic": [
        {
          "length": 20,
          "start": 4064
        }
      ]
    },
    "contracts/protocol/libraries/logic/ValidationLogic.sol": {
      "ValidationLogic": [
        {
          "length": 20,
          "start": 1947
        },
        {
          "length": 20,
          "start": 2748
        },
        {
          "length": 20,
          "start": 3319
        },
        {
          "length": 20,
          "start": 4276
        },
        {
          "length": 20,
          "start": 7790
        },
        {
          "length": 20,
          "start": 9062
        },
        {
          "length": 20,
          "start": 12782
        }
      ]
    }
  }
}