{
  "_format": "hh-sol-artifact-1",
  "contractName": "LendingPoolCollateralManager",
  "sourceName": "contracts/protocol/lendingpool/LendingPoolCollateralManager.sol",
  "abi": [
    {
      "anonymous": false,
      "inputs": [
        {
          "indexed": true,
          "internalType": "address",
          "name": "collateral",
          "type": "address"
        },
        {
          "indexed": true,
          "internalType": "address",
          "name": "principal",
          "type": "address"
        },
        {
          "indexed": true,
          "internalType": "address",
          "name": "user",
          "type": "address"
        },
        {
          "indexed": false,
          "internalType": "uint256",
          "name": "debtToCover",
          "type": "uint256"
        },
        {
          "indexed": false,
          "internalType": "uint256",
          "name": "liquidatedCollateralAmount",
          "type": "uint256"
        },
        {
          "indexed": false,
          "internalType": "address",
          "name": "liquidator",
          "type": "address"
        },
        {
          "indexed": false,
          "internalType": "bool",
          "name": "receiveAToken",
          "type": "bool"
        }
      ],
      "name": "LiquidationCall",
      "type": "event"
    },
    {
      "anonymous": false,
      "inputs": [
        {
          "indexed": true,
          "internalType": "address",
          "name": "reserve",
          "type": "address"
        },
        {
          "indexed": true,
          "internalType": "address",
          "name": "user",
          "type": "address"
        }
      ],
      "name": "ReserveUsedAsCollateralDisabled",
      "type": "event"
    },
    {
      "anonymous": false,
      "inputs": [
        {
          "indexed": true,
          "internalType": "address",
          "name": "reserve",
          "type": "address"
        },
        {
          "indexed": true,
          "internalType": "address",
          "name": "user",
          "type": "address"
        }
      ],
      "name": "ReserveUsedAsCollateralEnabled",
      "type": "event"
    },
    {
      "inputs": [
        {
          "internalType": "address",
          "name": "collateralAsset",
          "type": "address"
        },
        {
          "internalType": "address",
          "name": "debtAsset",
          "type": "address"
        },
        {
          "internalType": "address",
          "name": "user",
          "type": "address"
        },
        {
          "internalType": "uint256",
          "name": "debtToCover",
          "type": "uint256"
        },
        {
          "internalType": "bool",
          "name": "receiveAToken",
          "type": "bool"
        }
      ],
      "name": "liquidationCall",
      "outputs": [
        {
          "internalType": "uint256",
          "name": "",
          "type": "uint256"
        },
        {
          "internalType": "string",
          "name": "",
          "type": "string"
        }
      ],
      "stateMutability": "nonpayable",
      "type": "function"
    }
  ],
  "bytecode": "0x60806040526000805534801561001457600080fd5b50612a1f806100246000396000f3fe608060405234801561001057600080fd5b506004361061002a5760003560e01c8062a718a91461002f575b600080fd5b610073600480360360a081101561004557600080fd5b506001600160a01b0381358116916020810135821691604082013516906060810135906080013515156100f2565b6040518083815260200180602001828103825283818151815260200191508051906020019080838360005b838110156100b657818101518382015260200161009e565b50505050905090810190601f1680156100e35780820380516001836020036101000a031916815260200191505b50935050505060405180910390f35b6001600160a01b0380861660009081526035602090815260408083208885168452818420948816845260369092528220919260609261012f612752565b6040805160208082018352845482526038546034548451631f94a27560e31b815294516101c1958f95603595909460379490936001600160a01b039091169263fca513a8926004808301939192829003018186803b15801561019057600080fd5b505afa1580156101a4573d6000803e3d6000fd5b505050506040513d60208110156101ba57600080fd5b5051610971565b610140860152506101d892508b9150859050610e38565b60408301819052602083018290526101408301516101fd928792879287929091610f3b565b6102008301526101e08201819052600090600981111561021957fe5b600981111561022457fe5b1461024257806101e001518161020001519550955050505050610967565b6004808501546001600160a01b039081166101808401819052604080516370a0823160e01b8152928d169383019390935291516370a0823191602480820192602092909190829003018186803b15801561029b57600080fd5b505afa1580156102af573d6000803e3d6000fd5b505050506040513d60208110156102c557600080fd5b50518152604081015160208201516102ea91611388916102e491611078565b906110db565b6060820181905288116102fd5787610303565b80606001515b60808201819052815161031e91869186918f918f91906111c5565b6101208301819052610100830191909152608082015111156103465761012081015160808201525b866104085760008b6001600160a01b03166370a082318361018001516040518263ffffffff1660e01b815260040180826001600160a01b0316815260200191505060206040518083038186803b15801561039f57600080fd5b505afa1580156103b3573d6000803e3d6000fd5b505050506040513d60208110156103c957600080fd5b505161010083015190915081101561040657600560405180604001604052806002815260200161343560f01b815250965096505050505050610967565b505b61041183611442565b80608001518160400151106104b45760068301546080820151600185015460408051637a94c56560e11b81526001600160a01b038e811660048301526024820194909452600160801b9092046001600160801b0316604483015251919092169163f5298aca91606480830192600092919082900301818387803b15801561049757600080fd5b505af11580156104ab573d6000803e3d6000fd5b505050506105d8565b60408101511561054d57600683015460408281015160018601548251637a94c56560e11b81526001600160a01b038e811660048301526024820193909352600160801b9091046001600160801b03166044820152915192169163f5298aca9160648082019260009290919082900301818387803b15801561053457600080fd5b505af1158015610548573d6000803e3d6000fd5b505050505b6005830154604082015160808301516001600160a01b0390921691639dc29fac918c916105799161150c565b6040518363ffffffff1660e01b815260040180836001600160a01b0316815260200182815260200192505050600060405180830381600087803b1580156105bf57600080fd5b505af11580156105d3573d6000803e3d6000fd5b505050505b600483015460808201516105fb9185918d916001600160a01b031690600061154e565b8615610777578061018001516001600160a01b03166370a08231336040518263ffffffff1660e01b815260040180826001600160a01b0316815260200191505060206040518083038186803b15801561065357600080fd5b505afa158015610667573d6000803e3d6000fd5b505050506040513d602081101561067d57600080fd5b50516101608201526101808101516101008201516040805163f866c31960e01b81526001600160a01b038d8116600483015233602483015260448201939093529051919092169163f866c31991606480830192600092919082900301818387803b1580156106ea57600080fd5b505af11580156106fe573d6000803e3d6000fd5b505050508061016001516000141561077257336000908152603660205260409020600785015461073b908290600160a01b900460ff166001611981565b60405133906001600160a01b038e16907e058a56ea94653cdf4f152d227ace22d4c00ad99e2a43f58cb7d9e3feb295f290600090a3505b61082f565b61078084611442565b61018081015161010082015161079d9186918e919060009061154e565b610180810151610100820151600186015460408051636b81068560e11b81526001600160a01b038e8116600483015233602483015260448201949094526001600160801b03909216606483015251919092169163d7020d0a91608480830192600092919082900301818387803b15801561081657600080fd5b505af115801561082a573d6000803e3d6000fd5b505050505b8051610100820151141561089a576007840154610859908390600160a01b900460ff166000611981565b886001600160a01b03168b6001600160a01b03167f44c58d81365b66dd4b1a7f36c25aa97b8c71c361ee4937adc1a00000227db5dd60405160405180910390a35b600483015460808201516108c0916001600160a01b038d81169233929190911690611a25565b886001600160a01b03168a6001600160a01b03168c6001600160a01b03167fe413a321e8681d831f4dbccbca790d2952b56f977908e45be37335533e0052868460800151856101000151338d60405180858152602001848152602001836001600160a01b03168152602001821515815260200194505050505060405180910390a46000604051806040016040528060028152602001611a1b60f11b81525095509550505050505b9550959350505050565b60008060008060006109816127ec565b61098a8a611a85565b156109a8576000806000806000199550955095509550955050610e2a565b600060e08201525b878160e001511015610d895760e08101516109cc908b90611a8a565b6109d557610d79565b60e0810151600090815260208a81526040808320546001600160a01b03166101e085018190528352908d90529020610a0c81611b09565b506080860181905260c08601929092525060a0840191909152600a0a60208301526101e082015160405163b3596f0760e01b81526001600160a01b038a169163b3596f0791610a5e919060040161298a565b60206040518083038186803b158015610a7657600080fd5b505afa158015610a8a573d6000803e3d6000fd5b505050506040513d601f19601f82011682018060405250810190610aae9190612972565b825260c082015115801590610ace575060e0820151610ace908c90611b34565b15610bf2578060040160009054906101000a90046001600160a01b03166001600160a01b03166370a082318e6040518263ffffffff1660e01b8152600401610b16919061298a565b60206040518083038186803b158015610b2e57600080fd5b505afa158015610b42573d6000803e3d6000fd5b505050506040513d601f19601f82011682018060405250810190610b669190612972565b6040830181905260208301518351600092610b8b9291610b8591611bba565b90611c13565b610120840151909150610b9e9082611078565b61012084015260a0830151610bc490610bb8908390611bba565b61016085015190611078565b61016084015260c0830151610bea90610bde908390611bba565b61018085015190611078565b610180840152505b60e0820151610c02908c90611c55565b15610d77578060050160009054906101000a90046001600160a01b03166001600160a01b03166370a082318e6040518263ffffffff1660e01b8152600401610c4a919061298a565b60206040518083038186803b158015610c6257600080fd5b505afa158015610c76573d6000803e3d6000fd5b505050506040513d601f19601f82011682018060405250810190610c9a9190612972565b826060018181525050610d448160060160009054906101000a90046001600160a01b03166001600160a01b03166370a082318f6040518263ffffffff1660e01b8152600401610ce9919061298a565b60206040518083038186803b158015610d0157600080fd5b505afa158015610d15573d6000803e3d6000fd5b505050506040513d601f19601f82011682018060405250810190610d399190612972565b606084015190611078565b6060830181905260208301518351610d7092610d649291610b8591611bba565b61014084015190611078565b6101408301525b505b60e08101805160010190526109b0565b600081610120015111610d9d576000610db2565b610120810151610160820151610db291611c13565b610160820152610120810151610dc9576000610dde565b610120810151610180820151610dde91611c13565b6101808201819052610120820151610140830151610dfb92611cd4565b610100820181905261012082015161014083015161016084015161018090940151919850965091945090925090505b965096509650965096915050565b6005810154604080516370a0823160e01b81526001600160a01b0385811660048301529151600093849316916370a08231916024808301926020929190829003018186803b158015610e8957600080fd5b505afa158015610e9d573d6000803e3d6000fd5b505050506040513d6020811015610eb357600080fd5b50516006840154604080516370a0823160e01b81526001600160a01b038881166004830152915191909216916370a08231916024808301926020929190829003018186803b158015610f0457600080fd5b505afa158015610f18573d6000803e3d6000fd5b505050506040513d6020811015610f2e57600080fd5b5051909590945092505050565b60006060610f4888611d02565b1580610f5a5750610f5887611d02565b155b15610f815750506040805180820190915260018152601960f91b602082015260069061106d565b670de0b6b3a76400008510610fb35750506040805180820190915260028152611a1960f11b602082015260049061106d565b600080610fbf8a611d12565b118015610fee57506007890154604080516020810190915288548152610fee91600160a01b900460ff16611b34565b90508061101857505060408051808201909152600280825261343360f01b6020830152915061106d565b84158015611024575083155b1561104d5750506040805180820190915260028152610d0d60f21b60208201526003915061106d565b50506040805180820190915260028152611a1b60f11b6020820152600091505b965096945050505050565b6000828201838110156110d2576040805162461bcd60e51b815260206004820152601b60248201527f536166654d6174683a206164646974696f6e206f766572666c6f770000000000604482015290519081900360640190fd5b90505b92915050565b60008215806110e8575081155b156110f5575060006110d5565b81611388198161110157fe5b0483111560405180604001604052806002815260200161068760f31b815250906111a95760405162461bcd60e51b81526004018080602001828103825283818151815260200191508051906020019080838360005b8381101561116e578181015183820152602001611156565b50505050905090810190601f16801561119b5780820380516001836020036101000a031916815260200191505b509250505060405180910390fd5b506127106002815b0483850201816111bd57fe5b049392505050565b6000806000806000603460009054906101000a90046001600160a01b03166001600160a01b031663fca513a86040518163ffffffff1660e01b815260040160206040518083038186803b15801561121b57600080fd5b505afa15801561122f573d6000803e3d6000fd5b505050506040513d602081101561124557600080fd5b50519050611251612886565b816001600160a01b031663b62cad698b6040518263ffffffff1660e01b815260040180826001600160a01b03168152602001915050602060405180830381600087803b1580156112a057600080fd5b505af11580156112b4573d6000803e3d6000fd5b505050506040513d60208110156112ca57600080fd5b5051604080830191909152805163b62cad6960e01b81526001600160a01b038b8116600483015291519184169163b62cad69916024808201926020929091908290030181600087803b15801561131f57600080fd5b505af1158015611333573d6000803e3d6000fd5b505050506040513d602081101561134957600080fd5b505160608201526113598c611b09565b5060c085015260208401525061137090508b611d1d565b60a0820181905260408201516113bd9161138d9190600a0a611bba565b610b8583602001516102e48560c00151600a0a6113b78e8860600151611bba90919063ffffffff16565b90611bba565b608082018190528710156114265786935061141f81602001516114196113f78460c00151600a0a8560600151611bba90919063ffffffff16565b610b858560a00151600a0a6113b78a8860400151611bba90919063ffffffff16565b90611d27565b9250611431565b806080015193508792505b50919a909950975050505050505050565b60068101546040805163b1bf962d60e01b815290516000926001600160a01b03169163b1bf962d916004808301926020929190829003018186803b15801561148957600080fd5b505afa15801561149d573d6000803e3d6000fd5b505050506040513d60208110156114b357600080fd5b505160018301546003840154919250600160801b8082046001600160801b03908116939216910464ffffffffff166000806114f18787868887611e1a565b91509150611503878787858588611fd3565b50505050505050565b60006110d283836040518060400160405280601e81526020017f536166654d6174683a207375627472616374696f6e206f766572666c6f7700008152506121bc565b6115566128c3565b60058601546001600160a01b031680825260408051637b98f4df60e11b8152815163f731e9be92600480840193919291829003018186803b15801561159a57600080fd5b505afa1580156115ae573d6000803e3d6000fd5b505050506040513d60408110156115c457600080fd5b50805160209182015160c084015260408084019190915260018801546006890154825163b1bf962d60e01b8152925161166894600160801b9093046001600160801b0316936001600160a01b039092169263b1bf962d9260048082019391829003018186803b15801561163657600080fd5b505afa15801561164a573d6000803e3d6000fd5b505050506040513d602081101561166057600080fd5b505190612216565b60e082018190526007870154604083015160c08401516001600160a01b03909216926329db497d92899289928992899291906116a38f6122c7565b6040518963ffffffff1660e01b815260040180896001600160a01b03168152602001886001600160a01b031681526020018781526020018681526020018581526020018481526020018381526020018281526020019850505050505050505060606040518083038186803b15801561171a57600080fd5b505afa15801561172e573d6000803e3d6000fd5b505050506040513d606081101561174457600080fd5b50805160208083015160409384015160a086015260808501526060840182905282518084019093526002835261353360f01b908301526001600160801b0310156117cf5760405162461bcd60e51b815260206004820181815283516024840152835190928392604490910191908501908083836000831561116e578181015183820152602001611156565b506080810151604080518082019091526002815261353560f01b6020820152906001600160801b0310156118445760405162461bcd60e51b815260206004820181815283516024840152835190928392604490910191908501908083836000831561116e578181015183820152602001611156565b5060a08101516040805180820190915260028152610d4d60f21b6020820152906001600160801b0310156118b95760405162461bcd60e51b815260206004820181815283516024840152835190928392604490910191908501908083836000831561116e578181015183820152602001611156565b5060608181015160028801805460808086015160038c0180546001600160801b03199081166001600160801b038085169190911790925560a0808a015191909516828816178216600160801b82841681029190911790965560018e01546040805198895260208901949094528784019190915280821697870197909752939095049092169183019190915291516001600160a01b038816927f804c9b842b2748a22bb64b345453a3de7ca54a6ca45ce00d415894979e22897a928290030190a2505050505050565b604080518082019091526002815261373760f01b6020820152608083106119e95760405162461bcd60e51b815260206004820181815283516024840152835190928392604490910191908501908083836000831561116e578181015183820152602001611156565b5081600202600101816119fd576000611a00565b60015b60ff16901b826002026001016001901b19846000015416178360000181905550505050565b604080516001600160a01b0380861660248301528416604482015260648082018490528251808303909101815260849091019091526020810180516001600160e01b03166323b872dd60e01b179052611a7f9085906122d2565b50505050565b511590565b60006080821060405180604001604052806002815260200161373760f01b81525090611af75760405162461bcd60e51b815260206004820181815283516024840152835190928392604490910191908501908083836000831561116e578181015183820152602001611156565b50509051600360029092021c16151590565b5461ffff80821692601083901c821692602081901c831692603082901c60ff169260409290921c1690565b60006080821060405180604001604052806002815260200161373760f01b81525090611ba15760405162461bcd60e51b815260206004820181815283516024840152835190928392604490910191908501908083836000831561116e578181015183820152602001611156565b5050815160016002830281019190911c16151592915050565b600082611bc9575060006110d5565b82820282848281611bd657fe5b04146110d25760405162461bcd60e51b815260040180806020018281038252602181526020018061299f6021913960400191505060405180910390fd5b60006110d283836040518060400160405280601a81526020017f536166654d6174683a206469766973696f6e206279207a65726f000000000000815250612489565b60006080821060405180604001604052806002815260200161373760f01b81525090611cc25760405162461bcd60e51b815260206004820181815283516024840152835190928392604490910191908501908083836000831561116e578181015183820152602001611156565b50509051600160029092021c16151590565b600082611ce45750600019611cfb565b611cf883611cf286856110db565b906124ee565b90505b9392505050565b5467010000000000000016151590565b5460101c61ffff1690565b5460301c60ff1690565b604080518082019091526002815261035360f41b602082015260009082611d8f5760405162461bcd60e51b815260206004820181815283516024840152835190928392604490910191908501908083836000831561116e578181015183820152602001611156565b5060408051808201909152600280825261068760f31b6020830152830490612710821904851115611e015760405162461bcd60e51b815260206004820181815283516024840152835190928392604490910191908501908083836000831561116e578181015183820152602001611156565b50828161271086020181611e1157fe5b04949350505050565b600285015460009081906001600160801b031685858215611fa4576000611e4184886125e4565b9050611e4d818a612216565b604080518082019091526002815261353160f01b60208201529093506001600160801b03841115611ebf5760405162461bcd60e51b815260206004820181815283516024840152835190928392604490910191908501908083836000831561116e578181015183820152602001611156565b5060018b0180546001600160801b0319166001600160801b0385161790558915611fa25760028b0154600090611f0590600160801b90046001600160801b03168961262a565b9050611f11818a612216565b6040805180820190915260028152611a9960f11b60208201529093506001600160801b03841115611f835760405162461bcd60e51b815260206004820181815283516024840152835190928392604490910191908501908083836000831561116e578181015183820152602001611156565b505060018b0180546001600160801b03808516600160801b0291161790555b505b600399909901805464ffffffffff60801b1916600160801b4264ffffffffff1602179055989650505050505050565b611fdb612911565b611fe4876122c7565b6101208201819052611ff657506121b4565b8660050160009054906101000a90046001600160a01b03166001600160a01b031663797743386040518163ffffffff1660e01b815260040160806040518083038186803b15801561204657600080fd5b505afa15801561205a573d6000803e3d6000fd5b505050506040513d608081101561207057600080fd5b508051602080830151604084015160609094015164ffffffffff1661014086015260a0850193909352918352908201526120aa8686612216565b60808201526120b98684612216565b606082015260a08101516101408201516120db919064ffffffffff8516612633565b60c0820181905260208201516120f091612216565b6040820181905260808201518251606084015161211b93926121159290918391611078565b9061150c565b60e0820181905261012082015161213291906110db565b6101008201819052156115035760048088015461010083015160408051637df5bd3b60e01b81529384019190915260248301879052516001600160a01b0390911691637df5bd3b91604480830192600092919082900301818387803b15801561219a57600080fd5b505af11580156121ae573d6000803e3d6000fd5b50505050505b505050505050565b6000818484111561220e5760405162461bcd60e51b815260206004820181815283516024840152835190928392604490910191908501908083836000831561116e578181015183820152602001611156565b505050900390565b6000821580612223575081155b15612230575060006110d5565b816b019d971e4fe8401e74000000198161224657fe5b0483111560405180604001604052806002815260200161068760f31b815250906122b15760405162461bcd60e51b815260206004820181815283516024840152835190928392604490910191908501908083836000831561116e578181015183820152602001611156565b506b033b2e3c9fd0803ce80000006002816111b1565b5460401c61ffff1690565b6122e4826001600160a01b0316612709565b612335576040805162461bcd60e51b815260206004820152601f60248201527f5361666545524332303a2063616c6c20746f206e6f6e2d636f6e747261637400604482015290519081900360640190fd5b600080836001600160a01b0316836040518082805190602001908083835b602083106123725780518252601f199092019160209182019101612353565b6001836020036101000a0380198251168184511680821785525050505050509050019150506000604051808303816000865af19150503d80600081146123d4576040519150601f19603f3d011682016040523d82523d6000602084013e6123d9565b606091505b509150915081612430576040805162461bcd60e51b815260206004820181905260248201527f5361666545524332303a206c6f772d6c6576656c2063616c6c206661696c6564604482015290519081900360640190fd5b805115611a7f5780806020019051602081101561244c57600080fd5b5051611a7f5760405162461bcd60e51b815260040180806020018281038252602a8152602001806129c0602a913960400191505060405180910390fd5b600081836124d85760405162461bcd60e51b815260206004820181815283516024840152835190928392604490910191908501908083836000831561116e578181015183820152602001611156565b5060008385816124e457fe5b0495945050505050565b604080518082019091526002815261035360f41b6020820152600090826125565760405162461bcd60e51b815260206004820181815283516024840152835190928392604490910191908501908083836000831561116e578181015183820152602001611156565b5060408051808201909152600280825261068760f31b6020830152830490670de0b6b3a76400008219048511156125ce5760405162461bcd60e51b815260206004820181815283516024840152835190928392604490910191908501908083836000831561116e578181015183820152602001611156565b508281670de0b6b3a764000086020181611e1157fe5b6000806125f84264ffffffffff851661150c565b9050612622612605612742565b6301e133806126148785611bba565b8161261b57fe5b0490611078565b949350505050565b60006110d28383425b6000806126478364ffffffffff861661150c565b90508061265e57612656612742565b915050611cfb565b6000198101600060028311612674576000612679565b600283035b90506301e133808704600061268e8280612216565b9050600061269c8284612216565b9050600060026126b0846113b78a8a611bba565b816126b757fe5b049050600060066126ce846113b789818d8d611bba565b816126d557fe5b0490506126f9816126f384816126eb8a8e611bba565b6126f3612742565b90611078565b9c9b505050505050505050505050565b6000813f7fc5d2460186f7233c927e7db2dcc703c0e500b653ca82273b7bfad8045d85a470818114801590612622575050151592915050565b6b033b2e3c9fd0803ce800000090565b60405180610220016040528060008152602001600081526020016000815260200160008152602001600081526020016000815260200160008152602001600081526020016000815260200160008152602001600081526020016000815260200160006001600160a01b03168152602001600015158152602001600060028111156127d857fe5b815260200160008152602001606081525090565b604051806102400160405280600081526020016000815260200160008152602001600081526020016000815260200160008152602001600081526020016000815260200160008152602001600081526020016000815260200160008152602001600081526020016000815260200160001515815260200160006001600160a01b031681526020016000151581526020016000151581525090565b6040518060e00160405280600081526020016000815260200160008152602001600081526020016000815260200160008152602001600081525090565b60405180610100016040528060006001600160a01b03168152602001600081526020016000815260200160008152602001600081526020016000815260200160008152602001600081525090565b60405180610160016040528060008152602001600081526020016000815260200160008152602001600081526020016000815260200160008152602001600081526020016000815260200160008152602001600064ffffffffff1681525090565b600060208284031215612983578081fd5b5051919050565b6001600160a01b039190911681526020019056fe536166654d6174683a206d756c7469706c69636174696f6e206f766572666c6f775361666545524332303a204552433230206f7065726174696f6e20646964206e6f742073756363656564a26469706673582212201d36a14d9857dbf48ec7532a1224397527d367c715b9f500a1f7be0eee14618f64736f6c63430007060033",
  "linkReferences": {},
  "deployedLinkReferences": {}
}