{
  "_format": "hh-sol-artifact-1",
  "contractName": "LendingPoolConfigurator",
  "sourceName": "contracts/protocol/lendingpool/LendingPoolConfigurator.sol",
  "abi": [
    {
      "anonymous": false,
      "inputs": [
        {
          "indexed": true,
          "internalType": "address",
          "name": "asset",
          "type": "address"
        },
        {
          "indexed": true,
          "internalType": "address",
          "name": "proxy",
          "type": "address"
        },
        {
          "indexed": true,
          "internalType": "address",
          "name": "implementation",
          "type": "address"
        }
      ],
      "name": "ATokenUpgraded",
      "type": "event"
    },
    {
      "anonymous": false,
      "inputs": [
        {
          "indexed": true,
          "internalType": "address",
          "name": "asset",
          "type": "address"
        }
      ],
      "name": "BorrowingDisabledOnReserve",
      "type": "event"
    },
    {
      "anonymous": false,
      "inputs": [
        {
          "indexed": true,
          "internalType": "address",
          "name": "asset",
          "type": "address"
        },
        {
          "indexed": false,
          "internalType": "bool",
          "name": "stableRateEnabled",
          "type": "bool"
        }
      ],
      "name": "BorrowingEnabledOnReserve",
      "type": "event"
    },
    {
      "anonymous": false,
      "inputs": [
        {
          "indexed": true,
          "internalType": "address",
          "name": "asset",
          "type": "address"
        },
        {
          "indexed": false,
          "internalType": "uint256",
          "name": "ltv",
          "type": "uint256"
        },
        {
          "indexed": false,
          "internalType": "uint256",
          "name": "liquidationThreshold",
          "type": "uint256"
        },
        {
          "indexed": false,
          "internalType": "uint256",
          "name": "liquidationBonus",
          "type": "uint256"
        }
      ],
      "name": "CollateralConfigurationChanged",
      "type": "event"
    },
    {
      "anonymous": false,
      "inputs": [
        {
          "indexed": true,
          "internalType": "address",
          "name": "asset",
          "type": "address"
        }
      ],
      "name": "ReserveActivated",
      "type": "event"
    },
    {
      "anonymous": false,
      "inputs": [
        {
          "indexed": true,
          "internalType": "address",
          "name": "asset",
          "type": "address"
        }
      ],
      "name": "ReserveDeactivated",
      "type": "event"
    },
    {
      "anonymous": false,
      "inputs": [
        {
          "indexed": true,
          "internalType": "address",
          "name": "asset",
          "type": "address"
        },
        {
          "indexed": false,
          "internalType": "uint256",
          "name": "decimals",
          "type": "uint256"
        }
      ],
      "name": "ReserveDecimalsChanged",
      "type": "event"
    },
    {
      "anonymous": false,
      "inputs": [
        {
          "indexed": true,
          "internalType": "address",
          "name": "asset",
          "type": "address"
        },
        {
          "indexed": false,
          "internalType": "uint256",
          "name": "factor",
          "type": "uint256"
        }
      ],
      "name": "ReserveFactorChanged",
      "type": "event"
    },
    {
      "anonymous": false,
      "inputs": [
        {
          "indexed": true,
          "internalType": "address",
          "name": "asset",
          "type": "address"
        }
      ],
      "name": "ReserveFrozen",
      "type": "event"
    },
    {
      "anonymous": false,
      "inputs": [
        {
          "indexed": true,
          "internalType": "address",
          "name": "asset",
          "type": "address"
        },
        {
          "indexed": true,
          "internalType": "address",
          "name": "aToken",
          "type": "address"
        },
        {
          "indexed": false,
          "internalType": "address",
          "name": "stableDebtToken",
          "type": "address"
        },
        {
          "indexed": false,
          "internalType": "address",
          "name": "variableDebtToken",
          "type": "address"
        },
        {
          "indexed": false,
          "internalType": "address",
          "name": "interestRateStrategyAddress",
          "type": "address"
        }
      ],
      "name": "ReserveInitialized",
      "type": "event"
    },
    {
      "anonymous": false,
      "inputs": [
        {
          "indexed": true,
          "internalType": "address",
          "name": "asset",
          "type": "address"
        },
        {
          "indexed": false,
          "internalType": "address",
          "name": "strategy",
          "type": "address"
        }
      ],
      "name": "ReserveInterestRateStrategyChanged",
      "type": "event"
    },
    {
      "anonymous": false,
      "inputs": [
        {
          "indexed": true,
          "internalType": "address",
          "name": "asset",
          "type": "address"
        }
      ],
      "name": "ReserveUnfrozen",
      "type": "event"
    },
    {
      "anonymous": false,
      "inputs": [
        {
          "indexed": true,
          "internalType": "address",
          "name": "asset",
          "type": "address"
        },
        {
          "indexed": true,
          "internalType": "address",
          "name": "proxy",
          "type": "address"
        },
        {
          "indexed": true,
          "internalType": "address",
          "name": "implementation",
          "type": "address"
        }
      ],
      "name": "StableDebtTokenUpgraded",
      "type": "event"
    },
    {
      "anonymous": false,
      "inputs": [
        {
          "indexed": true,
          "internalType": "address",
          "name": "asset",
          "type": "address"
        }
      ],
      "name": "StableRateDisabledOnReserve",
      "type": "event"
    },
    {
      "anonymous": false,
      "inputs": [
        {
          "indexed": true,
          "internalType": "address",
          "name": "asset",
          "type": "address"
        }
      ],
      "name": "StableRateEnabledOnReserve",
      "type": "event"
    },
    {
      "anonymous": false,
      "inputs": [
        {
          "indexed": true,
          "internalType": "address",
          "name": "asset",
          "type": "address"
        },
        {
          "indexed": true,
          "internalType": "address",
          "name": "proxy",
          "type": "address"
        },
        {
          "indexed": true,
          "internalType": "address",
          "name": "implementation",
          "type": "address"
        }
      ],
      "name": "VariableDebtTokenUpgraded",
      "type": "event"
    },
    {
      "inputs": [
        {
          "internalType": "address",
          "name": "asset",
          "type": "address"
        }
      ],
      "name": "activateReserve",
      "outputs": [],
      "stateMutability": "nonpayable",
      "type": "function"
    },
    {
      "inputs": [
        {
          "components": [
            {
              "internalType": "address",
              "name": "aTokenImpl",
              "type": "address"
            },
            {
              "internalType": "address",
              "name": "stableDebtTokenImpl",
              "type": "address"
            },
            {
              "internalType": "address",
              "name": "variableDebtTokenImpl",
              "type": "address"
            },
            {
              "internalType": "uint8",
              "name": "underlyingAssetDecimals",
              "type": "uint8"
            },
            {
              "internalType": "address",
              "name": "interestRateStrategyAddress",
              "type": "address"
            },
            {
              "internalType": "address",
              "name": "underlyingAsset",
              "type": "address"
            },
            {
              "internalType": "address",
              "name": "treasury",
              "type": "address"
            },
            {
              "internalType": "address",
              "name": "secondTreasury",
              "type": "address"
            },
            {
              "internalType": "address",
              "name": "incentivesController",
              "type": "address"
            },
            {
              "internalType": "uint256",
              "name": "allocPoint",
              "type": "uint256"
            },
            {
              "internalType": "string",
              "name": "underlyingAssetName",
              "type": "string"
            },
            {
              "internalType": "string",
              "name": "aTokenName",
              "type": "string"
            },
            {
              "internalType": "string",
              "name": "aTokenSymbol",
              "type": "string"
            },
            {
              "internalType": "string",
              "name": "variableDebtTokenName",
              "type": "string"
            },
            {
              "internalType": "string",
              "name": "variableDebtTokenSymbol",
              "type": "string"
            },
            {
              "internalType": "string",
              "name": "stableDebtTokenName",
              "type": "string"
            },
            {
              "internalType": "string",
              "name": "stableDebtTokenSymbol",
              "type": "string"
            },
            {
              "internalType": "bytes",
              "name": "params",
              "type": "bytes"
            }
          ],
          "internalType": "struct ILendingPoolConfigurator.InitReserveInput[]",
          "name": "input",
          "type": "tuple[]"
        }
      ],
      "name": "batchInitReserve",
      "outputs": [],
      "stateMutability": "nonpayable",
      "type": "function"
    },
    {
      "inputs": [
        {
          "internalType": "address",
          "name": "asset",
          "type": "address"
        },
        {
          "internalType": "uint256",
          "name": "ltv",
          "type": "uint256"
        },
        {
          "internalType": "uint256",
          "name": "liquidationThreshold",
          "type": "uint256"
        },
        {
          "internalType": "uint256",
          "name": "liquidationBonus",
          "type": "uint256"
        }
      ],
      "name": "configureReserveAsCollateral",
      "outputs": [],
      "stateMutability": "nonpayable",
      "type": "function"
    },
    {
      "inputs": [
        {
          "internalType": "address",
          "name": "asset",
          "type": "address"
        }
      ],
      "name": "deactivateReserve",
      "outputs": [],
      "stateMutability": "nonpayable",
      "type": "function"
    },
    {
      "inputs": [
        {
          "internalType": "address",
          "name": "asset",
          "type": "address"
        }
      ],
      "name": "disableBorrowingOnReserve",
      "outputs": [],
      "stateMutability": "nonpayable",
      "type": "function"
    },
    {
      "inputs": [
        {
          "internalType": "address",
          "name": "asset",
          "type": "address"
        }
      ],
      "name": "disableReserveStableRate",
      "outputs": [],
      "stateMutability": "nonpayable",
      "type": "function"
    },
    {
      "inputs": [
        {
          "internalType": "address",
          "name": "asset",
          "type": "address"
        },
        {
          "internalType": "bool",
          "name": "stableBorrowRateEnabled",
          "type": "bool"
        }
      ],
      "name": "enableBorrowingOnReserve",
      "outputs": [],
      "stateMutability": "nonpayable",
      "type": "function"
    },
    {
      "inputs": [
        {
          "internalType": "address",
          "name": "asset",
          "type": "address"
        }
      ],
      "name": "enableReserveStableRate",
      "outputs": [],
      "stateMutability": "nonpayable",
      "type": "function"
    },
    {
      "inputs": [
        {
          "internalType": "address",
          "name": "asset",
          "type": "address"
        }
      ],
      "name": "freezeReserve",
      "outputs": [],
      "stateMutability": "nonpayable",
      "type": "function"
    },
    {
      "inputs": [
        {
          "internalType": "contract ILendingPoolAddressesProvider",
          "name": "provider",
          "type": "address"
        }
      ],
      "name": "initialize",
      "outputs": [],
      "stateMutability": "nonpayable",
      "type": "function"
    },
    {
      "inputs": [
        {
          "internalType": "bool",
          "name": "val",
          "type": "bool"
        }
      ],
      "name": "setPoolPause",
      "outputs": [],
      "stateMutability": "nonpayable",
      "type": "function"
    },
    {
      "inputs": [
        {
          "internalType": "address",
          "name": "asset",
          "type": "address"
        },
        {
          "internalType": "uint256",
          "name": "reserveFactor",
          "type": "uint256"
        }
      ],
      "name": "setReserveFactor",
      "outputs": [],
      "stateMutability": "nonpayable",
      "type": "function"
    },
    {
      "inputs": [
        {
          "internalType": "address",
          "name": "asset",
          "type": "address"
        },
        {
          "internalType": "address",
          "name": "rateStrategyAddress",
          "type": "address"
        }
      ],
      "name": "setReserveInterestRateStrategyAddress",
      "outputs": [],
      "stateMutability": "nonpayable",
      "type": "function"
    },
    {
      "inputs": [
        {
          "internalType": "address",
          "name": "asset",
          "type": "address"
        }
      ],
      "name": "unfreezeReserve",
      "outputs": [],
      "stateMutability": "nonpayable",
      "type": "function"
    },
    {
      "inputs": [
        {
          "components": [
            {
              "internalType": "address",
              "name": "asset",
              "type": "address"
            },
            {
              "internalType": "address",
              "name": "treasury",
              "type": "address"
            },
            {
              "internalType": "address",
              "name": "secondTreasury",
              "type": "address"
            },
            {
              "internalType": "address",
              "name": "incentivesController",
              "type": "address"
            },
            {
              "internalType": "string",
              "name": "name",
              "type": "string"
            },
            {
              "internalType": "string",
              "name": "symbol",
              "type": "string"
            },
            {
              "internalType": "address",
              "name": "implementation",
              "type": "address"
            },
            {
              "internalType": "bytes",
              "name": "params",
              "type": "bytes"
            }
          ],
          "internalType": "struct ILendingPoolConfigurator.UpdateATokenInput",
          "name": "input",
          "type": "tuple"
        }
      ],
      "name": "updateAToken",
      "outputs": [],
      "stateMutability": "nonpayable",
      "type": "function"
    },
    {
      "inputs": [
        {
          "components": [
            {
              "internalType": "address",
              "name": "asset",
              "type": "address"
            },
            {
              "internalType": "address",
              "name": "incentivesController",
              "type": "address"
            },
            {
              "internalType": "string",
              "name": "name",
              "type": "string"
            },
            {
              "internalType": "string",
              "name": "symbol",
              "type": "string"
            },
            {
              "internalType": "address",
              "name": "implementation",
              "type": "address"
            },
            {
              "internalType": "bytes",
              "name": "params",
              "type": "bytes"
            }
          ],
          "internalType": "struct ILendingPoolConfigurator.UpdateDebtTokenInput",
          "name": "input",
          "type": "tuple"
        }
      ],
      "name": "updateStableDebtToken",
      "outputs": [],
      "stateMutability": "nonpayable",
      "type": "function"
    },
    {
      "inputs": [
        {
          "components": [
            {
              "internalType": "address",
              "name": "asset",
              "type": "address"
            },
            {
              "internalType": "address",
              "name": "incentivesController",
              "type": "address"
            },
            {
              "internalType": "string",
              "name": "name",
              "type": "string"
            },
            {
              "internalType": "string",
              "name": "symbol",
              "type": "string"
            },
            {
              "internalType": "address",
              "name": "implementation",
              "type": "address"
            },
            {
              "internalType": "bytes",
              "name": "params",
              "type": "bytes"
            }
          ],
          "internalType": "struct ILendingPoolConfigurator.UpdateDebtTokenInput",
          "name": "input",
          "type": "tuple"
        }
      ],
      "name": "updateVariableDebtToken",
      "outputs": [],
      "stateMutability": "nonpayable",
      "type": "function"
    }
  ],
  "bytecode": "0x60806040526000805534801561001457600080fd5b50614002806100246000396000f3fe608060405234801561001057600080fd5b506004361061010b5760003560e01c80637c4e560b116100a2578063bf34418311610071578063bf344183146101f6578063c4d66de814610209578063eede87c11461021c578063ef1f93731461022f578063f53a2515146102425761010b565b80637c4e560b146101aa578063a8dc0f45146101bd578063ad4e6432146101d0578063b75d6f34146101e35761010b565b80635b07efc6116100de5780635b07efc61461015e5780637626cde3146101715780637641f3d9146101845780637aca76eb146101975761010b565b80631d2118f9146101105780633e72a454146101255780634b4e67531461013857806357d491551461014b575b600080fd5b61012361011e36600461314f565b610255565b005b610123610133366004613110565b6103c7565b6101236101463660046131bb565b6105bb565b610123610159366004613220565b6107b3565b61012361016c3660046133b4565b6108bf565b61012361017f3660046133ed565b610bf8565b61012361019236600461328f565b610e96565b6101236101a5366004613110565b610fbb565b6101236101b83660046131e6565b6111a6565b6101236101cb366004613110565b6114c8565b6101236101de3660046133ed565b6116b3565b6101236101f1366004613110565b611951565b610123610204366004613110565b611b3c565b610123610217366004613110565b611d27565b61012361022a366004613187565b611e78565b61012361023d366004613110565b61206e565b610123610250366004613110565b612259565b603454604080516315d9b46f60e31b8152905133926001600160a01b03169163aecda378916004808301926020929190829003018186803b15801561029957600080fd5b505afa1580156102ad573d6000803e3d6000fd5b505050506040513d601f19601f820116820180604052508101906102d19190613133565b6001600160a01b03161460405180604001604052806002815260200161333360f01b8152509061031d5760405162461bcd60e51b8152600401610314919061372c565b60405180910390fd5b50603554604051631d2118f960e01b81526001600160a01b0390911690631d2118f99061035090859085906004016134e2565b600060405180830381600087803b15801561036a57600080fd5b505af115801561037e573d6000803e3d6000fd5b50505050816001600160a01b03167f5644b64ebb0ce18c4032248ca52f58355469092ff072866c3dcd8640e817d6a5826040516103bb91906134ce565b60405180910390a25050565b603454604080516315d9b46f60e31b8152905133926001600160a01b03169163aecda378916004808301926020929190829003018186803b15801561040b57600080fd5b505afa15801561041f573d6000803e3d6000fd5b505050506040513d601f19601f820116820180604052508101906104439190613133565b6001600160a01b03161460405180604001604052806002815260200161333360f01b815250906104865760405162461bcd60e51b8152600401610314919061372c565b5061049081612444565b60355460405163c44b11f760e01b81526000916001600160a01b03169063c44b11f7906104c19085906004016134ce565b60206040518083038186803b1580156104d957600080fd5b505afa1580156104ed573d6000803e3d6000fd5b505050506040513d601f19601f8201168201806040525081019061051191906132a9565b905061051e81600061259e565b6035548151604051635c69493b60e11b81526001600160a01b039092169163b8d29276916105519186919060040161357d565b600060405180830381600087803b15801561056b57600080fd5b505af115801561057f573d6000803e3d6000fd5b50506040516001600160a01b03851692507f6f60cf8bd0f218cabe1ea3150bd07b0b758c35c4cfdf7138017a283e65564d5e9150600090a25050565b603454604080516315d9b46f60e31b8152905133926001600160a01b03169163aecda378916004808301926020929190829003018186803b1580156105ff57600080fd5b505afa158015610613573d6000803e3d6000fd5b505050506040513d601f19601f820116820180604052508101906106379190613133565b6001600160a01b03161460405180604001604052806002815260200161333360f01b8152509061067a5760405162461bcd60e51b8152600401610314919061372c565b5060355460405163c44b11f760e01b81526000916001600160a01b03169063c44b11f7906106ac9086906004016134ce565b60206040518083038186803b1580156106c457600080fd5b505afa1580156106d8573d6000803e3d6000fd5b505050506040513d601f19601f820116820180604052508101906106fc91906132a9565b905061070881836125cc565b6035548151604051635c69493b60e11b81526001600160a01b039092169163b8d292769161073b9187919060040161357d565b600060405180830381600087803b15801561075557600080fd5b505af1158015610769573d6000803e3d6000fd5b50505050826001600160a01b03167f2694ccb0b585b6a54b8d8b4a47aa874b05c257b43d34e98aee50838be00d3405836040516107a6919061373f565b60405180910390a2505050565b603454604080516315d9b46f60e31b8152905133926001600160a01b03169163aecda378916004808301926020929190829003018186803b1580156107f757600080fd5b505afa15801561080b573d6000803e3d6000fd5b505050506040513d601f19601f8201168201806040525081019061082f9190613133565b6001600160a01b03161460405180604001604052806002815260200161333360f01b815250906108725760405162461bcd60e51b8152600401610314919061372c565b506035546001600160a01b031660005b828110156108b9576108b18285858481811061089a57fe5b90506020028101906108ac91906137c0565b61268e565b600101610882565b50505050565b603454604080516315d9b46f60e31b8152905133926001600160a01b03169163aecda378916004808301926020929190829003018186803b15801561090357600080fd5b505afa158015610917573d6000803e3d6000fd5b505050506040513d601f19601f8201168201806040525081019061093b9190613133565b6001600160a01b03161460405180604001604052806002815260200161333360f01b8152509061097e5760405162461bcd60e51b8152600401610314919061372c565b506035546001600160a01b03166000816335ea6a756109a06020860186613110565b6040518263ffffffff1660e01b81526004016109bc91906134ce565b6101806040518083038186803b1580156109d557600080fd5b505afa1580156109e9573d6000803e3d6000fd5b505050506040513d601f19601f82011682018060405250810190610a0d91906132c4565b90506000610aa16001600160a01b03841663c44b11f7610a306020880188613110565b6040518263ffffffff1660e01b8152600401610a4c91906134ce565b60206040518083038186803b158015610a6457600080fd5b505afa158015610a78573d6000803e3d6000fd5b505050506040513d601f19601f82011682018060405250810190610a9c91906132a9565b612c0a565b50935060009250633deeb64b60e11b9150859050610ac56040880160208901613110565b610ad56060890160408a01613110565b610ae260208a018a613110565b610af260808b0160608c01613110565b87610b0060808d018d6137aa565b610b0d60a08f018f6137aa565b8f8060e00190610b1d919061375e565b604051602401610b389c9b9a999897969594939291906135a1565b60408051601f198184030181529190526020810180516001600160e01b03166001600160e01b03199093169290921790915260e080850151919250610b8d9190610b8790880160c08901613110565b83612c35565b610b9d60e0860160c08701613110565b60e08401516001600160a01b039182169116610bbc6020880188613110565b6001600160a01b03167fa76f65411ec66a7fb6bc467432eb14767900449ae4469fa295e4441fe5e1cb7360405160405180910390a45050505050565b603454604080516315d9b46f60e31b8152905133926001600160a01b03169163aecda378916004808301926020929190829003018186803b158015610c3c57600080fd5b505afa158015610c50573d6000803e3d6000fd5b505050506040513d601f19601f82011682018060405250810190610c749190613133565b6001600160a01b03161460405180604001604052806002815260200161333360f01b81525090610cb75760405162461bcd60e51b8152600401610314919061372c565b506035546001600160a01b03166000816335ea6a75610cd96020860186613110565b6040518263ffffffff1660e01b8152600401610cf591906134ce565b6101806040518083038186803b158015610d0e57600080fd5b505afa158015610d22573d6000803e3d6000fd5b505050506040513d601f19601f82011682018060405250810190610d4691906132c4565b90506000610d696001600160a01b03841663c44b11f7610a306020880188613110565b50935060009250636111764560e11b9150859050610d8a6020880188613110565b610d9a6040890160208a01613110565b85610da860408b018b6137aa565b610db560608d018d6137aa565b610dc260a08f018f61375e565b604051602401610ddb9a99989796959493929190613679565b60408051601f198184030181529190526020810180516001600160e01b03166001600160e01b031990931692909217909152610100840151909150610e2a90610b8760a0880160808901613110565b610e3a60a0860160808701613110565b6101008401516001600160a01b039182169116610e5a6020880188613110565b6001600160a01b03167f7a943a5b6c214bf7726c069a878b1e2a8e7371981d516048b84e03743e67bc2860405160405180910390a45050505050565b60345460408051636ee554f560e11b8152905133926001600160a01b03169163ddcaa9ea916004808301926020929190829003018186803b158015610eda57600080fd5b505afa158015610eee573d6000803e3d6000fd5b505050506040513d601f19601f82011682018060405250810190610f129190613133565b6001600160a01b031614604051806040016040528060028152602001611b9b60f11b81525090610f555760405162461bcd60e51b8152600401610314919061372c565b5060355460405163bedb86fb60e01b81526001600160a01b039091169063bedb86fb90610f86908490600401613596565b600060405180830381600087803b158015610fa057600080fd5b505af1158015610fb4573d6000803e3d6000fd5b5050505050565b603454604080516315d9b46f60e31b8152905133926001600160a01b03169163aecda378916004808301926020929190829003018186803b158015610fff57600080fd5b505afa158015611013573d6000803e3d6000fd5b505050506040513d601f19601f820116820180604052508101906110379190613133565b6001600160a01b03161460405180604001604052806002815260200161333360f01b8152509061107a5760405162461bcd60e51b8152600401610314919061372c565b5060355460405163c44b11f760e01b81526000916001600160a01b03169063c44b11f7906110ac9085906004016134ce565b60206040518083038186803b1580156110c457600080fd5b505afa1580156110d8573d6000803e3d6000fd5b505050506040513d601f19601f820116820180604052508101906110fc91906132a9565b9050611109816001612c9d565b6035548151604051635c69493b60e11b81526001600160a01b039092169163b8d292769161113c9186919060040161357d565b600060405180830381600087803b15801561115657600080fd5b505af115801561116a573d6000803e3d6000fd5b50506040516001600160a01b03851692507f85dc710add8a0914461a7dc5a63f6fc529a7700f8c6089a3faf5e93256ccf12a9150600090a25050565b603454604080516315d9b46f60e31b8152905133926001600160a01b03169163aecda378916004808301926020929190829003018186803b1580156111ea57600080fd5b505afa1580156111fe573d6000803e3d6000fd5b505050506040513d601f19601f820116820180604052508101906112229190613133565b6001600160a01b03161460405180604001604052806002815260200161333360f01b815250906112655760405162461bcd60e51b8152600401610314919061372c565b5060355460405163c44b11f760e01b81526000916001600160a01b03169063c44b11f7906112979088906004016134ce565b60206040518083038186803b1580156112af57600080fd5b505afa1580156112c3573d6000803e3d6000fd5b505050506040513d601f19601f820116820180604052508101906112e791906132a9565b90508284111560405180604001604052806002815260200161373560f01b815250906113265760405162461bcd60e51b8152600401610314919061372c565b5082156113b757604080518082019091526002815261373560f01b602082015261271083116113685760405162461bcd60e51b8152600401610314919061372c565b506127106113768484612ccb565b111560405180604001604052806002815260200161373560f01b815250906113b15760405162461bcd60e51b8152600401610314919061372c565b506113f9565b604080518082019091526002815261373560f01b602082015282156113ef5760405162461bcd60e51b8152600401610314919061372c565b506113f985612444565b6114038185612d70565b61140d8184612de7565b6114178183612e66565b6035548151604051635c69493b60e11b81526001600160a01b039092169163b8d292769161144a9189919060040161357d565b600060405180830381600087803b15801561146457600080fd5b505af1158015611478573d6000803e3d6000fd5b50505050846001600160a01b03167f637febbda9275aea2e85c0ff690444c8d87eb2e8339bbede9715abcc89cb09958585856040516114b993929190613748565b60405180910390a25050505050565b603454604080516315d9b46f60e31b8152905133926001600160a01b03169163aecda378916004808301926020929190829003018186803b15801561150c57600080fd5b505afa158015611520573d6000803e3d6000fd5b505050506040513d601f19601f820116820180604052508101906115449190613133565b6001600160a01b03161460405180604001604052806002815260200161333360f01b815250906115875760405162461bcd60e51b8152600401610314919061372c565b5060355460405163c44b11f760e01b81526000916001600160a01b03169063c44b11f7906115b99085906004016134ce565b60206040518083038186803b1580156115d157600080fd5b505afa1580156115e5573d6000803e3d6000fd5b505050506040513d601f19601f8201168201806040525081019061160991906132a9565b9050611616816000612ee7565b6035548151604051635c69493b60e11b81526001600160a01b039092169163b8d29276916116499186919060040161357d565b600060405180830381600087803b15801561166357600080fd5b505af1158015611677573d6000803e3d6000fd5b50506040516001600160a01b03851692507fe9a7e5fd4fc8ea18e602350324bf48e8f05d12434af0ce0be05743e6a5fdcb9e9150600090a25050565b603454604080516315d9b46f60e31b8152905133926001600160a01b03169163aecda378916004808301926020929190829003018186803b1580156116f757600080fd5b505afa15801561170b573d6000803e3d6000fd5b505050506040513d601f19601f8201168201806040525081019061172f9190613133565b6001600160a01b03161460405180604001604052806002815260200161333360f01b815250906117725760405162461bcd60e51b8152600401610314919061372c565b506035546001600160a01b03166000816335ea6a756117946020860186613110565b6040518263ffffffff1660e01b81526004016117b091906134ce565b6101806040518083038186803b1580156117c957600080fd5b505afa1580156117dd573d6000803e3d6000fd5b505050506040513d601f19601f8201168201806040525081019061180191906132c4565b905060006118246001600160a01b03841663c44b11f7610a306020880188613110565b50935060009250636111764560e11b91508590506118456020880188613110565b6118556040890160208a01613110565b8561186360408b018b6137aa565b61187060608d018d6137aa565b61187d60a08f018f61375e565b6040516024016118969a99989796959493929190613679565b60408051601f198184030181529190526020810180516001600160e01b03166001600160e01b0319909316929092179091526101208401519091506118e590610b8760a0880160808901613110565b6118f560a0860160808701613110565b6101208401516001600160a01b0391821691166119156020880188613110565b6001600160a01b03167f9439658a562a5c46b1173589df89cf001483d685bad28aedaff4a88656292d8160405160405180910390a45050505050565b603454604080516315d9b46f60e31b8152905133926001600160a01b03169163aecda378916004808301926020929190829003018186803b15801561199557600080fd5b505afa1580156119a9573d6000803e3d6000fd5b505050506040513d601f19601f820116820180604052508101906119cd9190613133565b6001600160a01b03161460405180604001604052806002815260200161333360f01b81525090611a105760405162461bcd60e51b8152600401610314919061372c565b5060355460405163c44b11f760e01b81526000916001600160a01b03169063c44b11f790611a429085906004016134ce565b60206040518083038186803b158015611a5a57600080fd5b505afa158015611a6e573d6000803e3d6000fd5b505050506040513d601f19601f82011682018060405250810190611a9291906132a9565b9050611a9f81600161259e565b6035548151604051635c69493b60e11b81526001600160a01b039092169163b8d2927691611ad29186919060040161357d565b600060405180830381600087803b158015611aec57600080fd5b505af1158015611b00573d6000803e3d6000fd5b50506040516001600160a01b03851692507f35b80cd8ea3440e9a8454f116fa658b858da1b64c86c48451f4559cefcdfb56c9150600090a25050565b603454604080516315d9b46f60e31b8152905133926001600160a01b03169163aecda378916004808301926020929190829003018186803b158015611b8057600080fd5b505afa158015611b94573d6000803e3d6000fd5b505050506040513d601f19601f82011682018060405250810190611bb89190613133565b6001600160a01b03161460405180604001604052806002815260200161333360f01b81525090611bfb5760405162461bcd60e51b8152600401610314919061372c565b5060355460405163c44b11f760e01b81526000916001600160a01b03169063c44b11f790611c2d9085906004016134ce565b60206040518083038186803b158015611c4557600080fd5b505afa158015611c59573d6000803e3d6000fd5b505050506040513d601f19601f82011682018060405250810190611c7d91906132a9565b9050611c8a816001612f15565b6035548151604051635c69493b60e11b81526001600160a01b039092169163b8d2927691611cbd9186919060040161357d565b600060405180830381600087803b158015611cd757600080fd5b505af1158015611ceb573d6000803e3d6000fd5b50506040516001600160a01b03851692507f8dee2b2f3e98319ae6347eda521788f73f4086c9be9a594942b370b137fb8cb19150600090a25050565b6000611d31612f43565b60015490915060ff1680611d485750611d48612f48565b80611d54575060005481115b611d8f5760405162461bcd60e51b815260040180806020018281038252602e815260200180613f9f602e913960400191505060405180910390fd5b60015460ff16158015611dae576001805460ff19168117905560008290555b603480546001600160a01b0319166001600160a01b03858116919091179182905560408051630261bf8b60e01b815290519290911691630261bf8b91600480820192602092909190829003018186803b158015611e0a57600080fd5b505afa158015611e1e573d6000803e3d6000fd5b505050506040513d601f19601f82011682018060405250810190611e429190613133565b603580546001600160a01b0319166001600160a01b03929092169190911790558015611e73576001805460ff191690555b505050565b603454604080516315d9b46f60e31b8152905133926001600160a01b03169163aecda378916004808301926020929190829003018186803b158015611ebc57600080fd5b505afa158015611ed0573d6000803e3d6000fd5b505050506040513d601f19601f82011682018060405250810190611ef49190613133565b6001600160a01b03161460405180604001604052806002815260200161333360f01b81525090611f375760405162461bcd60e51b8152600401610314919061372c565b5060355460405163c44b11f760e01b81526000916001600160a01b03169063c44b11f790611f699086906004016134ce565b60206040518083038186803b158015611f8157600080fd5b505afa158015611f95573d6000803e3d6000fd5b505050506040513d601f19601f82011682018060405250810190611fb991906132a9565b9050611fc6816001612ee7565b611fd08183612f15565b6035548151604051635c69493b60e11b81526001600160a01b039092169163b8d29276916120039187919060040161357d565b600060405180830381600087803b15801561201d57600080fd5b505af1158015612031573d6000803e3d6000fd5b50505050826001600160a01b03167fab2f7f9e5ca2772fafa94f355c1842a80ae6b9e41f83083098d81f67d7a0b508836040516107a69190613596565b603454604080516315d9b46f60e31b8152905133926001600160a01b03169163aecda378916004808301926020929190829003018186803b1580156120b257600080fd5b505afa1580156120c6573d6000803e3d6000fd5b505050506040513d601f19601f820116820180604052508101906120ea9190613133565b6001600160a01b03161460405180604001604052806002815260200161333360f01b8152509061212d5760405162461bcd60e51b8152600401610314919061372c565b5060355460405163c44b11f760e01b81526000916001600160a01b03169063c44b11f79061215f9085906004016134ce565b60206040518083038186803b15801561217757600080fd5b505afa15801561218b573d6000803e3d6000fd5b505050506040513d601f19601f820116820180604052508101906121af91906132a9565b90506121bc816000612c9d565b6035548151604051635c69493b60e11b81526001600160a01b039092169163b8d29276916121ef9186919060040161357d565b600060405180830381600087803b15801561220957600080fd5b505af115801561221d573d6000803e3d6000fd5b50506040516001600160a01b03851692507f838ecdc4709a31a26db48b0c853212cedde3f725f07030079d793fb0719647609150600090a25050565b603454604080516315d9b46f60e31b8152905133926001600160a01b03169163aecda378916004808301926020929190829003018186803b15801561229d57600080fd5b505afa1580156122b1573d6000803e3d6000fd5b505050506040513d601f19601f820116820180604052508101906122d59190613133565b6001600160a01b03161460405180604001604052806002815260200161333360f01b815250906123185760405162461bcd60e51b8152600401610314919061372c565b5060355460405163c44b11f760e01b81526000916001600160a01b03169063c44b11f79061234a9085906004016134ce565b60206040518083038186803b15801561236257600080fd5b505afa158015612376573d6000803e3d6000fd5b505050506040513d601f19601f8201168201806040525081019061239a91906132a9565b90506123a7816000612f15565b6035548151604051635c69493b60e11b81526001600160a01b039092169163b8d29276916123da9186919060040161357d565b600060405180830381600087803b1580156123f457600080fd5b505af1158015612408573d6000803e3d6000fd5b50506040516001600160a01b03851692507f8bbf35441ac2c607ddecadd3d8ee58636d32f217fad201fb2655581502dd84e39150600090a25050565b6035546040516335ea6a7560e01b81526000916001600160a01b0316906335ea6a75906124759085906004016134ce565b6101806040518083038186803b15801561248e57600080fd5b505afa1580156124a2573d6000803e3d6000fd5b505050506040513d601f19601f820116820180604052508101906124c691906132c4565b90506000826001600160a01b03166370a082318360e001516040518263ffffffff1660e01b81526004016124fa91906134ce565b60206040518083038186803b15801561251257600080fd5b505afa158015612526573d6000803e3d6000fd5b505050506040513d601f19601f8201168201806040525081019061254a9190613425565b905080158015612565575060608201516001600160801b0316155b604051806040016040528060028152602001610ccd60f21b815250906108b95760405162461bcd60e51b8152600401610314919061372c565b6038816125ac5760006125af565b60015b8351670100000000000000191660ff9190911690911b1790915250565b604080518082019091526002815261373160f01b602082015261ffff8211156126735760405162461bcd60e51b81526004018080602001828103825283818151815260200191508051906020019080838360005b83811015612638578181015183820152602001612620565b50505050905090810190601f1680156126655780820380516001836020036101000a031916815260200191505b509250505060405180910390fd5b50815169ffff0000000000000000191660409190911b179052565b60006126a261012083016101008401613110565b905060006127806126b66020850185613110565b633deeb64b60e11b866126cf60e0880160c08901613110565b6126e0610100890160e08a01613110565b6126f060c08a0160a08b01613110565b8861270160808c0160608d0161343d565b61270f6101608d018d6137aa565b61271d6101808f018f6137aa565b8f80610220019061272e919061375e565b6040516024016127499c9b9a9998979695949392919061362a565b60408051601f198184030181529190526020810180516001600160e01b03166001600160e01b031990931692909217909152612f4e565b604051631954e55d60e11b81529091506001600160a01b038316906332a9caba906127b69084906101208801359060040161357d565b600060405180830381600087803b1580156127d057600080fd5b505af11580156127e4573d6000803e3d6000fd5b506127f99250505060e0840160c08501613110565b6001600160a01b0316639c9b2e21826040518263ffffffff1660e01b815260040161282491906134ce565b600060405180830381600087803b15801561283e57600080fd5b505af1158015612852573d6000803e3d6000fd5b5050505060006128ef84602001602081019061286e9190613110565b636111764560e11b8761288760c0890160a08a01613110565b6128996101208a016101008b01613110565b6128a960808b0160608c0161343d565b6128b76101e08c018c6137aa565b6128c56102008e018e6137aa565b8e8061022001906128d6919061375e565b6040516024016127499a999897969594939291906136ee565b9050600061296e6129066060870160408801613110565b636111764560e11b8861291f60c08a0160a08b01613110565b6129316101208b016101008c01613110565b61294160808c0160608d0161343d565b61294f6101a08d018d6137aa565b61295d6101c08f018f6137aa565b8f8061022001906128d6919061375e565b604051631954e55d60e11b81529091506001600160a01b038516906332a9caba906129a49084906101208a01359060040161357d565b600060405180830381600087803b1580156129be57600080fd5b505af11580156129d2573d6000803e3d6000fd5b5050506001600160a01b0387169050637a708e926129f660c0880160a08901613110565b858585612a0960a08c0160808d01613110565b6040518663ffffffff1660e01b8152600401612a2995949392919061351f565b600060405180830381600087803b158015612a4357600080fd5b505af1158015612a57573d6000803e3d6000fd5b506000925050506001600160a01b03871663c44b11f7612a7d60c0890160a08a01613110565b6040518263ffffffff1660e01b8152600401612a9991906134ce565b60206040518083038186803b158015612ab157600080fd5b505afa158015612ac5573d6000803e3d6000fd5b505050506040513d601f19601f82011682018060405250810190612ae991906132a9565b9050612b08612afe608088016060890161343d565b829060ff16612ff0565b612b1381600161259e565b612b1e816000612c9d565b6001600160a01b03871663b8d29276612b3d60c0890160a08a01613110565b83516040516001600160e01b031960e085901b168152612b6192919060040161357d565b600060405180830381600087803b158015612b7b57600080fd5b505af1158015612b8f573d6000803e3d6000fd5b5050506001600160a01b0385169050612bae60c0880160a08901613110565b6001600160a01b03167f3a0ca721fc364424566385a1aa271ed508cc2c0949c2272575fb3013a163a45f8585612bea60a08c0160808d01613110565b604051612bf9939291906134fc565b60405180910390a350505050505050565b5161ffff80821692601083901c821692602081901c831692603082901c60ff169260409290921c1690565b60405163278f794360e11b815283906001600160a01b03821690634f1ef28690612c659086908690600401613551565b600060405180830381600087803b158015612c7f57600080fd5b505af1158015612c93573d6000803e3d6000fd5b5050505050505050565b603981612cab576000612cae565b60015b8351670200000000000000191660ff9190911690911b1790915250565b6000821580612cd8575081155b15612ce557506000612d6a565b816113881981612cf157fe5b0483111560405180604001604052806002815260200161068760f31b81525090612d5c5760405162461bcd60e51b8152602060048201818152835160248401528351909283926044909101919085019080838360008315612638578181015183820152602001612620565b505061271061138882840201045b92915050565b604080518082019091526002815261363760f01b602082015261ffff821115612dda5760405162461bcd60e51b8152602060048201818152835160248401528351909283926044909101919085019080838360008315612638578181015183820152602001612620565b50815161ffff1916179052565b60408051808201909152600281526106c760f31b602082015261ffff821115612e515760405162461bcd60e51b8152602060048201818152835160248401528351909283926044909101919085019080838360008315612638578181015183820152602001612620565b50815163ffff0000191660109190911b179052565b604080518082019091526002815261363960f01b602082015261ffff821115612ed05760405162461bcd60e51b8152602060048201818152835160248401528351909283926044909101919085019080838360008315612638578181015183820152602001612620565b50815165ffff00000000191660209190911b179052565b603a81612ef5576000612ef8565b60015b8351670400000000000000191660ff9190911690911b1790915250565b603b81612f23576000612f26565b60015b8351670800000000000000191660ff9190911690911b1790915250565b600190565b303b1590565b60008030604051612f5e90613071565b612f6891906134ce565b604051809103906000f080158015612f84573d6000803e3d6000fd5b5060405163347d5e2560e21b81529091506001600160a01b0382169063d1f5789490612fb69087908790600401613551565b600060405180830381600087803b158015612fd057600080fd5b505af1158015612fe4573d6000803e3d6000fd5b50929695505050505050565b604080518082019091526002815261037360f41b602082015260ff8211156130595760405162461bcd60e51b8152602060048201818152835160248401528351909283926044909101919085019080838360008315612638578181015183820152602001612620565b50815166ff000000000000191660309190911b179052565b6107738061382c83390190565b805161308981613804565b919050565b8035801515811461308957600080fd5b6000602082840312156130af578081fd5b6040516020810181811067ffffffffffffffff821117156130cc57fe5b6040529151825250919050565b80516001600160801b038116811461308957600080fd5b805164ffffffffff8116811461308957600080fd5b80516130898161381c565b600060208284031215613121578081fd5b813561312c81613804565b9392505050565b600060208284031215613144578081fd5b815161312c81613804565b60008060408385031215613161578081fd5b823561316c81613804565b9150602083013561317c81613804565b809150509250929050565b60008060408385031215613199578182fd5b82356131a481613804565b91506131b26020840161308e565b90509250929050565b600080604083850312156131cd578182fd5b82356131d881613804565b946020939093013593505050565b600080600080608085870312156131fb578182fd5b843561320681613804565b966020860135965060408601359560600135945092505050565b60008060208385031215613232578182fd5b823567ffffffffffffffff80821115613249578384fd5b818501915085601f83011261325c578384fd5b81358181111561326a578485fd5b866020808302850101111561327d578485fd5b60209290920196919550909350505050565b6000602082840312156132a0578081fd5b61312c8261308e565b6000602082840312156132ba578081fd5b61312c838361309e565b60006101808083850312156132d7578182fd5b6132e0816137e0565b90506132ec848461309e565b81526132fa602084016130d9565b602082015261330b604084016130d9565b604082015261331c606084016130d9565b606082015261332d608084016130d9565b608082015261333e60a084016130d9565b60a082015261334f60c084016130f0565b60c082015261336060e0840161307e565b60e082015261010061337381850161307e565b9082015261012061338584820161307e565b9082015261014061339784820161307e565b908201526101606133a9848201613105565b908201529392505050565b6000602082840312156133c5578081fd5b813567ffffffffffffffff8111156133db578182fd5b8201610100818503121561312c578182fd5b6000602082840312156133fe578081fd5b813567ffffffffffffffff811115613414578182fd5b820160c0818503121561312c578182fd5b600060208284031215613436578081fd5b5051919050565b60006020828403121561344e578081fd5b813561312c8161381c565b60008284528282602086013780602084860101526020601f19601f85011685010190509392505050565b60008151808452815b818110156134a85760208185018101518683018201520161348c565b818111156134b95782602083870101525b50601f01601f19169290920160200192915050565b6001600160a01b0391909116815260200190565b6001600160a01b0392831681529116602082015260400190565b6001600160a01b0393841681529183166020830152909116604082015260600190565b6001600160a01b0395861681529385166020850152918416604084015283166060830152909116608082015260a00190565b6001600160a01b038316815260406020820181905260009061357590830184613483565b949350505050565b6001600160a01b03929092168252602082015260400190565b901515815260200190565b6001600160a01b038d811682528c811660208301528b811660408301528a811660608301528916608082015260a0810188905261012060c082018190526000906135ee908301888a613459565b82810360e0840152613601818789613459565b9050828103610100840152613617818587613459565b9f9e505050505050505050505050505050565b6001600160a01b038d811682528c811660208301528b811660408301528a811660608301528916608082015260ff881660a082015261012060c082018190526000906135ee908301888a613459565b6001600160a01b038b811682528a81166020830152891660408201526060810188905260e0608082018190526000906136b5908301888a613459565b82810360a08401526136c8818789613459565b905082810360c08401526136dd818587613459565b9d9c50505050505050505050505050565b6001600160a01b038b811682528a811660208301528916604082015260ff8816606082015260e0608082018190526000906136b5908301888a613459565b60006020825261312c6020830184613483565b90815260200190565b9283526020830191909152604082015260600190565b6000808335601e19843603018112613774578283fd5b83018035915067ffffffffffffffff82111561378e578283fd5b6020019150368190038213156137a357600080fd5b9250929050565b6000808335601e19843603018112613774578182fd5b6000823561023e198336030181126137d6578182fd5b9190910192915050565b60405181810167ffffffffffffffff811182821017156137fc57fe5b604052919050565b6001600160a01b038116811461381957600080fd5b50565b60ff8116811461381957600080fdfe60a060405234801561001057600080fd5b506040516107733803806107738339818101604052602081101561003357600080fd5b5051606081901b6001600160601b0319166080526001600160a01b03166106f36100806000398061022852806102725280610331528061045e528061048752806105af52506106f36000f3fe60806040526004361061004a5760003560e01c80633659cfe6146100545780634f1ef286146100875780635c60da1b14610107578063d1f5789414610138578063f851a440146101ee575b610052610203565b005b34801561006057600080fd5b506100526004803603602081101561007757600080fd5b50356001600160a01b031661021d565b6100526004803603604081101561009d57600080fd5b6001600160a01b0382351691908101906040810160208201356401000000008111156100c857600080fd5b8201836020820111156100da57600080fd5b803590602001918460018302840111640100000000831117156100fc57600080fd5b509092509050610267565b34801561011357600080fd5b5061011c610324565b604080516001600160a01b039092168252519081900360200190f35b6100526004803603604081101561014e57600080fd5b6001600160a01b03823516919081019060408101602082013564010000000081111561017957600080fd5b82018360208201111561018b57600080fd5b803590602001918460018302840111640100000000831117156101ad57600080fd5b91908080601f016020809104026020016040519081016040528093929190818152602001838380828437600092019190915250929550610371945050505050565b3480156101fa57600080fd5b5061011c610451565b61020b6104ab565b61021b6102166104b3565b6104d8565b565b336001600160a01b037f000000000000000000000000000000000000000000000000000000000000000016141561025c57610257816104fc565b610264565b610264610203565b50565b336001600160a01b037f0000000000000000000000000000000000000000000000000000000000000000161415610317576102a1836104fc565b6000836001600160a01b031683836040518083838082843760405192019450600093509091505080830381855af49150503d80600081146102fe576040519150601f19603f3d011682016040523d82523d6000602084013e610303565b606091505b505090508061031157600080fd5b5061031f565b61031f610203565b505050565b6000336001600160a01b037f00000000000000000000000000000000000000000000000000000000000000001614156103665761035f6104b3565b905061036e565b61036e610203565b90565b600061037b6104b3565b6001600160a01b03161461038e57600080fd5b6103978261053c565b80511561044d576000826001600160a01b0316826040518082805190602001908083835b602083106103da5780518252601f1990920191602091820191016103bb565b6001836020036101000a038019825116818451168082178552505050505050905001915050600060405180830381855af49150503d806000811461043a576040519150601f19603f3d011682016040523d82523d6000602084013e61043f565b606091505b505090508061031f57600080fd5b5050565b6000336001600160a01b037f000000000000000000000000000000000000000000000000000000000000000016141561036657507f000000000000000000000000000000000000000000000000000000000000000061036e565b61021b6105a4565b7f360894a13ba1a3210667c828492db98dca3e2076cc3735a920a3ca505d382bbc5490565b3660008037600080366000845af43d6000803e8080156104f7573d6000f35b3d6000fd5b6105058161053c565b6040516001600160a01b038216907fbc7cd75a20ee27fd9adebab32041f755214dbc6bffa90cc0225b39da2e5c2d3b90600090a250565b61054581610614565b6105805760405162461bcd60e51b815260040180806020018281038252603b815260200180610683603b913960400191505060405180910390fd5b7f360894a13ba1a3210667c828492db98dca3e2076cc3735a920a3ca505d382bbc55565b336001600160a01b037f000000000000000000000000000000000000000000000000000000000000000016141561060c5760405162461bcd60e51b81526004018080602001828103825260328152602001806106516032913960400191505060405180910390fd5b61021b61021b565b6000813f7fc5d2460186f7233c927e7db2dcc703c0e500b653ca82273b7bfad8045d85a47081811480159061064857508115155b94935050505056fe43616e6e6f742063616c6c2066616c6c6261636b2066756e6374696f6e2066726f6d207468652070726f78792061646d696e43616e6e6f742073657420612070726f787920696d706c656d656e746174696f6e20746f2061206e6f6e2d636f6e74726163742061646472657373a2646970667358221220354176803b54436ecdaea6509259ddd412b0447c3107a85e8ae96b5f8424f8e564736f6c63430007060033436f6e747261637420696e7374616e63652068617320616c7265616479206265656e20696e697469616c697a6564a2646970667358221220a8f511618ea8f349add666ad7d6ec9731bf82c629465335b20b36a394ce4ca1364736f6c63430007060033",
  "linkReferences": {},
  "deployedLinkReferences": {}
}