{
  "_format": "hh-sol-artifact-1",
  "contractName": "MasterChef",
  "sourceName": "contracts/staking/MasterChef.sol",
  "abi": [
    {
      "anonymous": false,
      "inputs": [
        {
          "indexed": true,
          "internalType": "address",
          "name": "token",
          "type": "address"
        },
        {
          "indexed": true,
          "internalType": "address",
          "name": "user",
          "type": "address"
        },
        {
          "indexed": false,
          "internalType": "uint256",
          "name": "amount",
          "type": "uint256"
        }
      ],
      "name": "Deposit",
      "type": "event"
    },
    {
      "anonymous": false,
      "inputs": [
        {
          "indexed": true,
          "internalType": "address",
          "name": "token",
          "type": "address"
        },
        {
          "indexed": true,
          "internalType": "address",
          "name": "user",
          "type": "address"
        },
        {
          "indexed": false,
          "internalType": "uint256",
          "name": "amount",
          "type": "uint256"
        }
      ],
      "name": "EmergencyWithdraw",
      "type": "event"
    },
    {
      "anonymous": false,
      "inputs": [
        {
          "indexed": true,
          "internalType": "address",
          "name": "previousOwner",
          "type": "address"
        },
        {
          "indexed": true,
          "internalType": "address",
          "name": "newOwner",
          "type": "address"
        }
      ],
      "name": "OwnershipTransferred",
      "type": "event"
    },
    {
      "anonymous": false,
      "inputs": [
        {
          "indexed": true,
          "internalType": "address",
          "name": "token",
          "type": "address"
        },
        {
          "indexed": true,
          "internalType": "address",
          "name": "user",
          "type": "address"
        },
        {
          "indexed": false,
          "internalType": "uint256",
          "name": "amount",
          "type": "uint256"
        }
      ],
      "name": "Withdraw",
      "type": "event"
    },
    {
      "inputs": [],
      "name": "VERSION",
      "outputs": [
        {
          "internalType": "uint256",
          "name": "",
          "type": "uint256"
        }
      ],
      "stateMutability": "view",
      "type": "function"
    },
    {
      "inputs": [
        {
          "internalType": "address",
          "name": "_token",
          "type": "address"
        },
        {
          "internalType": "uint256",
          "name": "_allocPoint",
          "type": "uint256"
        }
      ],
      "name": "addPool",
      "outputs": [],
      "stateMutability": "nonpayable",
      "type": "function"
    },
    {
      "inputs": [
        {
          "internalType": "address[]",
          "name": "_tokens",
          "type": "address[]"
        },
        {
          "internalType": "uint256[]",
          "name": "_allocPoints",
          "type": "uint256[]"
        }
      ],
      "name": "batchUpdateAllocPoint",
      "outputs": [],
      "stateMutability": "nonpayable",
      "type": "function"
    },
    {
      "inputs": [
        {
          "internalType": "address",
          "name": "_user",
          "type": "address"
        },
        {
          "internalType": "address[]",
          "name": "_tokens",
          "type": "address[]"
        }
      ],
      "name": "claim",
      "outputs": [],
      "stateMutability": "nonpayable",
      "type": "function"
    },
    {
      "inputs": [
        {
          "internalType": "address",
          "name": "",
          "type": "address"
        }
      ],
      "name": "claimReceiver",
      "outputs": [
        {
          "internalType": "address",
          "name": "",
          "type": "address"
        }
      ],
      "stateMutability": "view",
      "type": "function"
    },
    {
      "inputs": [
        {
          "internalType": "address",
          "name": "_user",
          "type": "address"
        },
        {
          "internalType": "address[]",
          "name": "_tokens",
          "type": "address[]"
        }
      ],
      "name": "claimableReward",
      "outputs": [
        {
          "internalType": "uint256[]",
          "name": "",
          "type": "uint256[]"
        }
      ],
      "stateMutability": "view",
      "type": "function"
    },
    {
      "inputs": [
        {
          "internalType": "address",
          "name": "_token",
          "type": "address"
        },
        {
          "internalType": "uint256",
          "name": "_amount",
          "type": "uint256"
        }
      ],
      "name": "deposit",
      "outputs": [],
      "stateMutability": "nonpayable",
      "type": "function"
    },
    {
      "inputs": [
        {
          "internalType": "address",
          "name": "_token",
          "type": "address"
        }
      ],
      "name": "emergencyWithdraw",
      "outputs": [],
      "stateMutability": "nonpayable",
      "type": "function"
    },
    {
      "inputs": [
        {
          "internalType": "uint256",
          "name": "",
          "type": "uint256"
        }
      ],
      "name": "emissionSchedule",
      "outputs": [
        {
          "internalType": "uint128",
          "name": "startTimeOffset",
          "type": "uint128"
        },
        {
          "internalType": "uint128",
          "name": "rewardsPerSecond",
          "type": "uint128"
        }
      ],
      "stateMutability": "view",
      "type": "function"
    },
    {
      "inputs": [
        {
          "internalType": "address",
          "name": "owner",
          "type": "address"
        },
        {
          "internalType": "uint128[]",
          "name": "_startTimeOffset",
          "type": "uint128[]"
        },
        {
          "internalType": "uint128[]",
          "name": "_rewardsPerSecond",
          "type": "uint128[]"
        },
        {
          "internalType": "address",
          "name": "_poolConfigurator",
          "type": "address"
        },
        {
          "internalType": "contract IMultiFeeDistribution",
          "name": "_rewardMinter",
          "type": "address"
        },
        {
          "internalType": "uint256",
          "name": "_maxMintable",
          "type": "uint256"
        },
        {
          "internalType": "uint256",
          "name": "_startTime",
          "type": "uint256"
        }
      ],
      "name": "initialize",
      "outputs": [],
      "stateMutability": "nonpayable",
      "type": "function"
    },
    {
      "inputs": [],
      "name": "maxMintableTokens",
      "outputs": [
        {
          "internalType": "uint256",
          "name": "",
          "type": "uint256"
        }
      ],
      "stateMutability": "view",
      "type": "function"
    },
    {
      "inputs": [],
      "name": "mintedTokens",
      "outputs": [
        {
          "internalType": "uint256",
          "name": "",
          "type": "uint256"
        }
      ],
      "stateMutability": "view",
      "type": "function"
    },
    {
      "inputs": [],
      "name": "owner",
      "outputs": [
        {
          "internalType": "address",
          "name": "",
          "type": "address"
        }
      ],
      "stateMutability": "view",
      "type": "function"
    },
    {
      "inputs": [],
      "name": "poolConfigurator",
      "outputs": [
        {
          "internalType": "address",
          "name": "",
          "type": "address"
        }
      ],
      "stateMutability": "view",
      "type": "function"
    },
    {
      "inputs": [
        {
          "internalType": "address",
          "name": "",
          "type": "address"
        }
      ],
      "name": "poolInfo",
      "outputs": [
        {
          "internalType": "uint256",
          "name": "allocPoint",
          "type": "uint256"
        },
        {
          "internalType": "uint256",
          "name": "lastRewardTime",
          "type": "uint256"
        },
        {
          "internalType": "uint256",
          "name": "accRewardPerShare",
          "type": "uint256"
        },
        {
          "internalType": "contract IOnwardIncentivesController",
          "name": "onwardIncentives",
          "type": "address"
        }
      ],
      "stateMutability": "view",
      "type": "function"
    },
    {
      "inputs": [],
      "name": "poolLength",
      "outputs": [
        {
          "internalType": "uint256",
          "name": "",
          "type": "uint256"
        }
      ],
      "stateMutability": "view",
      "type": "function"
    },
    {
      "inputs": [
        {
          "internalType": "uint256",
          "name": "",
          "type": "uint256"
        }
      ],
      "name": "registeredTokens",
      "outputs": [
        {
          "internalType": "address",
          "name": "",
          "type": "address"
        }
      ],
      "stateMutability": "view",
      "type": "function"
    },
    {
      "inputs": [],
      "name": "renounceOwnership",
      "outputs": [],
      "stateMutability": "nonpayable",
      "type": "function"
    },
    {
      "inputs": [],
      "name": "rewardMinter",
      "outputs": [
        {
          "internalType": "contract IMultiFeeDistribution",
          "name": "",
          "type": "address"
        }
      ],
      "stateMutability": "view",
      "type": "function"
    },
    {
      "inputs": [],
      "name": "rewardsPerSecond",
      "outputs": [
        {
          "internalType": "uint256",
          "name": "",
          "type": "uint256"
        }
      ],
      "stateMutability": "view",
      "type": "function"
    },
    {
      "inputs": [
        {
          "internalType": "address",
          "name": "_user",
          "type": "address"
        },
        {
          "internalType": "address",
          "name": "_receiver",
          "type": "address"
        }
      ],
      "name": "setClaimReceiver",
      "outputs": [],
      "stateMutability": "nonpayable",
      "type": "function"
    },
    {
      "inputs": [
        {
          "internalType": "address",
          "name": "_token",
          "type": "address"
        },
        {
          "internalType": "contract IOnwardIncentivesController",
          "name": "_incentives",
          "type": "address"
        }
      ],
      "name": "setOnwardIncentives",
      "outputs": [],
      "stateMutability": "nonpayable",
      "type": "function"
    },
    {
      "inputs": [],
      "name": "startTime",
      "outputs": [
        {
          "internalType": "uint256",
          "name": "",
          "type": "uint256"
        }
      ],
      "stateMutability": "view",
      "type": "function"
    },
    {
      "inputs": [],
      "name": "totalAllocPoint",
      "outputs": [
        {
          "internalType": "uint256",
          "name": "",
          "type": "uint256"
        }
      ],
      "stateMutability": "view",
      "type": "function"
    },
    {
      "inputs": [
        {
          "internalType": "address",
          "name": "newOwner",
          "type": "address"
        }
      ],
      "name": "transferOwnership",
      "outputs": [],
      "stateMutability": "nonpayable",
      "type": "function"
    },
    {
      "inputs": [
        {
          "internalType": "address",
          "name": "",
          "type": "address"
        }
      ],
      "name": "userBaseClaimable",
      "outputs": [
        {
          "internalType": "uint256",
          "name": "",
          "type": "uint256"
        }
      ],
      "stateMutability": "view",
      "type": "function"
    },
    {
      "inputs": [
        {
          "internalType": "address",
          "name": "",
          "type": "address"
        },
        {
          "internalType": "address",
          "name": "",
          "type": "address"
        }
      ],
      "name": "userInfo",
      "outputs": [
        {
          "internalType": "uint256",
          "name": "amount",
          "type": "uint256"
        },
        {
          "internalType": "uint256",
          "name": "rewardDebt",
          "type": "uint256"
        }
      ],
      "stateMutability": "view",
      "type": "function"
    },
    {
      "inputs": [
        {
          "internalType": "address",
          "name": "_token",
          "type": "address"
        },
        {
          "internalType": "uint256",
          "name": "_amount",
          "type": "uint256"
        }
      ],
      "name": "withdraw",
      "outputs": [],
      "stateMutability": "nonpayable",
      "type": "function"
    }
  ],
  "bytecode": "0x60806040526000603e5534801561001557600080fd5b5061226c806100256000396000f3fe608060405234801561001057600080fd5b50600436106101c45760003560e01c80638e2eba09116100f9578063de7e410c11610097578063eacdaabc11610071578063eacdaabc146107c6578063f2fde38b146107ce578063f3fef3a3146107f4578063ffa1ad7414610820576101c4565b8063de7e410c146106ca578063e20c5a8a146106d2578063e5b53498146106f8576101c4565b80639b8e5563116100d35780639b8e55631461051e578063bfccff4514610526578063cd1a4d861461054c578063d71103831461057a576101c4565b80638e2eba091461042e5780639a0ba2ea146104ac5780639a7b5f11146104c9576101c4565b806334c5423011610166578063715018a611610140578063715018a6146103f257806378e97925146103fa5780638d75fe05146104025780638da5cb5b1461040a576101c4565b806334c54230146102e257806347e7ef24146103a05780636ff1c9bc146103cc576101c4565b80631a848e01116101a25780631a848e011461023257806332a9caba1461023a5780633328756414610268578063334d0bbd14610296576101c4565b8063081e3eda146101c95780630f208beb146101e357806317caf6f11461022a575b600080fd5b6101d1610828565b60408051918252519081900360200190f35b610211600480360360408110156101f957600080fd5b506001600160a01b038135811691602001351661082e565b6040805192835260208301919091528051918290030190f35b6101d1610852565b6101d1610858565b6102666004803603604081101561025057600080fd5b506001600160a01b03813516906020013561085e565b005b6102666004803603604081101561027e57600080fd5b506001600160a01b0381358116916020013516610997565b6102b3600480360360208110156102ac57600080fd5b50356109fd565b60405180836001600160801b03168152602001826001600160801b031681526020019250505060405180910390f35b610266600480360360408110156102f857600080fd5b810190602081018135600160201b81111561031257600080fd5b82018360208201111561032457600080fd5b803590602001918460208302840111600160201b8311171561034557600080fd5b919390929091602081019035600160201b81111561036257600080fd5b82018360208201111561037457600080fd5b803590602001918460208302840111600160201b8311171561039557600080fd5b509092509050610a32565b610266600480360360408110156103b657600080fd5b506001600160a01b038135169060200135610b60565b610266600480360360208110156103e257600080fd5b50356001600160a01b0316610dbc565b610266610f50565b6101d1610fb4565b6101d1610fba565b610412610fc0565b604080516001600160a01b039092168252519081900360200190f35b6102666004803603604081101561044457600080fd5b6001600160a01b038235169190810190604081016020820135600160201b81111561046e57600080fd5b82018360208201111561048057600080fd5b803590602001918460208302840111600160201b831117156104a157600080fd5b509092509050610fcf565b610412600480360360208110156104c257600080fd5b5035611123565b6104ef600480360360208110156104df57600080fd5b50356001600160a01b031661114d565b604080519485526020850193909352838301919091526001600160a01b03166060830152519081900360800190f35b61041261117d565b6101d16004803603602081101561053c57600080fd5b50356001600160a01b031661118c565b6102666004803603604081101561056257600080fd5b506001600160a01b038135811691602001351661119e565b610266600480360360e081101561059057600080fd5b6001600160a01b038235169190810190604081016020820135600160201b8111156105ba57600080fd5b8201836020820111156105cc57600080fd5b803590602001918460208302840111600160201b831117156105ed57600080fd5b9190808060200260200160405190810160405280939291908181526020018383602002808284376000920191909152509295949360208101935035915050600160201b81111561063c57600080fd5b82018360208201111561064e57600080fd5b803590602001918460208302840111600160201b8311171561066f57600080fd5b919080806020026020016040519081016040528093929190818152602001838360200280828437600092019190915250929550506001600160a01b03833581169450602084013516926040810135925060600135905061124c565b6104126113f0565b610412600480360360208110156106e857600080fd5b50356001600160a01b03166113ff565b6107766004803603604081101561070e57600080fd5b6001600160a01b038235169190810190604081016020820135600160201b81111561073857600080fd5b82018360208201111561074a57600080fd5b803590602001918460208302840111600160201b8311171561076b57600080fd5b50909250905061141a565b60408051602080825283518183015283519192839290830191858101910280838360005b838110156107b257818101518382015260200161079a565b505050509050019250505060405180910390f35b6101d16115fd565b610266600480360360208110156107e457600080fd5b50356001600160a01b0316611603565b6102666004803603604081101561080a57600080fd5b506001600160a01b0381351690602001356116ac565b6101d161193e565b60395490565b603c6020908152600092835260408084209091529082529020805460019091015482565b603e5481565b60375481565b610866611943565b6033546001600160a01b039081169116146108b6576040805162461bcd60e51b815260206004820181905260248201526000805160206121bf833981519152604482015290519081900360640190fd5b6001600160a01b0382166000908152603a6020526040902060010154156108dc57600080fd5b6108e4611947565b603e546108f19082611a00565b603e556039805460018181019092557fdc16fef70f8d5ddbc01ee3d903d1e69c18a3c7be080eb86a81e0578814ee58d30180546001600160a01b039485166001600160a01b0319918216811790925560408051608081018252948552426020868101918252600087840181815260608901828152968252603a90925292909220955186555193850193909355915160028401555160039092018054929093169116179055565b336001600160a01b03831614806109c657506109b1610fc0565b6001600160a01b0316336001600160a01b0316145b6109cf57600080fd5b6001600160a01b03918216600090815260406020819052902080546001600160a01b03191691909216179055565b603b8181548110610a0d57600080fd5b6000918252602090912001546001600160801b038082169250600160801b9091041682565b610a3a611943565b6033546001600160a01b03908116911614610a8a576040805162461bcd60e51b815260206004820181905260248201526000805160206121bf833981519152604482015290519081900360640190fd5b828114610a9657600080fd5b610a9e611a63565b603e5460005b84811015610b56576000603a6000888885818110610abe57fe5b905060200201356001600160a01b03166001600160a01b03166001600160a01b0316815260200190815260200160002090506000816001015411610b0157600080fd5b610b34858584818110610b1057fe5b90506020020135610b2e836000015486611aac90919063ffffffff16565b90611a00565b9250848483818110610b4257fe5b602002919091013590915550600101610aa4565b50603e5550505050565b6001600160a01b0382166000908152603a602052604090206001810154610b8657600080fd5b610b8e611947565b610b9a83603e54611aee565b6001600160a01b0383166000908152603c602090815260408083203384529091529020805460028301548115610c2a576001830154600090610bf590610bef64e8d4a51000610be98787611c1d565b90611c76565b90611aac565b90508015610c2857336000908152603d6020526040902054610c179082611a00565b336000908152603d60205260409020555b505b610c3f6001600160a01b038716333088611cb8565b610c498286611a00565b8084559150610c6164e8d4a51000610be98484611c1d565b600184015560038401546001600160a01b031615610d74576000866001600160a01b03166370a08231306040518263ffffffff1660e01b815260040180826001600160a01b0316815260200191505060206040518083038186803b158015610cc857600080fd5b505afa158015610cdc573d6000803e3d6000fd5b505050506040513d6020811015610cf257600080fd5b505160038601546040805163ae0b537160e01b81526001600160a01b038b811660048301523360248301526044820188905260648201859052915193945091169163ae0b53719160848082019260009290919082900301818387803b158015610d5a57600080fd5b505af1158015610d6e573d6000803e3d6000fd5b50505050505b60408051868152905133916001600160a01b038916917f5548c837ab068cf56a2c2479df0882a4922fd203edb7517321831d95078c5f629181900360200190a3505050505050565b6001600160a01b0381166000818152603a60209081526040808320603c8352818420338086529352922080549293909291610df8919083611d12565b60408051828152905133916001600160a01b038716917ff24ef89f38eadc1bde50701ad6e4d6d11a2dc24f7cf834a486991f38833285049181900360200190a36000808355600183015560038301546001600160a01b031615610f4a576000846001600160a01b03166370a08231306040518263ffffffff1660e01b815260040180826001600160a01b0316815260200191505060206040518083038186803b158015610ea457600080fd5b505afa158015610eb8573d6000803e3d6000fd5b505050506040513d6020811015610ece57600080fd5b505160038501546040805163ae0b537160e01b81526001600160a01b0389811660048301523360248301526000604483018190526064830186905292519495509092169263ae0b537192608480820193929182900301818387803b158015610f3557600080fd5b505af1925050508015610f46575060015b505b505b50505050565b610f58611943565b6033546001600160a01b03908116911614610fa8576040805162461bcd60e51b815260206004820181905260248201526000805160206121bf833981519152604482015290519081900360640190fd5b610fb26000611d64565b565b603f5481565b60385481565b6033546001600160a01b031690565b610fd7611947565b6001600160a01b0383166000908152603d60205260408120805490829055603e5490915b83811015611118576000603a600087878581811061101557fe5b905060200201356001600160a01b03166001600160a01b03166001600160a01b031681526020019081526020016000209050600081600101541161105857600080fd5b61107d86868481811061106757fe5b905060200201356001600160a01b031684611aee565b6000603c600088888681811061108f57fe5b6001600160a01b036020918202939093013583168452838101949094525060409182016000908120918c16815292528120600284015481549193506110df9164e8d4a5100091610be99190611c1d565b90506111026110fb836001015483611aac90919063ffffffff16565b8790611a00565b6001928301919091559450919091019050610ffb565b50610f488583611db6565b6039818154811061113357600080fd5b6000918252602090912001546001600160a01b0316905081565b603a602052600090815260409020805460018201546002830154600390930154919290916001600160a01b031684565b6035546001600160a01b031681565b603d6020526000908152604090205481565b6111a6611943565b6033546001600160a01b039081169116146111f6576040805162461bcd60e51b815260206004820181905260248201526000805160206121bf833981519152604482015290519081900360640190fd5b6001600160a01b0382166000908152603a602052604090206001015461121b57600080fd5b6001600160a01b039182166000908152603a6020526040902060030180546001600160a01b03191691909216179055565b600054610100900460ff16806112655750611265611e82565b80611273575060005460ff16155b6112ae5760405162461bcd60e51b815260040180806020018281038252602e8152602001806121df602e913960400191505060405180910390fd5b600054610100900460ff161580156112d9576000805460ff1961ff0019909116610100171660011790555b6112e288611d64565b603480546001600160a01b038088166001600160a01b0319928316179092556035805492871692909116919091179055865160001981015b60018101156113c857603b60405180604001604052808b848151811061133c57fe5b60200260200101516001600160801b031681526020018a848151811061135e57fe5b6020908102919091018101516001600160801b03908116909252835460018101855560009485529381902083519401805493909101518216600160801b029382166fffffffffffffffffffffffffffffffff1990931692909217169190911790556000190161131a565b50506037839055603f82905580156113e6576000805461ff00191690555b5050505050505050565b6034546001600160a01b031681565b6040602081905260009182529020546001600160a01b031681565b606060008267ffffffffffffffff8111801561143557600080fd5b5060405190808252806020026020018201604052801561145f578160200160208202803683370190505b50905060005b838110156115f457600085858381811061147b57fe5b6001600160a01b036020918202939093013583166000818152603a83526040808220603c8552818320968e168352958452808220600287015482516370a0823160e01b8152306004820152925194985090955093919287926370a082319260248082019391829003018186803b1580156114f457600080fd5b505afa158015611508573d6000803e3d6000fd5b505050506040513d602081101561151e57600080fd5b505160018501549091504211801561153557508015155b156115a4576000611553856001015442611aac90919063ffffffff16565b90506000611580603e54610be9886000015461157a60365487611c1d90919063ffffffff16565b90611c1d565b905061159f61159884610be98464e8d4a51000611c1d565b8590611a00565b935050505b6115cc8360010154610bef64e8d4a51000610be9868860000154611c1d90919063ffffffff16565b8787815181106115d857fe5b6020908102919091010152505060019093019250611465915050565b50949350505050565b60365481565b61160b611943565b6033546001600160a01b0390811691161461165b576040805162461bcd60e51b815260206004820181905260248201526000805160206121bf833981519152604482015290519081900360640190fd5b6001600160a01b0381166116a05760405162461bcd60e51b81526004018080602001828103825260268152602001806121786026913960400191505060405180910390fd5b6116a981611d64565b50565b6001600160a01b0382166000908152603a6020526040902060018101546116d257600080fd5b6001600160a01b0383166000908152603c602090815260408083203384529091529020805483811015611741576040805162461bcd60e51b81526020600482015260126024820152711dda5d1a191c985dce881b9bdd0819dbdbd960721b604482015290519081900360640190fd5b611749611947565b61175585603e54611aee565b6002830154600183015460009061177990610bef64e8d4a51000610be98787611c1d565b905080156117ac57336000908152603d602052604090205461179b9082611a00565b336000908152603d60205260409020555b6117b68387611aac565b80855592506117ce64e8d4a51000610be98585611c1d565b60018501556117e76001600160a01b0388163388611d12565b60038501546001600160a01b0316156118f5576000876001600160a01b03166370a08231306040518263ffffffff1660e01b815260040180826001600160a01b0316815260200191505060206040518083038186803b15801561184957600080fd5b505afa15801561185d573d6000803e3d6000fd5b505050506040513d602081101561187357600080fd5b505160038701546040805163ae0b537160e01b81526001600160a01b038c811660048301523360248301526044820189905260648201859052915193945091169163ae0b53719160848082019260009290919082900301818387803b1580156118db57600080fd5b505af11580156118ef573d6000803e3d6000fd5b50505050505b60408051878152905133916001600160a01b038a16917f9b1bfa7fa9ee420a16e124f794c35ac9f90472acc99140eb2f6447c714cad8eb9181900360200190a350505050505050565b600181565b3390565b603b54603f544211801561195b5750600081115b156116a9576000603b600183038154811061197257fe5b6000918252602091829020604080518082019091529101546001600160801b03808216808452600160801b9092041692820192909252603f549092506119b9904290611aac565b11156119fc576119c7611a63565b60208101516001600160801b0316603655603b8054806119e357fe5b6000828152602081208201600019908101919091550190555b5050565b600082820183811015611a5a576040805162461bcd60e51b815260206004820152601b60248201527f536166654d6174683a206164646974696f6e206f766572666c6f770000000000604482015290519081900360640190fd5b90505b92915050565b603e5460395460005b81811015611aa757611a9f60398281548110611a8457fe5b6000918252602090912001546001600160a01b031684611aee565b600101611a6c565b505050565b6000611a5a83836040518060400160405280601e81526020017f536166654d6174683a207375627472616374696f6e206f766572666c6f770000815250611e88565b6001600160a01b0382166000908152603a6020526040902060018101544211611b1757506119fc565b6000836001600160a01b03166370a08231306040518263ffffffff1660e01b815260040180826001600160a01b0316815260200191505060206040518083038186803b158015611b6657600080fd5b505afa158015611b7a573d6000803e3d6000fd5b505050506040513d6020811015611b9057600080fd5b5051905080611ba65750426001909101556119fc565b6000611bbf836001015442611aac90919063ffffffff16565b90506000611be485610be9866000015461157a60365487611c1d90919063ffffffff16565b9050611c07611bfc84610be98464e8d4a51000611c1d565b600286015490611a00565b6002850155505042600190920191909155505050565b600082611c2c57506000611a5d565b82820282848281611c3957fe5b0414611a5a5760405162461bcd60e51b815260040180806020018281038252602181526020018061219e6021913960400191505060405180910390fd5b6000611a5a83836040518060400160405280601a81526020017f536166654d6174683a206469766973696f6e206279207a65726f000000000000815250611f1f565b604080516001600160a01b0380861660248301528416604482015260648082018490528251808303909101815260849091019091526020810180516001600160e01b03166323b872dd60e01b179052610f4a908590611f84565b604080516001600160a01b038416602482015260448082018490528251808303909101815260649091019091526020810180516001600160e01b031663a9059cbb60e01b179052611aa7908490611f84565b603380546001600160a01b038381166001600160a01b0319831681179093556040519116919082907f8be0079c531659141344cd1fd0a4f28419497f9722a3daafe3b4186f6b6457e090600090a35050565b603854603754611dc68284611a00565b1115611ddc57603754611dd99082611aac565b91505b8115611aa757611dec8183611a00565b6038556001600160a01b038084166000908152604060208190529020541680611e125750825b603554604080516334686fad60e21b81526001600160a01b03848116600483015260248201879052600160448301529151919092169163d1a1beb491606480830192600092919082900301818387803b158015611e6e57600080fd5b505af11580156113e6573d6000803e3d6000fd5b303b1590565b60008184841115611f175760405162461bcd60e51b81526004018080602001828103825283818151815260200191508051906020019080838360005b83811015611edc578181015183820152602001611ec4565b50505050905090810190601f168015611f095780820380516001836020036101000a031916815260200191505b509250505060405180910390fd5b505050900390565b60008183611f6e5760405162461bcd60e51b8152602060048201818152835160248401528351909283926044909101919085019080838360008315611edc578181015183820152602001611ec4565b506000838581611f7a57fe5b0495945050505050565b611f96826001600160a01b031661213b565b611fe7576040805162461bcd60e51b815260206004820152601f60248201527f5361666545524332303a2063616c6c20746f206e6f6e2d636f6e747261637400604482015290519081900360640190fd5b600080836001600160a01b0316836040518082805190602001908083835b602083106120245780518252601f199092019160209182019101612005565b6001836020036101000a0380198251168184511680821785525050505050509050019150506000604051808303816000865af19150503d8060008114612086576040519150601f19603f3d011682016040523d82523d6000602084013e61208b565b606091505b5091509150816120e2576040805162461bcd60e51b815260206004820181905260248201527f5361666545524332303a206c6f772d6c6576656c2063616c6c206661696c6564604482015290519081900360640190fd5b805115610f4a578080602001905160208110156120fe57600080fd5b5051610f4a5760405162461bcd60e51b815260040180806020018281038252602a81526020018061220d602a913960400191505060405180910390fd5b6000813f7fc5d2460186f7233c927e7db2dcc703c0e500b653ca82273b7bfad8045d85a47081811480159061216f57508115155b94935050505056fe4f776e61626c653a206e6577206f776e657220697320746865207a65726f2061646472657373536166654d6174683a206d756c7469706c69636174696f6e206f766572666c6f774f776e61626c653a2063616c6c6572206973206e6f7420746865206f776e6572436f6e747261637420696e7374616e63652068617320616c7265616479206265656e20696e697469616c697a65645361666545524332303a204552433230206f7065726174696f6e20646964206e6f742073756363656564a26469706673582212201267b6331c124a88fb087beeb97c29ed52266a91ca3bea065e90f36ca3976e5264736f6c63430007060033",
  "linkReferences": {},
  "deployedLinkReferences": {}
}