{
  "_format": "hh-sol-artifact-1",
  "contractName": "MultiFeeDistribution",
  "sourceName": "contracts/staking/MultiFeeDistribution.sol",
  "abi": [
    {
      "anonymous": false,
      "inputs": [
        {
          "indexed": true,
          "internalType": "address",
          "name": "previousOwner",
          "type": "address"
        },
        {
          "indexed": true,
          "internalType": "address",
          "name": "newOwner",
          "type": "address"
        }
      ],
      "name": "OwnershipTransferred",
      "type": "event"
    },
    {
      "anonymous": false,
      "inputs": [],
      "name": "Paused",
      "type": "event"
    },
    {
      "anonymous": false,
      "inputs": [
        {
          "indexed": false,
          "internalType": "address",
          "name": "token",
          "type": "address"
        },
        {
          "indexed": false,
          "internalType": "uint256",
          "name": "amount",
          "type": "uint256"
        }
      ],
      "name": "Recovered",
      "type": "event"
    },
    {
      "anonymous": false,
      "inputs": [
        {
          "indexed": false,
          "internalType": "uint256",
          "name": "reward",
          "type": "uint256"
        }
      ],
      "name": "RewardAdded",
      "type": "event"
    },
    {
      "anonymous": false,
      "inputs": [
        {
          "indexed": true,
          "internalType": "address",
          "name": "user",
          "type": "address"
        },
        {
          "indexed": true,
          "internalType": "address",
          "name": "rewardsToken",
          "type": "address"
        },
        {
          "indexed": false,
          "internalType": "uint256",
          "name": "reward",
          "type": "uint256"
        }
      ],
      "name": "RewardPaid",
      "type": "event"
    },
    {
      "anonymous": false,
      "inputs": [
        {
          "indexed": false,
          "internalType": "address",
          "name": "token",
          "type": "address"
        },
        {
          "indexed": false,
          "internalType": "uint256",
          "name": "newDuration",
          "type": "uint256"
        }
      ],
      "name": "RewardsDurationUpdated",
      "type": "event"
    },
    {
      "anonymous": false,
      "inputs": [
        {
          "indexed": true,
          "internalType": "address",
          "name": "user",
          "type": "address"
        },
        {
          "indexed": false,
          "internalType": "uint256",
          "name": "amount",
          "type": "uint256"
        },
        {
          "indexed": false,
          "internalType": "bool",
          "name": "locked",
          "type": "bool"
        }
      ],
      "name": "Staked",
      "type": "event"
    },
    {
      "anonymous": false,
      "inputs": [],
      "name": "Unpaused",
      "type": "event"
    },
    {
      "anonymous": false,
      "inputs": [
        {
          "indexed": true,
          "internalType": "address",
          "name": "user",
          "type": "address"
        },
        {
          "indexed": false,
          "internalType": "uint256",
          "name": "receivedAmount",
          "type": "uint256"
        },
        {
          "indexed": false,
          "internalType": "uint256",
          "name": "penaltyPaid",
          "type": "uint256"
        }
      ],
      "name": "Withdrawn",
      "type": "event"
    },
    {
      "inputs": [],
      "name": "VERSION",
      "outputs": [
        {
          "internalType": "uint256",
          "name": "",
          "type": "uint256"
        }
      ],
      "stateMutability": "view",
      "type": "function"
    },
    {
      "inputs": [
        {
          "internalType": "address",
          "name": "_rewardsToken",
          "type": "address"
        }
      ],
      "name": "addReward",
      "outputs": [],
      "stateMutability": "nonpayable",
      "type": "function"
    },
    {
      "inputs": [
        {
          "internalType": "address",
          "name": "account",
          "type": "address"
        }
      ],
      "name": "claimableRewards",
      "outputs": [
        {
          "components": [
            {
              "internalType": "address",
              "name": "token",
              "type": "address"
            },
            {
              "internalType": "uint256",
              "name": "amount",
              "type": "uint256"
            }
          ],
          "internalType": "struct MultiFeeDistribution.RewardData[]",
          "name": "rewards",
          "type": "tuple[]"
        }
      ],
      "stateMutability": "view",
      "type": "function"
    },
    {
      "inputs": [
        {
          "internalType": "address",
          "name": "user",
          "type": "address"
        }
      ],
      "name": "earnedBalances",
      "outputs": [
        {
          "internalType": "uint256",
          "name": "total",
          "type": "uint256"
        },
        {
          "components": [
            {
              "internalType": "uint256",
              "name": "amount",
              "type": "uint256"
            },
            {
              "internalType": "uint256",
              "name": "unlockTime",
              "type": "uint256"
            }
          ],
          "internalType": "struct MultiFeeDistribution.LockedBalance[]",
          "name": "earningsData",
          "type": "tuple[]"
        }
      ],
      "stateMutability": "view",
      "type": "function"
    },
    {
      "inputs": [
        {
          "internalType": "bool",
          "name": "claimRewards",
          "type": "bool"
        }
      ],
      "name": "exit",
      "outputs": [],
      "stateMutability": "nonpayable",
      "type": "function"
    },
    {
      "inputs": [],
      "name": "getReward",
      "outputs": [],
      "stateMutability": "nonpayable",
      "type": "function"
    },
    {
      "inputs": [
        {
          "internalType": "address[]",
          "name": "_rewardTokens",
          "type": "address[]"
        }
      ],
      "name": "getReward",
      "outputs": [],
      "stateMutability": "nonpayable",
      "type": "function"
    },
    {
      "inputs": [
        {
          "internalType": "address",
          "name": "_rewardsToken",
          "type": "address"
        }
      ],
      "name": "getRewardForDuration",
      "outputs": [
        {
          "internalType": "uint256",
          "name": "",
          "type": "uint256"
        }
      ],
      "stateMutability": "view",
      "type": "function"
    },
    {
      "inputs": [],
      "name": "incentivesController",
      "outputs": [
        {
          "internalType": "contract IChefIncentivesController",
          "name": "",
          "type": "address"
        }
      ],
      "stateMutability": "view",
      "type": "function"
    },
    {
      "inputs": [
        {
          "internalType": "address",
          "name": "owner",
          "type": "address"
        },
        {
          "internalType": "address",
          "name": "_stakingToken",
          "type": "address"
        }
      ],
      "name": "initialize",
      "outputs": [],
      "stateMutability": "nonpayable",
      "type": "function"
    },
    {
      "inputs": [
        {
          "internalType": "address",
          "name": "_rewardsToken",
          "type": "address"
        }
      ],
      "name": "lastTimeRewardApplicable",
      "outputs": [
        {
          "internalType": "uint256",
          "name": "",
          "type": "uint256"
        }
      ],
      "stateMutability": "view",
      "type": "function"
    },
    {
      "inputs": [],
      "name": "lockDuration",
      "outputs": [
        {
          "internalType": "uint256",
          "name": "",
          "type": "uint256"
        }
      ],
      "stateMutability": "view",
      "type": "function"
    },
    {
      "inputs": [
        {
          "internalType": "address",
          "name": "user",
          "type": "address"
        }
      ],
      "name": "lockedBalances",
      "outputs": [
        {
          "internalType": "uint256",
          "name": "total",
          "type": "uint256"
        },
        {
          "internalType": "uint256",
          "name": "unlockable",
          "type": "uint256"
        },
        {
          "internalType": "uint256",
          "name": "locked",
          "type": "uint256"
        },
        {
          "components": [
            {
              "internalType": "uint256",
              "name": "amount",
              "type": "uint256"
            },
            {
              "internalType": "uint256",
              "name": "unlockTime",
              "type": "uint256"
            }
          ],
          "internalType": "struct MultiFeeDistribution.LockedBalance[]",
          "name": "lockData",
          "type": "tuple[]"
        }
      ],
      "stateMutability": "view",
      "type": "function"
    },
    {
      "inputs": [],
      "name": "lockedSupply",
      "outputs": [
        {
          "internalType": "uint256",
          "name": "",
          "type": "uint256"
        }
      ],
      "stateMutability": "view",
      "type": "function"
    },
    {
      "inputs": [
        {
          "internalType": "address",
          "name": "user",
          "type": "address"
        },
        {
          "internalType": "uint256",
          "name": "amount",
          "type": "uint256"
        },
        {
          "internalType": "bool",
          "name": "withPenalty",
          "type": "bool"
        }
      ],
      "name": "mint",
      "outputs": [],
      "stateMutability": "nonpayable",
      "type": "function"
    },
    {
      "inputs": [
        {
          "internalType": "address",
          "name": "",
          "type": "address"
        }
      ],
      "name": "minters",
      "outputs": [
        {
          "internalType": "bool",
          "name": "",
          "type": "bool"
        }
      ],
      "stateMutability": "view",
      "type": "function"
    },
    {
      "inputs": [],
      "name": "mintersAreSet",
      "outputs": [
        {
          "internalType": "bool",
          "name": "",
          "type": "bool"
        }
      ],
      "stateMutability": "view",
      "type": "function"
    },
    {
      "inputs": [],
      "name": "owner",
      "outputs": [
        {
          "internalType": "address",
          "name": "",
          "type": "address"
        }
      ],
      "stateMutability": "view",
      "type": "function"
    },
    {
      "inputs": [],
      "name": "paused",
      "outputs": [
        {
          "internalType": "bool",
          "name": "",
          "type": "bool"
        }
      ],
      "stateMutability": "view",
      "type": "function"
    },
    {
      "inputs": [
        {
          "internalType": "address",
          "name": "tokenAddress",
          "type": "address"
        },
        {
          "internalType": "uint256",
          "name": "tokenAmount",
          "type": "uint256"
        }
      ],
      "name": "recoverERC20",
      "outputs": [],
      "stateMutability": "nonpayable",
      "type": "function"
    },
    {
      "inputs": [],
      "name": "renounceOwnership",
      "outputs": [],
      "stateMutability": "nonpayable",
      "type": "function"
    },
    {
      "inputs": [
        {
          "internalType": "address",
          "name": "",
          "type": "address"
        }
      ],
      "name": "rewardData",
      "outputs": [
        {
          "internalType": "uint256",
          "name": "periodFinish",
          "type": "uint256"
        },
        {
          "internalType": "uint256",
          "name": "rewardRate",
          "type": "uint256"
        },
        {
          "internalType": "uint256",
          "name": "lastUpdateTime",
          "type": "uint256"
        },
        {
          "internalType": "uint256",
          "name": "rewardPerTokenStored",
          "type": "uint256"
        },
        {
          "internalType": "uint256",
          "name": "balance",
          "type": "uint256"
        }
      ],
      "stateMutability": "view",
      "type": "function"
    },
    {
      "inputs": [
        {
          "internalType": "address",
          "name": "_rewardsToken",
          "type": "address"
        }
      ],
      "name": "rewardPerToken",
      "outputs": [
        {
          "internalType": "uint256",
          "name": "",
          "type": "uint256"
        }
      ],
      "stateMutability": "view",
      "type": "function"
    },
    {
      "inputs": [
        {
          "internalType": "uint256",
          "name": "",
          "type": "uint256"
        }
      ],
      "name": "rewardTokens",
      "outputs": [
        {
          "internalType": "address",
          "name": "",
          "type": "address"
        }
      ],
      "stateMutability": "view",
      "type": "function"
    },
    {
      "inputs": [
        {
          "internalType": "address",
          "name": "",
          "type": "address"
        },
        {
          "internalType": "address",
          "name": "",
          "type": "address"
        }
      ],
      "name": "rewards",
      "outputs": [
        {
          "internalType": "uint256",
          "name": "",
          "type": "uint256"
        }
      ],
      "stateMutability": "view",
      "type": "function"
    },
    {
      "inputs": [],
      "name": "rewardsDuration",
      "outputs": [
        {
          "internalType": "uint256",
          "name": "",
          "type": "uint256"
        }
      ],
      "stateMutability": "view",
      "type": "function"
    },
    {
      "inputs": [
        {
          "internalType": "contract IChefIncentivesController",
          "name": "_controller",
          "type": "address"
        }
      ],
      "name": "setIncentivesController",
      "outputs": [],
      "stateMutability": "nonpayable",
      "type": "function"
    },
    {
      "inputs": [
        {
          "internalType": "address[]",
          "name": "_minters",
          "type": "address[]"
        }
      ],
      "name": "setMinters",
      "outputs": [],
      "stateMutability": "nonpayable",
      "type": "function"
    },
    {
      "inputs": [
        {
          "internalType": "bool",
          "name": "val",
          "type": "bool"
        }
      ],
      "name": "setPause",
      "outputs": [],
      "stateMutability": "nonpayable",
      "type": "function"
    },
    {
      "inputs": [
        {
          "internalType": "uint256",
          "name": "amount",
          "type": "uint256"
        },
        {
          "internalType": "bool",
          "name": "lock",
          "type": "bool"
        }
      ],
      "name": "stake",
      "outputs": [],
      "stateMutability": "nonpayable",
      "type": "function"
    },
    {
      "inputs": [],
      "name": "stakingToken",
      "outputs": [
        {
          "internalType": "contract IMintableToken",
          "name": "",
          "type": "address"
        }
      ],
      "stateMutability": "view",
      "type": "function"
    },
    {
      "inputs": [
        {
          "internalType": "address",
          "name": "user",
          "type": "address"
        }
      ],
      "name": "totalBalance",
      "outputs": [
        {
          "internalType": "uint256",
          "name": "amount",
          "type": "uint256"
        }
      ],
      "stateMutability": "view",
      "type": "function"
    },
    {
      "inputs": [],
      "name": "totalSupply",
      "outputs": [
        {
          "internalType": "uint256",
          "name": "",
          "type": "uint256"
        }
      ],
      "stateMutability": "view",
      "type": "function"
    },
    {
      "inputs": [
        {
          "internalType": "address",
          "name": "newOwner",
          "type": "address"
        }
      ],
      "name": "transferOwnership",
      "outputs": [],
      "stateMutability": "nonpayable",
      "type": "function"
    },
    {
      "inputs": [
        {
          "internalType": "address",
          "name": "user",
          "type": "address"
        }
      ],
      "name": "unlockedBalance",
      "outputs": [
        {
          "internalType": "uint256",
          "name": "amount",
          "type": "uint256"
        }
      ],
      "stateMutability": "view",
      "type": "function"
    },
    {
      "inputs": [
        {
          "internalType": "address",
          "name": "",
          "type": "address"
        },
        {
          "internalType": "address",
          "name": "",
          "type": "address"
        }
      ],
      "name": "userRewardPerTokenPaid",
      "outputs": [
        {
          "internalType": "uint256",
          "name": "",
          "type": "uint256"
        }
      ],
      "stateMutability": "view",
      "type": "function"
    },
    {
      "inputs": [
        {
          "internalType": "uint256",
          "name": "amount",
          "type": "uint256"
        }
      ],
      "name": "withdraw",
      "outputs": [],
      "stateMutability": "nonpayable",
      "type": "function"
    },
    {
      "inputs": [],
      "name": "withdrawExpiredLocks",
      "outputs": [],
      "stateMutability": "nonpayable",
      "type": "function"
    },
    {
      "inputs": [
        {
          "internalType": "address",
          "name": "user",
          "type": "address"
        }
      ],
      "name": "withdrawableBalance",
      "outputs": [
        {
          "internalType": "uint256",
          "name": "amount",
          "type": "uint256"
        },
        {
          "internalType": "uint256",
          "name": "penaltyAmount",
          "type": "uint256"
        }
      ],
      "stateMutability": "view",
      "type": "function"
    }
  ],
  "bytecode": "0x608060405234801561001057600080fd5b5061313e806100206000396000f3fe608060405234801561001057600080fd5b506004361061023d5760003560e01c80638980f11f1161013b578063d1a1beb4116100b8578063e70b9e271161007c578063e70b9e27146104c0578063f1229777146104d3578063f2fde38b146104e6578063f46eccc4146104f9578063ffa1ad741461050c5761023d565b8063d1a1beb414610446578063dc01f60d14610459578063df37987614610479578063e655dbd81461049a578063e6c91a15146104ad5761023d565b8063abe50f19116100ff578063abe50f19146103fd578063af1df25514610410578063bcd1101414610418578063bedb86fb1461042b578063ca5c7b911461043e5761023d565b80638980f11f146103bf5780638da5cb5b146103d25780638fd9f2ca146103da5780639c9b2e21146103e2578063a01c77bc146103f55761023d565b8063547d0096116101c95780637035ab981161018d5780637035ab9814610369578063715018a61461037c57806372f702f3146103845780637bb7bed1146103995780637fd7d062146103ac5761023d565b8063547d0096146103085780635c975abb1461031b5780635e0fac2e14610330578063638634ee146103435780636eacd398146103565761023d565b80632e1a7d4d116102105780632e1a7d4d146102ac578063386a9525146102c15780633d18b912146102c9578063485cc955146102d157806348e5d9f8146102e45761023d565b806302b6293814610242578063045544431461026c5780630483a7f61461028157806318160ddd146102a4575b600080fd5b610255610250366004612ad1565b610514565b604051610263929190612fc6565b60405180910390f35b610274610644565b6040516102639190612f94565b61029461028f366004612ad1565b61064b565b6040516102639493929190612fd4565b6102746107d9565b6102bf6102ba366004612c7e565b6107df565b005b610274610b53565b6102bf610b5a565b6102bf6102df366004612aed565b610bc8565b6102f76102f2366004612ad1565b610d73565b604051610263959493929190613003565b6102bf610316366004612b91565b610da2565b610323610e73565b6040516102639190612df8565b61027461033e366004612ad1565b610e7c565b610274610351366004612ad1565b610f13565b610274610364366004612ad1565b610f42565b610274610377366004612aed565b610f5d565b6102bf610f7a565b61038c610fdc565b6040516102639190612d17565b61038c6103a7366004612c7e565b610feb565b6102bf6103ba366004612b91565b611015565b6102bf6103cd366004612b25565b61102a565b61038c611142565b610323611151565b6102bf6103f0366004612ad1565b61115a565b6102bf61123c565b6102bf61040b366004612cae565b6113bb565b61038c6115ea565b610274610426366004612ad1565b6115f9565b6102bf610439366004612c46565b611633565b6102746116fd565b6102bf610454366004612b50565b611703565b61046c610467366004612ad1565b611966565b6040516102639190612da0565b61048c610487366004612ad1565b611b01565b604051610263929190612f9d565b6102bf6104a8366004612ad1565b611c25565b6102bf6104bb366004612c46565b611c9f565b6102746104ce366004612aed565b611e89565b6102746104e1366004612ad1565b611ea6565b6102bf6104f4366004612ad1565b611ed8565b610323610507366004612ad1565b611f7e565b610274611f93565b6001600160a01b0381166000908152603e602052604081206003810154829190801561061a576001600160a01b038516600090815260406020819052812054815b818110156105ff576001600160a01b038816600090815260406020819052812080548390811061058157fe5b906000526020600020906002020160000154905080600014156105a457506105f7565b6001600160a01b03891660009081526040602081905290208054429190849081106105cb57fe5b90600052602060002090600202016001015411156105e957506105ff565b6105f38482611f98565b9350505b600101610555565b50610615600261060f8585611ff2565b90612034565b945050505b61063b83610635838560010154611f9890919063ffffffff16565b90611ff2565b93505050915091565b6277f88081565b6001600160a01b0381166000908152603f602052604081208190819060609082805b82548110156107b1574283828154811061068357fe5b906000526020600020906002020160010154111561077f57816106f957825481900367ffffffffffffffff811180156106bb57600080fd5b506040519080825280602002602001820160405280156106f557816020015b6106e2612a55565b8152602001906001900390816106da5790505b5093505b82818154811061070557fe5b90600052602060002090600202016040518060400160405290816000820154815260200160018201548152505084838151811061073e57fe5b6020026020010181905250818060010192505061077883828154811061076057fe5b60009182526020909120600290910201548690611f98565b94506107a9565b6107a683828154811061078e57fe5b60009182526020909120600290910201548790611f98565b95505b60010161066d565b5050506001600160a01b0385166000908152603e602052604090206002015493509193509193565b603c5481565b600081116108085760405162461bcd60e51b81526004016107ff90612e96565b60405180910390fd5b61081133612076565b336000908152603e602052604081206001810154909190831161084757600182015461083d9084611ff2565b6001830155610a1c565b6000610860836001015485611ff290919063ffffffff16565b905080836003015410156108865760405162461bcd60e51b81526004016107ff90612ef8565b60006001840155600383015461089c9082611ff2565b600384015560005b3360009081526040602081905281208054839081106108bf57fe5b906000526020600020906002020160000154905080600014156108e25750610a11565b8315801561091d575033600090815260406020819052902080544291908490811061090957fe5b906000526020600020906002020160010154115b1561098f5782935082856003015410156109495760405162461bcd60e51b81526004016107ff90612e2b565b60038501546109589084611ff2565b600386018190556109815733600090815260406020819052812061097b91612a6f565b50610a19565b61098c836002612217565b92505b8083116109d2576109a08184611ff2565b3360009081526040602081905290208054849081106109bb57fe5b600091825260209091206002909102015550610a19565b3360009081526040602081905290208054839081106109ed57fe5b60009182526020822060029091020181815560010155610a0d8382611ff2565b9250505b6001016108a4565b50505b6000610a288483611f98565b8354909150610a379082611ff2565b8355603c54610a469082611ff2565b603c55603554610a60906001600160a01b03163386612270565b8115610b0a576034546001600160a01b0316638e2eba09306000604051908082528060200260200182016040528015610aa3578160200160208202803683370190505b506040518363ffffffff1660e01b8152600401610ac1929190612d2b565b600060405180830381600087803b158015610adb57600080fd5b505af1158015610aef573d6000803e3d6000fd5b5050603554610b0a92506001600160a01b03169050836122c2565b336001600160a01b03167f92ccf450a286a957af52509bc1c9939d1a6a481783e142e41e2499f0bb66ebc68584604051610b45929190612fc6565b60405180910390a250505050565b62093a8081565b610b6333612076565b610bc66036805480602002602001604051908101604052809291908181526020018280548015610bbc57602002820191906000526020600020905b81546001600160a01b03168152600190910190602001808311610b9e575b5050505050612374565b565b600054610100900460ff1680610be15750610be16125a6565b80610bef575060005460ff16155b610c2a5760405162461bcd60e51b815260040180806020018281038252602e8152602001806130b1602e913960400191505060405180910390fd5b600054610100900460ff16158015610c55576000805460ff1961ff0019909116610100171660011790555b610c5e836125ac565b603580546001600160a01b0319166001600160a01b038416908117909155604051637e51dad560e11b815263fca3b5aa90610c9d903090600401612d17565b602060405180830381600087803b158015610cb757600080fd5b505af1158015610ccb573d6000803e3d6000fd5b505050506040513d601f19601f82011682018060405250810190610cef9190612c62565b506036805460018082019092557f4a11f94e20a93c79f6ec743a1954ec4fc2c08429ae2122118bf234b2185c81b80180546001600160a01b0319166001600160a01b0385169081179091556000908152603760205260409020426002909101556041805460ff191690911790558015610d6e576000805461ff00191690555b505050565b603760205260009081526040902080546001820154600283015460038401546004909401549293919290919085565b610daa6125fe565b6033546001600160a01b03908116911614610dfa576040805162461bcd60e51b81526020600482018190526024820152600080516020613091833981519152604482015290519081900360640190fd5b60395460ff1615610e0a57600080fd5b60005b8151811015610e6257600160386000848481518110610e2857fe5b6020908102919091018101516001600160a01b03168252810191909152604001600020805460ff1916911515919091179055600101610e0d565b50506039805460ff19166001179055565b60415460ff1690565b6001600160a01b0381166000908152603e602090815260408083206001015433845291819052822090915b8154811015610f0b5742828281548110610ebd57fe5b9060005260206000209060020201600101541115610eda57610f0b565b610f01828281548110610ee957fe5b60009182526020909120600290910201548490611f98565b9250600101610ea7565b50505b919050565b6001600160a01b038116600090815260376020526040812054428111610f395780610f3b565b425b9392505050565b6001600160a01b03166000908152603e602052604090205490565b603a60209081526000928352604080842090915290825290205481565b610f826125fe565b6033546001600160a01b03908116911614610fd2576040805162461bcd60e51b81526020600482018190526024820152600080516020613091833981519152604482015290519081900360640190fd5b610bc660006125ac565b6035546001600160a01b031681565b60368181548110610ffb57600080fd5b6000918252602090912001546001600160a01b0316905081565b61101e33612076565b61102781612374565b50565b6110326125fe565b6033546001600160a01b03908116911614611082576040805162461bcd60e51b81526020600482018190526024820152600080516020613091833981519152604482015290519081900360640190fd5b6035546001600160a01b03838116911614156110b05760405162461bcd60e51b81526004016107ff90612ec1565b6001600160a01b038216600090815260376020526040902060020154156110e95760405162461bcd60e51b81526004016107ff90612f2f565b6111056110f4611142565b6001600160a01b0384169083612270565b7f8c1256b8896378cd5044f80c202f9772b9d77dc85c8a6eb51967210b09bfaa288282604051611136929190612d87565b60405180910390a15050565b6033546001600160a01b031690565b60395460ff1681565b6111626125fe565b6033546001600160a01b039081169116146111b2576040805162461bcd60e51b81526020600482018190526024820152600080516020613091833981519152604482015290519081900360640190fd5b6001600160a01b038116600090815260376020526040902060020154156111d857600080fd5b60368054600181019091557f4a11f94e20a93c79f6ec743a1954ec4fc2c08429ae2122118bf234b2185c81b80180546001600160a01b039092166001600160a01b031990921682179055600090815260376020526040902042600282018190559055565b61124533612076565b336000908152603f60209081526040808320603e90925282208154919290914284600019830183811061127457fe5b906000526020600020906002020160010154116112b1576002830154336000908152603f602052604081209193506112ac9190612a6f565b611326565b60005b8181101561132457428582815481106112c957fe5b90600052602060002090600202016001015411156112e657611324565b6112f5858281548110610ee957fe5b925084818154811061130357fe5b600091825260208220600290910201818155600190810191909155016112b4565b505b60028301546113359083611ff2565b600284015582546113469083611ff2565b8355603c546113559083611ff2565b603c55603d546113659083611ff2565b603d5560355461137f906001600160a01b03163384612270565b336001600160a01b03167f92ccf450a286a957af52509bc1c9939d1a6a481783e142e41e2499f0bb66ebc6836000604051610b45929190612fc6565b600082116113db5760405162461bcd60e51b81526004016107ff90612e03565b6113e433612076565b603c546113f19083611f98565b603c55336000908152603e60205260409020805461140f9084611f98565b8155811561157557603d546114249084611f98565b603d5560028101546114369084611f98565b600282015560006114616277f88061145b62093a806114554282612034565b90612217565b90611f98565b336000908152603f60205260409020549091508015806114b25750336000908152603f602052604090208054839190600019840190811061149e57fe5b906000526020600020906002020160010154105b1561150157336000908152603f6020908152604080832081518083019092528882528183018681528154600181810184559286529390942091516002909302909101918255915191015561156e565b336000908152603f60205260409020805461153d918791600019850190811061152657fe5b600091825260209091206002909102015490611f98565b336000908152603f602052604090208054600019840190811061155c57fe5b60009182526020909120600290910201555b505061158a565b60018101546115849084611f98565b60018201555b6035546115a2906001600160a01b0316333086612602565b336001600160a01b03167f37d4053e34fde482e96f6bcd424dfa31342cbd5fe184d497fb3c8bb4b4b9758084846040516115dd929190612fb6565b60405180910390a2505050565b6034546001600160a01b031681565b6001600160a01b03811660009081526037602052604081206001015461162d9064e8d4a510009061060f9062093a80612217565b92915050565b61163b6125fe565b6033546001600160a01b0390811691161461168b576040805162461bcd60e51b81526020600482018190526024820152600080516020613091833981519152604482015290519081900360640190fd5b6041805460ff1916821515179081905560ff16156116d1576040517f9e87fac88ff661f02d44f95383c817fece4bce600a3dab7a54406878b965e75290600090a1611027565b6040517fa45f47fdea8a1efdd9029a5691c7f759c32b7c698632b563573e155625d1693390600090a150565b603d5481565b3360009081526038602052604090205460ff1661171f57600080fd5b8161172957610d6e565b61173283612076565b6035546040516340c10f1960e01b81526001600160a01b03909116906340c10f19906117649030908690600401612d87565b602060405180830381600087803b15801561177e57600080fd5b505af1158015611792573d6000803e3d6000fd5b505050506040513d601f19601f820116820180604052508101906117b69190612c62565b506001600160a01b0383163014156117e3576035546117de906001600160a01b0316836122c2565b610d6e565b603c546117f09083611f98565b603c556001600160a01b0383166000908152603e6020526040902080546118179084611f98565b8155811561191557600381015461182e9084611f98565b6003820155600061184d6277f88061145b62093a806114554282612034565b6001600160a01b038616600090815260406020819052902080549192509080158061189757508282600183038154811061188357fe5b906000526020600020906002020160010154105b156118d957604080518082019091528681526020808201858152845460018181018755600087815293909320935160029091029093019283555191015561190d565b6118ec8683600184038154811061152657fe5b8260018303815481106118fb57fe5b60009182526020909120600290910201555b50505061192a565b60018101546119249084611f98565b60018201555b836001600160a01b03167f37d4053e34fde482e96f6bcd424dfa31342cbd5fe184d497fb3c8bb4b4b97580846000604051610b45929190612fb6565b60365460609067ffffffffffffffff8111801561198257600080fd5b506040519080825280602002602001820160405280156119bc57816020015b6119a9612a90565b8152602001906001900390816119a15790505b50905060005b8151811015611afb57600081156119f1576001600160a01b0384166000908152603e6020526040902054611a0e565b6001600160a01b0384166000908152603e60205260409020600201545b905060008215611a2057603c54611a24565b603d545b905060368381548110611a3357fe5b9060005260206000200160009054906101000a90046001600160a01b0316848481518110611a5d57fe5b6020026020010151600001906001600160a01b031690816001600160a01b031681525050611ad764e8d4a5100061060f87878781518110611a9a57fe5b60200260200101516000015186611ad260368a81548110611ab757fe5b6000918252602090912001546001600160a01b031688612662565b6126f7565b848481518110611ae357fe5b602090810291909101810151015250506001016119c2565b50919050565b6001600160a01b038116600090815260406020819052812060609082805b8254811015611c1d5742838281548110611b3557fe5b9060005260206000209060020201600101541115611c155781611bab57825481900367ffffffffffffffff81118015611b6d57600080fd5b50604051908082528060200260200182016040528015611ba757816020015b611b94612a55565b815260200190600190039081611b8c5790505b5093505b828181548110611bb757fe5b906000526020600020906002020160405180604001604052908160008201548152602001600182015481525050848381518110611bf057fe5b60200260200101819052508180600101925050611c1283828154811061076057fe5b94505b600101611b1f565b505050915091565b611c2d6125fe565b6033546001600160a01b03908116911614611c7d576040805162461bcd60e51b81526020600482018190526024820152600080516020613091833981519152604482015290519081900360640190fd5b603480546001600160a01b0319166001600160a01b0392909216919091179055565b611ca833612076565b600080611cb433610514565b336000908152604060208190528120929450909250611cd39190612a6f565b336000908152603e60205260409020600381015460018201548254611cfd92916106359190611ff2565b81556000600182018190556003820155611d23611d1a8484611f98565b603c5490611ff2565b603c55603554611d3d906001600160a01b03163385612270565b8115611de7576034546001600160a01b0316638e2eba09306000604051908082528060200260200182016040528015611d80578160200160208202803683370190505b506040518363ffffffff1660e01b8152600401611d9e929190612d2b565b600060405180830381600087803b158015611db857600080fd5b505af1158015611dcc573d6000803e3d6000fd5b5050603554611de792506001600160a01b03169050836122c2565b8315611e4e57611e4e6036805480602002602001604051908101604052809291908181526020018280548015610bbc576020028201919060005260206000209081546001600160a01b03168152600190910190602001808311610b9e575050505050612374565b336001600160a01b03167f92ccf450a286a957af52509bc1c9939d1a6a481783e142e41e2499f0bb66ebc68484604051610b45929190612fc6565b603b60209081526000928352604080842090915290825290205481565b60355460009081906001600160a01b03848116911614611ec857603c54611ecc565b603d545b9050610f3b8382612662565b611ee06125fe565b6033546001600160a01b03908116911614611f30576040805162461bcd60e51b81526020600482018190526024820152600080516020613091833981519152604482015290519081900360640190fd5b6001600160a01b038116611f755760405162461bcd60e51b815260040180806020018281038252602681526020018061304a6026913960400191505060405180910390fd5b611027816125ac565b60386020526000908152604090205460ff1681565b600181565b600082820183811015610f3b576040805162461bcd60e51b815260206004820152601b60248201527f536166654d6174683a206164646974696f6e206f766572666c6f770000000000604482015290519081900360640190fd5b6000610f3b83836040518060400160405280601e81526020017f536166654d6174683a207375627472616374696f6e206f766572666c6f770000815250612766565b6000610f3b83836040518060400160405280601a81526020017f536166654d6174683a206469766973696f6e206279207a65726f0000000000008152506127fd565b6035546001600160a01b03166000818152603760205260408120603d5482906120a0908590612662565b6003830181905590506120b284610f13565b60028301556001600160a01b0385163014612140576001600160a01b0385166000908152603e60205260409020600201546120f19086908690846126f7565b6001600160a01b038087166000818152603b60209081526040808320948a1680845294825280832095909555828252603a8152848220938252928352838120859055908152603e909152205492505b603c5460365460015b8181101561220d576036818154811061215e57fe5b60009182526020808320909101546001600160a01b03168083526037909152604090912090975094506121918784612662565b6003860181905593506121a387610f13565b60028601556001600160a01b0388163014612205576121c4888888876126f7565b6001600160a01b03808a166000818152603b60209081526040808320948d1680845294825280832095909555918152603a8252838120928152919052208490555b600101612149565b5050505050505050565b6000826122265750600061162d565b8282028284828161223357fe5b0414610f3b5760405162461bcd60e51b81526004018080602001828103825260218152602001806130706021913960400191505060405180910390fd5b604080516001600160a01b038416602482015260448082018490528251808303909101815260649091019091526020810180516001600160e01b031663a9059cbb60e01b179052610d6e908490612862565b6001600160a01b038216600090815260376020526040902080544210612302576122f862093a8061060f8464e8d4a51000612217565b6001820155612359565b80546000906123119042611ff2565b9050600061233564e8d4a5100061060f85600101548561221790919063ffffffff16565b905061235162093a8061060f64e8d4a510006114558886611f98565b600184015550505b426002820181905561236e9062093a80611f98565b90555050565b60415460ff16156123975760405162461bcd60e51b81526004016107ff90612e6d565b805160005b81811015610d6e5760008382815181106123b257fe5b602090810291909101810151336000908152603b835260408082206001600160a01b0384168352909352918220549092506123f29064e8d4a51000612034565b6035549091506001600160a01b03838116911614612513576001600160a01b03821660009081526037602052604090208054806124415760405162461bcd60e51b81526004016107ff90612f66565b6004820154612453426207e900611f98565b8210156124fd5760006124dc82876001600160a01b03166370a08231306040518263ffffffff1660e01b815260040161248c9190612d17565b60206040518083038186803b1580156124a457600080fd5b505afa1580156124b8573d6000803e3d6000fd5b505050506040513d601f19601f820116820180604052508101906106359190612c96565b905080156124fb576124ee86826122c2565b6124f88282611f98565b91505b505b6125078185611ff2565b83600401819055505050505b8061251f57505061259e565b336000818152603b602090815260408083206001600160a01b03871680855292528220919091556125509183612270565b816001600160a01b0316336001600160a01b03167f540798df468d7b23d11f156fdb954cb19ad414d150722a7b6d55ba369dea792e836040516125939190612f94565b60405180910390a350505b60010161239c565b303b1590565b603380546001600160a01b038381166001600160a01b0319831681179093556040519116919082907f8be0079c531659141344cd1fd0a4f28419497f9722a3daafe3b4186f6b6457e090600090a35050565b3390565b604080516001600160a01b0380861660248301528416604482015260648082018490528251808303909101815260849091019091526020810180516001600160e01b03166323b872dd60e01b17905261265c908590612862565b50505050565b60008161268b57506001600160a01b03821660009081526037602052604090206003015461162d565b6001600160a01b03831660009081526037602052604090206001810154600290910154610f3b916126d591859161060f91670de0b6b3a7640000916114559182906106358c610f13565b6001600160a01b03851660009081526037602052604090206003015490611f98565b6001600160a01b038085166000818152603b6020908152604080832094881680845294825280832054938352603a82528083209483529390529182205461275d919061145b90670de0b6b3a76400009061060f90612756908890611ff2565b8890612217565b95945050505050565b600081848411156127f55760405162461bcd60e51b81526004018080602001828103825283818151815260200191508051906020019080838360005b838110156127ba5781810151838201526020016127a2565b50505050905090810190601f1680156127e75780820380516001836020036101000a031916815260200191505b509250505060405180910390fd5b505050900390565b6000818361284c5760405162461bcd60e51b81526020600482018181528351602484015283519092839260449091019190850190808383600083156127ba5781810151838201526020016127a2565b50600083858161285857fe5b0495945050505050565b612874826001600160a01b0316612a19565b6128c5576040805162461bcd60e51b815260206004820152601f60248201527f5361666545524332303a2063616c6c20746f206e6f6e2d636f6e747261637400604482015290519081900360640190fd5b600080836001600160a01b0316836040518082805190602001908083835b602083106129025780518252601f1990920191602091820191016128e3565b6001836020036101000a0380198251168184511680821785525050505050509050019150506000604051808303816000865af19150503d8060008114612964576040519150601f19603f3d011682016040523d82523d6000602084013e612969565b606091505b5091509150816129c0576040805162461bcd60e51b815260206004820181905260248201527f5361666545524332303a206c6f772d6c6576656c2063616c6c206661696c6564604482015290519081900360640190fd5b80511561265c578080602001905160208110156129dc57600080fd5b505161265c5760405162461bcd60e51b815260040180806020018281038252602a8152602001806130df602a913960400191505060405180910390fd5b6000813f7fc5d2460186f7233c927e7db2dcc703c0e500b653ca82273b7bfad8045d85a470818114801590612a4d57508115155b949350505050565b604051806040016040528060008152602001600081525090565b50805460008255600202906000526020600020908101906110279190612aa7565b604080518082019091526000808252602082015290565b5b80821115612ac25760008082556001820155600201612aa8565b5090565b8035610f0e81613026565b600060208284031215612ae2578081fd5b8135610f3b81613026565b60008060408385031215612aff578081fd5b8235612b0a81613026565b91506020830135612b1a81613026565b809150509250929050565b60008060408385031215612b37578182fd5b8235612b4281613026565b946020939093013593505050565b600080600060608486031215612b64578081fd5b8335612b6f81613026565b9250602084013591506040840135612b868161303b565b809150509250925092565b60006020808385031215612ba3578182fd5b823567ffffffffffffffff80821115612bba578384fd5b818501915085601f830112612bcd578384fd5b813581811115612bd957fe5b83810260405185828201018181108582111715612bf257fe5b604052828152858101935084860182860187018a1015612c10578788fd5b8795505b83861015612c3957612c2581612ac6565b855260019590950194938601938601612c14565b5098975050505050505050565b600060208284031215612c57578081fd5b8135610f3b8161303b565b600060208284031215612c73578081fd5b8151610f3b8161303b565b600060208284031215612c8f578081fd5b5035919050565b600060208284031215612ca7578081fd5b5051919050565b60008060408385031215612cc0578182fd5b823591506020830135612b1a8161303b565b6000815180845260208085019450808401835b83811015612d0c578151805188528301518388015260409096019590820190600101612ce5565b509495945050505050565b6001600160a01b0391909116815260200190565b6001600160a01b038381168252604060208084018290528451918401829052600092858201929091906060860190855b81811015612d79578551851683529483019491830191600101612d5b565b509098975050505050505050565b6001600160a01b03929092168252602082015260400190565b602080825282518282018190526000919060409081850190868401855b82811015612deb57815180516001600160a01b03168552860151868501529284019290850190600101612dbd565b5091979650505050505050565b901515815260200190565b6020808252600e908201526d043616e6e6f74207374616b6520360941b604082015260600190565b60208082526022908201527f496e73756666696369656e742062616c616e63652061667465722070656e616c604082015261747960f01b606082015260800190565b6020808252600f908201526e10d3105253525391d7d4105554d151608a1b604082015260600190565b602080825260119082015270043616e6e6f74207769746864726177203607c1b604082015260600190565b6020808252601d908201527f43616e6e6f74207769746864726177207374616b696e6720746f6b656e000000604082015260600190565b6020808252601d908201527f496e73756666696369656e7420756e6c6f636b65642062616c616e6365000000604082015260600190565b6020808252601c908201527f43616e6e6f742077697468647261772072657761726420746f6b656e00000000604082015260600190565b6020808252601490820152732ab735b737bbb7103932bbb0b932103a37b5b2b760611b604082015260600190565b90815260200190565b600083825260406020830152612a4d6040830184612cd2565b9182521515602082015260400190565b918252602082015260400190565b600085825284602083015283604083015260806060830152612ff96080830184612cd2565b9695505050505050565b948552602085019390935260408401919091526060830152608082015260a00190565b6001600160a01b038116811461102757600080fd5b801515811461102757600080fdfe4f776e61626c653a206e6577206f776e657220697320746865207a65726f2061646472657373536166654d6174683a206d756c7469706c69636174696f6e206f766572666c6f774f776e61626c653a2063616c6c6572206973206e6f7420746865206f776e6572436f6e747261637420696e7374616e63652068617320616c7265616479206265656e20696e697469616c697a65645361666545524332303a204552433230206f7065726174696f6e20646964206e6f742073756363656564a264697066735822122082ab85b03b40641736fa43db3fe9d602c5e2060fa22999d2f998c56c9d28a88464736f6c63430007060033",
  "linkReferences": {},
  "deployedLinkReferences": {}
}