{
  "_format": "hh-sol-artifact-1",
  "contractName": "PriceFeed",
  "sourceName": "contracts/misc/PriceFeed.sol",
  "abi": [
    {
      "inputs": [
        {
          "internalType": "contract IFluxAggregator",
          "name": "_fluxOracleAddress",
          "type": "address"
        },
        {
          "internalType": "uint256",
          "name": "_timeout",
          "type": "uint256"
        }
      ],
      "stateMutability": "nonpayable",
      "type": "constructor"
    },
    {
      "anonymous": false,
      "inputs": [
        {
          "indexed": false,
          "internalType": "uint256",
          "name": "_lastGoodPrice",
          "type": "uint256"
        }
      ],
      "name": "LastGoodPriceUpdated",
      "type": "event"
    },
    {
      "anonymous": false,
      "inputs": [
        {
          "indexed": false,
          "internalType": "enum PriceFeed.Status",
          "name": "newStatus",
          "type": "uint8"
        }
      ],
      "name": "PriceFeedStatusChanged",
      "type": "event"
    },
    {
      "inputs": [],
      "name": "DECIMAL_PRECISION",
      "outputs": [
        {
          "internalType": "uint256",
          "name": "",
          "type": "uint256"
        }
      ],
      "stateMutability": "view",
      "type": "function"
    },
    {
      "inputs": [],
      "name": "MAX_PRICE_DEVIATION_FROM_PREVIOUS_ROUND",
      "outputs": [
        {
          "internalType": "uint256",
          "name": "",
          "type": "uint256"
        }
      ],
      "stateMutability": "view",
      "type": "function"
    },
    {
      "inputs": [],
      "name": "MAX_PRICE_DIFFERENCE_BETWEEN_ORACLES",
      "outputs": [
        {
          "internalType": "uint256",
          "name": "",
          "type": "uint256"
        }
      ],
      "stateMutability": "view",
      "type": "function"
    },
    {
      "inputs": [],
      "name": "TARGET_DIGITS",
      "outputs": [
        {
          "internalType": "uint256",
          "name": "",
          "type": "uint256"
        }
      ],
      "stateMutability": "view",
      "type": "function"
    },
    {
      "inputs": [],
      "name": "TIMEOUT",
      "outputs": [
        {
          "internalType": "uint256",
          "name": "",
          "type": "uint256"
        }
      ],
      "stateMutability": "view",
      "type": "function"
    },
    {
      "inputs": [],
      "name": "fetchPrice",
      "outputs": [
        {
          "internalType": "uint256",
          "name": "",
          "type": "uint256"
        }
      ],
      "stateMutability": "view",
      "type": "function"
    },
    {
      "inputs": [],
      "name": "fluxOracle",
      "outputs": [
        {
          "internalType": "contract IFluxAggregator",
          "name": "",
          "type": "address"
        }
      ],
      "stateMutability": "view",
      "type": "function"
    },
    {
      "inputs": [],
      "name": "lastGoodPrice",
      "outputs": [
        {
          "internalType": "uint256",
          "name": "",
          "type": "uint256"
        }
      ],
      "stateMutability": "view",
      "type": "function"
    },
    {
      "inputs": [],
      "name": "status",
      "outputs": [
        {
          "internalType": "enum PriceFeed.Status",
          "name": "",
          "type": "uint8"
        }
      ],
      "stateMutability": "view",
      "type": "function"
    },
    {
      "inputs": [],
      "name": "updatePrice",
      "outputs": [
        {
          "internalType": "uint256",
          "name": "",
          "type": "uint256"
        }
      ],
      "stateMutability": "nonpayable",
      "type": "function"
    }
  ],
  "bytecode": "0x60a06040523480156200001157600080fd5b5060405162000fb638038062000fb6833981810160405260408110156200003757600080fd5b508051602090910151600080546001600160a01b0319166001600160a01b03841617815560808290526002805460ff191690556200007462000109565b9050600062000092826000015183608001516200027060201b60201c565b9050620000a0828262000362565b15620000de5760405162461bcd60e51b815260040180806020018281038252602b81526020018062000f6a602b913960400191505060405180910390fd5b620000fb8260200151836080015160ff166200038860201b60201c565b60015550620005dc92505050565b62000113620005ae565b60008054906101000a90046001600160a01b03166001600160a01b031663313ce5676040518163ffffffff1660e01b815260040160206040518083038186803b1580156200016057600080fd5b505afa9250505080156200018757506040513d60208110156200018257600080fd5b505160015b62000192576200026d565b60ff16608082015260008054906101000a90046001600160a01b03166001600160a01b031663feaf968c6040518163ffffffff1660e01b815260040160a06040518083038186803b158015620001e757600080fd5b505afa9250505080156200022b57506040513d60a08110156200020957600080fd5b5080516020820151604083015160608401516080909401519293919290919060015b62000236576200026d565b6001600160501b038516865260808601516200025790859060ff1662000388565b6020870152506040850152505060016060830152505b90565b6200027a620005ae565b60005460408051639a6fc8f560e01b81526001600160501b03600019870116600482015290516001600160a01b0390921691639a6fc8f59160248082019260a092909190829003018186803b158015620002d357600080fd5b505afa9250505080156200031757506040513d60a0811015620002f557600080fd5b5080516020820151604083015160608401516080909401519293919290919060015b62000322576200035c565b6001600160501b03851686526200033d8460ff891662000388565b602087015250604085015250505060ff82166080820152600160608201525b92915050565b60006200036f83620003ee565b806200038157506200038182620003ee565b9392505050565b60008060128310620003bc57620003b460128403600a0a856200045f60201b6200025d1790919060201c565b905062000381565b60128310156200038157620003e683601203600a0a85620004a960201b620002a81790919060201c565b949350505050565b6000816060015162000403575060016200045a565b81516001600160501b03166200041c575060016200045a565b60408201511580620004315750428260400151115b1562000440575060016200045a565b600082602001511362000456575060016200045a565b5060005b919050565b60006200038183836040518060400160405280601a81526020017f536166654d6174683a206469766973696f6e206279207a65726f0000000000008152506200050760201b60201c565b600082620004ba575060006200035c565b82820282848281620004c857fe5b0414620003815760405162461bcd60e51b815260040180806020018281038252602181526020018062000f956021913960400191505060405180910390fd5b60008183620005975760405162461bcd60e51b81526004018080602001828103825283818151815260200191508051906020019080838360005b838110156200055b57818101518382015260200162000541565b50505050905090810190601f168015620005895780820380516001836020036101000a031916815260200191505b509250505060405180910390fd5b506000838581620005a457fe5b0495945050505050565b6040805160a08101825260008082526020820181905291810182905260608101829052608081019190915290565b60805161096e620005fc6000398061023b52806106f2525061096e6000f3fe608060405234801561001057600080fd5b506004361061009e5760003560e01c806358a6aa881161006657806358a6aa88146100fe578063673a7e2814610106578063964fef5f1461010e578063a20baee614610132578063f56f48f21461013a5761009e565b80630490be83146100a35780630fdb11cf146100bd5780631be5c92f146100c5578063200d2ed2146100cd57806345079cb4146100f6575b600080fd5b6100ab610142565b60408051918252519081900360200190f35b6100ab610148565b6100ab61015b565b6100d5610160565b604051808260018111156100e557fe5b815260200191505060405180910390f35b6100ab610169565b6100ab610174565b6100ab610180565b61011661021e565b604080516001600160a01b039092168252519081900360200190f35b6100ab61022d565b6100ab610239565b60015481565b600080610153610301565b925050505b90565b601281565b60025460ff1681565b66b1a2bc2ec5000081565b6706f05b59d3b2000081565b600080600061018d610301565b6001818155919350915082908111156101a257fe5b60025460ff1660018111156101b357fe5b14610218576002805483919060ff1916600183818111156101d057fe5b02179055507f5c57579a8214fe4f710c1c56fa829f045b9fa6d225a744225a30c32188064d4e826040518082600181111561020757fe5b815260200191505060405180910390a15b91505090565b6000546001600160a01b031681565b670de0b6b3a764000081565b7f000000000000000000000000000000000000000000000000000000000000000081565b600061029f83836040518060400160405280601a81526020017f536166654d6174683a206469766973696f6e206279207a65726f0000000000008152506103e8565b90505b92915050565b6000826102b7575060006102a2565b828202828482816102c457fe5b041461029f5760405162461bcd60e51b81526004018080602001828103825260218152602001806109186021913960400191505060405180910390fd5b600080600061030e61048a565b90506000610324826000015183608001516105e7565b9050600060025460ff16600181111561033957fe5b141561039b5761034982826106d4565b806103585750610358826106ee565b1561036c57600180549350935050506103e4565b6103768282610731565b1561038b5750602001516001925090506103e4565b50602001516000925090506103e4565b600160025460ff1660018111156103ae57fe5b14156103e1576103be82826106d4565b806103cd57506103cd826106ee565b1561038b57600180549350935050506103e4565b50505b9091565b600081836104745760405162461bcd60e51b81526004018080602001828103825283818151815260200191508051906020019080838360005b83811015610439578181015183820152602001610421565b50505050905090810190601f1680156104665780820380516001836020036101000a031916815260200191505b509250505060405180910390fd5b50600083858161048057fe5b0495945050505050565b6104926108e9565b60008054906101000a90046001600160a01b03166001600160a01b031663313ce5676040518163ffffffff1660e01b815260040160206040518083038186803b1580156104de57600080fd5b505afa92505050801561050357506040513d60208110156104fe57600080fd5b505160015b61050c57610158565b60ff16608082015260008054906101000a90046001600160a01b03166001600160a01b031663feaf968c6040518163ffffffff1660e01b815260040160a06040518083038186803b15801561056057600080fd5b505afa9250505080156105a257506040513d60a081101561058057600080fd5b5080516020820151604083015160608401516080909401519293919290919060015b6105ab57610158565b69ffffffffffffffffffff8516865260808601516105cd90859060ff166107a3565b602087015250604085015250506001606083015250610158565b6105ef6108e9565b60005460408051639a6fc8f560e01b815269ffffffffffffffffffff600019870116600482015290516001600160a01b0390921691639a6fc8f59160248082019260a092909190829003018186803b15801561064a57600080fd5b505afa92505050801561068c57506040513d60a081101561066a57600080fd5b5080516020820151604083015160608401516080909401519293919290919060015b610695576102a2565b69ffffffffffffffffffff851686526106b18460ff89166107a3565b602087015250604085015250505060ff82166080820152600160608201526102a2565b60006106df836107e8565b8061029f575061029f826107e8565b60007f000000000000000000000000000000000000000000000000000000000000000061072883604001514261085290919063ffffffff16565b1190505b919050565b60208083015190820151600091908281831061074d578161074f565b825b90506000828410156107615782610763565b835b9050600061078d82610787670de0b6b3a76400006107818388610852565b906102a8565b9061025d565b6706f05b59d3b200001098975050505050505050565b600080601283106107c6576107bf846011198501600a0a61025d565b905061029f565b601283101561029f576107e0846012859003600a0a6102a8565b949350505050565b600081606001516107fb5750600161072c565b815169ffffffffffffffffffff166108155750600161072c565b604082015115806108295750428260400151115b156108365750600161072c565b600082602001511361084a5750600161072c565b506000919050565b600061029f83836040518060400160405280601e81526020017f536166654d6174683a207375627472616374696f6e206f766572666c6f770000815250600081848411156108e15760405162461bcd60e51b8152602060048201818152835160248401528351909283926044909101919085019080838360008315610439578181015183820152602001610421565b505050900390565b6040805160a0810182526000808252602082018190529181018290526060810182905260808101919091529056fe536166654d6174683a206d756c7469706c69636174696f6e206f766572666c6f77a26469706673582212202e6a635f1a834e8ac04bf8206c38be0a6c08c500de5c0403a87496277c99edf564736f6c634300070600335072696365466565643a20466c7578206d75737420626520776f726b696e6720616e642063757272656e74536166654d6174683a206d756c7469706c69636174696f6e206f766572666c6f77",
  "linkReferences": {},
  "deployedLinkReferences": {}
}