{
  "_format": "hh-sol-artifact-1",
  "contractName": "ProtocolRevenueDistribution",
  "sourceName": "contracts/staking/ProtocolRevenueDistribution.sol",
  "abi": [
    {
      "anonymous": false,
      "inputs": [
        {
          "indexed": true,
          "internalType": "address",
          "name": "previousOwner",
          "type": "address"
        },
        {
          "indexed": true,
          "internalType": "address",
          "name": "newOwner",
          "type": "address"
        }
      ],
      "name": "OwnershipTransferred",
      "type": "event"
    },
    {
      "inputs": [],
      "name": "VERSION",
      "outputs": [
        {
          "internalType": "uint256",
          "name": "",
          "type": "uint256"
        }
      ],
      "stateMutability": "view",
      "type": "function"
    },
    {
      "inputs": [
        {
          "internalType": "address",
          "name": "owner",
          "type": "address"
        }
      ],
      "name": "initialize",
      "outputs": [],
      "stateMutability": "nonpayable",
      "type": "function"
    },
    {
      "inputs": [],
      "name": "owner",
      "outputs": [
        {
          "internalType": "address",
          "name": "",
          "type": "address"
        }
      ],
      "stateMutability": "view",
      "type": "function"
    },
    {
      "inputs": [],
      "name": "renounceOwnership",
      "outputs": [],
      "stateMutability": "nonpayable",
      "type": "function"
    },
    {
      "inputs": [
        {
          "internalType": "address",
          "name": "newOwner",
          "type": "address"
        }
      ],
      "name": "transferOwnership",
      "outputs": [],
      "stateMutability": "nonpayable",
      "type": "function"
    }
  ],
  "bytecode": "0x608060405234801561001057600080fd5b506103c7806100206000396000f3fe608060405234801561001057600080fd5b50600436106100575760003560e01c8063715018a61461005c5780638da5cb5b14610066578063c4d66de81461008a578063f2fde38b146100b0578063ffa1ad74146100d6575b600080fd5b6100646100f0565b005b61006e610166565b604080516001600160a01b039092168252519081900360200190f35b610064600480360360208110156100a057600080fd5b50356001600160a01b0316610175565b610064600480360360208110156100c657600080fd5b50356001600160a01b0316610221565b6100de6102dc565b60408051918252519081900360200190f35b6100f86102e1565b6033546001600160a01b0390811691161461015a576040805162461bcd60e51b815260206004820181905260248201527f4f776e61626c653a2063616c6c6572206973206e6f7420746865206f776e6572604482015290519081900360640190fd5b61016460006102e5565b565b6033546001600160a01b031690565b600054610100900460ff168061018e575061018e610337565b8061019c575060005460ff16155b6101d75760405162461bcd60e51b815260040180806020018281038252602e815260200180610364602e913960400191505060405180910390fd5b600054610100900460ff16158015610202576000805460ff1961ff0019909116610100171660011790555b61020b826102e5565b801561021d576000805461ff00191690555b5050565b6102296102e1565b6033546001600160a01b0390811691161461028b576040805162461bcd60e51b815260206004820181905260248201527f4f776e61626c653a2063616c6c6572206973206e6f7420746865206f776e6572604482015290519081900360640190fd5b6001600160a01b0381166102d05760405162461bcd60e51b815260040180806020018281038252602681526020018061033e6026913960400191505060405180910390fd5b6102d9816102e5565b50565b600181565b3390565b603380546001600160a01b038381166001600160a01b0319831681179093556040519116919082907f8be0079c531659141344cd1fd0a4f28419497f9722a3daafe3b4186f6b6457e090600090a35050565b303b159056fe4f776e61626c653a206e6577206f776e657220697320746865207a65726f2061646472657373436f6e747261637420696e7374616e63652068617320616c7265616479206265656e20696e697469616c697a6564a2646970667358221220b8ef08b3ec848d7cf8e68b361ad7aabe346b2c6abf5e1b2d1e16aa1c4163dd7364736f6c63430007060033",
  "linkReferences": {},
  "deployedLinkReferences": {}
}