{
  "_format": "hh-sol-artifact-1",
  "contractName": "ProtocolOwnedDEXLiquidity",
  "sourceName": "contracts/staking/ProtocolOwnedDEXLiquidity.sol",
  "abi": [
    {
      "inputs": [
        {
          "internalType": "uint256",
          "name": "_lockMultiplier",
          "type": "uint256"
        },
        {
          "internalType": "uint256",
          "name": "_minBuy",
          "type": "uint256"
        },
        {
          "internalType": "uint256",
          "name": "_minLock",
          "type": "uint256"
        },
        {
          "internalType": "uint256",
          "name": "_cooldown",
          "type": "uint256"
        },
        {
          "internalType": "uint256",
          "name": "_podlCooldown",
          "type": "uint256"
        }
      ],
      "stateMutability": "nonpayable",
      "type": "constructor"
    },
    {
      "anonymous": false,
      "inputs": [
        {
          "indexed": true,
          "internalType": "address",
          "name": "podler",
          "type": "address"
        },
        {
          "indexed": false,
          "internalType": "uint256",
          "name": "amount",
          "type": "uint256"
        }
      ],
      "name": "AaaaaaahAndImSuperPODLiiiiing",
      "type": "event"
    },
    {
      "anonymous": false,
      "inputs": [
        {
          "indexed": true,
          "internalType": "address",
          "name": "previousOwner",
          "type": "address"
        },
        {
          "indexed": true,
          "internalType": "address",
          "name": "newOwner",
          "type": "address"
        }
      ],
      "name": "OwnershipTransferred",
      "type": "event"
    },
    {
      "anonymous": false,
      "inputs": [
        {
          "indexed": true,
          "internalType": "address",
          "name": "buyer",
          "type": "address"
        },
        {
          "indexed": false,
          "internalType": "uint256",
          "name": "amount",
          "type": "uint256"
        }
      ],
      "name": "SoldFTM",
      "type": "event"
    },
    {
      "inputs": [],
      "name": "availableFTM",
      "outputs": [
        {
          "internalType": "uint256",
          "name": "",
          "type": "uint256"
        }
      ],
      "stateMutability": "view",
      "type": "function"
    },
    {
      "inputs": [
        {
          "internalType": "address",
          "name": "_user",
          "type": "address"
        }
      ],
      "name": "availableForUser",
      "outputs": [
        {
          "internalType": "uint256",
          "name": "",
          "type": "uint256"
        }
      ],
      "stateMutability": "view",
      "type": "function"
    },
    {
      "inputs": [],
      "name": "buyCooldown",
      "outputs": [
        {
          "internalType": "uint256",
          "name": "",
          "type": "uint256"
        }
      ],
      "stateMutability": "view",
      "type": "function"
    },
    {
      "inputs": [
        {
          "internalType": "uint256",
          "name": "_amount",
          "type": "uint256"
        }
      ],
      "name": "buyFTM",
      "outputs": [],
      "stateMutability": "nonpayable",
      "type": "function"
    },
    {
      "inputs": [],
      "name": "gFTM",
      "outputs": [
        {
          "internalType": "contract IERC20",
          "name": "",
          "type": "address"
        }
      ],
      "stateMutability": "view",
      "type": "function"
    },
    {
      "inputs": [],
      "name": "lockedBalanceMultiplier",
      "outputs": [
        {
          "internalType": "uint256",
          "name": "",
          "type": "uint256"
        }
      ],
      "stateMutability": "view",
      "type": "function"
    },
    {
      "inputs": [],
      "name": "lpToken",
      "outputs": [
        {
          "internalType": "contract IUniswapLPToken",
          "name": "",
          "type": "address"
        }
      ],
      "stateMutability": "view",
      "type": "function"
    },
    {
      "inputs": [],
      "name": "lpTokensPerOneFTM",
      "outputs": [
        {
          "internalType": "uint256",
          "name": "",
          "type": "uint256"
        }
      ],
      "stateMutability": "view",
      "type": "function"
    },
    {
      "inputs": [],
      "name": "minBuyAmount",
      "outputs": [
        {
          "internalType": "uint256",
          "name": "",
          "type": "uint256"
        }
      ],
      "stateMutability": "view",
      "type": "function"
    },
    {
      "inputs": [],
      "name": "minSuperPODLLock",
      "outputs": [
        {
          "internalType": "uint256",
          "name": "",
          "type": "uint256"
        }
      ],
      "stateMutability": "view",
      "type": "function"
    },
    {
      "inputs": [],
      "name": "owner",
      "outputs": [
        {
          "internalType": "address",
          "name": "",
          "type": "address"
        }
      ],
      "stateMutability": "view",
      "type": "function"
    },
    {
      "inputs": [],
      "name": "protocolOwnedReserves",
      "outputs": [
        {
          "internalType": "uint256",
          "name": "wftm",
          "type": "uint256"
        },
        {
          "internalType": "uint256",
          "name": "token",
          "type": "uint256"
        }
      ],
      "stateMutability": "view",
      "type": "function"
    },
    {
      "inputs": [],
      "name": "renounceOwnership",
      "outputs": [],
      "stateMutability": "nonpayable",
      "type": "function"
    },
    {
      "inputs": [
        {
          "internalType": "uint256",
          "name": "_lockMultiplier",
          "type": "uint256"
        },
        {
          "internalType": "uint256",
          "name": "_minBuy",
          "type": "uint256"
        },
        {
          "internalType": "uint256",
          "name": "_minLock",
          "type": "uint256"
        },
        {
          "internalType": "uint256",
          "name": "_cooldown",
          "type": "uint256"
        },
        {
          "internalType": "uint256",
          "name": "_podlCooldown",
          "type": "uint256"
        }
      ],
      "name": "setParams",
      "outputs": [],
      "stateMutability": "nonpayable",
      "type": "function"
    },
    {
      "inputs": [
        {
          "internalType": "uint256",
          "name": "_amount",
          "type": "uint256"
        }
      ],
      "name": "superPODL",
      "outputs": [],
      "stateMutability": "nonpayable",
      "type": "function"
    },
    {
      "inputs": [],
      "name": "superPODLCooldown",
      "outputs": [
        {
          "internalType": "uint256",
          "name": "",
          "type": "uint256"
        }
      ],
      "stateMutability": "view",
      "type": "function"
    },
    {
      "inputs": [],
      "name": "totalSoldFTM",
      "outputs": [
        {
          "internalType": "uint256",
          "name": "",
          "type": "uint256"
        }
      ],
      "stateMutability": "view",
      "type": "function"
    },
    {
      "inputs": [
        {
          "internalType": "address",
          "name": "newOwner",
          "type": "address"
        }
      ],
      "name": "transferOwnership",
      "outputs": [],
      "stateMutability": "nonpayable",
      "type": "function"
    },
    {
      "inputs": [],
      "name": "treasury",
      "outputs": [
        {
          "internalType": "contract IMultiFeeDistribution",
          "name": "",
          "type": "address"
        }
      ],
      "stateMutability": "view",
      "type": "function"
    },
    {
      "inputs": [
        {
          "internalType": "address",
          "name": "",
          "type": "address"
        }
      ],
      "name": "userData",
      "outputs": [
        {
          "internalType": "uint256",
          "name": "nextClaimTime",
          "type": "uint256"
        },
        {
          "internalType": "uint256",
          "name": "claimCount",
          "type": "uint256"
        },
        {
          "internalType": "uint256",
          "name": "totalBoughtFTM",
          "type": "uint256"
        }
      ],
      "stateMutability": "view",
      "type": "function"
    }
  ],
  "bytecode": "0x608060405234801561001057600080fd5b5060405161132f38038061132f833981810160405260a081101561003357600080fd5b50805160208201516040830151606084015160809094015192939192909190600061005c61014b565b600080546001600160a01b0319166001600160a01b0383169081178255604051929350917f8be0079c531659141344cd1fd0a4f28419497f9722a3daafe3b4186f6b6457e0908290a35060408051630cca1d5960e21b81523060048201527349c93a95dbcc9a6a4d8f77e59c038ce5020e82f86024820152905173297fddc5c33ef988dd03bd13e162ae084ea1fe5791829163332875649160448082019260009290919082900301818387803b15801561011557600080fd5b505af1158015610129573d6000803e3d6000fd5b50505050610140868686868661014f60201b60201c565b5050505050506101e5565b3390565b61015761014b565b6000546001600160a01b039081169116146101b9576040805162461bcd60e51b815260206004820181905260248201527f4f776e61626c653a2063616c6c6572206973206e6f7420746865206f776e6572604482015290519081900360640190fd5b670de0b6b3a76400008410156101ce57600080fd5b600794909455600392909255600455600555600655565b61113b806101f46000396000f3fe608060405234801561001057600080fd5b506004361061012c5760003560e01c80639fad09e5116100ad578063d828bb8811610071578063d828bb8814610276578063e6e789b4146102ab578063f1c49e64146102b3578063f2fde38b146102bb578063f66bf229146102e15761012c565b80639fad09e5146101e8578063acef2e0f146101f0578063b8b35b93146101f8578063c491852314610215578063c8910913146102325761012c565b806361d027b3116100f457806361d027b3146101be578063670e97ed146101c6578063704fbfe5146101ce578063715018a6146101d65780638da5cb5b146101e05761012c565b80632da26a69146101315780633c3d8c8f14610155578063404ea7d91461018d57806348c74950146101955780635fcbd285146101b6575b600080fd5b6101396102e9565b604080516001600160a01b039092168252519081900360200190f35b61017b6004803603602081101561016b57600080fd5b50356001600160a01b0316610301565b60408051918252519081900360200190f35b61017b610493565b61019d610499565b6040805192835260208301919091528051918290030190f35b610139610656565b61013961066e565b61017b610686565b61017b61068c565b6101de610692565b005b610139610746565b61017b610755565b61017b6107e5565b6101de6004803603602081101561020e57600080fd5b50356107eb565b6101de6004803603602081101561022b57600080fd5b503561090a565b6102586004803603602081101561024857600080fd5b50356001600160a01b0316610976565b60408051938452602084019290925282820152519081900360600190f35b6101de600480360360a081101561028c57600080fd5b5080359060208101359060408101359060608101359060800135610996565b61017b610a2c565b61017b610b55565b6101de600480360360208110156102d157600080fd5b50356001600160a01b0316610b5b565b61017b610c65565b7339b3bd37208cbade74d0fcbdbb12d606295b430a81565b6001600160a01b0381166000908152600160205260408120805442101561032c57600091505061048e565b6000610336610755565b905060007349c93a95dbcc9a6a4d8f77e59c038ce5020e82f86001600160a01b0316630483a7f6866040518263ffffffff1660e01b815260040180826001600160a01b0316815260200191505060206040518083038186803b15801561039b57600080fd5b505afa1580156103af573d6000803e3d6000fd5b505050506040513d60208110156103c557600080fd5b50516040805163ca5c7b9160e01b815290519192506000917349c93a95dbcc9a6a4d8f77e59c038ce5020e82f89163ca5c7b91916004808301926020929190829003018186803b15801561041857600080fd5b505afa15801561042c573d6000803e3d6000fd5b505050506040513d602081101561044257600080fd5b505160075490915060009061047090839061046a908690610464908990610c6b565b90610c6b565b90610ccd565b90508381111561048757839550505050505061048e565b9450505050505b919050565b60075481565b60008060008073668ae94d0870230ac007a01b471d02b2c94ddcb96001600160a01b0316630902f1ac6040518163ffffffff1660e01b815260040160606040518083038186803b1580156104ec57600080fd5b505afa158015610500573d6000803e3d6000fd5b505050506040513d606081101561051657600080fd5b508051602091820151604080516370a0823160e01b815230600482015290516001600160701b03938416965092909116935060009273668ae94d0870230ac007a01b471d02b2c94ddcb9926370a08231926024808201939291829003018186803b15801561058357600080fd5b505afa158015610597573d6000803e3d6000fd5b505050506040513d60208110156105ad57600080fd5b5051604080516318160ddd60e01b8152905191925060009173668ae94d0870230ac007a01b471d02b2c94ddcb9916318160ddd916004808301926020929190829003018186803b15801561060057600080fd5b505afa158015610614573d6000803e3d6000fd5b505050506040513d602081101561062a57600080fd5b5051905061063c8161046a8685610c6b565b61064a8261046a8686610c6b565b95509550505050509091565b73668ae94d0870230ac007a01b471d02b2c94ddcb981565b7349c93a95dbcc9a6a4d8f77e59c038ce5020e82f881565b60045481565b60055481565b61069a610d0f565b6000546001600160a01b039081169116146106fc576040805162461bcd60e51b815260206004820181905260248201527f4f776e61626c653a2063616c6c6572206973206e6f7420746865206f776e6572604482015290519081900360640190fd5b600080546040516001600160a01b03909116907f8be0079c531659141344cd1fd0a4f28419497f9722a3daafe3b4186f6b6457e0908390a3600080546001600160a01b0319169055565b6000546001600160a01b031690565b604080516370a0823160e01b815230600482015290516000916002917339b3bd37208cbade74d0fcbdbb12d606295b430a916370a08231916024808301926020929190829003018186803b1580156107ac57600080fd5b505afa1580156107c0573d6000803e3d6000fd5b505050506040513d60208110156107d657600080fd5b5051816107df57fe5b04905090565b60025481565b6004547349c93a95dbcc9a6a4d8f77e59c038ce5020e82f86001600160a01b0316630483a7f6336040518263ffffffff1660e01b815260040180826001600160a01b0316815260200191505060206040518083038186803b15801561084f57600080fd5b505afa158015610863573d6000803e3d6000fd5b505050506040513d602081101561087957600080fd5b505110156108c5576040805162461bcd60e51b81526020600482015260146024820152734e65656420746f206c6f636b20544f524555532160601b604482015290519081900360640190fd5b6108d181600654610d13565b60408051828152905133917f401d77fee42d0956b84fda240a2c5b12c0fe605ed0e021e1907aaa5bb0ad37ca919081900360200190a250565b61091333610301565b811115610967576040805162461bcd60e51b815260206004820152601960248201527f416d6f756e7420657863656564732075736572206c696d697400000000000000604482015290519081900360640190fd5b61097381600554610d13565b50565b600160208190526000918252604090912080549181015460029091015483565b61099e610d0f565b6000546001600160a01b03908116911614610a00576040805162461bcd60e51b815260206004820181905260248201527f4f776e61626c653a2063616c6c6572206973206e6f7420746865206f776e6572604482015290519081900360640190fd5b670de0b6b3a7640000841015610a1557600080fd5b600794909455600392909255600455600555600655565b60008073668ae94d0870230ac007a01b471d02b2c94ddcb96001600160a01b03166318160ddd6040518163ffffffff1660e01b815260040160206040518083038186803b158015610a7c57600080fd5b505afa158015610a90573d6000803e3d6000fd5b505050506040513d6020811015610aa657600080fd5b505160408051630240bc6b60e21b8152905191925060009173668ae94d0870230ac007a01b471d02b2c94ddcb991630902f1ac916004808301926060929190829003018186803b158015610af957600080fd5b505afa158015610b0d573d6000803e3d6000fd5b505050506040513d6060811015610b2357600080fd5b50516001600160701b03169050610b4e606461046a8381602d61046488670de0b6b3a7640000610c6b565b9250505090565b60065481565b610b63610d0f565b6000546001600160a01b03908116911614610bc5576040805162461bcd60e51b815260206004820181905260248201527f4f776e61626c653a2063616c6c6572206973206e6f7420746865206f776e6572604482015290519081900360640190fd5b6001600160a01b038116610c0a5760405162461bcd60e51b81526004018080602001828103825260268152602001806110bf6026913960400191505060405180910390fd5b600080546040516001600160a01b03808516939216917f8be0079c531659141344cd1fd0a4f28419497f9722a3daafe3b4186f6b6457e091a3600080546001600160a01b0319166001600160a01b0392909216919091179055565b60035481565b600082610c7a57506000610cc7565b82820282848281610c8757fe5b0414610cc45760405162461bcd60e51b81526004018080602001828103825260218152602001806110e56021913960400191505060405180910390fd5b90505b92915050565b6000610cc483836040518060400160405280601a81526020017f536166654d6174683a206469766973696f6e206279207a65726f000000000000815250610fc2565b3390565b600354821015610d61576040805162461bcd60e51b815260206004820152601460248201527310995b1bddc81b5a5b88189d5e48185b5bdd5b9d60621b604482015290519081900360640190fd5b6000610d81670de0b6b3a764000061046a610d7a610a2c565b8690610c6b565b604080516323b872dd60e01b815233600482015230602482015260448101839052905191925073668ae94d0870230ac007a01b471d02b2c94ddcb9916323b872dd916064808201926020929091908290030181600087803b158015610de557600080fd5b505af1158015610df9573d6000803e3d6000fd5b505050506040513d6020811015610e0f57600080fd5b50506040805163a9059cbb60e01b81523360048201526024810185905290517339b3bd37208cbade74d0fcbdbb12d606295b430a9163a9059cbb9160448083019260209291908290030181600087803b158015610e6b57600080fd5b505af1158015610e7f573d6000803e3d6000fd5b505050506040513d6020811015610e9557600080fd5b50506040805163a9059cbb60e01b81527349c93a95dbcc9a6a4d8f77e59c038ce5020e82f860048201526024810185905290517339b3bd37208cbade74d0fcbdbb12d606295b430a9163a9059cbb9160448083019260209291908290030181600087803b158015610f0557600080fd5b505af1158015610f19573d6000803e3d6000fd5b505050506040513d6020811015610f2f57600080fd5b5050336000908152600160205260409020610f4a4284611064565b8155600180820154610f5b91611064565b60018201556002810154610f6f9085611064565b60028083019190915554610f839085611064565b60025560408051858152905133917fd5e10681669a12e566fa5dde10ebec2f2ade55a7f730274c5d5463e8d48fa7d0919081900360200190a250505050565b6000818361104e5760405162461bcd60e51b81526004018080602001828103825283818151815260200191508051906020019080838360005b83811015611013578181015183820152602001610ffb565b50505050905090810190601f1680156110405780820380516001836020036101000a031916815260200191505b509250505060405180910390fd5b50600083858161105a57fe5b0495945050505050565b600082820183811015610cc4576040805162461bcd60e51b815260206004820152601b60248201527f536166654d6174683a206164646974696f6e206f766572666c6f770000000000604482015290519081900360640190fdfe4f776e61626c653a206e6577206f776e657220697320746865207a65726f2061646472657373536166654d6174683a206d756c7469706c69636174696f6e206f766572666c6f77a2646970667358221220770af8ea28c678cd73e4c3c11a4f096e63297746e40c63c0f9a5eb88322d95d064736f6c63430007060033",
  "linkReferences": {},
  "deployedLinkReferences": {}
}