{
  "_format": "hh-sol-artifact-1",
  "contractName": "PythPriceFeed",
  "sourceName": "contracts/misc/PythPriceFeed.sol",
  "abi": [
    {
      "inputs": [
        {
          "internalType": "contract IPyth",
          "name": "_oracle",
          "type": "address"
        },
        {
          "internalType": "bytes32",
          "name": "_priceId",
          "type": "bytes32"
        },
        {
          "internalType": "uint256",
          "name": "_timeout",
          "type": "uint256"
        }
      ],
      "stateMutability": "nonpayable",
      "type": "constructor"
    },
    {
      "anonymous": false,
      "inputs": [
        {
          "indexed": false,
          "internalType": "uint256",
          "name": "_lastGoodPrice",
          "type": "uint256"
        }
      ],
      "name": "LastGoodPriceUpdated",
      "type": "event"
    },
    {
      "anonymous": false,
      "inputs": [
        {
          "indexed": false,
          "internalType": "enum PythPriceFeed.Status",
          "name": "newStatus",
          "type": "uint8"
        }
      ],
      "name": "PriceFeedStatusChanged",
      "type": "event"
    },
    {
      "inputs": [],
      "name": "DECIMAL_PRECISION",
      "outputs": [
        {
          "internalType": "uint256",
          "name": "",
          "type": "uint256"
        }
      ],
      "stateMutability": "view",
      "type": "function"
    },
    {
      "inputs": [],
      "name": "MAX_PRICE_DEVIATION_FROM_PREVIOUS_ROUND",
      "outputs": [
        {
          "internalType": "uint256",
          "name": "",
          "type": "uint256"
        }
      ],
      "stateMutability": "view",
      "type": "function"
    },
    {
      "inputs": [],
      "name": "MAX_PRICE_DIFFERENCE_BETWEEN_ORACLES",
      "outputs": [
        {
          "internalType": "uint256",
          "name": "",
          "type": "uint256"
        }
      ],
      "stateMutability": "view",
      "type": "function"
    },
    {
      "inputs": [],
      "name": "TARGET_DIGITS",
      "outputs": [
        {
          "internalType": "uint256",
          "name": "",
          "type": "uint256"
        }
      ],
      "stateMutability": "view",
      "type": "function"
    },
    {
      "inputs": [],
      "name": "TIMEOUT",
      "outputs": [
        {
          "internalType": "uint256",
          "name": "",
          "type": "uint256"
        }
      ],
      "stateMutability": "view",
      "type": "function"
    },
    {
      "inputs": [],
      "name": "fetchPrice",
      "outputs": [
        {
          "internalType": "uint256",
          "name": "",
          "type": "uint256"
        }
      ],
      "stateMutability": "view",
      "type": "function"
    },
    {
      "inputs": [],
      "name": "lastGoodPrice",
      "outputs": [
        {
          "internalType": "uint256",
          "name": "",
          "type": "uint256"
        }
      ],
      "stateMutability": "view",
      "type": "function"
    },
    {
      "inputs": [],
      "name": "oracle",
      "outputs": [
        {
          "internalType": "contract IPyth",
          "name": "",
          "type": "address"
        }
      ],
      "stateMutability": "view",
      "type": "function"
    },
    {
      "inputs": [],
      "name": "priceId",
      "outputs": [
        {
          "internalType": "bytes32",
          "name": "",
          "type": "bytes32"
        }
      ],
      "stateMutability": "view",
      "type": "function"
    },
    {
      "inputs": [],
      "name": "status",
      "outputs": [
        {
          "internalType": "enum PythPriceFeed.Status",
          "name": "",
          "type": "uint8"
        }
      ],
      "stateMutability": "view",
      "type": "function"
    },
    {
      "inputs": [],
      "name": "updatePrice",
      "outputs": [
        {
          "internalType": "uint256",
          "name": "",
          "type": "uint256"
        }
      ],
      "stateMutability": "nonpayable",
      "type": "function"
    }
  ],
  "bytecode": "0x60a06040523480156200001157600080fd5b5060405162000e3538038062000e358339810160408190526200003491620004f2565b600080546001600160a01b0319166001600160a01b038516178155600183905560808290526003805460ff191690556200006d620000ed565b90506200007a81620001dd565b158015620000a4575081620000a28260200151426200023260201b6200024d1790919060201c565b105b620000cc5760405162461bcd60e51b8152600401620000c390620005c9565b60405180910390fd5b80516060820151620000df919062000285565b600255506200061492505050565b620000f7620004af565b6000546001546040516396834ad360e01b81526001600160a01b03909216916396834ad3916200012a91600401620005c0565b60806040518083038186803b1580156200014357600080fd5b505afa92505050801562000176575060408051601f3d908101601f19168201909252620001739181019062000535565b60015b6200018157620001da565b600080826040015160030b1215620001a1578160400151600003620001a7565b81604001515b8251909150620001bb9060070b8262000285565b8352606091820151602084015263ffffffff1690820152600160408201525b90565b60008160400151620001f2575060016200022d565b60208201511580620002075750428260200151115b1562000216575060016200022d565b815160001262000229575060016200022d565b5060005b919050565b60006200027c83836040518060400160405280601e81526020017f536166654d6174683a207375627472616374696f6e206f766572666c6f7700008152506200030360201b60201c565b90505b92915050565b60008060128363ffffffff1610620002c557620002bd60128463ffffffff1603600a0a856200039e60201b620002981790919060201c565b90506200027c565b60128363ffffffff1610156200027c57620002fb8363ffffffff16601203600a0a85620003e860201b620002da1790919060201c565b949350505050565b60008184841115620003965760405162461bcd60e51b81526004018080602001828103825283818151815260200191508051906020019080838360005b838110156200035a57818101518382015260200162000340565b50505050905090810190601f168015620003885780820380516001836020036101000a031916815260200191505b509250505060405180910390fd5b505050900390565b60006200027c83836040518060400160405280601a81526020017f536166654d6174683a206469766973696f6e206279207a65726f0000000000008152506200044660201b60201c565b600082620003f9575060006200027f565b828202828482816200040757fe5b04146200027c5760405162461bcd60e51b815260040180806020018281038252602181526020018062000e146021913960400191505060405180910390fd5b60008183620004985760405162461bcd60e51b81526020600482018181528351602484015283519092839260449091019190850190808383600083156200035a57818101518382015260200162000340565b506000838581620004a557fe5b0495945050505050565b60405180608001604052806000815260200160008152602001600015158152602001600063ffffffff1681525090565b8051600381900b81146200022d57600080fd5b60008060006060848603121562000507578283fd5b83516001600160a01b03811681146200051e578384fd5b602085015160409095015190969495509392505050565b60006080828403121562000547578081fd5b604051608081016001600160401b0380821183831017156200056557fe5b81604052845191508160070b82146200057c578384fd5b908252602084015190808216821462000593578384fd5b506020820152620005a760408401620004df565b6040820152606083015160608201528091505092915050565b90815260200190565b6020808252602b908201527f5072696365466565643a2050797468206d75737420626520776f726b696e672060408201526a185b990818dd5c9c995b9d60aa1b606082015260800190565b6080516107e0620006346000398061022b52806105ec52506107e06000f3fe608060405234801561001057600080fd5b50600436106100a95760003560e01c806345079cb41161007157806345079cb4146100f957806358a6aa8814610101578063673a7e28146101095780637dc0d1d014610111578063a20baee614610126578063f56f48f21461012e576100a9565b80630490be83146100ae5780630fdb11cf146100cc5780631be5c92f146100d4578063200d2ed2146100dc57806331189334146100f1575b600080fd5b6100b6610136565b6040516100c39190610758565b60405180910390f35b6100b661013c565b6100b661014f565b6100e4610154565b6040516100c39190610775565b6100b661015d565b6100b6610163565b6100b661016e565b6100b661017a565b61011961020e565b6040516100c39190610761565b6100b661021d565b6100b6610229565b60025481565b600080610147610333565b925050505b90565b601281565b60035460ff1681565b60015481565b66b1a2bc2ec5000081565b6706f05b59d3b2000081565b6000806000610187610333565b6002819055909250905081600181111561019d57fe5b60035460ff1660018111156101ae57fe5b14610208576003805483919060ff1916600183818111156101cb57fe5b02179055507f5c57579a8214fe4f710c1c56fa829f045b9fa6d225a744225a30c32188064d4e826040516101ff9190610775565b60405180910390a15b91505090565b6000546001600160a01b031681565b670de0b6b3a764000081565b7f000000000000000000000000000000000000000000000000000000000000000081565b600061028f83836040518060400160405280601e81526020017f536166654d6174683a207375627472616374696f6e206f766572666c6f7700008152506103ba565b90505b92915050565b600061028f83836040518060400160405280601a81526020017f536166654d6174683a206469766973696f6e206279207a65726f000000000000815250610451565b6000826102e957506000610292565b828202828482816102f657fe5b041461028f5760405162461bcd60e51b815260040180806020018281038252602181526020018061078a6021913960400191505060405180910390fd5b60008060006103406104b6565b9050600060035460ff16600181111561035557fe5b1415610392576103648161059a565b806103735750610373816105e8565b15610386575050600254600191506103b6565b516000925090506103b6565b600160035460ff1660018111156103a557fe5b14156103b4576103648161059a565b505b9091565b600081848411156104495760405162461bcd60e51b81526004018080602001828103825283818151815260200191508051906020019080838360005b8381101561040e5781810151838201526020016103f6565b50505050905090810190601f16801561043b5780820380516001836020036101000a031916815260200191505b509250505060405180910390fd5b505050900390565b600081836104a05760405162461bcd60e51b815260206004820181815283516024840152835190928392604490910191908501908083836000831561040e5781810151838201526020016103f6565b5060008385816104ac57fe5b0495945050505050565b6104be610690565b6000546001546040516396834ad360e01b81526001600160a01b03909216916396834ad3916104ef91600401610758565b60806040518083038186803b15801561050757600080fd5b505afa925050508015610537575060408051601f3d908101601f19168201909252610534918101906106d2565b60015b6105405761014c565b600080826040015160030b121561055e578160400151600003610564565b81604001515b9050610577826000015160070b82610629565b8352606091820151602084015263ffffffff16908201526001604082015261014c565b600081604001516105ad575060016105e3565b602082015115806105c15750428260200151115b156105ce575060016105e3565b81516000126105df575060016105e3565b5060005b919050565b60007f000000000000000000000000000000000000000000000000000000000000000061062283602001514261024d90919063ffffffff16565b1192915050565b60008060128363ffffffff16106106605761065960128463ffffffff1603600a0a8561029890919063ffffffff16565b905061028f565b60128363ffffffff16101561028f576106888463ffffffff808616601203600a0a906102da16565b949350505050565b60405180608001604052806000815260200160008152602001600015158152602001600063ffffffff1681525090565b8051600381900b81146105e357600080fd5b6000608082840312156106e3578081fd5b6040516080810167ffffffffffffffff828210818311171561070157fe5b81604052845191508160070b8214610717578384fd5b908252602084015190808216821461072d578384fd5b50602082015261073f604084016106c0565b6040820152606083015160608201528091505092915050565b90815260200190565b6001600160a01b0391909116815260200190565b602081016002831061078357fe5b9190529056fe536166654d6174683a206d756c7469706c69636174696f6e206f766572666c6f77a2646970667358221220622b66ada6d0cc44b27fa5fcc7ffa5ccb2daec5ac723d8354cd0a73535d162e864736f6c63430007060033536166654d6174683a206d756c7469706c69636174696f6e206f766572666c6f77",
  "linkReferences": {},
  "deployedLinkReferences": {}
}