{
  "_format": "hh-sol-artifact-1",
  "contractName": "StableAndVariableTokensHelper",
  "sourceName": "contracts/deployments/StableAndVariableTokensHelper.sol",
  "abi": [
    {
      "inputs": [
        {
          "internalType": "address payable",
          "name": "_pool",
          "type": "address"
        },
        {
          "internalType": "address",
          "name": "_addressesProvider",
          "type": "address"
        }
      ],
      "stateMutability": "nonpayable",
      "type": "constructor"
    },
    {
      "anonymous": false,
      "inputs": [
        {
          "indexed": true,
          "internalType": "address",
          "name": "previousOwner",
          "type": "address"
        },
        {
          "indexed": true,
          "internalType": "address",
          "name": "newOwner",
          "type": "address"
        }
      ],
      "name": "OwnershipTransferred",
      "type": "event"
    },
    {
      "anonymous": false,
      "inputs": [
        {
          "indexed": false,
          "internalType": "address",
          "name": "stableToken",
          "type": "address"
        },
        {
          "indexed": false,
          "internalType": "address",
          "name": "variableToken",
          "type": "address"
        }
      ],
      "name": "deployedContracts",
      "type": "event"
    },
    {
      "inputs": [
        {
          "internalType": "address[]",
          "name": "tokens",
          "type": "address[]"
        },
        {
          "internalType": "string[]",
          "name": "symbols",
          "type": "string[]"
        }
      ],
      "name": "initDeployment",
      "outputs": [],
      "stateMutability": "nonpayable",
      "type": "function"
    },
    {
      "inputs": [],
      "name": "owner",
      "outputs": [
        {
          "internalType": "address",
          "name": "",
          "type": "address"
        }
      ],
      "stateMutability": "view",
      "type": "function"
    },
    {
      "inputs": [],
      "name": "renounceOwnership",
      "outputs": [],
      "stateMutability": "nonpayable",
      "type": "function"
    },
    {
      "inputs": [
        {
          "internalType": "address[]",
          "name": "assets",
          "type": "address[]"
        },
        {
          "internalType": "uint256[]",
          "name": "rates",
          "type": "uint256[]"
        },
        {
          "internalType": "address",
          "name": "oracle",
          "type": "address"
        }
      ],
      "name": "setOracleBorrowRates",
      "outputs": [],
      "stateMutability": "nonpayable",
      "type": "function"
    },
    {
      "inputs": [
        {
          "internalType": "address",
          "name": "oracle",
          "type": "address"
        },
        {
          "internalType": "address",
          "name": "admin",
          "type": "address"
        }
      ],
      "name": "setOracleOwnership",
      "outputs": [],
      "stateMutability": "nonpayable",
      "type": "function"
    },
    {
      "inputs": [
        {
          "internalType": "address",
          "name": "newOwner",
          "type": "address"
        }
      ],
      "name": "transferOwnership",
      "outputs": [],
      "stateMutability": "nonpayable",
      "type": "function"
    }
  ],
  "bytecode": "0x608060405234801561001057600080fd5b5060405161465e38038061465e83398101604081905261002f916100b8565b60006100396100b4565b600080546001600160a01b0319166001600160a01b0383169081178255604051929350917f8be0079c531659141344cd1fd0a4f28419497f9722a3daafe3b4186f6b6457e0908290a350600180546001600160a01b039384166001600160a01b03199182161790915560028054929093169116179055610109565b3390565b600080604083850312156100ca578182fd5b82516100d5816100f1565b60208401519092506100e6816100f1565b809150509250929050565b6001600160a01b038116811461010657600080fd5b50565b614546806101186000396000f3fe608060405234801561001057600080fd5b50600436106100625760003560e01c806354fe1c9414610067578063563b1cb31461007c578063715018a61461008f5780638da5cb5b14610097578063c2d30321146100b5578063f2fde38b146100c8575b600080fd5b61007a61007536600461074e565b6100db565b005b61007a61008a366004610716565b610226565b61007a6103a7565b61009f610449565b6040516100ac9190610838565b60405180910390f35b61007a6100c33660046107b7565b610458565b61007a6100d63660046106d7565b610578565b6100e3610670565b6000546001600160a01b03908116911614610133576040805162461bcd60e51b815260206004820181905260248201526000805160206144f1833981519152604482015290519081900360640190fd5b82811461015b5760405162461bcd60e51b815260040161015290610912565b60405180910390fd5b6001546001600160a01b03166101835760405162461bcd60e51b81526004016101529061087f565b60005b8381101561021f577f1c1768aab1796270c7034dc781c2951065e6afb7a946269746521002443b8ea46040516101bb90610674565b604051809103906000f0801580156101d7573d6000803e3d6000fd5b506040516101e490610681565b604051809103906000f080158015610200573d6000803e3d6000fd5b5060405161020f92919061084c565b60405180910390a1600101610186565b5050505050565b61022e610670565b6000546001600160a01b0390811691161461027e576040805162461bcd60e51b815260206004820181905260248201526000805160206144f1833981519152604482015290519081900360640190fd5b6001600160a01b0381166102a45760405162461bcd60e51b8152600401610152906108e3565b306001600160a01b0316826001600160a01b0316638da5cb5b6040518163ffffffff1660e01b815260040160206040518083038186803b1580156102e757600080fd5b505afa1580156102fb573d6000803e3d6000fd5b505050506040513d601f19601f8201168201806040525081019061031f91906106fa565b6001600160a01b0316146103455760405162461bcd60e51b8152600401610152906108b6565b60405163f2fde38b60e01b81526001600160a01b0383169063f2fde38b90610371908490600401610838565b600060405180830381600087803b15801561038b57600080fd5b505af115801561039f573d6000803e3d6000fd5b505050505050565b6103af610670565b6000546001600160a01b039081169116146103ff576040805162461bcd60e51b815260206004820181905260248201526000805160206144f1833981519152604482015290519081900360640190fd5b600080546040516001600160a01b03909116907f8be0079c531659141344cd1fd0a4f28419497f9722a3daafe3b4186f6b6457e0908390a3600080546001600160a01b0319169055565b6000546001600160a01b031690565b610460610670565b6000546001600160a01b039081169116146104b0576040805162461bcd60e51b815260206004820181905260248201526000805160206144f1833981519152604482015290519081900360640190fd5b8382146104cf5760405162461bcd60e51b815260040161015290610912565b60005b8481101561039f57816001600160a01b03166372eb293d8787848181106104f557fe5b905060200201602081019061050a91906106d7565b86868581811061051657fe5b905060200201356040518363ffffffff1660e01b815260040161053a929190610866565b600060405180830381600087803b15801561055457600080fd5b505af1158015610568573d6000803e3d6000fd5b5050600190920191506104d29050565b610580610670565b6000546001600160a01b039081169116146105d0576040805162461bcd60e51b815260206004820181905260248201526000805160206144f1833981519152604482015290519081900360640190fd5b6001600160a01b0381166106155760405162461bcd60e51b81526004018080602001828103825260268152602001806144cb6026913960400191505060405180910390fd5b600080546040516001600160a01b03808516939216917f8be0079c531659141344cd1fd0a4f28419497f9722a3daafe3b4186f6b6457e091a3600080546001600160a01b0319166001600160a01b0392909216919091179055565b3390565b61205d8061095b83390190565b611b13806129b883390190565b60008083601f84011261069f578182fd5b50813567ffffffffffffffff8111156106b6578182fd5b60208301915083602080830285010111156106d057600080fd5b9250929050565b6000602082840312156106e8578081fd5b81356106f381610942565b9392505050565b60006020828403121561070b578081fd5b81516106f381610942565b60008060408385031215610728578081fd5b823561073381610942565b9150602083013561074381610942565b809150509250929050565b60008060008060408587031215610763578182fd5b843567ffffffffffffffff8082111561077a578384fd5b6107868883890161068e565b9096509450602087013591508082111561079e578384fd5b506107ab8782880161068e565b95989497509550505050565b6000806000806000606086880312156107ce578081fd5b853567ffffffffffffffff808211156107e5578283fd5b6107f189838a0161068e565b90975095506020880135915080821115610809578283fd5b506108168882890161068e565b909450925050604086013561082a81610942565b809150509295509295909350565b6001600160a01b0391909116815260200190565b6001600160a01b0392831681529116602082015260400190565b6001600160a01b03929092168252602082015260400190565b6020808252601c908201527f506f6f6c2063616e206e6f74206265207a65726f206164647265737300000000604082015260600190565b6020808252601390820152723432b63832b91034b9903737ba1037bbb732b960691b604082015260600190565b6020808252601590820152746f776e65722063616e206e6f74206265207a65726f60581b604082015260600190565b602080825260169082015275082e4e4c2f2e640dcdee840e6c2daca40d8cadccee8d60531b604082015260600190565b6001600160a01b038116811461095757600080fd5b5056fe608060405260006007553480156200001657600080fd5b50604080518082018252600e8082526d111150951513d2d15397d253541360921b60208084018281528551808701909652928552840152815191929160009162000064916003919062000098565b5081516200007a90600490602085019062000098565b506005805460ff191660ff9290921691909117905550620001449050565b828054600181600116156101000203166002900490600052602060002090601f016020900481019282620000d057600085556200011b565b82601f10620000eb57805160ff19168380011785556200011b565b828001600101855582156200011b579182015b828111156200011b578251825591602001919060010190620000fe565b50620001299291506200012d565b5090565b5b808211156200012957600081556001016200012e565b611f0980620001546000396000f3fe608060405234801561001057600080fd5b50600436106101c45760003560e01c80639dc29fac116100f9578063c222ec8a11610097578063e54f088011610071578063e54f0880146106f4578063e7484890146106fc578063e78c9b3b14610704578063f731e9be1461072a576101c4565b8063c222ec8a146104f7578063c634dfaa146106a0578063dd62ed3e146106c6576101c4565b8063b16a19de116100d3578063b16a19de1461047f578063b3f1c93d14610487578063b9a7b622146104c3578063c04a8a10146104cb576101c4565b80639dc29fac14610425578063a457c2d7146102f4578063a9059cbb14610453576101c4565b806370a0823111610166578063797743381161014057806379774338146103a057806379ce6b8c146103d557806390f6fcf21461041557806395d89b411461041d576101c4565b806370a082311461034e5780637535d2461461037457806375d2641314610398576101c4565b806323b872dd116101a257806323b872dd146102a0578063313ce567146102d657806339509351146102f45780636bd76d2414610320576101c4565b806306fdde03146101c9578063095ea7b31461024657806318160ddd14610286575b600080fd5b6101d161074b565b6040805160208082528351818301528351919283929083019185019080838360005b8381101561020b5781810151838201526020016101f3565b50505050905090810190601f1680156102385780820380516001836020036101000a031916815260200191505b509250505060405180910390f35b6102726004803603604081101561025c57600080fd5b506001600160a01b0381351690602001356107e1565b604080519115158252519081900360200190f35b61028e610829565b60408051918252519081900360200190f35b610272600480360360608110156102b657600080fd5b506001600160a01b0381358116916020810135909116906040013561083b565b6102de610883565b6040805160ff9092168252519081900360200190f35b6102726004803603604081101561030a57600080fd5b506001600160a01b03813516906020013561088c565b61028e6004803603604081101561033657600080fd5b506001600160a01b03813581169160200135166108db565b61028e6004803603602081101561036457600080fd5b50356001600160a01b0316610908565b61037c610982565b604080516001600160a01b039092168252519081900360200190f35b61037c610996565b6103a86109a0565b6040805194855260208501939093528383019190915264ffffffffff166060830152519081900360800190f35b6103fb600480360360208110156103eb57600080fd5b50356001600160a01b03166109d6565b6040805164ffffffffff9092168252519081900360200190f35b61028e6109f8565b6101d16109fe565b6104516004803603604081101561043b57600080fd5b506001600160a01b038135169060200135610a5f565b005b6102726004803603604081101561046957600080fd5b506001600160a01b03813516906020013561083b565b61037c610dc5565b6102726004803603608081101561049d57600080fd5b506001600160a01b03813581169160208101359091169060408101359060600135610dd4565b61028e61112c565b610451600480360360408110156104e157600080fd5b506001600160a01b038135169060200135611131565b610451600480360360e081101561050d57600080fd5b6001600160a01b038235811692602081013582169260408201359092169160ff606083013516919081019060a08101608082013564010000000081111561055357600080fd5b82018360208201111561056557600080fd5b8035906020019184600183028401116401000000008311171561058757600080fd5b91908080601f01602080910402602001604051908101604052809392919081815260200183838082843760009201919091525092959493602081019350359150506401000000008111156105da57600080fd5b8201836020820111156105ec57600080fd5b8035906020019184600183028401116401000000008311171561060e57600080fd5b91908080601f016020809104026020016040519081016040528093929190818152602001838380828437600092019190915250929594936020810193503591505064010000000081111561066157600080fd5b82018360208201111561067357600080fd5b8035906020019184600183028401116401000000008311171561069557600080fd5b5090925090506111cd565b61028e600480360360208110156106b657600080fd5b50356001600160a01b0316611460565b61028e600480360360408110156106dc57600080fd5b506001600160a01b038135811691602001351661088c565b61028e61146b565b6103fb6115dd565b61028e6004803603602081101561071a57600080fd5b50356001600160a01b03166115ea565b610732611605565b6040805192835260208301919091528051918290030190f35b60038054604080516020601f60026000196101006001881615020190951694909404938401819004810282018101909252828152606093909290918301828280156107d75780601f106107ac576101008083540402835291602001916107d7565b820191906000526020600020905b8154815290600101906020018083116107ba57829003601f168201915b5050505050905090565b6040805162461bcd60e51b81526020600482015260166024820152751054141493d5905317d393d517d4d5541413d495115160521b6044820152905160009181900360640190fd5b6000610836603c5461161e565b905090565b6040805162461bcd60e51b81526020600482015260166024820152751514905394d1915497d393d517d4d5541413d495115160521b6044820152905160009181900360640190fd5b60055460ff1690565b6040805162461bcd60e51b815260206004820152601760248201527f414c4c4f57414e43455f4e4f545f535550504f525445440000000000000000006044820152905160009181900360640190fd5b6001600160a01b038083166000908152603b60209081526040808320938516835292905220545b92915050565b60008061091483611666565b6001600160a01b0384166000908152603e6020526040902054909150816109405760009250505061097d565b6001600160a01b0384166000908152603d602052604081205461096b90839064ffffffffff16611681565b90506109778382611695565b93505050505b919050565b60055461010090046001600160a01b031690565b6000610836611753565b6000806000806000603c5490506109b561176b565b6109be8261161e565b603f54919790965091945064ffffffffff1692509050565b6001600160a01b03166000908152603d602052604090205464ffffffffff1690565b603c5490565b60048054604080516020601f60026000196101006001881615020190951694909404938401819004810282018101909252828152606093909290918301828280156107d75780601f106107ac576101008083540402835291602001916107d7565b610a67610982565b6001600160a01b0316610a78611771565b6001600160a01b03161460405180604001604052806002815260200161323960f01b81525090610b265760405162461bcd60e51b81526004018080602001828103825283818151815260200191508051906020019080838360005b83811015610aeb578181015183820152602001610ad3565b50505050905090810190601f168015610b185780820380516001836020036101000a031916815260200191505b509250505060405180910390fd5b50600080610b3384611775565b92509250506000610b42610829565b6001600160a01b0386166000908152603e6020526040812054919250908190868411610b77576000603c819055600255610bf9565b610b8184886117ce565b600281905591506000610b9f610b9686611810565b603c5490611695565b90506000610bb6610baf8a611810565b8490611695565b9050818110610bd25760006002819055603c8190559450610bf6565b610bee610bde85611810565b610be884846117ce565b9061188e565b603c81905594505b50505b85871415610c37576001600160a01b0388166000908152603e60209081526040808320839055603d9091529020805464ffffffffff19169055610c65565b6001600160a01b0388166000908152603d60205260409020805464ffffffffff19164264ffffffffff161790555b603f805464ffffffffff19164264ffffffffff1617905586851115610d05576000610c9086896117ce565b9050610c9d898287611995565b6040805182815260208101899052808201889052606081018490526080810186905260a0810185905290516001600160a01b038b169182917fc16f4e4ca34d790de4c656c72fd015c667d688f20be64eea360618545c4c530f9181900360c00190a350610d7a565b6000610d1188876117ce565b9050610d1e898287611a6c565b6040805182815260208101899052808201889052606081018690526080810185905290516001600160a01b038b16917f44bd20a79e993bdcc7cbedf54a3b4d19fb78490124b6b90d04fe3242eea579e8919081900360a00190a2505b6040805188815290516000916001600160a01b038b16917fddf252ad1be2c89b69c2b068fc378daa952ba7f163c4a11628f55a4df523b3ef9181900360200190a35050505050505050565b6006546001600160a01b031690565b6000610dde610982565b6001600160a01b0316610def611771565b6001600160a01b03161460405180604001604052806002815260200161323960f01b81525090610e605760405162461bcd60e51b8152602060048201818152835160248401528351909283926044909101919085019080838360008315610aeb578181015183820152602001610ad3565b50610e69611db4565b846001600160a01b0316866001600160a01b031614610e8d57610e8d858786611aae565b600080610e9987611775565b9250925050610ea6610829565b808452603c546080850152610ebb9087611b76565b60028190556020840152610ece86611810565b6040840152610f2c610ee8610ee38489611b76565b611810565b6040850151610be890610efb9089611695565b610f26610f0787611810565b6001600160a01b038d166000908152603e602052604090205490611695565b90611b76565b60608401819052604080518082019091526002815261373960f01b6020820152906fffffffffffffffffffffffffffffffff1015610fab5760405162461bcd60e51b8152602060048201818152835160248401528351909283926044909101919085019080838360008315610aeb578181015183820152602001610ad3565b5060608301516001600160a01b0388166000908152603e6020908152604080832093909355603d8152919020805464ffffffffff421664ffffffffff199182168117909255603f805490911690911790558301516110419061100c90611810565b610be861102686604001518961169590919063ffffffff16565b610f266110368860000151611810565b608089015190611695565b603c8190556080840152611060876110598884611b76565b8551611995565b6040805187815290516001600160a01b038916916000917fddf252ad1be2c89b69c2b068fc378daa952ba7f163c4a11628f55a4df523b3ef9181900360200190a3866001600160a01b0316886001600160a01b03167fc16f4e4ca34d790de4c656c72fd015c667d688f20be64eea360618545c4c530f888585886060015189608001518a6020015160405180878152602001868152602001858152602001848152602001838152602001828152602001965050505050505060405180910390a350159695505050505050565b600181565b80603b600061113e611771565b6001600160a01b0390811682526020808301939093526040918201600090812091871680825291909352912091909155611176611771565b6001600160a01b03167fda919360433220e13b51e8c211e490d148e61a3bd53de8c097194e458b97f3e16111a8610dc5565b604080516001600160a01b039092168252602082018690528051918290030190a35050565b60006111d7611bd0565b60085490915060ff16806111ee57506111ee611bd5565b806111fa575060075481115b6112355760405162461bcd60e51b815260040180806020018281038252602e815260200180611ea6602e913960400191505060405180910390fd5b60085460ff16158015611255576008805460ff1916600117905560078290555b61125e86611bdb565b61126785611bf2565b61127087611c05565b89600560016101000a8154816001600160a01b0302191690836001600160a01b0316021790555088600660006101000a8154816001600160a01b0302191690836001600160a01b0316021790555087603f60056101000a8154816001600160a01b0302191690836001600160a01b03160217905550896001600160a01b0316896001600160a01b03167f40251fbfb6656cfa65a00d7879029fec1fad21d28fdcff2f4f68f52795b74f2c8a8a8a8a8a8a60405180876001600160a01b031681526020018660ff168152602001806020018060200180602001848103845288818151815260200191508051906020019080838360005b8381101561137d578181015183820152602001611365565b50505050905090810190601f1680156113aa5780820380516001836020036101000a031916815260200191505b50848103835287518152875160209182019189019080838360005b838110156113dd5781810151838201526020016113c5565b50505050905090810190601f16801561140a5780820380516001836020036101000a031916815260200191505b508481038252858152602001868680828437600083820152604051601f909101601f19169092018290039b50909950505050505050505050a38015611454576008805460ff191690555b50505050505050505050565b600061090282611666565b600080600560019054906101000a90046001600160a01b03166001600160a01b031663fe65acfe6040518163ffffffff1660e01b815260040160206040518083038186803b1580156114bc57600080fd5b505afa1580156114d0573d6000803e3d6000fd5b505050506040513d60208110156114e657600080fd5b505160408051631f94a27560e31b815290519192506000916001600160a01b0384169163fca513a8916004808301926020929190829003018186803b15801561152e57600080fd5b505afa158015611542573d6000803e3d6000fd5b505050506040513d602081101561155857600080fd5b50516006546040805163b3596f0760e01b81526001600160a01b03928316600482015290519293509083169163b3596f0791602480820192602092909190829003018186803b1580156115aa57600080fd5b505afa1580156115be573d6000803e3d6000fd5b505050506040513d60208110156115d457600080fd5b50519250505090565b603f5464ffffffffff1690565b6001600160a01b03166000908152603e602052604090205490565b603c5460009081906116168161161e565b925090509091565b60008061162961176b565b90508061163a57600091505061097d565b603f5460009061165290859064ffffffffff16611681565b905061165e8282611695565b949350505050565b6001600160a01b031660009081526020819052604090205490565b600061168e838342611c1b565b9392505050565b60008215806116a2575081155b156116af57506000610902565b816b019d971e4fe8401e7400000019816116c557fe5b0483111560405180604001604052806002815260200161068760f31b815250906117305760405162461bcd60e51b8152602060048201818152835160248401528351909283926044909101919085019080838360008315610aeb578181015183820152602001610ad3565b50506b033b2e3c9fd0803ce800000091026b019d971e4fe8401e74000000010490565b603f546501000000000090046001600160a01b031690565b60025490565b3390565b60008060008061178485611666565b90508061179c576000806000935093509350506117c7565b60006117b1826117ab88610908565b906117ce565b9050816117be8183611b76565b90955093509150505b9193909250565b600061168e83836040518060400160405280601e81526020017f536166654d6174683a207375627472616374696f6e206f766572666c6f770000815250611cf1565b6000633b9aca0082810290839082041460405180604001604052806002815260200161068760f31b815250906118875760405162461bcd60e51b8152602060048201818152835160248401528351909283926044909101919085019080838360008315610aeb578181015183820152602001610ad3565b5092915050565b604080518082019091526002815261035360f41b6020820152600090826118f65760405162461bcd60e51b8152602060048201818152835160248401528351909283926044909101919085019080838360008315610aeb578181015183820152602001610ad3565b5060408051808201909152600280825261068760f31b60208301528304906b033b2e3c9fd0803ce80000008219048511156119725760405162461bcd60e51b8152602060048201818152835160248401528351909283926044909101919085019080838360008315610aeb578181015183820152602001610ad3565b5082816b033b2e3c9fd0803ce80000008602018161198c57fe5b04949350505050565b6001600160a01b0383166000908152602081905260409020546119b88184611b76565b6001600160a01b03808616600090815260208190526040902091909155603f546501000000000090041615611a6657603f54604080516318c39f1760e11b81526001600160a01b0387811660048301526024820185905260448201869052915165010000000000909304909116916331873e2e9160648082019260009290919082900301818387803b158015611a4d57600080fd5b505af1158015611a61573d6000803e3d6000fd5b505050505b50505050565b6001600160a01b038316600090815260208181526040918290205482518084019093526002835261038360f41b91830191909152906119b89082908590611cf1565b6040805180820182526002815261353960f01b6020808301919091526001600160a01b038087166000908152603b83528481209187168152915291822054611af7918490611cf1565b6001600160a01b038086166000818152603b60209081526040808320948916808452949091529020839055919250907fda919360433220e13b51e8c211e490d148e61a3bd53de8c097194e458b97f3e1611b4f610dc5565b604080516001600160a01b039092168252602082018690528051918290030190a350505050565b60008282018381101561168e576040805162461bcd60e51b815260206004820152601b60248201527f536166654d6174683a206164646974696f6e206f766572666c6f770000000000604482015290519081900360640190fd5b600190565b303b1590565b8051611bee906003906020840190611de3565b5050565b8051611bee906004906020840190611de3565b6005805460ff191660ff92909216919091179055565b600080611c2f8364ffffffffff86166117ce565b905080611c4657611c3e611d4b565b91505061168e565b6000198101600060028311611c5c576000611c61565b600283035b90506301e1338087046000611c768280611695565b90506000611c848284611695565b905060006002611c9e84611c988a8a611d5b565b90611d5b565b81611ca557fe5b04905060006006611cbc84611c9889818d8d611d5b565b81611cc357fe5b049050611ce181610f268481611cd98a8e611d5b565b610f26611d4b565b9c9b505050505050505050505050565b60008184841115611d435760405162461bcd60e51b8152602060048201818152835160248401528351909283926044909101919085019080838360008315610aeb578181015183820152602001610ad3565b505050900390565b6b033b2e3c9fd0803ce800000090565b600082611d6a57506000610902565b82820282848281611d7757fe5b041461168e5760405162461bcd60e51b8152600401808060200182810382526021815260200180611e856021913960400191505060405180910390fd5b6040518060a0016040528060008152602001600081526020016000815260200160008152602001600081525090565b828054600181600116156101000203166002900490600052602060002090601f016020900481019282611e195760008555611e5f565b82601f10611e3257805160ff1916838001178555611e5f565b82800160010185558215611e5f579182015b82811115611e5f578251825591602001919060010190611e44565b50611e6b929150611e6f565b5090565b5b80821115611e6b5760008155600101611e7056fe536166654d6174683a206d756c7469706c69636174696f6e206f766572666c6f77436f6e747261637420696e7374616e63652068617320616c7265616479206265656e20696e697469616c697a6564a26469706673582212206314f2539a7262ad5e322c54c63f907509d17d1334a91bc9b5db80d6e2bc975964736f6c63430007060033608060405260006007553480156200001657600080fd5b50604080518082018252600e8082526d111150951513d2d15397d253541360921b60208084018281528551808701909652928552840152815191929160009162000064916003919062000098565b5081516200007a90600490602085019062000098565b506005805460ff191660ff9290921691909117905550620001449050565b828054600181600116156101000203166002900490600052602060002090601f016020900481019282620000d057600085556200011b565b82601f10620000eb57805160ff19168380011785556200011b565b828001600101855582156200011b579182015b828111156200011b578251825591602001919060010190620000fe565b50620001299291506200012d565b5090565b5b808211156200012957600081556001016200012e565b6119bf80620001546000396000f3fe608060405234801561001057600080fd5b50600436106101585760003560e01c806395d89b41116100c3578063b9a7b6221161007c578063b9a7b62214610419578063c04a8a1014610421578063c222ec8a1461044f578063dd62ed3e146105f8578063e54f088014610626578063f5298aca1461062e57610158565b806395d89b4114610399578063a457c2d7146102ed578063a9059cbb146103a1578063b16a19de146103cd578063b1bf962d146103d5578063b3f1c93d146103dd57610158565b8063313ce56711610115578063313ce567146102cf57806339509351146102ed5780636bd76d241461031957806370a08231146103475780637535d2461461036d57806375d264131461039157610158565b806306fdde031461015d578063095ea7b3146101da5780630afbcdc91461021a57806318160ddd146102595780631da24f3e1461027357806323b872dd14610299575b600080fd5b610165610660565b6040805160208082528351818301528351919283929083019185019080838360005b8381101561019f578181015183820152602001610187565b50505050905090810190601f1680156101cc5780820380516001836020036101000a031916815260200191505b509250505060405180910390f35b610206600480360360408110156101f057600080fd5b506001600160a01b0381351690602001356106f6565b604080519115158252519081900360200190f35b6102406004803603602081101561023057600080fd5b50356001600160a01b031661073e565b6040805192835260208301919091528051918290030190f35b61026161075b565b60408051918252519081900360200190f35b6102616004803603602081101561028957600080fd5b50356001600160a01b03166107f4565b610206600480360360608110156102af57600080fd5b506001600160a01b03813581169160208101359091169060400135610807565b6102d761084f565b6040805160ff9092168252519081900360200190f35b6102066004803603604081101561030357600080fd5b506001600160a01b038135169060200135610858565b6102616004803603604081101561032f57600080fd5b506001600160a01b03813581169160200135166108a7565b6102616004803603602081101561035d57600080fd5b50356001600160a01b03166108d4565b610375610984565b604080516001600160a01b039092168252519081900360200190f35b610375610998565b6101656109a2565b610206600480360360408110156103b757600080fd5b506001600160a01b038135169060200135610807565b610375610a03565b610261610a12565b610206600480360360808110156103f357600080fd5b506001600160a01b03813581169160208101359091169060408101359060600135610a1c565b610261610c35565b61044d6004803603604081101561043757600080fd5b506001600160a01b038135169060200135610c3a565b005b61044d600480360360e081101561046557600080fd5b6001600160a01b038235811692602081013582169260408201359092169160ff606083013516919081019060a0810160808201356401000000008111156104ab57600080fd5b8201836020820111156104bd57600080fd5b803590602001918460018302840111640100000000831117156104df57600080fd5b91908080601f016020809104026020016040519081016040528093929190818152602001838380828437600092019190915250929594936020810193503591505064010000000081111561053257600080fd5b82018360208201111561054457600080fd5b8035906020019184600183028401116401000000008311171561056657600080fd5b91908080601f01602080910402602001604051908101604052809392919081815260200183838082843760009201919091525092959493602081019350359150506401000000008111156105b957600080fd5b8201836020820111156105cb57600080fd5b803590602001918460018302840111640100000000831117156105ed57600080fd5b509092509050610cd6565b6102616004803603604081101561060e57600080fd5b506001600160a01b0381358116916020013516610858565b610261610f69565b61044d6004803603606081101561064457600080fd5b506001600160a01b0381351690602081013590604001356110db565b60038054604080516020601f60026000196101006001881615020190951694909404938401819004810282018101909252828152606093909290918301828280156106ec5780601f106106c1576101008083540402835291602001916106ec565b820191906000526020600020905b8154815290600101906020018083116106cf57829003601f168201915b5050505050905090565b6040805162461bcd60e51b81526020600482015260166024820152751054141493d5905317d393d517d4d5541413d495115160521b6044820152905160009181900360640190fd5b60008061074a8361126f565b61075261128a565b91509150915091565b6005546006546040805163386497fd60e01b81526001600160a01b03928316600482015290516000936107ef93610100909104169163386497fd916024808301926020929190829003018186803b1580156107b557600080fd5b505afa1580156107c9573d6000803e3d6000fd5b505050506040513d60208110156107df57600080fd5b50516107e961128a565b90611290565b905090565b60006107ff8261126f565b90505b919050565b6040805162461bcd60e51b81526020600482015260166024820152751514905394d1915497d393d517d4d5541413d495115160521b6044820152905160009181900360640190fd5b60055460ff1690565b6040805162461bcd60e51b815260206004820152601760248201527f414c4c4f57414e43455f4e4f545f535550504f525445440000000000000000006044820152905160009181900360640190fd5b6001600160a01b038083166000908152603b60209081526040808320938516835292905220545b92915050565b6000806108e08361126f565b9050806108f1576000915050610802565b6005546006546040805163386497fd60e01b81526001600160a01b039283166004820152905161097d9361010090049092169163386497fd91602480820192602092909190829003018186803b15801561094a57600080fd5b505afa15801561095e573d6000803e3d6000fd5b505050506040513d602081101561097457600080fd5b50518290611290565b9392505050565b60055461010090046001600160a01b031690565b60006107ef61134e565b60048054604080516020601f60026000196101006001881615020190951694909404938401819004810282018101909252828152606093909290918301828280156106ec5780601f106106c1576101008083540402835291602001916106ec565b6006546001600160a01b031690565b60006107ef61128a565b6000610a26610984565b6001600160a01b0316610a3761135d565b6001600160a01b03161460405180604001604052806002815260200161323960f01b81525090610ae55760405162461bcd60e51b81526004018080602001828103825283818151815260200191508051906020019080838360005b83811015610aaa578181015183820152602001610a92565b50505050905090810190601f168015610ad75780820380516001836020036101000a031916815260200191505b509250505060405180910390fd5b50836001600160a01b0316856001600160a01b031614610b0a57610b0a848685611361565b6000610b158561126f565b90506000610b238585611429565b6040805180820190915260028152611a9b60f11b602082015290915081610b8b5760405162461bcd60e51b8152602060048201818152835160248401528351909283926044909101919085019080838360008315610aaa578181015183820152602001610a92565b50610b968682611530565b6040805186815290516001600160a01b038816916000917fddf252ad1be2c89b69c2b068fc378daa952ba7f163c4a11628f55a4df523b3ef9181900360200190a3856001600160a01b0316876001600160a01b03167f2f00e3cdd69a77be7ed215ec7b2a36784dd158f921fca79ac29deffa353fe6ee8787604051808381526020018281526020019250505060405180910390a3501595945050505050565b600181565b80603b6000610c4761135d565b6001600160a01b0390811682526020808301939093526040918201600090812091871680825291909352912091909155610c7f61135d565b6001600160a01b03167fda919360433220e13b51e8c211e490d148e61a3bd53de8c097194e458b97f3e1610cb1610a03565b604080516001600160a01b039092168252602082018690528051918290030190a35050565b6000610ce061168c565b60085490915060ff1680610cf75750610cf7611691565b80610d03575060075481115b610d3e5760405162461bcd60e51b815260040180806020018281038252602e81526020018061193b602e913960400191505060405180910390fd5b60085460ff16158015610d5e576008805460ff1916600117905560078290555b610d6786611697565b610d70856116ae565b610d79876116c1565b89600560016101000a8154816001600160a01b0302191690836001600160a01b0316021790555088600660006101000a8154816001600160a01b0302191690836001600160a01b0316021790555087603c60006101000a8154816001600160a01b0302191690836001600160a01b03160217905550896001600160a01b0316896001600160a01b03167f40251fbfb6656cfa65a00d7879029fec1fad21d28fdcff2f4f68f52795b74f2c8a8a8a8a8a8a60405180876001600160a01b031681526020018660ff168152602001806020018060200180602001848103845288818151815260200191508051906020019080838360005b83811015610e86578181015183820152602001610e6e565b50505050905090810190601f168015610eb35780820380516001836020036101000a031916815260200191505b50848103835287518152875160209182019189019080838360005b83811015610ee6578181015183820152602001610ece565b50505050905090810190601f168015610f135780820380516001836020036101000a031916815260200191505b508481038252858152602001868680828437600083820152604051601f909101601f19169092018290039b50909950505050505050505050a38015610f5d576008805460ff191690555b50505050505050505050565b600080600560019054906101000a90046001600160a01b03166001600160a01b031663fe65acfe6040518163ffffffff1660e01b815260040160206040518083038186803b158015610fba57600080fd5b505afa158015610fce573d6000803e3d6000fd5b505050506040513d6020811015610fe457600080fd5b505160408051631f94a27560e31b815290519192506000916001600160a01b0384169163fca513a8916004808301926020929190829003018186803b15801561102c57600080fd5b505afa158015611040573d6000803e3d6000fd5b505050506040513d602081101561105657600080fd5b50516006546040805163b3596f0760e01b81526001600160a01b03928316600482015290519293509083169163b3596f0791602480820192602092909190829003018186803b1580156110a857600080fd5b505afa1580156110bc573d6000803e3d6000fd5b505050506040513d60208110156110d257600080fd5b50519250505090565b6110e3610984565b6001600160a01b03166110f461135d565b6001600160a01b03161460405180604001604052806002815260200161323960f01b815250906111655760405162461bcd60e51b8152602060048201818152835160248401528351909283926044909101919085019080838360008315610aaa578181015183820152602001610a92565b5060006111728383611429565b60408051808201909152600281526106a760f31b6020820152909150816111da5760405162461bcd60e51b8152602060048201818152835160248401528351909283926044909101919085019080838360008315610aaa578181015183820152602001610a92565b506111e584826116d7565b6040805184815290516000916001600160a01b038716917fddf252ad1be2c89b69c2b068fc378daa952ba7f163c4a11628f55a4df523b3ef9181900360200190a3604080518481526020810184905281516001600160a01b038716927f49995e5dd6158cf69ad3e9777c46755a1a826a446c6416992167462dad033b2a928290030190a250505050565b6001600160a01b031660009081526020819052604090205490565b60025490565b600082158061129d575081155b156112aa575060006108ce565b816b019d971e4fe8401e7400000019816112c057fe5b0483111560405180604001604052806002815260200161068760f31b8152509061132b5760405162461bcd60e51b8152602060048201818152835160248401528351909283926044909101919085019080838360008315610aaa578181015183820152602001610a92565b50506b033b2e3c9fd0803ce800000091026b019d971e4fe8401e74000000010490565b603c546001600160a01b031690565b3390565b6040805180820182526002815261353960f01b6020808301919091526001600160a01b038087166000908152603b835284812091871681529152918220546113aa91849061177c565b6001600160a01b038086166000818152603b60209081526040808320948916808452949091529020839055919250907fda919360433220e13b51e8c211e490d148e61a3bd53de8c097194e458b97f3e1611402610a03565b604080516001600160a01b039092168252602082018690528051918290030190a350505050565b604080518082019091526002815261035360f41b6020820152600090826114915760405162461bcd60e51b8152602060048201818152835160248401528351909283926044909101919085019080838360008315610aaa578181015183820152602001610a92565b5060408051808201909152600280825261068760f31b60208301528304906b033b2e3c9fd0803ce800000082190485111561150d5760405162461bcd60e51b8152602060048201818152835160248401528351909283926044909101919085019080838360008315610aaa578181015183820152602001610a92565b5082816b033b2e3c9fd0803ce80000008602018161152757fe5b04949350505050565b6001600160a01b03821661158b576040805162461bcd60e51b815260206004820152601f60248201527f45524332303a206d696e7420746f20746865207a65726f206164647265737300604482015290519081900360640190fd5b611597600083836117d6565b6002546000906115a790836117db565b60028190556001600160a01b038416600090815260208190526040812054919250906115d390846117db565b6001600160a01b03851660009081526020819052604081208290559091506115f961134e565b6001600160a01b0316146116865761160f61134e565b6001600160a01b03166331873e2e8583856040518463ffffffff1660e01b815260040180846001600160a01b031681526020018381526020018281526020019350505050600060405180830381600087803b15801561166d57600080fd5b505af1158015611681573d6000803e3d6000fd5b505050505b50505050565b600190565b303b1590565b80516116aa906003906020840190611877565b5050565b80516116aa906004906020840190611877565b6005805460ff191660ff92909216919091179055565b6001600160a01b03821661171c5760405162461bcd60e51b81526004018080602001828103825260218152602001806119696021913960400191505060405180910390fd5b611728826000836117d6565b6002546000906117389083611835565b90508060028190555060006115d383604051806060016040528060228152602001611919602291396001600160a01b03871660009081526020819052604090205491905b600081848411156117ce5760405162461bcd60e51b8152602060048201818152835160248401528351909283926044909101919085019080838360008315610aaa578181015183820152602001610a92565b505050900390565b505050565b60008282018381101561097d576040805162461bcd60e51b815260206004820152601b60248201527f536166654d6174683a206164646974696f6e206f766572666c6f770000000000604482015290519081900360640190fd5b600061097d83836040518060400160405280601e81526020017f536166654d6174683a207375627472616374696f6e206f766572666c6f77000081525061177c565b828054600181600116156101000203166002900490600052602060002090601f0160209004810192826118ad57600085556118f3565b82601f106118c657805160ff19168380011785556118f3565b828001600101855582156118f3579182015b828111156118f35782518255916020019190600101906118d8565b506118ff929150611903565b5090565b5b808211156118ff576000815560010161190456fe45524332303a206275726e20616d6f756e7420657863656564732062616c616e6365436f6e747261637420696e7374616e63652068617320616c7265616479206265656e20696e697469616c697a656445524332303a206275726e2066726f6d20746865207a65726f2061646472657373a2646970667358221220f44ce0015c86115be0e7b3c4d0385e714642a37c2a74f7c020bb3a69e43dbbc664736f6c634300070600334f776e61626c653a206e6577206f776e657220697320746865207a65726f20616464726573734f776e61626c653a2063616c6c6572206973206e6f7420746865206f776e6572a2646970667358221220a1e2acc985f08b332debe57b7cfc2db1fb9d56199a1e60a29cc868323f8acd0b64736f6c63430007060033",
  "linkReferences": {},
  "deployedLinkReferences": {}
}