{
  "_format": "hh-sol-artifact-1",
  "contractName": "StableDebtToken",
  "sourceName": "contracts/protocol/tokenization/StableDebtToken.sol",
  "abi": [
    {
      "anonymous": false,
      "inputs": [
        {
          "indexed": true,
          "internalType": "address",
          "name": "owner",
          "type": "address"
        },
        {
          "indexed": true,
          "internalType": "address",
          "name": "spender",
          "type": "address"
        },
        {
          "indexed": false,
          "internalType": "uint256",
          "name": "value",
          "type": "uint256"
        }
      ],
      "name": "Approval",
      "type": "event"
    },
    {
      "anonymous": false,
      "inputs": [
        {
          "indexed": true,
          "internalType": "address",
          "name": "fromUser",
          "type": "address"
        },
        {
          "indexed": true,
          "internalType": "address",
          "name": "toUser",
          "type": "address"
        },
        {
          "indexed": false,
          "internalType": "address",
          "name": "asset",
          "type": "address"
        },
        {
          "indexed": false,
          "internalType": "uint256",
          "name": "amount",
          "type": "uint256"
        }
      ],
      "name": "BorrowAllowanceDelegated",
      "type": "event"
    },
    {
      "anonymous": false,
      "inputs": [
        {
          "indexed": true,
          "internalType": "address",
          "name": "user",
          "type": "address"
        },
        {
          "indexed": false,
          "internalType": "uint256",
          "name": "amount",
          "type": "uint256"
        },
        {
          "indexed": false,
          "internalType": "uint256",
          "name": "currentBalance",
          "type": "uint256"
        },
        {
          "indexed": false,
          "internalType": "uint256",
          "name": "balanceIncrease",
          "type": "uint256"
        },
        {
          "indexed": false,
          "internalType": "uint256",
          "name": "avgStableRate",
          "type": "uint256"
        },
        {
          "indexed": false,
          "internalType": "uint256",
          "name": "newTotalSupply",
          "type": "uint256"
        }
      ],
      "name": "Burn",
      "type": "event"
    },
    {
      "anonymous": false,
      "inputs": [
        {
          "indexed": true,
          "internalType": "address",
          "name": "underlyingAsset",
          "type": "address"
        },
        {
          "indexed": true,
          "internalType": "address",
          "name": "pool",
          "type": "address"
        },
        {
          "indexed": false,
          "internalType": "address",
          "name": "incentivesController",
          "type": "address"
        },
        {
          "indexed": false,
          "internalType": "uint8",
          "name": "debtTokenDecimals",
          "type": "uint8"
        },
        {
          "indexed": false,
          "internalType": "string",
          "name": "debtTokenName",
          "type": "string"
        },
        {
          "indexed": false,
          "internalType": "string",
          "name": "debtTokenSymbol",
          "type": "string"
        },
        {
          "indexed": false,
          "internalType": "bytes",
          "name": "params",
          "type": "bytes"
        }
      ],
      "name": "Initialized",
      "type": "event"
    },
    {
      "anonymous": false,
      "inputs": [
        {
          "indexed": true,
          "internalType": "address",
          "name": "user",
          "type": "address"
        },
        {
          "indexed": true,
          "internalType": "address",
          "name": "onBehalfOf",
          "type": "address"
        },
        {
          "indexed": false,
          "internalType": "uint256",
          "name": "amount",
          "type": "uint256"
        },
        {
          "indexed": false,
          "internalType": "uint256",
          "name": "currentBalance",
          "type": "uint256"
        },
        {
          "indexed": false,
          "internalType": "uint256",
          "name": "balanceIncrease",
          "type": "uint256"
        },
        {
          "indexed": false,
          "internalType": "uint256",
          "name": "newRate",
          "type": "uint256"
        },
        {
          "indexed": false,
          "internalType": "uint256",
          "name": "avgStableRate",
          "type": "uint256"
        },
        {
          "indexed": false,
          "internalType": "uint256",
          "name": "newTotalSupply",
          "type": "uint256"
        }
      ],
      "name": "Mint",
      "type": "event"
    },
    {
      "anonymous": false,
      "inputs": [
        {
          "indexed": true,
          "internalType": "address",
          "name": "from",
          "type": "address"
        },
        {
          "indexed": true,
          "internalType": "address",
          "name": "to",
          "type": "address"
        },
        {
          "indexed": false,
          "internalType": "uint256",
          "name": "value",
          "type": "uint256"
        }
      ],
      "name": "Transfer",
      "type": "event"
    },
    {
      "inputs": [],
      "name": "DEBT_TOKEN_REVISION",
      "outputs": [
        {
          "internalType": "uint256",
          "name": "",
          "type": "uint256"
        }
      ],
      "stateMutability": "view",
      "type": "function"
    },
    {
      "inputs": [],
      "name": "POOL",
      "outputs": [
        {
          "internalType": "contract ILendingPool",
          "name": "",
          "type": "address"
        }
      ],
      "stateMutability": "view",
      "type": "function"
    },
    {
      "inputs": [],
      "name": "UNDERLYING_ASSET_ADDRESS",
      "outputs": [
        {
          "internalType": "address",
          "name": "",
          "type": "address"
        }
      ],
      "stateMutability": "view",
      "type": "function"
    },
    {
      "inputs": [
        {
          "internalType": "address",
          "name": "owner",
          "type": "address"
        },
        {
          "internalType": "address",
          "name": "spender",
          "type": "address"
        }
      ],
      "name": "allowance",
      "outputs": [
        {
          "internalType": "uint256",
          "name": "",
          "type": "uint256"
        }
      ],
      "stateMutability": "view",
      "type": "function"
    },
    {
      "inputs": [
        {
          "internalType": "address",
          "name": "spender",
          "type": "address"
        },
        {
          "internalType": "uint256",
          "name": "amount",
          "type": "uint256"
        }
      ],
      "name": "approve",
      "outputs": [
        {
          "internalType": "bool",
          "name": "",
          "type": "bool"
        }
      ],
      "stateMutability": "nonpayable",
      "type": "function"
    },
    {
      "inputs": [
        {
          "internalType": "address",
          "name": "delegatee",
          "type": "address"
        },
        {
          "internalType": "uint256",
          "name": "amount",
          "type": "uint256"
        }
      ],
      "name": "approveDelegation",
      "outputs": [],
      "stateMutability": "nonpayable",
      "type": "function"
    },
    {
      "inputs": [
        {
          "internalType": "address",
          "name": "account",
          "type": "address"
        }
      ],
      "name": "balanceOf",
      "outputs": [
        {
          "internalType": "uint256",
          "name": "",
          "type": "uint256"
        }
      ],
      "stateMutability": "view",
      "type": "function"
    },
    {
      "inputs": [
        {
          "internalType": "address",
          "name": "fromUser",
          "type": "address"
        },
        {
          "internalType": "address",
          "name": "toUser",
          "type": "address"
        }
      ],
      "name": "borrowAllowance",
      "outputs": [
        {
          "internalType": "uint256",
          "name": "",
          "type": "uint256"
        }
      ],
      "stateMutability": "view",
      "type": "function"
    },
    {
      "inputs": [
        {
          "internalType": "address",
          "name": "user",
          "type": "address"
        },
        {
          "internalType": "uint256",
          "name": "amount",
          "type": "uint256"
        }
      ],
      "name": "burn",
      "outputs": [],
      "stateMutability": "nonpayable",
      "type": "function"
    },
    {
      "inputs": [],
      "name": "decimals",
      "outputs": [
        {
          "internalType": "uint8",
          "name": "",
          "type": "uint8"
        }
      ],
      "stateMutability": "view",
      "type": "function"
    },
    {
      "inputs": [
        {
          "internalType": "address",
          "name": "spender",
          "type": "address"
        },
        {
          "internalType": "uint256",
          "name": "subtractedValue",
          "type": "uint256"
        }
      ],
      "name": "decreaseAllowance",
      "outputs": [
        {
          "internalType": "bool",
          "name": "",
          "type": "bool"
        }
      ],
      "stateMutability": "nonpayable",
      "type": "function"
    },
    {
      "inputs": [],
      "name": "getAssetPrice",
      "outputs": [
        {
          "internalType": "uint256",
          "name": "",
          "type": "uint256"
        }
      ],
      "stateMutability": "view",
      "type": "function"
    },
    {
      "inputs": [],
      "name": "getAverageStableRate",
      "outputs": [
        {
          "internalType": "uint256",
          "name": "",
          "type": "uint256"
        }
      ],
      "stateMutability": "view",
      "type": "function"
    },
    {
      "inputs": [],
      "name": "getIncentivesController",
      "outputs": [
        {
          "internalType": "contract IAaveIncentivesController",
          "name": "",
          "type": "address"
        }
      ],
      "stateMutability": "view",
      "type": "function"
    },
    {
      "inputs": [],
      "name": "getSupplyData",
      "outputs": [
        {
          "internalType": "uint256",
          "name": "",
          "type": "uint256"
        },
        {
          "internalType": "uint256",
          "name": "",
          "type": "uint256"
        },
        {
          "internalType": "uint256",
          "name": "",
          "type": "uint256"
        },
        {
          "internalType": "uint40",
          "name": "",
          "type": "uint40"
        }
      ],
      "stateMutability": "view",
      "type": "function"
    },
    {
      "inputs": [],
      "name": "getTotalSupplyAndAvgRate",
      "outputs": [
        {
          "internalType": "uint256",
          "name": "",
          "type": "uint256"
        },
        {
          "internalType": "uint256",
          "name": "",
          "type": "uint256"
        }
      ],
      "stateMutability": "view",
      "type": "function"
    },
    {
      "inputs": [],
      "name": "getTotalSupplyLastUpdated",
      "outputs": [
        {
          "internalType": "uint40",
          "name": "",
          "type": "uint40"
        }
      ],
      "stateMutability": "view",
      "type": "function"
    },
    {
      "inputs": [
        {
          "internalType": "address",
          "name": "user",
          "type": "address"
        }
      ],
      "name": "getUserLastUpdated",
      "outputs": [
        {
          "internalType": "uint40",
          "name": "",
          "type": "uint40"
        }
      ],
      "stateMutability": "view",
      "type": "function"
    },
    {
      "inputs": [
        {
          "internalType": "address",
          "name": "user",
          "type": "address"
        }
      ],
      "name": "getUserStableRate",
      "outputs": [
        {
          "internalType": "uint256",
          "name": "",
          "type": "uint256"
        }
      ],
      "stateMutability": "view",
      "type": "function"
    },
    {
      "inputs": [
        {
          "internalType": "address",
          "name": "spender",
          "type": "address"
        },
        {
          "internalType": "uint256",
          "name": "addedValue",
          "type": "uint256"
        }
      ],
      "name": "increaseAllowance",
      "outputs": [
        {
          "internalType": "bool",
          "name": "",
          "type": "bool"
        }
      ],
      "stateMutability": "nonpayable",
      "type": "function"
    },
    {
      "inputs": [
        {
          "internalType": "contract ILendingPool",
          "name": "pool",
          "type": "address"
        },
        {
          "internalType": "address",
          "name": "underlyingAsset",
          "type": "address"
        },
        {
          "internalType": "contract IAaveIncentivesController",
          "name": "incentivesController",
          "type": "address"
        },
        {
          "internalType": "uint8",
          "name": "debtTokenDecimals",
          "type": "uint8"
        },
        {
          "internalType": "string",
          "name": "debtTokenName",
          "type": "string"
        },
        {
          "internalType": "string",
          "name": "debtTokenSymbol",
          "type": "string"
        },
        {
          "internalType": "bytes",
          "name": "params",
          "type": "bytes"
        }
      ],
      "name": "initialize",
      "outputs": [],
      "stateMutability": "nonpayable",
      "type": "function"
    },
    {
      "inputs": [
        {
          "internalType": "address",
          "name": "user",
          "type": "address"
        },
        {
          "internalType": "address",
          "name": "onBehalfOf",
          "type": "address"
        },
        {
          "internalType": "uint256",
          "name": "amount",
          "type": "uint256"
        },
        {
          "internalType": "uint256",
          "name": "rate",
          "type": "uint256"
        }
      ],
      "name": "mint",
      "outputs": [
        {
          "internalType": "bool",
          "name": "",
          "type": "bool"
        }
      ],
      "stateMutability": "nonpayable",
      "type": "function"
    },
    {
      "inputs": [],
      "name": "name",
      "outputs": [
        {
          "internalType": "string",
          "name": "",
          "type": "string"
        }
      ],
      "stateMutability": "view",
      "type": "function"
    },
    {
      "inputs": [
        {
          "internalType": "address",
          "name": "user",
          "type": "address"
        }
      ],
      "name": "principalBalanceOf",
      "outputs": [
        {
          "internalType": "uint256",
          "name": "",
          "type": "uint256"
        }
      ],
      "stateMutability": "view",
      "type": "function"
    },
    {
      "inputs": [],
      "name": "symbol",
      "outputs": [
        {
          "internalType": "string",
          "name": "",
          "type": "string"
        }
      ],
      "stateMutability": "view",
      "type": "function"
    },
    {
      "inputs": [],
      "name": "totalSupply",
      "outputs": [
        {
          "internalType": "uint256",
          "name": "",
          "type": "uint256"
        }
      ],
      "stateMutability": "view",
      "type": "function"
    },
    {
      "inputs": [
        {
          "internalType": "address",
          "name": "recipient",
          "type": "address"
        },
        {
          "internalType": "uint256",
          "name": "amount",
          "type": "uint256"
        }
      ],
      "name": "transfer",
      "outputs": [
        {
          "internalType": "bool",
          "name": "",
          "type": "bool"
        }
      ],
      "stateMutability": "nonpayable",
      "type": "function"
    },
    {
      "inputs": [
        {
          "internalType": "address",
          "name": "sender",
          "type": "address"
        },
        {
          "internalType": "address",
          "name": "recipient",
          "type": "address"
        },
        {
          "internalType": "uint256",
          "name": "amount",
          "type": "uint256"
        }
      ],
      "name": "transferFrom",
      "outputs": [
        {
          "internalType": "bool",
          "name": "",
          "type": "bool"
        }
      ],
      "stateMutability": "nonpayable",
      "type": "function"
    }
  ],
  "bytecode": "0x608060405260006007553480156200001657600080fd5b50604080518082018252600e8082526d111150951513d2d15397d253541360921b60208084018281528551808701909652928552840152815191929160009162000064916003919062000098565b5081516200007a90600490602085019062000098565b506005805460ff191660ff9290921691909117905550620001449050565b828054600181600116156101000203166002900490600052602060002090601f016020900481019282620000d057600085556200011b565b82601f10620000eb57805160ff19168380011785556200011b565b828001600101855582156200011b579182015b828111156200011b578251825591602001919060010190620000fe565b50620001299291506200012d565b5090565b5b808211156200012957600081556001016200012e565b611f0980620001546000396000f3fe608060405234801561001057600080fd5b50600436106101c45760003560e01c80639dc29fac116100f9578063c222ec8a11610097578063e54f088011610071578063e54f0880146106f4578063e7484890146106fc578063e78c9b3b14610704578063f731e9be1461072a576101c4565b8063c222ec8a146104f7578063c634dfaa146106a0578063dd62ed3e146106c6576101c4565b8063b16a19de116100d3578063b16a19de1461047f578063b3f1c93d14610487578063b9a7b622146104c3578063c04a8a10146104cb576101c4565b80639dc29fac14610425578063a457c2d7146102f4578063a9059cbb14610453576101c4565b806370a0823111610166578063797743381161014057806379774338146103a057806379ce6b8c146103d557806390f6fcf21461041557806395d89b411461041d576101c4565b806370a082311461034e5780637535d2461461037457806375d2641314610398576101c4565b806323b872dd116101a257806323b872dd146102a0578063313ce567146102d657806339509351146102f45780636bd76d2414610320576101c4565b806306fdde03146101c9578063095ea7b31461024657806318160ddd14610286575b600080fd5b6101d161074b565b6040805160208082528351818301528351919283929083019185019080838360005b8381101561020b5781810151838201526020016101f3565b50505050905090810190601f1680156102385780820380516001836020036101000a031916815260200191505b509250505060405180910390f35b6102726004803603604081101561025c57600080fd5b506001600160a01b0381351690602001356107e1565b604080519115158252519081900360200190f35b61028e610829565b60408051918252519081900360200190f35b610272600480360360608110156102b657600080fd5b506001600160a01b0381358116916020810135909116906040013561083b565b6102de610883565b6040805160ff9092168252519081900360200190f35b6102726004803603604081101561030a57600080fd5b506001600160a01b03813516906020013561088c565b61028e6004803603604081101561033657600080fd5b506001600160a01b03813581169160200135166108db565b61028e6004803603602081101561036457600080fd5b50356001600160a01b0316610908565b61037c610982565b604080516001600160a01b039092168252519081900360200190f35b61037c610996565b6103a86109a0565b6040805194855260208501939093528383019190915264ffffffffff166060830152519081900360800190f35b6103fb600480360360208110156103eb57600080fd5b50356001600160a01b03166109d6565b6040805164ffffffffff9092168252519081900360200190f35b61028e6109f8565b6101d16109fe565b6104516004803603604081101561043b57600080fd5b506001600160a01b038135169060200135610a5f565b005b6102726004803603604081101561046957600080fd5b506001600160a01b03813516906020013561083b565b61037c610dc5565b6102726004803603608081101561049d57600080fd5b506001600160a01b03813581169160208101359091169060408101359060600135610dd4565b61028e61112c565b610451600480360360408110156104e157600080fd5b506001600160a01b038135169060200135611131565b610451600480360360e081101561050d57600080fd5b6001600160a01b038235811692602081013582169260408201359092169160ff606083013516919081019060a08101608082013564010000000081111561055357600080fd5b82018360208201111561056557600080fd5b8035906020019184600183028401116401000000008311171561058757600080fd5b91908080601f01602080910402602001604051908101604052809392919081815260200183838082843760009201919091525092959493602081019350359150506401000000008111156105da57600080fd5b8201836020820111156105ec57600080fd5b8035906020019184600183028401116401000000008311171561060e57600080fd5b91908080601f016020809104026020016040519081016040528093929190818152602001838380828437600092019190915250929594936020810193503591505064010000000081111561066157600080fd5b82018360208201111561067357600080fd5b8035906020019184600183028401116401000000008311171561069557600080fd5b5090925090506111cd565b61028e600480360360208110156106b657600080fd5b50356001600160a01b0316611460565b61028e600480360360408110156106dc57600080fd5b506001600160a01b038135811691602001351661088c565b61028e61146b565b6103fb6115dd565b61028e6004803603602081101561071a57600080fd5b50356001600160a01b03166115ea565b610732611605565b6040805192835260208301919091528051918290030190f35b60038054604080516020601f60026000196101006001881615020190951694909404938401819004810282018101909252828152606093909290918301828280156107d75780601f106107ac576101008083540402835291602001916107d7565b820191906000526020600020905b8154815290600101906020018083116107ba57829003601f168201915b5050505050905090565b6040805162461bcd60e51b81526020600482015260166024820152751054141493d5905317d393d517d4d5541413d495115160521b6044820152905160009181900360640190fd5b6000610836603c5461161e565b905090565b6040805162461bcd60e51b81526020600482015260166024820152751514905394d1915497d393d517d4d5541413d495115160521b6044820152905160009181900360640190fd5b60055460ff1690565b6040805162461bcd60e51b815260206004820152601760248201527f414c4c4f57414e43455f4e4f545f535550504f525445440000000000000000006044820152905160009181900360640190fd5b6001600160a01b038083166000908152603b60209081526040808320938516835292905220545b92915050565b60008061091483611666565b6001600160a01b0384166000908152603e6020526040902054909150816109405760009250505061097d565b6001600160a01b0384166000908152603d602052604081205461096b90839064ffffffffff16611681565b90506109778382611695565b93505050505b919050565b60055461010090046001600160a01b031690565b6000610836611753565b6000806000806000603c5490506109b561176b565b6109be8261161e565b603f54919790965091945064ffffffffff1692509050565b6001600160a01b03166000908152603d602052604090205464ffffffffff1690565b603c5490565b60048054604080516020601f60026000196101006001881615020190951694909404938401819004810282018101909252828152606093909290918301828280156107d75780601f106107ac576101008083540402835291602001916107d7565b610a67610982565b6001600160a01b0316610a78611771565b6001600160a01b03161460405180604001604052806002815260200161323960f01b81525090610b265760405162461bcd60e51b81526004018080602001828103825283818151815260200191508051906020019080838360005b83811015610aeb578181015183820152602001610ad3565b50505050905090810190601f168015610b185780820380516001836020036101000a031916815260200191505b509250505060405180910390fd5b50600080610b3384611775565b92509250506000610b42610829565b6001600160a01b0386166000908152603e6020526040812054919250908190868411610b77576000603c819055600255610bf9565b610b8184886117ce565b600281905591506000610b9f610b9686611810565b603c5490611695565b90506000610bb6610baf8a611810565b8490611695565b9050818110610bd25760006002819055603c8190559450610bf6565b610bee610bde85611810565b610be884846117ce565b9061188e565b603c81905594505b50505b85871415610c37576001600160a01b0388166000908152603e60209081526040808320839055603d9091529020805464ffffffffff19169055610c65565b6001600160a01b0388166000908152603d60205260409020805464ffffffffff19164264ffffffffff161790555b603f805464ffffffffff19164264ffffffffff1617905586851115610d05576000610c9086896117ce565b9050610c9d898287611995565b6040805182815260208101899052808201889052606081018490526080810186905260a0810185905290516001600160a01b038b169182917fc16f4e4ca34d790de4c656c72fd015c667d688f20be64eea360618545c4c530f9181900360c00190a350610d7a565b6000610d1188876117ce565b9050610d1e898287611a6c565b6040805182815260208101899052808201889052606081018690526080810185905290516001600160a01b038b16917f44bd20a79e993bdcc7cbedf54a3b4d19fb78490124b6b90d04fe3242eea579e8919081900360a00190a2505b6040805188815290516000916001600160a01b038b16917fddf252ad1be2c89b69c2b068fc378daa952ba7f163c4a11628f55a4df523b3ef9181900360200190a35050505050505050565b6006546001600160a01b031690565b6000610dde610982565b6001600160a01b0316610def611771565b6001600160a01b03161460405180604001604052806002815260200161323960f01b81525090610e605760405162461bcd60e51b8152602060048201818152835160248401528351909283926044909101919085019080838360008315610aeb578181015183820152602001610ad3565b50610e69611db4565b846001600160a01b0316866001600160a01b031614610e8d57610e8d858786611aae565b600080610e9987611775565b9250925050610ea6610829565b808452603c546080850152610ebb9087611b76565b60028190556020840152610ece86611810565b6040840152610f2c610ee8610ee38489611b76565b611810565b6040850151610be890610efb9089611695565b610f26610f0787611810565b6001600160a01b038d166000908152603e602052604090205490611695565b90611b76565b60608401819052604080518082019091526002815261373960f01b6020820152906fffffffffffffffffffffffffffffffff1015610fab5760405162461bcd60e51b8152602060048201818152835160248401528351909283926044909101919085019080838360008315610aeb578181015183820152602001610ad3565b5060608301516001600160a01b0388166000908152603e6020908152604080832093909355603d8152919020805464ffffffffff421664ffffffffff199182168117909255603f805490911690911790558301516110419061100c90611810565b610be861102686604001518961169590919063ffffffff16565b610f266110368860000151611810565b608089015190611695565b603c8190556080840152611060876110598884611b76565b8551611995565b6040805187815290516001600160a01b038916916000917fddf252ad1be2c89b69c2b068fc378daa952ba7f163c4a11628f55a4df523b3ef9181900360200190a3866001600160a01b0316886001600160a01b03167fc16f4e4ca34d790de4c656c72fd015c667d688f20be64eea360618545c4c530f888585886060015189608001518a6020015160405180878152602001868152602001858152602001848152602001838152602001828152602001965050505050505060405180910390a350159695505050505050565b600181565b80603b600061113e611771565b6001600160a01b0390811682526020808301939093526040918201600090812091871680825291909352912091909155611176611771565b6001600160a01b03167fda919360433220e13b51e8c211e490d148e61a3bd53de8c097194e458b97f3e16111a8610dc5565b604080516001600160a01b039092168252602082018690528051918290030190a35050565b60006111d7611bd0565b60085490915060ff16806111ee57506111ee611bd5565b806111fa575060075481115b6112355760405162461bcd60e51b815260040180806020018281038252602e815260200180611ea6602e913960400191505060405180910390fd5b60085460ff16158015611255576008805460ff1916600117905560078290555b61125e86611bdb565b61126785611bf2565b61127087611c05565b89600560016101000a8154816001600160a01b0302191690836001600160a01b0316021790555088600660006101000a8154816001600160a01b0302191690836001600160a01b0316021790555087603f60056101000a8154816001600160a01b0302191690836001600160a01b03160217905550896001600160a01b0316896001600160a01b03167f40251fbfb6656cfa65a00d7879029fec1fad21d28fdcff2f4f68f52795b74f2c8a8a8a8a8a8a60405180876001600160a01b031681526020018660ff168152602001806020018060200180602001848103845288818151815260200191508051906020019080838360005b8381101561137d578181015183820152602001611365565b50505050905090810190601f1680156113aa5780820380516001836020036101000a031916815260200191505b50848103835287518152875160209182019189019080838360005b838110156113dd5781810151838201526020016113c5565b50505050905090810190601f16801561140a5780820380516001836020036101000a031916815260200191505b508481038252858152602001868680828437600083820152604051601f909101601f19169092018290039b50909950505050505050505050a38015611454576008805460ff191690555b50505050505050505050565b600061090282611666565b600080600560019054906101000a90046001600160a01b03166001600160a01b031663fe65acfe6040518163ffffffff1660e01b815260040160206040518083038186803b1580156114bc57600080fd5b505afa1580156114d0573d6000803e3d6000fd5b505050506040513d60208110156114e657600080fd5b505160408051631f94a27560e31b815290519192506000916001600160a01b0384169163fca513a8916004808301926020929190829003018186803b15801561152e57600080fd5b505afa158015611542573d6000803e3d6000fd5b505050506040513d602081101561155857600080fd5b50516006546040805163b3596f0760e01b81526001600160a01b03928316600482015290519293509083169163b3596f0791602480820192602092909190829003018186803b1580156115aa57600080fd5b505afa1580156115be573d6000803e3d6000fd5b505050506040513d60208110156115d457600080fd5b50519250505090565b603f5464ffffffffff1690565b6001600160a01b03166000908152603e602052604090205490565b603c5460009081906116168161161e565b925090509091565b60008061162961176b565b90508061163a57600091505061097d565b603f5460009061165290859064ffffffffff16611681565b905061165e8282611695565b949350505050565b6001600160a01b031660009081526020819052604090205490565b600061168e838342611c1b565b9392505050565b60008215806116a2575081155b156116af57506000610902565b816b019d971e4fe8401e7400000019816116c557fe5b0483111560405180604001604052806002815260200161068760f31b815250906117305760405162461bcd60e51b8152602060048201818152835160248401528351909283926044909101919085019080838360008315610aeb578181015183820152602001610ad3565b50506b033b2e3c9fd0803ce800000091026b019d971e4fe8401e74000000010490565b603f546501000000000090046001600160a01b031690565b60025490565b3390565b60008060008061178485611666565b90508061179c576000806000935093509350506117c7565b60006117b1826117ab88610908565b906117ce565b9050816117be8183611b76565b90955093509150505b9193909250565b600061168e83836040518060400160405280601e81526020017f536166654d6174683a207375627472616374696f6e206f766572666c6f770000815250611cf1565b6000633b9aca0082810290839082041460405180604001604052806002815260200161068760f31b815250906118875760405162461bcd60e51b8152602060048201818152835160248401528351909283926044909101919085019080838360008315610aeb578181015183820152602001610ad3565b5092915050565b604080518082019091526002815261035360f41b6020820152600090826118f65760405162461bcd60e51b8152602060048201818152835160248401528351909283926044909101919085019080838360008315610aeb578181015183820152602001610ad3565b5060408051808201909152600280825261068760f31b60208301528304906b033b2e3c9fd0803ce80000008219048511156119725760405162461bcd60e51b8152602060048201818152835160248401528351909283926044909101919085019080838360008315610aeb578181015183820152602001610ad3565b5082816b033b2e3c9fd0803ce80000008602018161198c57fe5b04949350505050565b6001600160a01b0383166000908152602081905260409020546119b88184611b76565b6001600160a01b03808616600090815260208190526040902091909155603f546501000000000090041615611a6657603f54604080516318c39f1760e11b81526001600160a01b0387811660048301526024820185905260448201869052915165010000000000909304909116916331873e2e9160648082019260009290919082900301818387803b158015611a4d57600080fd5b505af1158015611a61573d6000803e3d6000fd5b505050505b50505050565b6001600160a01b038316600090815260208181526040918290205482518084019093526002835261038360f41b91830191909152906119b89082908590611cf1565b6040805180820182526002815261353960f01b6020808301919091526001600160a01b038087166000908152603b83528481209187168152915291822054611af7918490611cf1565b6001600160a01b038086166000818152603b60209081526040808320948916808452949091529020839055919250907fda919360433220e13b51e8c211e490d148e61a3bd53de8c097194e458b97f3e1611b4f610dc5565b604080516001600160a01b039092168252602082018690528051918290030190a350505050565b60008282018381101561168e576040805162461bcd60e51b815260206004820152601b60248201527f536166654d6174683a206164646974696f6e206f766572666c6f770000000000604482015290519081900360640190fd5b600190565b303b1590565b8051611bee906003906020840190611de3565b5050565b8051611bee906004906020840190611de3565b6005805460ff191660ff92909216919091179055565b600080611c2f8364ffffffffff86166117ce565b905080611c4657611c3e611d4b565b91505061168e565b6000198101600060028311611c5c576000611c61565b600283035b90506301e1338087046000611c768280611695565b90506000611c848284611695565b905060006002611c9e84611c988a8a611d5b565b90611d5b565b81611ca557fe5b04905060006006611cbc84611c9889818d8d611d5b565b81611cc357fe5b049050611ce181610f268481611cd98a8e611d5b565b610f26611d4b565b9c9b505050505050505050505050565b60008184841115611d435760405162461bcd60e51b8152602060048201818152835160248401528351909283926044909101919085019080838360008315610aeb578181015183820152602001610ad3565b505050900390565b6b033b2e3c9fd0803ce800000090565b600082611d6a57506000610902565b82820282848281611d7757fe5b041461168e5760405162461bcd60e51b8152600401808060200182810382526021815260200180611e856021913960400191505060405180910390fd5b6040518060a0016040528060008152602001600081526020016000815260200160008152602001600081525090565b828054600181600116156101000203166002900490600052602060002090601f016020900481019282611e195760008555611e5f565b82601f10611e3257805160ff1916838001178555611e5f565b82800160010185558215611e5f579182015b82811115611e5f578251825591602001919060010190611e44565b50611e6b929150611e6f565b5090565b5b80821115611e6b5760008155600101611e7056fe536166654d6174683a206d756c7469706c69636174696f6e206f766572666c6f77436f6e747261637420696e7374616e63652068617320616c7265616479206265656e20696e697469616c697a6564a26469706673582212206314f2539a7262ad5e322c54c63f907509d17d1334a91bc9b5db80d6e2bc975964736f6c63430007060033",
  "linkReferences": {},
  "deployedLinkReferences": {}
}