{
  "_format": "hh-sol-artifact-1",
  "contractName": "StakingConfigurator",
  "sourceName": "contracts/staking/StakingConfigurator.sol",
  "abi": [
    {
      "anonymous": false,
      "inputs": [
        {
          "indexed": true,
          "internalType": "address",
          "name": "newAddress",
          "type": "address"
        }
      ],
      "name": "ChefIncentivesControllerUpdated",
      "type": "event"
    },
    {
      "anonymous": false,
      "inputs": [
        {
          "indexed": true,
          "internalType": "address",
          "name": "newAddress",
          "type": "address"
        }
      ],
      "name": "MasterChefUpdated",
      "type": "event"
    },
    {
      "anonymous": false,
      "inputs": [
        {
          "indexed": true,
          "internalType": "address",
          "name": "newAddress",
          "type": "address"
        }
      ],
      "name": "MultiFeeDistributionUpdated",
      "type": "event"
    },
    {
      "anonymous": false,
      "inputs": [
        {
          "indexed": true,
          "internalType": "address",
          "name": "newAddress",
          "type": "address"
        }
      ],
      "name": "ProtocolRevenueDistributionUpdated",
      "type": "event"
    },
    {
      "anonymous": false,
      "inputs": [
        {
          "indexed": false,
          "internalType": "bytes32",
          "name": "id",
          "type": "bytes32"
        },
        {
          "indexed": true,
          "internalType": "address",
          "name": "newAddress",
          "type": "address"
        }
      ],
      "name": "ProxyCreated",
      "type": "event"
    },
    {
      "inputs": [
        {
          "internalType": "bytes32",
          "name": "id",
          "type": "bytes32"
        }
      ],
      "name": "getAddress",
      "outputs": [
        {
          "internalType": "address",
          "name": "",
          "type": "address"
        }
      ],
      "stateMutability": "view",
      "type": "function"
    },
    {
      "inputs": [],
      "name": "getChefIncentivesController",
      "outputs": [
        {
          "internalType": "address",
          "name": "",
          "type": "address"
        }
      ],
      "stateMutability": "view",
      "type": "function"
    },
    {
      "inputs": [],
      "name": "getMasterChef",
      "outputs": [
        {
          "internalType": "address",
          "name": "",
          "type": "address"
        }
      ],
      "stateMutability": "view",
      "type": "function"
    },
    {
      "inputs": [],
      "name": "getMultiFeeDistribution",
      "outputs": [
        {
          "internalType": "address",
          "name": "",
          "type": "address"
        }
      ],
      "stateMutability": "view",
      "type": "function"
    },
    {
      "inputs": [],
      "name": "getProtocolRevenueDistribution",
      "outputs": [
        {
          "internalType": "address",
          "name": "",
          "type": "address"
        }
      ],
      "stateMutability": "view",
      "type": "function"
    },
    {
      "inputs": [
        {
          "internalType": "contract ILendingPoolAddressesProvider",
          "name": "provider",
          "type": "address"
        }
      ],
      "name": "initialize",
      "outputs": [],
      "stateMutability": "nonpayable",
      "type": "function"
    },
    {
      "inputs": [
        {
          "internalType": "address",
          "name": "impl",
          "type": "address"
        },
        {
          "internalType": "bytes",
          "name": "initParams",
          "type": "bytes"
        }
      ],
      "name": "setChefIncentivesControllerImpl",
      "outputs": [],
      "stateMutability": "nonpayable",
      "type": "function"
    },
    {
      "inputs": [
        {
          "internalType": "address",
          "name": "impl",
          "type": "address"
        },
        {
          "internalType": "bytes",
          "name": "initParams",
          "type": "bytes"
        }
      ],
      "name": "setMasterChefImpl",
      "outputs": [],
      "stateMutability": "nonpayable",
      "type": "function"
    },
    {
      "inputs": [
        {
          "internalType": "address",
          "name": "impl",
          "type": "address"
        },
        {
          "internalType": "bytes",
          "name": "initParams",
          "type": "bytes"
        }
      ],
      "name": "setMultiFeeDistributionImpl",
      "outputs": [],
      "stateMutability": "nonpayable",
      "type": "function"
    },
    {
      "inputs": [
        {
          "internalType": "address",
          "name": "impl",
          "type": "address"
        },
        {
          "internalType": "bytes",
          "name": "initParams",
          "type": "bytes"
        }
      ],
      "name": "setProtocolRevenueDistributionImpl",
      "outputs": [],
      "stateMutability": "nonpayable",
      "type": "function"
    }
  ],
  "bytecode": "0x60806040526000805534801561001457600080fd5b50611386806100246000396000f3fe608060405234801561001057600080fd5b506004361061009e5760003560e01c8063ae80d87f11610066578063ae80d87f14610104578063afeb1e9214610117578063b56449631461011f578063b777202714610127578063c4d66de81461013a5761009e565b806321f8a721146100a35780635543d119146100cc57806358a04d60146100e157806397335004146100e9578063a423b9a8146100f1575b600080fd5b6100b66100b1366004610abc565b61014d565b6040516100c39190610b3b565b60405180910390f35b6100df6100da366004610a3c565b610168565b005b6100b66102c4565b6100b66102f4565b6100df6100ff366004610a3c565b610318565b6100df610112366004610a3c565b610472565b6100b66105ba565b6100b66105e5565b6100df610135366004610a3c565b6105fe565b6100df610148366004610ad4565b610758565b6000908152603560205260409020546001600160a01b031690565b603454604080516315d9b46f60e31b8152905133926001600160a01b03169163aecda378916004808301926020929190829003018186803b1580156101ac57600080fd5b505afa1580156101c0573d6000803e3d6000fd5b505050506040513d601f19601f820116820180604052508101906101e49190610a19565b6001600160a01b03161460405180604001604052806002815260200161333360f01b815250906102305760405162461bcd60e51b81526004016102279190610b84565b60405180910390fd5b5061028b7526aaa62a24afa322a2afa224a9aa2924a12aaa24a7a760511b8484848080601f01602080910402602001604051908101604052809392919081815260200183838082843760009201919091525061081092505050565b6040516001600160a01b038416907f1b74f60877eea07aaaf12242ee43f5f5f6626cd8b0e1fa9a0b5f535b53a7008090600090a2505050565b60006102ef7f434845465f494e43454e54495645535f434f4e54524f4c4c455200000000000061014d565b905090565b60006102ef7526aaa62a24afa322a2afa224a9aa2924a12aaa24a7a760511b61014d565b603454604080516315d9b46f60e31b8152905133926001600160a01b03169163aecda378916004808301926020929190829003018186803b15801561035c57600080fd5b505afa158015610370573d6000803e3d6000fd5b505050506040513d601f19601f820116820180604052508101906103949190610a19565b6001600160a01b03161460405180604001604052806002815260200161333360f01b815250906103d75760405162461bcd60e51b81526004016102279190610b84565b506104397f50524f544f434f4c5f524556454e55455f444953545249425554494f4e0000008484848080601f01602080910402602001604051908101604052809392919081815260200183838082843760009201919091525061081092505050565b6040516001600160a01b038416907f36a34baeffeb2d58c20c5b5d4b110fa26b407e8839f0535b8e2a3b8bc23641b090600090a2505050565b603454604080516315d9b46f60e31b8152905133926001600160a01b03169163aecda378916004808301926020929190829003018186803b1580156104b657600080fd5b505afa1580156104ca573d6000803e3d6000fd5b505050506040513d601f19601f820116820180604052508101906104ee9190610a19565b6001600160a01b03161460405180604001604052806002815260200161333360f01b815250906105315760405162461bcd60e51b81526004016102279190610b84565b506105816a26a0a9aa22a92fa1a422a360a91b8484848080601f01602080910402602001604051908101604052809392919081815260200183838082843760009201919091525061081092505050565b6040516001600160a01b038416907f81a36fe9b39dd1ec6c6088c25c475a726400a49babc257cd9357c679ea05f84d90600090a2505050565b60006102ef7f50524f544f434f4c5f524556454e55455f444953545249425554494f4e00000061014d565b60006102ef6a26a0a9aa22a92fa1a422a360a91b61014d565b603454604080516315d9b46f60e31b8152905133926001600160a01b03169163aecda378916004808301926020929190829003018186803b15801561064257600080fd5b505afa158015610656573d6000803e3d6000fd5b505050506040513d601f19601f8201168201806040525081019061067a9190610a19565b6001600160a01b03161460405180604001604052806002815260200161333360f01b815250906106bd5760405162461bcd60e51b81526004016102279190610b84565b5061071f7f434845465f494e43454e54495645535f434f4e54524f4c4c45520000000000008484848080601f01602080910402602001604051908101604052809392919081815260200183838082843760009201919091525061081092505050565b6040516001600160a01b038416907f3edc4c109bdc9b34f00f24744f770e8de831fd903d0fc75d4d990d5d81b75b9890600090a2505050565b6000610762610a01565b60015490915060ff16806107795750610779610a06565b80610785575060005481115b6107c05760405162461bcd60e51b815260040180806020018281038252602e815260200180611323602e913960400191505060405180910390fd5b60015460ff161580156107df576001805460ff19168117905560008290555b603480546001600160a01b0319166001600160a01b038516179055801561080b576001805460ff191690555b505050565b6000838152603560205260409020546001600160a01b0316808061092f573060405161083b90610a0c565b6108459190610b3b565b604051809103906000f080158015610861573d6000803e3d6000fd5b5060405163347d5e2560e21b81529091506001600160a01b0382169063d1f57894906108939087908790600401610b4f565b600060405180830381600087803b1580156108ad57600080fd5b505af11580156108c1573d6000803e3d6000fd5b5050506000868152603560205260409081902080546001600160a01b0319166001600160a01b03851690811790915590519091507f1eb35cb4b5bbb23d152f3b4016a5a46c37a07ae930ed0956aba951e23114243890610922908890610b7b565b60405180910390a26109fa565b82511561099b5760405163278f794360e11b81526001600160a01b03821690634f1ef286906109649087908790600401610b4f565b600060405180830381600087803b15801561097e57600080fd5b505af1158015610992573d6000803e3d6000fd5b505050506109fa565b604051631b2ce7f360e11b81526001600160a01b03821690633659cfe6906109c7908790600401610b3b565b600060405180830381600087803b1580156109e157600080fd5b505af11580156109f5573d6000803e3d6000fd5b505050505b5050505050565b600190565b303b1590565b61077380610bb083390190565b600060208284031215610a2a578081fd5b8151610a3581610b97565b9392505050565b600080600060408486031215610a50578182fd5b8335610a5b81610b97565b9250602084013567ffffffffffffffff80821115610a77578384fd5b818601915086601f830112610a8a578384fd5b813581811115610a98578485fd5b876020828501011115610aa9578485fd5b6020830194508093505050509250925092565b600060208284031215610acd578081fd5b5035919050565b600060208284031215610ae5578081fd5b8135610a3581610b97565b60008151808452815b81811015610b1557602081850181015186830182015201610af9565b81811115610b265782602083870101525b50601f01601f19169290920160200192915050565b6001600160a01b0391909116815260200190565b6001600160a01b0383168152604060208201819052600090610b7390830184610af0565b949350505050565b90815260200190565b600060208252610a356020830184610af0565b6001600160a01b0381168114610bac57600080fd5b5056fe60a060405234801561001057600080fd5b506040516107733803806107738339818101604052602081101561003357600080fd5b5051606081901b6001600160601b0319166080526001600160a01b03166106f36100806000398061022852806102725280610331528061045e528061048752806105af52506106f36000f3fe60806040526004361061004a5760003560e01c80633659cfe6146100545780634f1ef286146100875780635c60da1b14610107578063d1f5789414610138578063f851a440146101ee575b610052610203565b005b34801561006057600080fd5b506100526004803603602081101561007757600080fd5b50356001600160a01b031661021d565b6100526004803603604081101561009d57600080fd5b6001600160a01b0382351691908101906040810160208201356401000000008111156100c857600080fd5b8201836020820111156100da57600080fd5b803590602001918460018302840111640100000000831117156100fc57600080fd5b509092509050610267565b34801561011357600080fd5b5061011c610324565b604080516001600160a01b039092168252519081900360200190f35b6100526004803603604081101561014e57600080fd5b6001600160a01b03823516919081019060408101602082013564010000000081111561017957600080fd5b82018360208201111561018b57600080fd5b803590602001918460018302840111640100000000831117156101ad57600080fd5b91908080601f016020809104026020016040519081016040528093929190818152602001838380828437600092019190915250929550610371945050505050565b3480156101fa57600080fd5b5061011c610451565b61020b6104ab565b61021b6102166104b3565b6104d8565b565b336001600160a01b037f000000000000000000000000000000000000000000000000000000000000000016141561025c57610257816104fc565b610264565b610264610203565b50565b336001600160a01b037f0000000000000000000000000000000000000000000000000000000000000000161415610317576102a1836104fc565b6000836001600160a01b031683836040518083838082843760405192019450600093509091505080830381855af49150503d80600081146102fe576040519150601f19603f3d011682016040523d82523d6000602084013e610303565b606091505b505090508061031157600080fd5b5061031f565b61031f610203565b505050565b6000336001600160a01b037f00000000000000000000000000000000000000000000000000000000000000001614156103665761035f6104b3565b905061036e565b61036e610203565b90565b600061037b6104b3565b6001600160a01b03161461038e57600080fd5b6103978261053c565b80511561044d576000826001600160a01b0316826040518082805190602001908083835b602083106103da5780518252601f1990920191602091820191016103bb565b6001836020036101000a038019825116818451168082178552505050505050905001915050600060405180830381855af49150503d806000811461043a576040519150601f19603f3d011682016040523d82523d6000602084013e61043f565b606091505b505090508061031f57600080fd5b5050565b6000336001600160a01b037f000000000000000000000000000000000000000000000000000000000000000016141561036657507f000000000000000000000000000000000000000000000000000000000000000061036e565b61021b6105a4565b7f360894a13ba1a3210667c828492db98dca3e2076cc3735a920a3ca505d382bbc5490565b3660008037600080366000845af43d6000803e8080156104f7573d6000f35b3d6000fd5b6105058161053c565b6040516001600160a01b038216907fbc7cd75a20ee27fd9adebab32041f755214dbc6bffa90cc0225b39da2e5c2d3b90600090a250565b61054581610614565b6105805760405162461bcd60e51b815260040180806020018281038252603b815260200180610683603b913960400191505060405180910390fd5b7f360894a13ba1a3210667c828492db98dca3e2076cc3735a920a3ca505d382bbc55565b336001600160a01b037f000000000000000000000000000000000000000000000000000000000000000016141561060c5760405162461bcd60e51b81526004018080602001828103825260328152602001806106516032913960400191505060405180910390fd5b61021b61021b565b6000813f7fc5d2460186f7233c927e7db2dcc703c0e500b653ca82273b7bfad8045d85a47081811480159061064857508115155b94935050505056fe43616e6e6f742063616c6c2066616c6c6261636b2066756e6374696f6e2066726f6d207468652070726f78792061646d696e43616e6e6f742073657420612070726f787920696d706c656d656e746174696f6e20746f2061206e6f6e2d636f6e74726163742061646472657373a2646970667358221220354176803b54436ecdaea6509259ddd412b0447c3107a85e8ae96b5f8424f8e564736f6c63430007060033436f6e747261637420696e7374616e63652068617320616c7265616479206265656e20696e697469616c697a6564a26469706673582212204da294a7861f97c72b40180d9b056a0bd467ed090f4437e2748495621daf86de64736f6c63430007060033",
  "linkReferences": {},
  "deployedLinkReferences": {}
}