{
  "_format": "hh-sol-artifact-1",
  "contractName": "TokenVesting",
  "sourceName": "contracts/staking/TokenVesting.sol",
  "abi": [
    {
      "inputs": [
        {
          "internalType": "contract IMultiFeeDistribution",
          "name": "_minter",
          "type": "address"
        },
        {
          "internalType": "uint256",
          "name": "_maxMintable",
          "type": "uint256"
        },
        {
          "internalType": "address[]",
          "name": "_receivers",
          "type": "address[]"
        },
        {
          "internalType": "uint256[]",
          "name": "_amounts",
          "type": "uint256[]"
        },
        {
          "internalType": "uint256[]",
          "name": "_durations",
          "type": "uint256[]"
        }
      ],
      "stateMutability": "nonpayable",
      "type": "constructor"
    },
    {
      "inputs": [
        {
          "internalType": "address",
          "name": "_receiver",
          "type": "address"
        }
      ],
      "name": "claim",
      "outputs": [],
      "stateMutability": "nonpayable",
      "type": "function"
    },
    {
      "inputs": [
        {
          "internalType": "address",
          "name": "_claimer",
          "type": "address"
        }
      ],
      "name": "claimable",
      "outputs": [
        {
          "internalType": "uint256",
          "name": "",
          "type": "uint256"
        }
      ],
      "stateMutability": "view",
      "type": "function"
    },
    {
      "inputs": [],
      "name": "maxMintableTokens",
      "outputs": [
        {
          "internalType": "uint256",
          "name": "",
          "type": "uint256"
        }
      ],
      "stateMutability": "view",
      "type": "function"
    },
    {
      "inputs": [],
      "name": "mintedTokens",
      "outputs": [
        {
          "internalType": "uint256",
          "name": "",
          "type": "uint256"
        }
      ],
      "stateMutability": "view",
      "type": "function"
    },
    {
      "inputs": [],
      "name": "minter",
      "outputs": [
        {
          "internalType": "contract IMultiFeeDistribution",
          "name": "",
          "type": "address"
        }
      ],
      "stateMutability": "view",
      "type": "function"
    },
    {
      "inputs": [],
      "name": "owner",
      "outputs": [
        {
          "internalType": "address",
          "name": "",
          "type": "address"
        }
      ],
      "stateMutability": "view",
      "type": "function"
    },
    {
      "inputs": [],
      "name": "start",
      "outputs": [],
      "stateMutability": "nonpayable",
      "type": "function"
    },
    {
      "inputs": [],
      "name": "startTime",
      "outputs": [
        {
          "internalType": "uint256",
          "name": "",
          "type": "uint256"
        }
      ],
      "stateMutability": "view",
      "type": "function"
    },
    {
      "inputs": [
        {
          "internalType": "address",
          "name": "",
          "type": "address"
        }
      ],
      "name": "vests",
      "outputs": [
        {
          "internalType": "uint256",
          "name": "duration",
          "type": "uint256"
        },
        {
          "internalType": "uint256",
          "name": "total",
          "type": "uint256"
        },
        {
          "internalType": "uint256",
          "name": "claimed",
          "type": "uint256"
        }
      ],
      "stateMutability": "view",
      "type": "function"
    }
  ],
  "bytecode": "0x60a060405234801561001057600080fd5b50604051610a6e380380610a6e833981810160405260a081101561003357600080fd5b8151602083015160408085018051915193959294830192918464010000000082111561005e57600080fd5b90830190602082018581111561007357600080fd5b825186602082028301116401000000008211171561009057600080fd5b82525081516020918201928201910280838360005b838110156100bd5781810151838201526020016100a5565b50505050905001604052602001805160405193929190846401000000008211156100e657600080fd5b9083019060208201858111156100fb57600080fd5b825186602082028301116401000000008211171561011857600080fd5b82525081516020918201928201910280838360005b8381101561014557818101518382015260200161012d565b505050509050016040526020018051604051939291908464010000000082111561016e57600080fd5b90830190602082018581111561018357600080fd5b82518660208202830111640100000000821117156101a057600080fd5b82525081516020918201928201910280838360005b838110156101cd5781810151838201526020016101b5565b5050505090500160405250505081518351146101e857600080fd5b600280546001600160a01b0319166001600160a01b0387161790556000805b8451811015610347576004600086838151811061022057fe5b60200260200101516001600160a01b03166001600160a01b031681526020019081526020016000206001015460001461025857600080fd5b600083828151811061026657fe5b60200260200101511161027857600080fd5b6102a284828151811061028757fe5b60200260200101518361037460201b6103e71790919060201c565b91508381815181106102b057fe5b6020026020010151600460008784815181106102c857fe5b60200260200101516001600160a01b03166001600160a01b031681526020019081526020016000206001018190555082818151811061030357fe5b60200260200101516004600087848151811061031b57fe5b6020908102919091018101516001600160a01b0316825281019190915260400160002055600101610207565b5084811461035457600080fd5b6080525050600380546001600160a01b03191633179055506103d5915050565b6000828201838110156103ce576040805162461bcd60e51b815260206004820152601b60248201527f536166654d6174683a206164646974696f6e206f766572666c6f770000000000604482015290519081900360640190fd5b9392505050565b60805161067a6103f4600039806101995280610252525061067a6000f3fe608060405234801561001057600080fd5b50600436106100935760003560e01c80635c712bc0116100665780635c712bc01461012457806378e97925146101685780638d75fe05146101705780638da5cb5b14610178578063be9a65551461018057610093565b806307546172146100985780631a848e01146100bc5780631e83409a146100d6578063402914f5146100fe575b600080fd5b6100a0610188565b604080516001600160a01b039092168252519081900360200190f35b6100c4610197565b60408051918252519081900360200190f35b6100fc600480360360208110156100ec57600080fd5b50356001600160a01b03166101bb565b005b6100c46004803603602081101561011457600080fd5b50356001600160a01b03166102fd565b61014a6004803603602081101561013a57600080fd5b50356001600160a01b0316610381565b60408051938452602084019290925282820152519081900360600190f35b6100c46103a2565b6100c46103a8565b6100a06103ae565b6100fc6103bd565b6002546001600160a01b031681565b7f000000000000000000000000000000000000000000000000000000000000000081565b6000546101c757600080fd5b33600090815260046020526040812081549091906101e690429061044a565b82549091508111156101f6575080545b815460018301546000916102149161020e908561048c565b906104e5565b905082600201548111156102f757600061023b84600201548361044a90919063ffffffff16565b60015490915061024b90826103e7565b60018190557f0000000000000000000000000000000000000000000000000000000000000000101561027c57600080fd5b600254604080516334686fad60e21b81526001600160a01b03888116600483015260248201859052600060448301819052925193169263d1a1beb49260648084019391929182900301818387803b1580156102d657600080fd5b505af11580156102ea573d6000803e3d6000fd5b5050505060028401829055505b50505050565b6000805461030d5750600061037c565b6001600160a01b0382166000908152600460205260408120815490919061033590429061044a565b8254909150811115610345575080545b8154600183015460009161035d9161020e908561048c565b905061037683600201548261044a90919063ffffffff16565b93505050505b919050565b60046020526000908152604090208054600182015460029092015490919083565b60005481565b60015481565b6003546001600160a01b031681565b6003546001600160a01b031633146103d457600080fd5b600054156103e157600080fd5b42600055565b600082820183811015610441576040805162461bcd60e51b815260206004820152601b60248201527f536166654d6174683a206164646974696f6e206f766572666c6f770000000000604482015290519081900360640190fd5b90505b92915050565b600061044183836040518060400160405280601e81526020017f536166654d6174683a207375627472616374696f6e206f766572666c6f770000815250610527565b60008261049b57506000610444565b828202828482816104a857fe5b04146104415760405162461bcd60e51b81526004018080602001828103825260218152602001806106246021913960400191505060405180910390fd5b600061044183836040518060400160405280601a81526020017f536166654d6174683a206469766973696f6e206279207a65726f0000000000008152506105be565b600081848411156105b65760405162461bcd60e51b81526004018080602001828103825283818151815260200191508051906020019080838360005b8381101561057b578181015183820152602001610563565b50505050905090810190601f1680156105a85780820380516001836020036101000a031916815260200191505b509250505060405180910390fd5b505050900390565b6000818361060d5760405162461bcd60e51b815260206004820181815283516024840152835190928392604490910191908501908083836000831561057b578181015183820152602001610563565b50600083858161061957fe5b049594505050505056fe536166654d6174683a206d756c7469706c69636174696f6e206f766572666c6f77a2646970667358221220433364f7dc70ee0ea12459b4bae9c245c61970d7576214b40e1ef220882ef13364736f6c63430007060033",
  "linkReferences": {},
  "deployedLinkReferences": {}
}