{
  "_format": "hh-sol-artifact-1",
  "contractName": "UiPoolDataProvider",
  "sourceName": "contracts/misc/UiPoolDataProvider.sol",
  "abi": [
    {
      "inputs": [
        {
          "internalType": "contract IAaveIncentivesController",
          "name": "_incentivesController",
          "type": "address"
        },
        {
          "internalType": "contract IPriceOracleGetter",
          "name": "_oracle",
          "type": "address"
        }
      ],
      "stateMutability": "nonpayable",
      "type": "constructor"
    },
    {
      "inputs": [],
      "name": "MOCK_USD_ADDRESS",
      "outputs": [
        {
          "internalType": "address",
          "name": "",
          "type": "address"
        }
      ],
      "stateMutability": "view",
      "type": "function"
    },
    {
      "inputs": [
        {
          "internalType": "contract ILendingPoolAddressesProvider",
          "name": "provider",
          "type": "address"
        },
        {
          "internalType": "address",
          "name": "user",
          "type": "address"
        }
      ],
      "name": "getReservesData",
      "outputs": [
        {
          "components": [
            {
              "internalType": "address",
              "name": "underlyingAsset",
              "type": "address"
            },
            {
              "internalType": "string",
              "name": "name",
              "type": "string"
            },
            {
              "internalType": "string",
              "name": "symbol",
              "type": "string"
            },
            {
              "internalType": "uint256",
              "name": "decimals",
              "type": "uint256"
            },
            {
              "internalType": "uint256",
              "name": "baseLTVasCollateral",
              "type": "uint256"
            },
            {
              "internalType": "uint256",
              "name": "reserveLiquidationThreshold",
              "type": "uint256"
            },
            {
              "internalType": "uint256",
              "name": "reserveLiquidationBonus",
              "type": "uint256"
            },
            {
              "internalType": "uint256",
              "name": "reserveFactor",
              "type": "uint256"
            },
            {
              "internalType": "bool",
              "name": "usageAsCollateralEnabled",
              "type": "bool"
            },
            {
              "internalType": "bool",
              "name": "borrowingEnabled",
              "type": "bool"
            },
            {
              "internalType": "bool",
              "name": "stableBorrowRateEnabled",
              "type": "bool"
            },
            {
              "internalType": "bool",
              "name": "isActive",
              "type": "bool"
            },
            {
              "internalType": "bool",
              "name": "isFrozen",
              "type": "bool"
            },
            {
              "internalType": "uint128",
              "name": "liquidityIndex",
              "type": "uint128"
            },
            {
              "internalType": "uint128",
              "name": "variableBorrowIndex",
              "type": "uint128"
            },
            {
              "internalType": "uint128",
              "name": "liquidityRate",
              "type": "uint128"
            },
            {
              "internalType": "uint128",
              "name": "variableBorrowRate",
              "type": "uint128"
            },
            {
              "internalType": "uint128",
              "name": "stableBorrowRate",
              "type": "uint128"
            },
            {
              "internalType": "uint40",
              "name": "lastUpdateTimestamp",
              "type": "uint40"
            },
            {
              "internalType": "address",
              "name": "aTokenAddress",
              "type": "address"
            },
            {
              "internalType": "address",
              "name": "stableDebtTokenAddress",
              "type": "address"
            },
            {
              "internalType": "address",
              "name": "variableDebtTokenAddress",
              "type": "address"
            },
            {
              "internalType": "address",
              "name": "interestRateStrategyAddress",
              "type": "address"
            },
            {
              "internalType": "uint256",
              "name": "availableLiquidity",
              "type": "uint256"
            },
            {
              "internalType": "uint256",
              "name": "totalPrincipalStableDebt",
              "type": "uint256"
            },
            {
              "internalType": "uint256",
              "name": "averageStableRate",
              "type": "uint256"
            },
            {
              "internalType": "uint256",
              "name": "stableDebtLastUpdateTimestamp",
              "type": "uint256"
            },
            {
              "internalType": "uint256",
              "name": "totalScaledVariableDebt",
              "type": "uint256"
            },
            {
              "internalType": "uint256",
              "name": "priceInEth",
              "type": "uint256"
            },
            {
              "internalType": "uint256",
              "name": "variableRateSlope1",
              "type": "uint256"
            },
            {
              "internalType": "uint256",
              "name": "variableRateSlope2",
              "type": "uint256"
            },
            {
              "internalType": "uint256",
              "name": "stableRateSlope1",
              "type": "uint256"
            },
            {
              "internalType": "uint256",
              "name": "stableRateSlope2",
              "type": "uint256"
            },
            {
              "internalType": "uint256",
              "name": "aEmissionPerSecond",
              "type": "uint256"
            },
            {
              "internalType": "uint256",
              "name": "vEmissionPerSecond",
              "type": "uint256"
            },
            {
              "internalType": "uint256",
              "name": "sEmissionPerSecond",
              "type": "uint256"
            },
            {
              "internalType": "uint256",
              "name": "aIncentivesLastUpdateTimestamp",
              "type": "uint256"
            },
            {
              "internalType": "uint256",
              "name": "vIncentivesLastUpdateTimestamp",
              "type": "uint256"
            },
            {
              "internalType": "uint256",
              "name": "sIncentivesLastUpdateTimestamp",
              "type": "uint256"
            },
            {
              "internalType": "uint256",
              "name": "aTokenIncentivesIndex",
              "type": "uint256"
            },
            {
              "internalType": "uint256",
              "name": "vTokenIncentivesIndex",
              "type": "uint256"
            },
            {
              "internalType": "uint256",
              "name": "sTokenIncentivesIndex",
              "type": "uint256"
            }
          ],
          "internalType": "struct IUiPoolDataProvider.AggregatedReserveData[]",
          "name": "",
          "type": "tuple[]"
        },
        {
          "components": [
            {
              "internalType": "address",
              "name": "underlyingAsset",
              "type": "address"
            },
            {
              "internalType": "uint256",
              "name": "scaledATokenBalance",
              "type": "uint256"
            },
            {
              "internalType": "bool",
              "name": "usageAsCollateralEnabledOnUser",
              "type": "bool"
            },
            {
              "internalType": "uint256",
              "name": "stableBorrowRate",
              "type": "uint256"
            },
            {
              "internalType": "uint256",
              "name": "scaledVariableDebt",
              "type": "uint256"
            },
            {
              "internalType": "uint256",
              "name": "principalStableDebt",
              "type": "uint256"
            },
            {
              "internalType": "uint256",
              "name": "stableBorrowLastUpdateTimestamp",
              "type": "uint256"
            },
            {
              "internalType": "uint256",
              "name": "aTokenincentivesUserIndex",
              "type": "uint256"
            },
            {
              "internalType": "uint256",
              "name": "vTokenincentivesUserIndex",
              "type": "uint256"
            },
            {
              "internalType": "uint256",
              "name": "sTokenincentivesUserIndex",
              "type": "uint256"
            }
          ],
          "internalType": "struct IUiPoolDataProvider.UserReserveData[]",
          "name": "",
          "type": "tuple[]"
        },
        {
          "internalType": "uint256",
          "name": "",
          "type": "uint256"
        },
        {
          "components": [
            {
              "internalType": "uint256",
              "name": "userUnclaimedRewards",
              "type": "uint256"
            },
            {
              "internalType": "uint256",
              "name": "emissionEndTimestamp",
              "type": "uint256"
            }
          ],
          "internalType": "struct IUiPoolDataProvider.IncentivesControllerData",
          "name": "",
          "type": "tuple"
        }
      ],
      "stateMutability": "view",
      "type": "function"
    },
    {
      "inputs": [],
      "name": "incentivesController",
      "outputs": [
        {
          "internalType": "contract IAaveIncentivesController",
          "name": "",
          "type": "address"
        }
      ],
      "stateMutability": "view",
      "type": "function"
    },
    {
      "inputs": [],
      "name": "oracle",
      "outputs": [
        {
          "internalType": "contract IPriceOracleGetter",
          "name": "",
          "type": "address"
        }
      ],
      "stateMutability": "view",
      "type": "function"
    }
  ],
  "bytecode": "0x60c06040523480156200001157600080fd5b506040516200214c3803806200214c833981016040819052620000349162000053565b6001600160601b0319606092831b8116608052911b1660a052620000aa565b6000806040838503121562000066578182fd5b8251620000738162000091565b6020840151909250620000868162000091565b809150509250929050565b6001600160a01b0381168114620000a757600080fd5b50565b60805160601c60a05160601c61203d6200010f6000398060a452806104765250806107c8528061080a52806108bd52806109705280610a205280610a475280610b065280610bc652806110465280611091528061111b52806111ca525061203d6000f3fe608060405234801561001057600080fd5b506004361061004c5760003560e01c80637dc0d1d01461005157806387e40db71461006f578063af1df25514610092578063b8c0a5b11461009a575b600080fd5b6100596100a2565b6040516100669190611c6e565b60405180910390f35b61008261007d3660046118f4565b6100c6565b6040516100669493929190611c9c565b6100596111c8565b6100596111ec565b7f000000000000000000000000000000000000000000000000000000000000000081565b60608060006100d3611586565b6000866001600160a01b0316630261bf8b6040518163ffffffff1660e01b815260040160206040518083038186803b15801561010e57600080fd5b505afa158015610122573d6000803e3d6000fd5b505050506040513d601f19601f820116820180604052508101906101469190611824565b90506000816001600160a01b031663d1946dbc6040518163ffffffff1660e01b815260040160006040518083038186803b15801561018357600080fd5b505afa158015610197573d6000803e3d6000fd5b505050506040513d6000823e601f3d908101601f191682016040526101bf9190810190611847565b90506000826001600160a01b0316634417a583896040518263ffffffff1660e01b81526004016101ef9190611c6e565b60206040518083038186803b15801561020757600080fd5b505afa15801561021b573d6000803e3d6000fd5b505050506040513d601f19601f8201168201806040525081019061023f9190611aa6565b90506000825167ffffffffffffffff8111801561025b57600080fd5b5060405190808252806020026020018201604052801561029557816020015b6102826115a0565b81526020019060019003908161027a5790505b50905060006001600160a01b038a166102af5760006102b2565b83515b67ffffffffffffffff811180156102c857600080fd5b5060405190808252806020026020018201604052801561030257816020015b6102ef61173e565b8152602001906001900390816102e75790505b50905060005b845181101561103357600083828151811061031f57fe5b6020026020010151905085828151811061033557fe5b60209081029190910101516001600160a01b039081168083526040516335ea6a7560e01b81526000928a16916335ea6a75916103749190600401611c6e565b6101806040518083038186803b15801561038d57600080fd5b505afa1580156103a1573d6000803e3d6000fd5b505050506040513d601f19601f820116820180604052508101906103c591906119b6565b60208101516001600160801b039081166101a085015260408083015182166101c0860152606083015182166101e08601526080830151821661020086015260a083015190911661022085015260c082015164ffffffffff1661024085015260e08201516001600160a01b03908116610260860152610100830151811661028086015261012083015181166102a086015261014083015181166102c08601528451915163b3596f0760e01b81529293507f0000000000000000000000000000000000000000000000000000000000000000169163b3596f07916104a991600401611c6e565b60206040518083038186803b1580156104c157600080fd5b505afa1580156104d5573d6000803e3d6000fd5b505050506040513d601f19601f820116820180604052508101906104f99190611ac1565b61038083015281516102608301516040516370a0823160e01b81526001600160a01b03909216916370a082319161053291600401611c6e565b60206040518083038186803b15801561054a57600080fd5b505afa15801561055e573d6000803e3d6000fd5b505050506040513d601f19601f820116820180604052508101906105829190611ac1565b826102e00181815250508161028001516001600160a01b031663797743386040518163ffffffff1660e01b815260040160806040518083038186803b1580156105ca57600080fd5b505afa1580156105de573d6000803e3d6000fd5b505050506040513d601f19601f820116820180604052508101906106029190611b06565b64ffffffffff16610340860152610320850152506103008301526102a08201516040805163b1bf962d60e01b815290516001600160a01b039092169163b1bf962d91600480820192602092909190829003018186803b15801561066457600080fd5b505afa158015610678573d6000803e3d6000fd5b505050506040513d601f19601f8201168201806040525081019061069c9190611ac1565b826103600181815250508161026001516001600160a01b03166395d89b416040518163ffffffff1660e01b815260040160006040518083038186803b1580156106e457600080fd5b505afa1580156106f8573d6000803e3d6000fd5b505050506040513d6000823e601f3d908101601f19168201604052610720919081019061192c565b604080840191909152805160208082019092526000815290830152805161074690611204565b60e0870152606086015260c085015260a08401526080830152805161076a9061122f565b1515610140860152151561012085015215156101808401521515610160830152608082015115156101008301526102c08201516107a69061126b565b6104008601526103e08501526103c08401526103a08301526001600160a01b037f00000000000000000000000000000000000000000000000000000000000000001615610a0757610260820151604051631652e7b760e01b81526001600160a01b037f00000000000000000000000000000000000000000000000000000000000000001691631652e7b79161083e9190600401611c6e565b60606040518083038186803b15801561085657600080fd5b505afa15801561086a573d6000803e3d6000fd5b505050506040513d601f19601f8201168201806040525081019061088e9190611ad9565b6104808501526104208401526104e0830152610280820151604051631652e7b760e01b81526001600160a01b037f00000000000000000000000000000000000000000000000000000000000000001691631652e7b7916108f19190600401611c6e565b60606040518083038186803b15801561090957600080fd5b505afa15801561091d573d6000803e3d6000fd5b505050506040513d601f19601f820116820180604052508101906109419190611ad9565b6104c08501526104608401526105208301526102a0820151604051631652e7b760e01b81526001600160a01b037f00000000000000000000000000000000000000000000000000000000000000001691631652e7b7916109a49190600401611c6e565b60606040518083038186803b1580156109bc57600080fd5b505afa1580156109d0573d6000803e3d6000fd5b505050506040513d601f19601f820116820180604052508101906109f49190611ad9565b6104a08501526104408401526105008301525b6001600160a01b038d1615611029576001600160a01b037f00000000000000000000000000000000000000000000000000000000000000001615610c85577f00000000000000000000000000000000000000000000000000000000000000006001600160a01b0316633373ee4c8e8461026001516040518363ffffffff1660e01b8152600401610a98929190611c82565b60206040518083038186803b158015610ab057600080fd5b505afa158015610ac4573d6000803e3d6000fd5b505050506040513d601f19601f82011682018060405250810190610ae89190611ac1565b848481518110610af457fe5b602002602001015160e00181815250507f00000000000000000000000000000000000000000000000000000000000000006001600160a01b0316633373ee4c8e846102a001516040518363ffffffff1660e01b8152600401610b57929190611c82565b60206040518083038186803b158015610b6f57600080fd5b505afa158015610b83573d6000803e3d6000fd5b505050506040513d601f19601f82011682018060405250810190610ba79190611ac1565b848481518110610bb357fe5b60200260200101516101000181815250507f00000000000000000000000000000000000000000000000000000000000000006001600160a01b0316633373ee4c8e8461028001516040518363ffffffff1660e01b8152600401610c17929190611c82565b60206040518083038186803b158015610c2f57600080fd5b505afa158015610c43573d6000803e3d6000fd5b505050506040513d601f19601f82011682018060405250810190610c679190611ac1565b848481518110610c7357fe5b60200260200101516101200181815250505b8160000151848481518110610c9657fe5b6020026020010151600001906001600160a01b031690816001600160a01b0316815250508161026001516001600160a01b0316631da24f3e8e6040518263ffffffff1660e01b8152600401610ceb9190611c6e565b60206040518083038186803b158015610d0357600080fd5b505afa158015610d17573d6000803e3d6000fd5b505050506040513d601f19601f82011682018060405250810190610d3b9190611ac1565b848481518110610d4757fe5b6020908102919091018101510152610d5f8684611444565b848481518110610d6b57fe5b6020908102919091010151901515604090910152610d898684611507565b1561102957816102a001516001600160a01b0316631da24f3e8e6040518263ffffffff1660e01b8152600401610dbf9190611c6e565b60206040518083038186803b158015610dd757600080fd5b505afa158015610deb573d6000803e3d6000fd5b505050506040513d601f19601f82011682018060405250810190610e0f9190611ac1565b848481518110610e1b57fe5b602002602001015160800181815250508161028001516001600160a01b031663c634dfaa8e6040518263ffffffff1660e01b8152600401610e5c9190611c6e565b60206040518083038186803b158015610e7457600080fd5b505afa158015610e88573d6000803e3d6000fd5b505050506040513d601f19601f82011682018060405250810190610eac9190611ac1565b848481518110610eb857fe5b602002602001015160a0018181525050838381518110610ed457fe5b602002602001015160a00151600014611029578161028001516001600160a01b031663e78c9b3b8e6040518263ffffffff1660e01b8152600401610f189190611c6e565b60206040518083038186803b158015610f3057600080fd5b505afa158015610f44573d6000803e3d6000fd5b505050506040513d601f19601f82011682018060405250810190610f689190611ac1565b848481518110610f7457fe5b602002602001015160600181815250508161028001516001600160a01b03166379ce6b8c8e6040518263ffffffff1660e01b8152600401610fb59190611c6e565b60206040518083038186803b158015610fcd57600080fd5b505afa158015610fe1573d6000803e3d6000fd5b505050506040513d601f19601f820116820180604052508101906110059190611b44565b64ffffffffff1684848151811061101857fe5b602002602001015160c00181815250505b5050600101610308565b5061103c611586565b6001600160a01b037f000000000000000000000000000000000000000000000000000000000000000016156111b0576001600160a01b038b161561111957604051630cc7d40f60e11b81526001600160a01b037f0000000000000000000000000000000000000000000000000000000000000000169063198fa81e906110c6908e90600401611c6e565b60206040518083038186803b1580156110de57600080fd5b505afa1580156110f2573d6000803e3d6000fd5b505050506040513d601f19601f820116820180604052508101906111169190611ac1565b81525b7f00000000000000000000000000000000000000000000000000000000000000006001600160a01b031663919cd40f6040518163ffffffff1660e01b815260040160206040518083038186803b15801561117257600080fd5b505afa158015611186573d6000803e3d6000fd5b505050506040513d601f19601f820116820180604052508101906111aa9190611ac1565b60208201525b919b909a506305f5e100995090975095505050505050565b7f000000000000000000000000000000000000000000000000000000000000000081565b7310f7fc1f91ba351f9c629c5947ad69bd03c05b9681565b5161ffff80821692601083901c821692602081901c831692603082901c60ff169260409290921c1690565b51670100000000000000811615159167020000000000000082161515916704000000000000008116151591670800000000000000909116151590565b600080600080846001600160a01b0316637b832f586040518163ffffffff1660e01b815260040160206040518083038186803b1580156112aa57600080fd5b505afa1580156112be573d6000803e3d6000fd5b505050506040513d601f19601f820116820180604052508101906112e29190611ac1565b856001600160a01b03166365614f816040518163ffffffff1660e01b815260040160206040518083038186803b15801561131b57600080fd5b505afa15801561132f573d6000803e3d6000fd5b505050506040513d601f19601f820116820180604052508101906113539190611ac1565b866001600160a01b0316630bdf953f6040518163ffffffff1660e01b815260040160206040518083038186803b15801561138c57600080fd5b505afa1580156113a0573d6000803e3d6000fd5b505050506040513d601f19601f820116820180604052508101906113c49190611ac1565b876001600160a01b031663ccab01a36040518163ffffffff1660e01b815260040160206040518083038186803b1580156113fd57600080fd5b505afa158015611411573d6000803e3d6000fd5b505050506040513d601f19601f820116820180604052508101906114359190611ac1565b93509350935093509193509193565b60006080821060405180604001604052806002815260200161373760f01b815250906114ee5760405162461bcd60e51b81526004018080602001828103825283818151815260200191508051906020019080838360005b838110156114b357818101518382015260200161149b565b50505050905090810190601f1680156114e05780820380516001836020036101000a031916815260200191505b509250505060405180910390fd5b5050815160016002830281019190911c16151592915050565b60006080821060405180604001604052806002815260200161373760f01b815250906115745760405162461bcd60e51b81526020600482018181528351602484015283519092839260449091019190850190808383600083156114b357818101518382015260200161149b565b50509051600160029092021c16151590565b604051806040016040528060008152602001600081525090565b60405180610540016040528060006001600160a01b031681526020016060815260200160608152602001600081526020016000815260200160008152602001600081526020016000815260200160001515815260200160001515815260200160001515815260200160001515815260200160001515815260200160006001600160801b0316815260200160006001600160801b0316815260200160006001600160801b0316815260200160006001600160801b0316815260200160006001600160801b03168152602001600064ffffffffff16815260200160006001600160a01b0316815260200160006001600160a01b0316815260200160006001600160a01b0316815260200160006001600160a01b03168152602001600081526020016000815260200160008152602001600081526020016000815260200160008152602001600081526020016000815260200160008152602001600081526020016000815260200160008152602001600081526020016000815260200160008152602001600081526020016000815260200160008152602001600081525090565b60405180610140016040528060006001600160a01b0316815260200160008152602001600015158152602001600081526020016000815260200160008152602001600081526020016000815260200160008152602001600081525090565b80516117a781611fef565b919050565b6000602082840312156117bd578081fd5b6040516020810181811067ffffffffffffffff821117156117da57fe5b6040529151825250919050565b80516001600160801b03811681146117a757600080fd5b805164ffffffffff811681146117a757600080fd5b805160ff811681146117a757600080fd5b600060208284031215611835578081fd5b815161184081611fef565b9392505050565b60006020808385031215611859578182fd5b825167ffffffffffffffff80821115611870578384fd5b818501915085601f830112611883578384fd5b81518181111561188f57fe5b838102915061189f848301611f9b565b8181528481019084860184860187018a10156118b9578788fd5b8795505b838610156118e757805194506118d285611fef565b848352600195909501949186019186016118bd565b5098975050505050505050565b60008060408385031215611906578081fd5b823561191181611fef565b9150602083013561192181611fef565b809150509250929050565b60006020828403121561193d578081fd5b815167ffffffffffffffff80821115611954578283fd5b818401915084601f830112611967578283fd5b81518181111561197357fe5b611986601f8201601f1916602001611f9b565b915080825285602082850101111561199c578384fd5b6119ad816020840160208601611fbf565b50949350505050565b60006101808083850312156119c9578182fd5b6119d281611f9b565b90506119de84846117ac565b81526119ec602084016117e7565b60208201526119fd604084016117e7565b6040820152611a0e606084016117e7565b6060820152611a1f608084016117e7565b6080820152611a3060a084016117e7565b60a0820152611a4160c084016117fe565b60c0820152611a5260e0840161179c565b60e0820152610100611a6581850161179c565b90820152610120611a7784820161179c565b90820152610140611a8984820161179c565b90820152610160611a9b848201611813565b908201529392505050565b600060208284031215611ab7578081fd5b61184083836117ac565b600060208284031215611ad2578081fd5b5051919050565b600080600060608486031215611aed578081fd5b8351925060208401519150604084015190509250925092565b60008060008060808587031215611b1b578081fd5b845193506020850151925060408501519150611b39606086016117fe565b905092959194509250565b600060208284031215611b55578081fd5b611840826117fe565b6001600160a01b03169052565b6000815180845260208085019450808401835b83811015611c0a578151611b93888251611b5e565b8381015184890152604080820151611bad828b0182611c15565b5050606081810151908901526080808201519089015260a0808201519089015260c0808201519089015260e08082015190890152610100808201519089015261012090810151908801526101409096019590820190600101611b7e565b509495945050505050565b15159052565b60008151808452611c33816020860160208601611fbf565b601f01601f19169290920160200192915050565b80518252602090810151910152565b6001600160801b03169052565b64ffffffffff169052565b6001600160a01b0391909116815260200190565b6001600160a01b0392831681529116602082015260400190565b60a080825285518282018190526000919060c09081850190602080820287018401818c01875b84811015611f645760bf198a84030186528151610540611ce3858351611b5e565b858201518187870152611cf882870182611c1b565b91505060408083015186830382880152611d128382611c1b565b9250505060608083015181870152506080808301518187015250898201518a860152888201518986015260e080830151818701525061010080830151611d5a82880182611c15565b505061012080830151611d6f82880182611c15565b505061014080830151611d8482880182611c15565b505061016080830151611d9982880182611c15565b505061018080830151611dae82880182611c15565b50506101a080830151611dc382880182611c56565b50506101c080830151611dd882880182611c56565b50506101e080830151611ded82880182611c56565b505061020080830151611e0282880182611c56565b505061022080830151611e1782880182611c56565b505061024080830151611e2c82880182611c63565b505061026080830151611e4182880182611b5e565b505061028080830151611e5682880182611b5e565b50506102a080830151611e6b82880182611b5e565b50506102c080830151611e8082880182611b5e565b50506102e08281015190860152610300808301519086015261032080830151908601526103408083015190860152610360808301519086015261038080830151908601526103a080830151908601526103c080830151908601526103e08083015190860152610400808301519086015261042080830151908601526104408083015190860152610460808301519086015261048080830151908601526104a080830151908601526104c080830151908601526104e0808301519086015261050080830151908601526105209182015191909401529483019490830190600101611cc2565b505087810382890152611f77818c611b6b565b9650505050505050836040830152611f926060830184611c47565b95945050505050565b60405181810167ffffffffffffffff81118282101715611fb757fe5b604052919050565b60005b83811015611fda578181015183820152602001611fc2565b83811115611fe9576000848401525b50505050565b6001600160a01b038116811461200457600080fd5b5056fea26469706673582212204cccca24c0b9dde7d6cea2e7883a774ef77d3fe175435fcb9049c58a78bbe6b364736f6c63430007060033",
  "linkReferences": {},
  "deployedLinkReferences": {}
}