{
  "_format": "hh-sol-artifact-1",
  "contractName": "WalletBalanceProvider",
  "sourceName": "contracts/misc/WalletBalanceProvider.sol",
  "abi": [
    {
      "inputs": [
        {
          "internalType": "address",
          "name": "user",
          "type": "address"
        },
        {
          "internalType": "address",
          "name": "token",
          "type": "address"
        }
      ],
      "name": "balanceOf",
      "outputs": [
        {
          "internalType": "uint256",
          "name": "",
          "type": "uint256"
        }
      ],
      "stateMutability": "view",
      "type": "function"
    },
    {
      "inputs": [
        {
          "internalType": "address[]",
          "name": "users",
          "type": "address[]"
        },
        {
          "internalType": "address[]",
          "name": "tokens",
          "type": "address[]"
        }
      ],
      "name": "batchBalanceOf",
      "outputs": [
        {
          "internalType": "uint256[]",
          "name": "",
          "type": "uint256[]"
        }
      ],
      "stateMutability": "view",
      "type": "function"
    },
    {
      "inputs": [
        {
          "internalType": "address",
          "name": "provider",
          "type": "address"
        },
        {
          "internalType": "address",
          "name": "user",
          "type": "address"
        }
      ],
      "name": "getUserWalletBalances",
      "outputs": [
        {
          "internalType": "address[]",
          "name": "",
          "type": "address[]"
        },
        {
          "internalType": "uint256[]",
          "name": "",
          "type": "uint256[]"
        }
      ],
      "stateMutability": "view",
      "type": "function"
    },
    {
      "stateMutability": "payable",
      "type": "receive"
    }
  ],
  "bytecode": "0x608060405234801561001057600080fd5b50610a55806100206000396000f3fe6080604052600436106100385760003560e01c80630240534314610072578063b59b28ef146100a9578063f7888aec146100d65761006d565b3661006d5761004633610103565b61006b5760405162461bcd60e51b8152600401610062906109be565b60405180910390fd5b005b600080fd5b34801561007e57600080fd5b5061009261008d366004610735565b61013f565b6040516100a0929190610924565b60405180910390f35b3480156100b557600080fd5b506100c96100c436600461076d565b6104ab565b6040516100a09190610984565b3480156100e257600080fd5b506100f66100f1366004610735565b610588565b6040516100a091906109da565b6000813f7fc5d2460186f7233c927e7db2dcc703c0e500b653ca82273b7bfad8045d85a47081811480159061013757508115155b949350505050565b6060806000846001600160a01b0316630261bf8b6040518163ffffffff1660e01b815260040160206040518083038186803b15801561017d57600080fd5b505afa158015610191573d6000803e3d6000fd5b505050506040513d601f19601f820116820180604052508101906101b59190610719565b90506000816001600160a01b031663d1946dbc6040518163ffffffff1660e01b815260040160006040518083038186803b1580156101f257600080fd5b505afa158015610206573d6000803e3d6000fd5b505050506040513d6000823e601f3d908101601f1916820160405261022e91908101906107d6565b90506000815160010167ffffffffffffffff8111801561024d57600080fd5b50604051908082528060200260200182016040528015610277578160200160208202803683370190505b50905060005b82518110156102c65782818151811061029257fe5b60200260200101518282815181106102a657fe5b6001600160a01b039092166020928302919091019091015260010161027d565b5073eeeeeeeeeeeeeeeeeeeeeeeeeeeeeeeeeeeeeeee818351815181106102e957fe5b60200260200101906001600160a01b031690816001600160a01b0316815250506000815167ffffffffffffffff8111801561032357600080fd5b5060405190808252806020026020018201604052801561034d578160200160208202803683370190505b50905060005b8351811015610465576000856001600160a01b031663c44b11f785848151811061037957fe5b60200260200101516040518263ffffffff1660e01b815260040161039d9190610910565b60206040518083038186803b1580156103b557600080fd5b505afa1580156103c9573d6000803e3d6000fd5b505050506040513d601f19601f820116820180604052508101906103ed9190610883565b905060006103fa82610678565b50505090508061042557600084848151811061041257fe5b602002602001018181525050505061045d565b6104428a86858151811061043557fe5b6020026020010151610588565b84848151811061044e57fe5b60200260200101818152505050505b600101610353565b506104848773eeeeeeeeeeeeeeeeeeeeeeeeeeeeeeeeeeeeeeee610588565b8184518151811061049157fe5b6020908102919091010152909450925050505b9250929050565b6060600084830267ffffffffffffffff811180156104c857600080fd5b506040519080825280602002602001820160405280156104f2578160200160208202803683370190505b50905060005b8581101561057e5760005b848110156105755761055088888481811061051a57fe5b905060200201602081019061052f91906106f6565b87878481811061053b57fe5b90506020020160208101906100f191906106f6565b83518490848802840190811061056257fe5b6020908102919091010152600101610503565b506001016104f8565b5095945050505050565b60006001600160a01b03821673eeeeeeeeeeeeeeeeeeeeeeeeeeeeeeeeeeeeeeee14156105c057506001600160a01b03821631610672565b6105d2826001600160a01b0316610103565b1561065a576040516370a0823160e01b81526001600160a01b038316906370a0823190610603908690600401610910565b60206040518083038186803b15801561061b57600080fd5b505afa15801561062f573d6000803e3d6000fd5b505050506040513d601f19601f8201168201806040525081019061065391906108be565b9050610672565b60405162461bcd60e51b815260040161006290610997565b92915050565b51670100000000000000811615159167020000000000000082161515916704000000000000008116151591670800000000000000909116151590565b60008083601f8401126106c5578081fd5b50813567ffffffffffffffff8111156106dc578182fd5b60208301915083602080830285010111156104a457600080fd5b600060208284031215610707578081fd5b813561071281610a07565b9392505050565b60006020828403121561072a578081fd5b815161071281610a07565b60008060408385031215610747578081fd5b823561075281610a07565b9150602083013561076281610a07565b809150509250929050565b60008060008060408587031215610782578182fd5b843567ffffffffffffffff80821115610799578384fd5b6107a5888389016106b4565b909650945060208701359150808211156107bd578384fd5b506107ca878288016106b4565b95989497509550505050565b600060208083850312156107e8578182fd5b825167ffffffffffffffff808211156107ff578384fd5b818501915085601f830112610812578384fd5b81518181111561081e57fe5b838102915061082e8483016109e3565b8181528481019084860184860187018a1015610848578788fd5b8795505b83861015610876578051945061086185610a07565b8483526001959095019491860191860161084c565b5098975050505050505050565b600060208284031215610894578081fd5b6040516020810181811067ffffffffffffffff821117156108b157fe5b6040529151825250919050565b6000602082840312156108cf578081fd5b5051919050565b6000815180845260208085019450808401835b83811015610905578151875295820195908201906001016108e9565b509495945050505050565b6001600160a01b0391909116815260200190565b604080825283519082018190526000906020906060840190828701845b828110156109665781516001600160a01b031684529284019290840190600101610941565b5050508381038285015261097a81866108d6565b9695505050505050565b60006020825261071260208301846108d6565b6020808252600d908201526c24a72b20a624a22faa27a5a2a760991b604082015260600190565b602080825260029082015261191960f11b604082015260600190565b90815260200190565b60405181810167ffffffffffffffff811182821017156109ff57fe5b604052919050565b6001600160a01b0381168114610a1c57600080fd5b5056fea2646970667358221220522f9e86e11de973c9362edece18069c35228aeb6190927280af7e6f097b197264736f6c63430007060033",
  "linkReferences": {},
  "deployedLinkReferences": {}
}