{
  "_format": "hh-sol-artifact-1",
  "contractName": "WETHGateway",
  "sourceName": "contracts/misc/WETHGateway.sol",
  "abi": [
    {
      "inputs": [
        {
          "internalType": "address",
          "name": "weth",
          "type": "address"
        }
      ],
      "stateMutability": "nonpayable",
      "type": "constructor"
    },
    {
      "anonymous": false,
      "inputs": [
        {
          "indexed": true,
          "internalType": "address",
          "name": "previousOwner",
          "type": "address"
        },
        {
          "indexed": true,
          "internalType": "address",
          "name": "newOwner",
          "type": "address"
        }
      ],
      "name": "OwnershipTransferred",
      "type": "event"
    },
    {
      "stateMutability": "payable",
      "type": "fallback"
    },
    {
      "inputs": [
        {
          "internalType": "address",
          "name": "lendingPool",
          "type": "address"
        }
      ],
      "name": "authorizeLendingPool",
      "outputs": [],
      "stateMutability": "nonpayable",
      "type": "function"
    },
    {
      "inputs": [
        {
          "internalType": "address",
          "name": "lendingPool",
          "type": "address"
        },
        {
          "internalType": "uint256",
          "name": "amount",
          "type": "uint256"
        },
        {
          "internalType": "uint256",
          "name": "interesRateMode",
          "type": "uint256"
        },
        {
          "internalType": "uint16",
          "name": "referralCode",
          "type": "uint16"
        }
      ],
      "name": "borrowETH",
      "outputs": [],
      "stateMutability": "nonpayable",
      "type": "function"
    },
    {
      "inputs": [
        {
          "internalType": "address",
          "name": "lendingPool",
          "type": "address"
        },
        {
          "internalType": "address",
          "name": "onBehalfOf",
          "type": "address"
        },
        {
          "internalType": "uint16",
          "name": "referralCode",
          "type": "uint16"
        }
      ],
      "name": "depositETH",
      "outputs": [],
      "stateMutability": "payable",
      "type": "function"
    },
    {
      "inputs": [
        {
          "internalType": "address",
          "name": "to",
          "type": "address"
        },
        {
          "internalType": "uint256",
          "name": "amount",
          "type": "uint256"
        }
      ],
      "name": "emergencyEtherTransfer",
      "outputs": [],
      "stateMutability": "nonpayable",
      "type": "function"
    },
    {
      "inputs": [
        {
          "internalType": "address",
          "name": "token",
          "type": "address"
        },
        {
          "internalType": "address",
          "name": "to",
          "type": "address"
        },
        {
          "internalType": "uint256",
          "name": "amount",
          "type": "uint256"
        }
      ],
      "name": "emergencyTokenTransfer",
      "outputs": [],
      "stateMutability": "nonpayable",
      "type": "function"
    },
    {
      "inputs": [],
      "name": "getWETHAddress",
      "outputs": [
        {
          "internalType": "address",
          "name": "",
          "type": "address"
        }
      ],
      "stateMutability": "view",
      "type": "function"
    },
    {
      "inputs": [],
      "name": "owner",
      "outputs": [
        {
          "internalType": "address",
          "name": "",
          "type": "address"
        }
      ],
      "stateMutability": "view",
      "type": "function"
    },
    {
      "inputs": [],
      "name": "renounceOwnership",
      "outputs": [],
      "stateMutability": "nonpayable",
      "type": "function"
    },
    {
      "inputs": [
        {
          "internalType": "address",
          "name": "lendingPool",
          "type": "address"
        },
        {
          "internalType": "uint256",
          "name": "amount",
          "type": "uint256"
        },
        {
          "internalType": "uint256",
          "name": "rateMode",
          "type": "uint256"
        },
        {
          "internalType": "address",
          "name": "onBehalfOf",
          "type": "address"
        }
      ],
      "name": "repayETH",
      "outputs": [],
      "stateMutability": "payable",
      "type": "function"
    },
    {
      "inputs": [
        {
          "internalType": "address",
          "name": "newOwner",
          "type": "address"
        }
      ],
      "name": "transferOwnership",
      "outputs": [],
      "stateMutability": "nonpayable",
      "type": "function"
    },
    {
      "inputs": [
        {
          "internalType": "address",
          "name": "lendingPool",
          "type": "address"
        },
        {
          "internalType": "uint256",
          "name": "amount",
          "type": "uint256"
        },
        {
          "internalType": "address",
          "name": "to",
          "type": "address"
        }
      ],
      "name": "withdrawETH",
      "outputs": [],
      "stateMutability": "nonpayable",
      "type": "function"
    },
    {
      "stateMutability": "payable",
      "type": "receive"
    }
  ],
  "bytecode": "0x60a060405234801561001057600080fd5b5060405161167438038061167483398101604081905261002f9161009c565b6000610039610098565b600080546001600160a01b0319166001600160a01b0383169081178255604051929350917f8be0079c531659141344cd1fd0a4f28419497f9722a3daafe3b4186f6b6457e0908290a35060601b6001600160601b0319166080526100ca565b3390565b6000602082840312156100ad578081fd5b81516001600160a01b03811681146100c3578182fd5b9392505050565b60805160601c6115526101226000398060b05280610263528061035052806103e65280610486528061051c528061059c528061061352806107555280610909528061099f5280610b015280610cf052506115526000f3fe6080604052600436106100a05760003560e01c80638da5cb5b116100645780638da5cb5b1461018b578063a3d5b255146101b6578063affa8817146101d6578063eed88b8d146101eb578063f2fde38b1461020b578063fd1495291461022b576100f8565b806302c5fcf814610110578063474cf53d1461012357806366514c9714610136578063715018a61461015657806380500d201461016b576100f8565b366100f857336001600160a01b037f000000000000000000000000000000000000000000000000000000000000000016146100f65760405162461bcd60e51b81526004016100ed906113f0565b60405180910390fd5b005b60405162461bcd60e51b81526004016100ed906113c2565b6100f661011e3660046110d1565b61024b565b6100f6610131366004610fdf565b610484565b34801561014257600080fd5b506100f661015136600461111a565b610578565b34801561016257600080fd5b506100f661068c565b34801561017757600080fd5b506100f6610186366004611090565b61072e565b34801561019757600080fd5b506101a0610a18565b6040516101ad91906112c2565b60405180910390f35b3480156101c257600080fd5b506100f66101d1366004611025565b610a27565b3480156101e257600080fd5b506101a0610aff565b3480156101f757600080fd5b506100f6610206366004611065565b610b23565b34801561021757600080fd5b506100f6610226366004610fbc565b610b89565b34801561023757600080fd5b506100f6610246366004610fbc565b610c81565b6000806102f483876001600160a01b03166335ea6a757f00000000000000000000000000000000000000000000000000000000000000006040518263ffffffff1660e01b815260040161029e91906112c2565b6101806040518083038186803b1580156102b757600080fd5b505afa1580156102cb573d6000803e3d6000fd5b505050506040513d601f19601f820116820180604052508101906102ef9190611181565b610d7b565b90925090506000600185600281111561030957fe5b600281111561031457fe5b1461031f5781610321565b825b90508086101561032e5750845b8034101561034e5760405162461bcd60e51b81526004016100ed9061144a565b7f00000000000000000000000000000000000000000000000000000000000000006001600160a01b031663d0e30db0826040518263ffffffff1660e01b81526004016000604051808303818588803b1580156103a957600080fd5b505af11580156103bd573d6000803e3d6000fd5b505060405163573ade8160e01b81526001600160a01b038b16935063573ade81925061041491507f00000000000000000000000000000000000000000000000000000000000000009034908a908a90600401611363565b602060405180830381600087803b15801561042e57600080fd5b505af1158015610442573d6000803e3d6000fd5b505050506040513d601f19601f820116820180604052508101906104669190611271565b508034111561047b5761047b33823403610e83565b50505050505050565b7f00000000000000000000000000000000000000000000000000000000000000006001600160a01b031663d0e30db0346040518263ffffffff1660e01b81526004016000604051808303818588803b1580156104df57600080fd5b505af11580156104f3573d6000803e3d6000fd5b505060405163e8eda9df60e01b81526001600160a01b038716935063e8eda9df925061054a91507f000000000000000000000000000000000000000000000000000000000000000090349087908790600401611336565b600060405180830381600087803b15801561056457600080fd5b505af115801561047b573d6000803e3d6000fd5b60405163a415bcad60e01b81526001600160a01b0385169063a415bcad906105cc907f000000000000000000000000000000000000000000000000000000000000000090879087908790339060040161138e565b600060405180830381600087803b1580156105e657600080fd5b505af11580156105fa573d6000803e3d6000fd5b5050604051632e1a7d4d60e01b81526001600160a01b037f0000000000000000000000000000000000000000000000000000000000000000169250632e1a7d4d915061064a908690600401611491565b600060405180830381600087803b15801561066457600080fd5b505af1158015610678573d6000803e3d6000fd5b505050506106863384610e83565b50505050565b610694610f15565b6000546001600160a01b039081169116146106e4576040805162461bcd60e51b815260206004820181905260248201526000805160206114fd833981519152604482015290519081900360640190fd5b600080546040516001600160a01b03909116907f8be0079c531659141344cd1fd0a4f28419497f9722a3daafe3b4186f6b6457e0908390a3600080546001600160a01b0319169055565b6040516335ea6a7560e01b81526000906001600160a01b038516906335ea6a759061077d907f0000000000000000000000000000000000000000000000000000000000000000906004016112c2565b6101806040518083038186803b15801561079657600080fd5b505afa1580156107aa573d6000803e3d6000fd5b505050506040513d601f19601f820116820180604052508101906107ce9190611181565b60e0015190506000816001600160a01b03166370a08231336040518263ffffffff1660e01b815260040161080291906112c2565b60206040518083038186803b15801561081a57600080fd5b505afa15801561082e573d6000803e3d6000fd5b505050506040513d601f19601f820116820180604052508101906108529190611271565b9050836000198114156108625750805b6040516323b872dd60e01b81526001600160a01b038416906323b872dd90610892903390309086906004016112d6565b602060405180830381600087803b1580156108ac57600080fd5b505af11580156108c0573d6000803e3d6000fd5b505050506040513d601f19601f820116820180604052508101906108e49190611161565b50604051631a4ca37b60e21b81526001600160a01b038716906369328dec90610935907f00000000000000000000000000000000000000000000000000000000000000009085903090600401611313565b602060405180830381600087803b15801561094f57600080fd5b505af1158015610963573d6000803e3d6000fd5b505050506040513d601f19601f820116820180604052508101906109879190611271565b50604051632e1a7d4d60e01b81526001600160a01b037f00000000000000000000000000000000000000000000000000000000000000001690632e1a7d4d906109d4908490600401611491565b600060405180830381600087803b1580156109ee57600080fd5b505af1158015610a02573d6000803e3d6000fd5b50505050610a108482610e83565b505050505050565b6000546001600160a01b031690565b610a2f610f15565b6000546001600160a01b03908116911614610a7f576040805162461bcd60e51b815260206004820181905260248201526000805160206114fd833981519152604482015290519081900360640190fd5b60405163a9059cbb60e01b81526001600160a01b0384169063a9059cbb90610aad90859085906004016112fa565b602060405180830381600087803b158015610ac757600080fd5b505af1158015610adb573d6000803e3d6000fd5b505050506040513d601f19601f820116820180604052508101906106869190611161565b7f000000000000000000000000000000000000000000000000000000000000000090565b610b2b610f15565b6000546001600160a01b03908116911614610b7b576040805162461bcd60e51b815260206004820181905260248201526000805160206114fd833981519152604482015290519081900360640190fd5b610b858282610e83565b5050565b610b91610f15565b6000546001600160a01b03908116911614610be1576040805162461bcd60e51b815260206004820181905260248201526000805160206114fd833981519152604482015290519081900360640190fd5b6001600160a01b038116610c265760405162461bcd60e51b81526004018080602001828103825260268152602001806114d76026913960400191505060405180910390fd5b600080546040516001600160a01b03808516939216917f8be0079c531659141344cd1fd0a4f28419497f9722a3daafe3b4186f6b6457e091a3600080546001600160a01b0319166001600160a01b0392909216919091179055565b610c89610f15565b6000546001600160a01b03908116911614610cd9576040805162461bcd60e51b815260206004820181905260248201526000805160206114fd833981519152604482015290519081900360640190fd5b60405163095ea7b360e01b81526001600160a01b037f0000000000000000000000000000000000000000000000000000000000000000169063095ea7b390610d29908490600019906004016112fa565b602060405180830381600087803b158015610d4357600080fd5b505af1158015610d57573d6000803e3d6000fd5b505050506040513d601f19601f82011682018060405250810190610b859190611161565b6000808261010001516001600160a01b03166370a08231856040518263ffffffff1660e01b815260040180826001600160a01b0316815260200191505060206040518083038186803b158015610dd057600080fd5b505afa158015610de4573d6000803e3d6000fd5b505050506040513d6020811015610dfa57600080fd5b5051610120840151604080516370a0823160e01b81526001600160a01b038881166004830152915191909216916370a08231916024808301926020929190829003018186803b158015610e4c57600080fd5b505afa158015610e60573d6000803e3d6000fd5b505050506040513d6020811015610e7657600080fd5b5051909590945092505050565b604080516000808252602082019092526001600160a01b038416908390604051610ead9190611289565b60006040518083038185875af1925050503d8060008114610eea576040519150601f19603f3d011682016040523d82523d6000602084013e610eef565b606091505b5050905080610f105760405162461bcd60e51b81526004016100ed9061141d565b505050565b3390565b8051610f24816114be565b919050565b600060208284031215610f3a578081fd5b6040516020810181811067ffffffffffffffff82111715610f5757fe5b6040529151825250919050565b80516fffffffffffffffffffffffffffffffff81168114610f2457600080fd5b803561ffff81168114610f2457600080fd5b805164ffffffffff81168114610f2457600080fd5b805160ff81168114610f2457600080fd5b600060208284031215610fcd578081fd5b8135610fd8816114be565b9392505050565b600080600060608486031215610ff3578182fd5b8335610ffe816114be565b9250602084013561100e816114be565b915061101c60408501610f84565b90509250925092565b600080600060608486031215611039578283fd5b8335611044816114be565b92506020840135611054816114be565b929592945050506040919091013590565b60008060408385031215611077578182fd5b8235611082816114be565b946020939093013593505050565b6000806000606084860312156110a4578283fd5b83356110af816114be565b92506020840135915060408401356110c6816114be565b809150509250925092565b600080600080608085870312156110e6578081fd5b84356110f1816114be565b93506020850135925060408501359150606085013561110f816114be565b939692955090935050565b6000806000806080858703121561112f578384fd5b843561113a816114be565b9350602085013592506040850135915061115660608601610f84565b905092959194509250565b600060208284031215611172578081fd5b81518015158114610fd8578182fd5b6000610180808385031215611194578182fd5b61119d8161149a565b90506111a98484610f29565b81526111b760208401610f64565b60208201526111c860408401610f64565b60408201526111d960608401610f64565b60608201526111ea60808401610f64565b60808201526111fb60a08401610f64565b60a082015261120c60c08401610f96565b60c082015261121d60e08401610f19565b60e0820152610100611230818501610f19565b90820152610120611242848201610f19565b90820152610140611254848201610f19565b90820152610160611266848201610fab565b908201529392505050565b600060208284031215611282578081fd5b5051919050565b60008251815b818110156112a9576020818601810151858301520161128f565b818111156112b75782828501525b509190910192915050565b6001600160a01b0391909116815260200190565b6001600160a01b039384168152919092166020820152604081019190915260600190565b6001600160a01b03929092168252602082015260400190565b6001600160a01b0393841681526020810192909252909116604082015260600190565b6001600160a01b03948516815260208101939093529216604082015261ffff909116606082015260800190565b6001600160a01b03948516815260208101939093526040830191909152909116606082015260800190565b6001600160a01b0395861681526020810194909452604084019290925261ffff166060830152909116608082015260a00190565b60208082526014908201527311985b1b189858dac81b9bdd08185b1b1bddd95960621b604082015260600190565b602080825260139082015272149958d95a5d99481b9bdd08185b1b1bddd959606a1b604082015260600190565b60208082526013908201527211551217d514905394d1915497d19052531151606a1b604082015260600190565b60208082526027908201527f6d73672e76616c7565206973206c657373207468616e2072657061796d656e7460408201526608185b5bdd5b9d60ca1b606082015260800190565b90815260200190565b60405181810167ffffffffffffffff811182821017156114b657fe5b604052919050565b6001600160a01b03811681146114d357600080fd5b5056fe4f776e61626c653a206e6577206f776e657220697320746865207a65726f20616464726573734f776e61626c653a2063616c6c6572206973206e6f7420746865206f776e6572a26469706673582212201e0fb1011771e60ec604ff28e9b4dcc19750f64e2fb4e7f1f215a0bd7b76c8c464736f6c63430007060033",
  "linkReferences": {},
  "deployedLinkReferences": {}
}