{
  "_format": "hh-sol-artifact-1",
  "contractName": "WitnetPriceFeed",
  "sourceName": "contracts/misc/WitnetPriceFeed.sol",
  "abi": [
    {
      "inputs": [
        {
          "internalType": "contract IERC2362",
          "name": "_oracle",
          "type": "address"
        },
        {
          "internalType": "bytes4",
          "name": "_erc2362id",
          "type": "bytes4"
        },
        {
          "internalType": "uint256",
          "name": "_decimals",
          "type": "uint256"
        },
        {
          "internalType": "uint256",
          "name": "_timeout",
          "type": "uint256"
        }
      ],
      "stateMutability": "nonpayable",
      "type": "constructor"
    },
    {
      "anonymous": false,
      "inputs": [
        {
          "indexed": false,
          "internalType": "uint256",
          "name": "_lastGoodPrice",
          "type": "uint256"
        }
      ],
      "name": "LastGoodPriceUpdated",
      "type": "event"
    },
    {
      "anonymous": false,
      "inputs": [
        {
          "indexed": false,
          "internalType": "enum WitnetPriceFeed.Status",
          "name": "newStatus",
          "type": "uint8"
        }
      ],
      "name": "PriceFeedStatusChanged",
      "type": "event"
    },
    {
      "inputs": [],
      "name": "DECIMAL_PRECISION",
      "outputs": [
        {
          "internalType": "uint256",
          "name": "",
          "type": "uint256"
        }
      ],
      "stateMutability": "view",
      "type": "function"
    },
    {
      "inputs": [],
      "name": "MAX_PRICE_DEVIATION_FROM_PREVIOUS_ROUND",
      "outputs": [
        {
          "internalType": "uint256",
          "name": "",
          "type": "uint256"
        }
      ],
      "stateMutability": "view",
      "type": "function"
    },
    {
      "inputs": [],
      "name": "MAX_PRICE_DIFFERENCE_BETWEEN_ORACLES",
      "outputs": [
        {
          "internalType": "uint256",
          "name": "",
          "type": "uint256"
        }
      ],
      "stateMutability": "view",
      "type": "function"
    },
    {
      "inputs": [],
      "name": "TARGET_DIGITS",
      "outputs": [
        {
          "internalType": "uint256",
          "name": "",
          "type": "uint256"
        }
      ],
      "stateMutability": "view",
      "type": "function"
    },
    {
      "inputs": [],
      "name": "TIMEOUT",
      "outputs": [
        {
          "internalType": "uint256",
          "name": "",
          "type": "uint256"
        }
      ],
      "stateMutability": "view",
      "type": "function"
    },
    {
      "inputs": [],
      "name": "decimals",
      "outputs": [
        {
          "internalType": "uint256",
          "name": "",
          "type": "uint256"
        }
      ],
      "stateMutability": "view",
      "type": "function"
    },
    {
      "inputs": [],
      "name": "erc2362id",
      "outputs": [
        {
          "internalType": "bytes4",
          "name": "",
          "type": "bytes4"
        }
      ],
      "stateMutability": "view",
      "type": "function"
    },
    {
      "inputs": [],
      "name": "fetchPrice",
      "outputs": [
        {
          "internalType": "uint256",
          "name": "",
          "type": "uint256"
        }
      ],
      "stateMutability": "view",
      "type": "function"
    },
    {
      "inputs": [],
      "name": "lastGoodPrice",
      "outputs": [
        {
          "internalType": "uint256",
          "name": "",
          "type": "uint256"
        }
      ],
      "stateMutability": "view",
      "type": "function"
    },
    {
      "inputs": [],
      "name": "oracle",
      "outputs": [
        {
          "internalType": "contract IERC2362",
          "name": "",
          "type": "address"
        }
      ],
      "stateMutability": "view",
      "type": "function"
    },
    {
      "inputs": [],
      "name": "status",
      "outputs": [
        {
          "internalType": "enum WitnetPriceFeed.Status",
          "name": "",
          "type": "uint8"
        }
      ],
      "stateMutability": "view",
      "type": "function"
    },
    {
      "inputs": [],
      "name": "updatePrice",
      "outputs": [
        {
          "internalType": "uint256",
          "name": "",
          "type": "uint256"
        }
      ],
      "stateMutability": "nonpayable",
      "type": "function"
    }
  ],
  "bytecode": "0x60a06040523480156200001157600080fd5b5060405162000c8038038062000c80833981810160405260808110156200003757600080fd5b50805160208201516040830151606090930151600080546001600160a01b0319166001600160a01b0385161763ffffffff60a01b1916600160a01b60e085901c02178155600185905560808290526003805460ff19169055929391926200009d62000131565b9050620000aa8162000203565b158015620000d4575081620000d28260200151426200025860201b620002b71790919060201c565b105b620001115760405162461bcd60e51b815260040180806020018281038252602d81526020018062000c32602d913960400191505060405180910390fd5b8051600154620001229190620002ab565b60025550620004e09350505050565b6200013b620004bd565b6000546040805163f78eea8360e01b81526001600160e01b0319600160a01b840460e01b16600482015290516001600160a01b039092169163f78eea8391602480820192606092909190829003018186803b1580156200019a57600080fd5b505afa925050508015620001d057506040513d6060811015620001bc57600080fd5b508051602082015160409092015190919060015b620001db5762000200565b620001ef83600154620002ab60201b60201c565b845250602083015250600160408201525b90565b60008160400151620002185750600162000253565b602082015115806200022d5750428260200151115b156200023c5750600162000253565b81516000126200024f5750600162000253565b5060005b919050565b6000620002a283836040518060400160405280601e81526020017f536166654d6174683a207375627472616374696f6e206f766572666c6f7700008152506200031160201b60201c565b90505b92915050565b60008060128310620002df57620002d760128403600a0a85620003ac60201b620003021790919060201c565b9050620002a2565b6012831015620002a2576200030983601203600a0a85620003f660201b620003441790919060201c565b949350505050565b60008184841115620003a45760405162461bcd60e51b81526004018080602001828103825283818151815260200191508051906020019080838360005b83811015620003685781810151838201526020016200034e565b50505050905090810190601f168015620003965780820380516001836020036101000a031916815260200191505b509250505060405180910390fd5b505050900390565b6000620002a283836040518060400160405280601a81526020017f536166654d6174683a206469766973696f6e206279207a65726f0000000000008152506200045460201b60201c565b6000826200040757506000620002a5565b828202828482816200041557fe5b0414620002a25760405162461bcd60e51b815260040180806020018281038252602181526020018062000c5f6021913960400191505060405180910390fd5b60008183620004a65760405162461bcd60e51b8152602060048201818152835160248401528351909283926044909101919085019080838360008315620003685781810151838201526020016200034e565b506000838581620004b357fe5b0495945050505050565b604051806060016040528060008152602001600081526020016000151581525090565b6080516107326200050060003980610295528061063652506107326000f3fe608060405234801561001057600080fd5b50600436106100b45760003560e01c806358a6aa881161007157806358a6aa881461011c578063673a7e28146101245780637dc0d1d01461012c578063a20baee614610150578063efac30df14610158578063f56f48f21461017d576100b4565b80630490be83146100b95780630fdb11cf146100d35780631be5c92f146100db578063200d2ed2146100e3578063313ce5671461010c57806345079cb414610114575b600080fd5b6100c1610185565b60408051918252519081900360200190f35b6100c161018b565b6100c161019e565b6100eb6101a3565b604051808260018111156100fb57fe5b815260200191505060405180910390f35b6100c16101ac565b6100c16101b2565b6100c16101bd565b6100c16101c9565b610134610268565b604080516001600160a01b039092168252519081900360200190f35b6100c1610277565b610160610283565b604080516001600160e01b03199092168252519081900360200190f35b6100c1610293565b60025481565b60008061019661039d565b925050505b90565b601281565b60035460ff1681565b60015481565b66b1a2bc2ec5000081565b6706f05b59d3b2000081565b60008060006101d661039d565b600281905590925090508160018111156101ec57fe5b60035460ff1660018111156101fd57fe5b14610262576003805483919060ff19166001838181111561021a57fe5b02179055507f5c57579a8214fe4f710c1c56fa829f045b9fa6d225a744225a30c32188064d4e826040518082600181111561025157fe5b815260200191505060405180910390a15b91505090565b6000546001600160a01b031681565b670de0b6b3a764000081565b600054600160a01b900460e01b81565b7f000000000000000000000000000000000000000000000000000000000000000081565b60006102f983836040518060400160405280601e81526020017f536166654d6174683a207375627472616374696f6e206f766572666c6f770000815250610424565b90505b92915050565b60006102f983836040518060400160405280601a81526020017f536166654d6174683a206469766973696f6e206279207a65726f0000000000008152506104bb565b600082610353575060006102fc565b8282028284828161036057fe5b04146102f95760405162461bcd60e51b81526004018080602001828103825260218152602001806106dc6021913960400191505060405180910390fd5b60008060006103aa610520565b9050600060035460ff1660018111156103bf57fe5b14156103fc576103ce816105e4565b806103dd57506103dd81610632565b156103f057505060025460019150610420565b51600092509050610420565b600160035460ff16600181111561040f57fe5b141561041e576103ce816105e4565b505b9091565b600081848411156104b35760405162461bcd60e51b81526004018080602001828103825283818151815260200191508051906020019080838360005b83811015610478578181015183820152602001610460565b50505050905090810190601f1680156104a55780820380516001836020036101000a031916815260200191505b509250505060405180910390fd5b505050900390565b6000818361050a5760405162461bcd60e51b8152602060048201818152835160248401528351909283926044909101919085019080838360008315610478578181015183820152602001610460565b50600083858161051657fe5b0495945050505050565b6105286106b8565b6000546040805163f78eea8360e01b81526001600160e01b0319600160a01b840460e01b16600482015290516001600160a01b039092169163f78eea8391602480820192606092909190829003018186803b15801561058657600080fd5b505afa9250505080156105ba57506040513d60608110156105a657600080fd5b508051602082015160409092015190919060015b6105c35761019b565b6105cf83600154610673565b8452506020830152506001604082015261019b565b600081604001516105f75750600161062d565b6020820151158061060b5750428260200151115b156106185750600161062d565b81516000126106295750600161062d565b5060005b919050565b60007f000000000000000000000000000000000000000000000000000000000000000061066c8360200151426102b790919063ffffffff16565b1192915050565b600080601283106106965761068f846011198501600a0a610302565b90506102f9565b60128310156102f9576106b0846012859003600a0a610344565b949350505050565b60405180606001604052806000815260200160008152602001600015158152509056fe536166654d6174683a206d756c7469706c69636174696f6e206f766572666c6f77a26469706673582212209f9e53197789bb5bf625443e882176c9432d8e333af100d9d0db9cc5bf71395364736f6c634300070600335072696365466565643a205769746e6574206d75737420626520776f726b696e6720616e642063757272656e74536166654d6174683a206d756c7469706c69636174696f6e206f766572666c6f77",
  "linkReferences": {},
  "deployedLinkReferences": {}
}